:020000040000fa
:100000000200de021003000000000002100b0000de
:10001000000000021013000000000002101b00008e
:10002000000000021023000000000002102b00005e
:10003000000000021033000000000002103b00002e
:10004000000000021043000000000002104b0000fe
:10005000000000021053000000000002105b0000ce
:10006000000000021063000000000002106b00009e
:10007000000000021073000000000002107b00006e
:10008000000000021083000000000002108b00003e
:10009000000000020a771200f0b900030200d8e461
:1000a000900002781b79028002f0a3d8fcd9fa9064
:1000b000011caa82ab839000f6780f79018015e4c9
:1000c00093a3ac82ad838a828b83f0a3aa82ab8395
:1000d0008c828d83d8e9d9e712049e120a9675d0d6
:1000e0000075813f75188075931e5392fe0200962d
:1000f00079015392fe22001000100000f800ffff6b
:1001000000100000e4936670130874019366700c8d
:1001100008740293667005087403936622c3e09620
:1001200008a3e09608a3e09608a3e09622c3e49310
:100130009608740193960874029396087403939634
:10014000226016080808c6c313c618c613c618c608
:1001500013c618c613c6d5e0ea22e026f008a3e0cd
:1001600036f008a3e036f008a3e036f022e056f6b9
:1001700008a3e056f608a3e056f608a3e056f622d8
:10018000e0f608a3e0f608a3e0f608a3e0f622c92b
:10019000c0e0e7f20809e7f20809e7f20809e7f228
:1001a000d0e0f922e0faa3e0fba3e0fca3e0fd220b
:1001b000eaf0a3ebf0a3ecf0a3edf022cac0e0e676
:1001c000f30908dafad0e0fa22e4735392fed083fe
:1001d000d0822518f8c518c39824fbcef208e52074
:1001e000f208e9c0e07908e709f208defad0e0f9a0
:1001f000eff208d0e0fed0e0f208eef208e473a8d7
:1002000018e2fe08e208f520e9c0e07908e208f704
:1002100009dffae208ffd0e0f9e208c0e0e208c036
:10022000e088185392fe22e584f208e585f222e286
:1002300008f584e2f5852274028000c9c0e0e51863
:10024000c399f518c91201bcd0e0f922d083d0823d
:10025000ecc0e0edc0e0eec0e0efc0e0e493a3fc52
:10026000e493a3fde493a3fee493a3ffef4e4d4c70
:1002700060151202c8ec24fffced34fffdee34ffe4
:10028000feef34ffff80e5e493a3fce493a3fde4d9
:1002900093a3fee493a3ffef4e4d4c6015120305ac
:1002a000ec24fffced34fffdee34fffeef34ffffe6
:1002b00080e5d0e0ffd0e0fed0e0fdd0e0fce493ac
:1002c000a3c0e0e493c0e022c0e0c0f088f01201d7
:1002d0002da8f04007120104a8f0701aa3a3a3a34d
:1002e00012012da8f0a3a3a3a34013d0f0d0e0d017
:1002f000e0d0e00202b2a3a3a3a3a3a3a3a3a3a35a
:10030000d0f0d0e022c0e0c0f088f0120104a8f0e4
:10031000a3a3a3a3700bd0f0d0e0d0e0d0e0020202
:10032000b2a3a3d0f0d0e02274022408f874003401
:1003300000f9e4e9f8f5d374022408f5d25392feeb
:1003400022a2afe433f8c2af5392fe906270e0a2f3
:10035000e740f5e9c333906272f0906270e0d2e05a
:10036000f0906270e0a2e740f8e8fae8a2e092af0d
:100370005392fe2274fa1201cba2afe433f8c2af5b
:10038000ecfeedffe4effe900002f0ec900003f0d5
:100390009000047462f09000057473f0900006748d
:1003a00000f0e9900007f09000087412f090000946
:1003b0007442f0eafeebffe4effe906272f0ea9026
:1003c0006271f07e027f00e4effef5d575d4027510
:1003d000d601906270e0d2e1f0906270e0a2e74056
:1003e000f8e8fee8a2e092af7f010201ff5392fe1f
:1003f000906276e054706430700474038002740775
:10040000f875c680e59e648070fa9062707408f09a
:1004100088c790ff0ae0f5f190ff0be0f5f390ff3d
:100420000ce0f5f490ff0de0f5f590ff02e0f586a5
:1004300090ff03e0f5c490ff04e0f5c590ff05e0f0
:10044000f5c290ff06e0f5f890ff07e0f5fb90ff9e
:1004500008e0f5fc90ff09e0f5faa2fe500ee5f188
:10046000a2e14008e5ff543f4440f5ff5392fe22cd
:1004700074fa1201cb7900ecfeedffee24fffcefe5
:1004800034fffdee4f60128a828b83e029f98a8265
:100490008b83a3aa82ab8380de7f010201ffe51874
:1004a00024ecf5187e005392fe900001e090001ab3
:1004b000f07ea5e5c7f50975c7007c007d707a0060
:1004c0007b90120470e92efe8509c77508037f0131
:1004d000efc39508501ae5c7f5098fc77c007d80ea
:1004e0007a007b80120470e92efe8509c70f80e038
:1004f000ee7027e59d54186410700890001ae0a271
:10050000e040179000017403f0059290011ce0f5a3
:1005100082a3e0f58305921201c91203ed90000158
:100520007400f01203281208da7480c0e0e518a8fd
:1005300018d0e0f27404c0e0e5182401f8d0e0f22d
:100540007409c0e0e5182402f8d0e0f27400c0e0bd
:10055000e5182403f8d0e0f2750c00750d00750e57
:1005600000750f00e5182404f8740c12018fe4f5ef
:100570000af50b780a1202377c007d00e518240288
:10058000faab93e5182403f8e22404f91205980560
:10059000180518120a6c80fb74f71201cb15181598
:1005a00018a81812022789088a848b85ecfeedffb3
:1005b000e518240bf8e2f50a08e2f50b780a1202b6
:1005c00037eefceffdaa84ab85a9081208de0518fa
:1005d0000518a81812022f051805187f040201ff3c
:1005e00074f71201cbe518249cf518eafeebff8e98
:1005f000828f837808120180900122780812016da1
:10060000780812024c000000000500000000000005
:10061000004f08000009004f08000009012d0600e6
:100620000009021c0700000903ec07cb0890012613
:1006300078081201808e828f83a3a3a3a378081267
:10064000011d50637400c0e0e5182450f8d0e0f2ba
:100650007402c0e0e5182451f8d0e0f27409c0e05b
:10066000e5182452f8d0e0f27401c0e0e5182453f4
:10067000f8d0e0f2e5182454f87480f2087401f21e
:10068000e4f508f50978081202377c007d00e518ca
:100690002452faab93e5182453f8e22404f9120526
:1006a000980518051880728e828f83a3a3a3a312c6
:1006b00001a490011e1201b07400c0e0e518243cb2
:1006c000f8d0e0f27402c0e0e518243df8d0e0f282
:1006d0007409c0e0e518243ef8d0e0f27401c0e0ef
:1006e000e518243ff8d0e0f2e5182440f87400f251
:1006f000087400f2e4f508f50978081202377c0066
:100700007d00e518243efaab93e518243ff8e22477
:1007100004f9120598051805180208cb90011e78f7
:1007200008120180e50854fff8e5095407f9e84983
:10073000701490011e7808120180740b7808120161
:1007400041a9081203418e828f83a3a3a3a3e0f9da
:10075000ee2405fcef3400fd90011e7808120180a4
:1007600074027808120141aa08ab091203748e8240
:100770008f83a3a3a3a3e0f508e4f509f50af50b1d
:1007800090011e780812015a7400c0e0e518242870
:10079000f8d0e0f27402c0e0e5182429f8d0e0f2c5
:1007a0007409c0e0e518242af8d0e0f27402c0e031
:1007b000e518242bf8d0e0f2e518242cf87400f2a8
:1007c000087400f2e4f508f50978081202377c0095
:1007d0007d00e518242afaab93e518242bf8e224cf
:1007e00004f9120598051805180208cb7400c0e03a
:1007f000e5182414f8d0e0f27402c0e0e5182415de
:10080000f8d0e0f27409c0e0e5182416f8d0e0f260
:100810007403c0e0e5182417f8d0e0f2e5182418b6
:10082000f87400f2087400f2e4f508f5097808128b
:1008300002377c007d00e5182416faab93e51824f6
:1008400017f8e22404f912059805180518807c8e23
:10085000828f83a3a3a3a3e0606c7480c0e0e5183b
:10086000a818d0e0f27404c0e0e5182401f8d0e044
:10087000f27409c0e0e5182402f8d0e0f27400c078
:10088000e0e5182403f8d0e0f2750800750900755a
:100890000a00750b00e5182404f8740812018fe4af
:1008a000f508f50978081202377c007d00e5182468
:1008b00002faab93e5182403f8e22404f912059830
:1008c00005180518800575c90880fe92f0e5182402
:1008d00064f518a2f07f040201ff5392fe2274fa1d
:1008e0001201cb15181518a818120227e9fee518f1
:1008f0002408f8e2f58208e2f583059290001be0f7
:10090000a2e05040eeff74ff2ffeef6018e586a2d4
:10091000e040fa8a848b85e0f5c18a848b85a3aa9e
:1009200084ab8580dfecf8edf9e824fffce934ffc7
:10093000fde849600fe586a2e040fa5392fee0f53b
:10094000c1a380e143920190001be05402603e8eff
:100950000874ff2508fee5086016a2f840fc8a84aa
:100960008b85e0f5f98a848b85a3aa84ab8580df2b
:10097000ecf8edf9e824fffce934fffde849600def
:10098000a2f840fc5392fee0f5f9a380e3a8181208
:10099000022f051805187f010201ffecf8edf9e8b8
:1009a00024fffce934fffde849604ae586a2e24005
:1009b00004a2fa50f6e586a2e2501a5392fe900085
:1009c0001be04401f0e5c18a828b83f08a828b832d
:1009d000a3aa82ab83a2fa50c25392fe90001be0fe
:1009e0004402f0e5f98a828b83f08a828b83a3aa82
:1009f00082ab8380a65392fe2274fa1201cb1518a3
:100a00001518a81812022775841c7585007c047db2
:100a1000007a1c7b0012099b0592e0f879005407cc
:100a2000f8e95400f9e4c8f9e8fee9ff8584828515
:100a300085830592a3e0f879004efee94fffee4f63
:100a40006011eefceffde5842404fae5853400fb3b
:100a500012099baa84ab851205e07a017b00a818d5
:100a600012022f051805187f010201ff1209f95320
:100a700092fe225392fe2274fa1201cb1518151819
:100a8000eafeebffa818eef208eff2aa18ab937992
:100a900001120a7380ee12009322ffffffffffff97
:100aa000ffffffffffffffffffffffffffffffff56
:100ab000ffffffffffffffffffffffffffffffff46
:100ac000ffffffffffffffffffffffffffffffff36
:100ad000ffffffffffffffffffffffffffffffff26
:100f000012010002000000205824feff0000010230
:100f1000030109021b0001010480250904000000ef
:100f2000fe01020409210d03e84000010104030948
:100f300004120342006c00750065006700690067d9
:100f400000610016034c006f007700200045006e22
:100f50000065007200670079000a03310032003337
:100f6000003400080344004600550000ffffffff67
:100f7000ffffffffffffffffffffffffffffffff81
:100f8000ffffffffffffffffffffffffffffffff71
:100f9000ffffffffffffffffffffffffffffffff61
:100fa000ffffffffffffffffffffffffffffffff51
:100fb000ffffffffffffffffffffffffffffffff41
:100fc000ffffffffffffffffffffffffffffffff31
:100fd000ffffffffffffffffffffffffffffffff21
:100fe000ffffffffffffffffffffffffffffffff11
:100ff000ffffffffffffffffffffffffffffffff01
:101000000210f7022f4bffffffffff023a06ffff20
:10101000ffffff023b0bffffffffff023bbfffff96
:10102000ffffff0224f4ffffffffff0237b2ffffc5
:10103000ffffffffffffffffffffff023b63ffff1d
:10104000ffffff023ae6ffffffffffffffffffff8b
:10105000ffffff022f30ffffffffffffffffffff3c
:10106000ffffffffffffffffffffff023932ffff20
:10107000ffffff023c32ffffffffff0239bdffff12
:10108000ffffff022f567582f675837f74001211e1
:1010900012121133b900030210e1e479347802b876
:1010a00000028004f709d8fce490030278e0790597
:1010b0008002f0a3d8fcd9fa9007e1aa82ab839012
:1010c0001139786579028015e493a3ac82ad838ae7
:1010d000828b83f0a3aa82ab838c828d83d8e9d9db
:1010e000e77582c67583d774021211127582c575b1
:1010f00083e1740212111275d00075813f753100c1
:10110000753202753303759f007593005392fe028a
:101110001091c09ff59fe473d09f225392fed0831d
:10112000d082c09fe493c0e0740193c0e074029346
:10113000f59f2279015392fe22030000020102036f
:1011400000000f00c3a88ee8b19dcf7f5eb98b9fd2
:1011500041efb055f401fa00960064004b003200f4
:101160001e001400d6be898e00010602121315144b
:1011700029417671ffc1fbe84c90728be7b351892e
:1011800063ab232302841872aa612f3b51a8e53771
:1011900049fbc9ca0c18532cfd45e300400000ff71
:1011a000fffffffaffffff00008000620000000564
:1011b000000600070000000100010000010001021c
:1011c000020300020000000000020201000240428f
:1011d0000f0019000000093d0000e4fffffffb3491
:1011e0009b5f8000008000100000000000000700ee
:1011f0000000ff00000000000201050000000000e8
:10120000020200800100010000000000010803004c
:1012100000000000000d0000000700000104800035
:101220000100008000000000070a04000000000028
:10123000070900000805d11ad71add1ae31ae91abe
:10124000ef1a591a331c151c991c811c871c80002d
:101250000405020000008000040606000000800073
:10126000040280000404800002000b0000008000e3
:101270000600ff1117c3130f193514931c391c8b6b
:101280001b9f1c531aff530601ffffff00000000c5
:1012900080ffffffff00000000c000000012111bd4
:1012a0003fb30212111b57b30212111b82b3021279
:1012b000111bcfb30212111be8b30212111b1ab497
:1012c0000212111b58b40212111b8ab40212111b14
:1012d00001b50212111b16b50212111b35b502120f
:1012e000111b5ab50212111bb1b50212111b48badb
:1012f0000212111bfcba0212111b07de0212111b93
:101300001fde0212111b90de0212111bd3de02122d
:10131000111b28cb0212111b81cb0212111be9cb2e
:101320000212111b01cc0212111b2bcc0212111b39
:1013300045cc0212111b79cc0212111bcfcc021228
:10134000111b0acd0212111bbacd0212111bdecde8
:101350000212111b66ce0212111b91ce0212111b3a
:10136000d3ce0212111bf8ce0212111b0ccf0212a7
:10137000111b21cf0212111bc9cf0212111b5fc614
:101380000212111b7bc60212111bb5c60212111be1
:10139000c3c60212111bf4c60212111b21c702128e
:1013a000111b2ac70212111b6dc70212111bf0c7b5
:1013b0000212111b61c80212111bafc80212111bcd
:1013c000dfc80212111b34c90212111b08ca021213
:1013d000111b13ca0212111b46ca0212111b7fca2b
:1013e0000212111bd1ca0212111b0ecb0212111bc9
:1013f00003e10212111b23e10212111b4ce1021244
:10140000111b1fe00212111b33e00212111b8ae0b4
:101410000212111baee10212111b9cdf0212111b02
:10142000c9df0212111be2a00212111b49a1021214
:10143000111b60a10212111ba4a10212111beaa12f
:101440000212111b44a20212111b98a30212111bbb
:10145000c0a40212111b62a50212111b86a5021262
:10146000111bc8a50212111b76a60212111bc4a6dd
:101470000212111b21a70212111b34a70212111b09
:1014800034a80212111b54a90212111bcaa902127c
:10149000111b133d0012111bbe3e0012111b423fd7
:1014a0000012111b95400012111b07410012111b65
:1014b00041410012111b0f420012111b9d420012ec
:1014c000111b60430012111b88440012111b7c4544
:1014d0000012111bbd460012111b13470012111bf5
:1014e0007b470012111bf8470012111b994800128c
:1014f000111b0b490012111ba4490012111b0a4aaf
:101500000012111b784a0012111bcd4a0012111b48
:10151000634b0012111b164c0012111bdd4c001204
:10152000111bb04e0012111bfb500012111b405139
:101530000012111bbc510012111b24520012111b6e
:1015400072520012111b18540012111bb8540012d1
:10155000111b3d550012111b7e550012111bee563a
:101560000012111b4f570012111b65580012111b5e
:1015700065590012111b8e5a0012111be95b0012f3
:10158000111baa5d0012111b5a600012111be860aa
:101590000012111ba5610012111b98620012111b91
:1015a000fc620012111b3f670012111ba56900129b
:1015b000111b776a0012111bea6c0012111bf46deb
:1015c0000012111b216f0012111b386f0012111b2a
:1015d00030fd0112111b6efd0112111bd5fd011210
:1015e000111b01fe0112111bcdfe0112111ba4ffe4
:1015f0000112111b917e0012111bea7e0012111bb9
:101600004b7f0012111b00800112111b1e80011262
:10161000111b3b800112111b58800112111bda8033
:101620000112111b6d810112111b3f830112111b4d
:10163000a5830112111b18840112111b558401127c
:10164000111b8a840112111bcc840112111b3a85d3
:101650000112111be8850112111bf6850112111be5
:1016600032870112111b5a890112111be6890112de
:10167000111b1a8a0112111b488b0112111b738c4a
:101680000112111b948c0112111be88c0112111b09
:10169000108d0112111b4c8d0112111b7f8d011237
:1016a000111b9a910112111bc2910112111b0e9272
:1016b0000112111b97970112111bdd970112111bcb
:1016c0001d980112111bd3980112111baa99011226
:1016d000111b209c0112111b919d0112111b029ed6
:1016e0000112111b3ca00112111bb4a00112111b0d
:1016f000f8a00112111b46a10112111b99a10112a0
:10170000111b35a20112111b8aa20112111be5a2a5
:101710000112111befa20112111b2ca40112111bab
:101720004da40112111be0a40112111baca5011262
:10173000111b58a60112111b09a80112111b2ba87d
:101740000112111b48aa0112111b9dab0112111ba2
:101750003aac0112111ba0ac0112111b38ad0112e1
:10176000111b28af0112111b39af0112111b43af1e
:101770000112111b32b10112111b8fb10112111b89
:10178000ccb10112111b39b20112111b68b2011246
:10179000111b11b30112111b8cb30112111bedb3fc
:1017a0000112111b63b40112111b82b40112111b2f
:1017b000b7b40112111bedb40112111b4cb501128b
:1017c000111b5ab50112111b99b50112111b0ab652
:1017d0000112111b8ada0212111b4ddb0212111bbe
:1017e0006fdb0212111bbadb0212111bfddb0212ae
:1017f000111b90e10212111b0df00112111b39f0a7
:101800000112111b85f00112111bd2f00112111be4
:101810004ef10112111bbef30112111bf0f4011263
:10182000111bf8f70112111b07f90112111bfdf929
:101830000112111b84fb0112111bfffb0112111b72
:1018400011fd0112111bcfcf0212111bfbcf02128f
:10185000111b11d00212111babd00212111bd3d1dc
:101860000212111b00800212111b67800212111b51
:1018700084800212111bb1800212111bdd80021242
:10188000111b11810212111b5e810212111b8b812f
:101890000212111bee810212111b49820212111b4e
:1018a0000e830212111b8c830212111b2e85021251
:1018b000111be6850212111ba8880212111b248c31
:1018c0000212111b668c0212111be88c0212111bf2
:1018d000a08d0212111b9b8f0212111b3f9002124e
:1018e000111b80900212111bff900212111b5791c5
:1018f0000212111b7d910212111bd0910212111bb9
:1019000011920212111b8d930212111ba794021245
:10191000111bb8940212111b39960212111b4f961b
:101920000212111b77960212111b16970212111b3d
:101930002b970212111b5d970212111b7598021250
:10194000111b0c990212111b42990212111b8b9947
:101950000212111b3e9a0212111b999a0212111bbc
:101960009e9b0212111bf29b0212111b369c02124b
:10197000111b7d9d0212111be19f0212111b11a070
:101980000212111b79a00212111b50dc0212111b52
:101990005ddc0212111b80dc0212111bc3dd02127e
:1019a000111bd0dd0212111bfedd0212111b84c1be
:1019b0000212111ba3c10212111b6ec20212111bd3
:1019c00014c40212111b72c40212111ba7c5021209
:1019d000111b10c60212111b01df0212111b2fdf97
:1019e0000212111b5fdf0212111b75d20212111bb2
:1019f00002d30212111b34d30212111ba5d30212ff
:101a0000111b49d40212111b71d40212111bd6b63c
:101a10000112111b2db70112111b7bb70112111bf3
:101a200052b80112111b46b90112111b66bb0112fb
:101a3000111bfdbc0112111b83bd0112111b4bbefa
:101a40000112111b63bf0112111bd4bf0112111b24
:101a500080c00112111b01c10112111bbdc1011275
:101a6000111b2cc40112111ba3c40112111b43c56d
:101a70000112111bedc50112111b01c70112111b2f
:101a8000f4c70112111bfccb0112111ba0cd0112d6
:101a9000111bebce0112111bb8d10112111ba3d4e3
:101aa0000112111b64d60112111bf2d80112111b75
:101ab00020dd0112111b99de0112111b27df01121b
:101ac000111bb1df0112111b05e00112111baad875
:101ad0000212111b28d90212111b3ed90212111b2e
:101ae00054d90212111b6ad90212111b8bd902128e
:101af000111ba1d90212111bb7d90212111b1c769e
:101b00000012111b87760012111be9760012111bbf
:101b10000f770012111bd3770012111b7d78001272
:101b2000111bc8780012111b67790012111bca79aa
:101b30000012111b3b7a0012111bad7a0012111b0f
:101b4000c07a0012111bd47a0012111b097b0012fb
:101b5000111b3b7b0012111b6d7b0012111bbc7b08
:101b60000012111bfc7b0012111b507c0012111b78
:101b70005f7c0012111b687c0012111b207d00127b
:101b8000111b6f7e0012111b24bb0212111b1abc09
:101b90000212111babbd0212111b86be0212111bd9
:101ba000efbe0212111b2abf0212111b79bf0212d3
:101bb000111bc2bf0212111b0bc00212111bdbc092
:101bc0000212111bf6c00212111b11c10212111bcd
:101bd00023c10212111b35c10212111b4ac102128c
:101be000111b5ec10212111b6cc10212111b78c1c4
:101bf0000212111bc6d60212111b13d70212111b9f
:101c000028e00112111bcfe00112111b35ed01126a
:101c1000111b6aed0112111b77ef0112111bccd4bd
:101c20000212111b34d50212111b58d50212111bbe
:101c3000a7d50212111bfcd50212111ba3d602124a
:101c4000111bbcd60212111bf7aa0212111b14abf6
:101c50000212111b24ac0212111b85ac0212111bc3
:101c600030ad0212111bbcae0212111b6aaf021280
:101c7000111bb1af0212111b1ab00212111b7eb060
:101c80000212111bd2b00212111b61b10212111b00
:101c9000dfb10212111ba8b20212111beaff0112de
:101ca000111beeff0112111bf0ff0112111bf6ffb9
:101cb0000112111b86100012111b96e00212111b5b
:101cc000a37f0012111b61e102e066701008a3e01f
:101cd00066700a08a3e066700408a3e06622c3e702
:101ce000960809e7960809e7960809e796a2d265db
:101cf000d03322c3e09608a3e09608a3e09608a399
:101d0000e096a2d265d03322c021c3e096f5210827
:101d1000a3e096422108a3e096422108a3e0964260
:101d200021a2d265d033e5217001d3d02122c3e7af
:101d3000960809e7960809e7960809e79622c3e09e
:101d40009608a3e09608a3e09608a3e09622c02197
:101d5000c3e096f52108a3e096422108a3e096424d
:101d60002108a3e09645217001d3d021220808085c
:101d7000eac0e0ebc0e086f0e7a4fa180986f0e7d5
:101d8000a42afa180986f0e7a42afa180986f0e7c7
:101d9000a42afa1986f0e7a4fbe5f02afa190886c6
:101da000f0e7a42bfbe5f03afa190886f0e7a42b3c
:101db000fbe5f03afa18180986f0e7a4c5f02bfb0a
:101dc000e43afa1908e7c5f0c6a426f6e5f03bfbad
:101dd000e43afa1886f0e7a4f6e5f00826f6e43bc4
:101de00008f6e43a08f6d0e0fbd0e0fa22e4cfc0ef
:101df000e0e4cec0e0e4cdc0e0e4ccc0e075f0208b
:101e0000c3e633f608e633f608e633f608e633f6bb
:101e1000181818ec33fced33fdee33feef33ffc33f
:101e2000ec9709ed9709ee9709ef97191919400feb
:101e3000ffec97fc09ed97fd09ee97fe191906d501
:101e4000f0beecf709edf709eef709eff7191919ec
:101e5000d0e0fcd0e0fdd0e0fed0e0ff22121ec5b5
:101e6000181818121ded121eb419191922121eb4d9
:101e7000191919080808e618181820e7e0121dedce
:101e8000121ec518181822090909e719191920e79f
:101e9000dc080808e618181820e703021ded121eda
:101ea000c5181818121ded121ec5181818121eb4e8
:101eb00019191922e4c397f709e497f709e497f78a
:101ec00009e497f722e4c396f608e496f608e49648
:101ed000f608e496f6226017080808c6a2e713c6bb
:101ee00018c613c618c613c618c613c6d5e0e9220d
:101ef0006016080808c6c313c618c613c618c6134a
:101f0000c618c613c6d5e0ea227009080808226080
:101f100016181818c6c333c608c633c608c633c653
:101f200008c633c6d5e0ea22e627f60809e637f602
:101f30000809e637f60809e637f622e026f608a390
:101f4000e036f608a3e036f608a3e036f622e026ef
:101f5000f008a3e036f008a3e036f008a3e036f07e
:101f600022c3e697f60809e697f60809e697f60809
:101f700009e697f622c3e0c696f608a3e0c696f6f1
:101f800008a3e0c696f608a3e0c696f622e056f649
:101f900008a3e056f608a3e056f608a3e056f6229a
:101fa000e647f60809e647f60809e647f60809e6af
:101fb00047f622e046f608a3e046f608a3e046f618
:101fc00008a3e046f622e046f008a3e046f008a3a6
:101fd000e046f008a3e046f022e066f608a3e066db
:101fe000f608a3e066f608a3e066f622e0f608a38a
:101ff000e0f608a3e0f608a3e0f622e6f008a3e680
:10200000f008a3e6f008a3e6f022e0faa3e0fba3c1
:10201000e0fca3e0fd22eaf0a3ebf0a3ecf0a3eddb
:10202000f022cac0e0e6f0a308dafad0e0fa22ca49
:10203000c0e0e0a30592f0a30592daf6d0e0ca2250
:102040005392fefae9fb7921e7f0a309dafae8f006
:10205000a3ebf9f0a3ecf0a3edf0a3eef0a3eff007
:10206000a3e520f0a3e5f0f0a3e592f0a3e584f06a
:10207000a3e585f0a3e581f0a3e531f0a3e532f017
:10208000a3e533f0a3d0e0fad0e0f0a3caf0eac0b1
:10209000e0e0c0e07a007b00225392fecac0e0eb91
:1020a000c0e07921e0f7a309dafae0f8a3e0f9a3a8
:1020b000e0fca3e0fda3e0fea3e0ffa3e0f520a386
:1020c000e0f5f0a3e0c0e0a3e0f584a3e0f585a38c
:1020d000d0e0f592d0e0fbd0e0fae0f581a3e0f5a6
:1020e00031a3e0f532a3e0f533a3d0e0d0e0e0c0c7
:1020f000e0a3e0c0e0ea4b70027a0122b90010bb15
:102100000008e88af084f8aaf022e4fbc8fa22eb7f
:1021100070227b10c833c8c933c9335007c39ac370
:10212000dbf280069a50012adbeac833f4c8c933cf
:10213000f4c9fa2275f008e4c833c8c933c933c9f1
:102140009ac99b5004c92ac93bd5f0ecfbc833f4ab
:10215000c8e4c9fa22600d08c6a2e713c618c61360
:10216000c6d5e0f322600c08c6c313c618c613c652
:10217000d5e0f422700422600d18c6c333c608c629
:1021800033c6d5e0f41822253210af08f5324002ec
:1021900015338008f53240021533d2af22c0d02566
:1021a0003210af08f532500205338008f532500284
:1021b0000533d2afd0d0222532f58210af08f532e8
:1021c000400215338008f53240021533d2af853313
:1021d0008322c5822532c582c583353310af07f50a
:1021e000338582328007f533858232d2afc58322b0
:1021f0002532f582e43533f583222532f584e43542
:1022000033f58522e4735392fe2532c582c0e0e5a2
:102210003334ffc583c0e0e532c3958224f810afa4
:10222000088583338582328008858333858232d264
:10223000afcef0a3e520f0a37821e608f0a3defa04
:10224000eff0a3e58124faf8e608f0a3e608f0a38e
:10225000e608f0a30808e608f0a3e608f0a3158155
:102260001581d0e0fed0e0f8158115811581e8c018
:10227000e0eec0e0225392fe2532c582c0e0e53395
:1022800034ffc583c0e0e532c3958224f910af085e
:102290008583338582328008858333858232d2af4d
:1022a000cef0a3e520f0a37821e608f0a3defaef54
:1022b000f0a3e58124fbf8e608f0a3e608f0a30804
:1022c00008e608f0a3e608f0a315811581d0e0fe2a
:1022d000d0e0f815811581e8c0e0eec0e02253920d
:1022e000fe853383853282e0a3fee0a3f5207821ca
:1022f000e0a3f608dffae0a3ffe0a3c0e0e0a3c09c
:10230000e0e0a3c0e0e0a3c0e0e0a3c0e010af08bd
:102310008582328583338008858232858333d2afcc
:10232000d083d0825392fe0211185392fe853383dc
:10233000853282e0a3fee0a3f5207821e0a3f60831
:10234000dffae0a3ffe0a3c0e0e0a3c0e0e0a3c0a9
:10235000e0e0a3c0e010af088582328583338008b7
:10236000858232858333d2afd083d0825392fe22ce
:10237000c0925392fec0d02532c582c0e0e533340e
:10238000ffc583c0e0e532c3958224f210af088513
:1023900083338582328008858333858232d2afc809
:1023a000f0a3e9f0a3eaf0a3ebf0a37921e709f0a9
:1023b000a3d8faecf0a3edf0a3eef0a3eff0a3d0d6
:1023c000e0f0a3d0e0f0a3d0e0f0a3e520f0a3e597
:1023d000f0f0a3d0e0f0225392fe85338385328261
:1023e000e0c0e0a3e0f9a3e0faa3e0fba37821e0da
:1023f000f608a3dffae0fca3e0fda3e0fea3e0ff04
:10240000a3e0c0e0a3e0c0e0a3e0f5d0a3e0f520a6
:10241000a3e0a3f5f0e0a3c0e010af088583338507
:1024200082328008858333858232d2afd0e0d08279
:10243000d083f592d0e0f8d0e032e584f0a3e585d2
:10244000f022e0a3f584e0f585227404800674028e
:1024500080027401c0e0f4041221b7d0e0122022ff
:102460002274048006740280027401c0e0f4041235
:1024700021b7d0e012202f22d083d082c5f0e49380
:10248000a3c5f0c395f0f5f0e493a3c395f0400520
:10249000e5f0048001e475f002a42582f582e5f000
:1024a0003583f583e493a3c0e0e493c0e022d083b6
:1024b000d082e9c0e0e493a3c386f0c5f095f0f9bb
:1024c00008e493a386f0c5f095f0700be493a3c3e2
:1024d000994005e9048002a3e475f002a42582f581
:1024e00082e5f03583f583d0e0f9e493a3c0e0e41e
:1024f00093c0e022c0e0c0d075d008c092c082c0b6
:1025000083c0f0759800e5a8f8c2af5392fe90041e
:10251000d6e0d2e1f0753400e8a2e7e433fee8a2a9
:10252000e792af1212e5d0f0d083d082d092d0d013
:10253000d0e032c082c0835392fe906059e0f890a0
:1025400004a5e028f0906058e0f89004a6e028f098
:1025500090605a12256c90605e12256c90605ce071
:10256000f89004a8e028f0d083d08222e0f890040c
:10257000a7e028f022c082c0835392fe9004a5e415
:10258000f0a3f0a3f0a380de74f712227579001295
:1025900019879003f1122dadeac398f8eb99f9e889
:1025a0002404fee93400ff9003fee0fca3e0fdc339
:1025b000ee9cef9d402e9003fce0fca3e0fd900418
:1025c00000e02af8a3e03bf9e8c39cf8e99df99004
:1025d00003f1122da4a3ecf0a3edf09003feecf0b8
:1025e000a3ed80239003f1122a7a9003fe122ba10f
:1025f0009003fe122dad9003f3122da49003fae088
:1026000070047402800114f07aef7b031235e1024a
:10261000363474f7122275e9600924fe601d1460d7
:102620001a80329003f8e0a2e350099003fbe060c7
:1026300024148020c2e2f0d2e380199003f8e0a2d3
:10264000e2500c9003fbe06408600ae0048005c2dd
:10265000e3f0d2e2f09003f9e070089003f774ff22
:10266000f0804890600a122a72703d90618fe0c03d
:10267000e09003fbe0f87408c398f8d0e0b80002db
:102680008004c313d8fcf52174ff652170099060a4
:102690000ae4f0a3048010e5212401f8e43400f9f1
:1026a00090600ae8f0a3e9f012258802363474f746
:1026b000122275e924fc600624fe6028800d900437
:1026c000bee06401705e1216db8059900418e0646d
:1026d000017011900412e4f07b09122e9d79001212
:1026e00038678040900412e0700890041074fff086
:1026f000803279001219878a218b22a821a9229081
:102700000414e028faa3e039fb90618fe0541ff82d
:10271000ea28f8eb3400f990040a122da47a087b19
:10272000041235e102363474f712227574fe122158
:10273000b712243a900462122dade82412fae9345b
:1027400000fb90605ce060088a828b83e0d2e1f05d
:10275000e82430fce93400fde82432f584e9340053
:10276000f58590605ae0700690605ee060368a827f
:102770008b83e0a2e14019d2e1f0e82422f582e95e
:10278000122a57122a6a1221748c828d831235d92b
:10279000e40592f0a3f07900853282853383539269
:1027a000fe02362ce8241ef582e9122a5efea3e022
:1027b000ff858482858583e02ef0a3e03ff08c8244
:1027c0008d830592e0fca3e0fdc30592e09ca3e0ad
:1027d0009d50c388828983a3a3a3a3a3a3a3a3a378
:1027e0008582848583858a828b83e0a2e15004748c
:1027f000088002743e0592f07b02888289830592ec
:10280000a3a3a3a3a3a3a3a3e0fa79001238677933
:1028100001808574f512227574fe1221b712243ad4
:10282000122a62240a122a46fc7003022a41ee246c
:102830002e123292122dad8e828f83a3a3a3a3a357
:10284000a3a3a38582238583248e828f83a3a3a33e
:10285000a3a3a3a3a3a3aa82ab83ee2434122a5b6f
:10286000687003a3e069701a74026c70030229d7c0
:1028700074016c607774096c60258a828b83742282
:102880008055ec1460661470030229d724fa601c8a
:1028900014600c146042147003022a1d022a419035
:1028a0006008e0a2e65003022a41802cee2439128f
:1028b0002a54801388828983a3a3a3e0640370034e
:1028c000022a4188828983122a7270e88a828b8365
:1028d000e0641370037416f07b02852382852483e1
:1028e000e0fa79001238677901022a43ee24551282
:1028f0003096ee244cfcef3400fdea24fff521eb8a
:1029000034fff522e521687003e52269706dee243d
:102910004d122b008e828f83122a788c828d83e059
:10292000c333f8e433f9e82403f8e93400122d9bab
:10293000900493e0a2e050098e828f83a3a3122d0e
:10294000a09004ade4f0a3f0a3f0a37402f090040f
:1029500093e0a2e04003022a41906062e4f08c829e
:102960008d83e0f875f0e2a4c8aaf075f004a42afb
:10297000f9e8122d90122da4022a41ea687002eba8
:10298000696003022a417521097522007821122409
:102990004eee241bfaef3400fb121cbd7402122110
:1029a0009d900493e0a2e05007eefaeffb12161b95
:1029b000e40592f0ee2422123292122a6a12217455
:1029c000ee2430122a541235d9ee2432122a54e45d
:1029d000f0a3f07b08805de8240108e93400f9eefb
:1029e000245c122a5b687003a3e0697054752105aa
:1029f000752200782112244eee2457fcef3400fd9e
:102a0000ee2424faef3400fb121cbd740212219d47
:102a1000eefaeffb1216d5e40592f08024eefaef01
:102a2000fb1212ebe40592f00592900493e0a2e011
:102a3000500f7b07852382852483e0fa79001238c2
:102a4000677900022ea2f584ef3400f5850592e047
:102a500022ee2414f582ef12329e22f582ef123418
:102a60000c229004621233e5ee22122bcd7403780f
:102a70002122122db1e84922a3a3e028f0a3e039d6
:102a8000f02274f812227574fe1221b712243a90c3
:102a90000462e0f584a3e0f585122813e9704e1274
:102aa0002727e97048e584242ef582e585122a5e01
:102ab0002401f0a3e03400f0906008e0c0e0e58479
:102ac0002436f582e585122a57d0e0f0e584241eed
:102ad000f582e585122b030592a3a3e028f0a3e07d
:102ae00039f005929004621230991235e1853282f4
:102af000853383122442740212219d7f0102232a0e
:102b0000f582ef12329e122b0a22e0f8a3e0f9e8d8
:102b1000c333f8e933f92274f712227574fe1221d7
:102b2000b712243a8a828b83a3a3ac82ad8390042c
:102b3000b2ea241ef584eb122a49f8a3e0f9e8c3af
:102b400033f8e933f9900495e0f521a3e0f522127a
:102b50002bb70592e028f8a3e039f98c828d831217
:102b60002da49004ad122baa8c828d83122ba190e0
:102b700004af122baa7a207b4e1220fc88218922d6
:102b80008c828d83e09521f0a3e09522f09004b42f
:102b9000122baae8c333f8e933f9e8122d8802367c
:102ba00025c3e098f0a3e099f022122db19004958e
:102bb000122bcd122bb722e88521f0a4c8aaf085ec
:102bc00022f0a42afa8521f0e9a42af922e0f521cd
:102bd000a3e0f5222274f712227574fe1221b712b7
:102be000243a122a622412122a46a2e35008c2e3af
:102bf000f00592022d7c8e828f830592a3a385829d
:102c000021858322906062e0601079101219878517
:102c10002182852283eaf0a3ebf0122813e96003f6
:102c2000022d85122727e96003022d85906008e0b8
:102c3000c0e0ee2436122a54d0e0f09061d5e0f8de
:102c40009061d7e06805926005e0d2e28003e0c2bf
:102c5000e2f00592906062e09004af6017e024c05b
:102c6000faa3e03437fb12383c9004b41233eb1271
:102c70002d8880151230991238269004b4122b0634
:102c8000906064e028f0a3e039f0852182852283fa
:102c9000e024fff0a3e034fff0ee242b122a5b9037
:102ca00004b1f0ee2420122a54122a72604b8e8254
:102cb0008f83a3a3a3a3a3a3a3a3a3a3e0703aee2c
:102cc0002432123096ea4b7030ee2439123096eaf4
:102cd0004b7026e8240108e93400f9900495122d80
:102ce000a4852182852283122dad9004b2122da4d9
:102cf000eefaeffb122b1780279004957401f0a3d6
:102d0000e4f0ee241e122b00852182852283122af4
:102d10007a9004ad122dad852182852283122ba1dc
:102d20008e848f850592a3a3a3a3a3a3059290608d
:102d300064122dad7a717b021220fce82405f8e9bb
:102d40003400f9858482858583122da48e828f8339
:102d5000a3a3a3a3123099858482858583e0f8c359
:102d6000ea98eb99a2d265d0335005eaf0a3ebf0d4
:102d7000122daaee242e122a54122a7a90046212dc
:102d800030991235e1023626122d90e8f0a3e9229f
:102d900024eaf8e93402f990606422f98e828f8384
:102da000a3a3a3a3e8f0a3e9f022900495122db108
:102db00022e0f8a3e0f92274f512227574fe1221c4
:102dc000b712243a8031c2e5123792c0e09004bcb9
:102dd000e0122e81d0e0f09004bce004f0a3e00407
:102de000f0a3e004f09004c0e0700c7401f07b00ec
:102df0007a00790012386790605ae0f521906002fd
:102e0000e0a2e050047800800590605de0f8900456
:102e1000bde0fae52128f8e43400f9e86a7001e938
:102e200060579004bce0f52374012523547ff521fd
:102e3000e523122e81e0f808089004bce028f07425
:102e4000802521f5827460123295900462e0f8a327
:102e5000e0c82408f584e83400f585e0a2e705928f
:102e6000e04003022dc6d2e5f0122e9424dbf012ce
:102e70002e9d122e944a022dd68532828533838070
:102e80002a122e8522547ff8748028f582746034cb
:102e900000f583229004bce0122e85e022123797c1
:102ea000fa228532828533835392fe1224427402c1
:102eb00012219d7f0402232a74f512227574fe12da
:102ec00021b712243a89210592900462e0f582a389
:102ed000e0f583858284858385a3a3a3a3a3a3a30d
:102ee000a3e0a2e740479004bfe0f8906054e0c33d
:102ef00098f5229004bfe02522f0ae82af838012c5
:102f0000ee2439faef3400fb1215f1ea4b6003129c
:102f100017e985222374ff2523f5220470e2e521b9
:102f2000a2e640097900eefaeffb121759022ea231
:102f3000c0e074f1122370e535f5c675a70075a1e0
:102f40000079501219a57f010223d7c0d075d0187f
:102f500075bf00d0d032c0e0c0d075d018c092c0cc
:102f600082c083c0f0e535f5c6e591fe759b00f49f
:102f7000f5915392fe906002e0a2e0500478008048
:102f80000278087900e844015e6003122db7eea2d2
:102f9000e55004f9122eb8eea2e75029e5a8f8c2d0
:102fa000af9004d6e0d2e0f0753400e8a2e7e43355
:102fb000f9e8a2e792afe594a2e24009759403e52f
:102fc00094a2e250faeea2e6400302306d906061f6
:102fd000e0f99004bde4f09004bff0900462123078
:102fe000998a828b83a3a3a3a3a3a3a3a3e0241002
:102ff000601224fc600924fc700f122612806612f5
:1030000026ae8061121615805c900492e060051473
:1030100060148023906060e06480601be0c0e01278
:103020003081d0e08010906058e0f890605ce0283b
:10303000f8123081e028f0906060e064806016e073
:10304000c0e0900462e0f8a3e0c82413f582e8121f
:103050002a57d0e0f0900493e0a2e05005122bd55f
:103060008003122a821225331216038004a2e7502d
:1030700003123639d0f0d083d082d092d0d0d0e0b5
:1030800032ea242cf582eb12340cfa746d2af582a4
:10309000740412329e2212329be0faa3e0fb2274e7
:1030a000f712227574fe1221b712243a900462e0de
:1030b000fca3e0fd122daaec2429f582ed122a577b
:1030c000ec242bfaed3400fb8a848b857401687044
:1030d00001e97012e0f80592e028fac39425402a2d
:1030e00074db2afa8024e0f521e88521f0a4f8aa0f
:1030f000f08521f0e9a42af90592e0fae82af8e936
:103100003400f97a257b001220fceaf074075af8a3
:103110007401b800028004c333d8fcfbea13131314
:10312000541ff8ec28f8ed3400f9e82424f582e97e
:10313000123295e05b702a8005e8cac39afaec2443
:10314000e5f582ed122a5ef8eac39850ec8a21ec8c
:103150002521f8ed3400f9e824c0f582e9122a5e51
:10316000faec242cf582ed122a57ea02362574f681
:1031700012227574fe1221b712243a900419e090bd
:1031800060026004740e8002740ff0900413e090eb
:103190006001f090080c12200a906195122016121e
:1031a0001765900418e0f5217401652190041170f1
:1031b00040e05402f97a1a7b04121639900411e0a7
:1031c000a2e050097a9f7b0475214080077a997ba1
:1031d00004752100a2e150047e8080027e007523e8
:1031e0000678231224527c1a7d04e5214e44018086
:1031f00066e0a2e050087a9f7b04784080067a99c6
:103200007b047800059290043f1224697c207d04a1
:1032100074102521f5827408123295e048f91216cf
:103220003f740112219d900418e0f8600574026853
:10323000702e900411e0a2e050087a9f7b04784041
:1032400080067a997b047800059290045f122469c5
:103250007c407d04e84404f912163f740112219d5c
:10326000900411e0a2e0e433f91216337591009056
:103270000419e0906182600474c8800274c0f08513
:103280003282853383122442740212219d7f03020d
:10329000232af582ef12329e059222f582ef340046
:1032a000f58322c082c0835392fe906002740ff0b7
:1032b0009003fae004f064037002e4f0e024259047
:1032c0006000f090080c12200a9061951220169070
:1032d00003f8e05420f91216331217659003f8e052
:1032e000a2e15004d2f08002c2f0a2f0e433906078
:1032f0000cf09003f8e0a2e1503575d90da2e5502d
:1033000004784080027800e84403f5d9e0a2e55053
:10331000067a9f7b0480047a997b04790612160949
:10332000740675d9001470fae5e170fc75e19575c5
:10333000910090618274c102256674f8122275743e
:10334000fe1221b712243a1233d8121765122a51ed
:1033500012200a90619512201612342712309f1203
:1033600033f0f584ef3400f58585848285858312fa
:103370003412121759ee2412122a5ba2e2501805d9
:1033800092e0f8a3e0f58388820592a3a3e02402eb
:10339000f89061d5e028f0022aed74f81222751237
:1033a00033d8121765122a5112200a906195122003
:1033b0001612342712309f1233f0122a541234128c
:1033c000121759ee241e122a541233eb24fcf8e98a
:1033d00034ff122d9b022afb9004621233e59060a9
:1033e00002740ff022e0fea3e0ff22122b0ae82273
:1033f000ee242c123409906000f07591009004cafc
:10340000e0906182f0ee243922f582ef3400f583fa
:10341000e022122db1ee243712329be8f0a3e9f03e
:103420007900eefaeffb22ee2436123409906008a0
:10343000f0ee2418123409906005f0ee24191234cd
:1034400009906006f0ee241a123409906007f02209
:1034500074f112227574fe1221b712243a752100fc
:103460007522007c697d04801b888289831233e584
:103470008c828d83eef0a3eff0888289831235d998
:10348000882189228c828d83122a654f70398c8223
:103490008d83eaf0a3ebf08a828b83e4f0a3f0aa99
:1034a00021ab228532828533831224427402122199
:1034b0009d7f0802232ae5232527f8e5243528f9ee
:1034c0008a828b83122a78eef8eff988828983a3a7
:1034d000a38a848b850592a3a3e0f523a3e0f524ba
:1034e0000592e0c39523f523a3e09524f5248a8271
:1034f0008b83a3a3a3a3a3a3e0f525a3e0f526c391
:10350000e5239525e5249526a2d265d033403e8a51
:10351000828b83122da48a828b83a3a3a3a385828b
:1035200084858385122dadc3e52398e52499a2d225
:1035300065d033500d858482858583e523f0a3e52e
:1035400024f08c828d83eaf0a3eb02349e8882897a
:1035500083a3a3a3a3a3a3e0f527a3e0f528c3e4d3
:103560009527f525e49528f526c3e5259523e52639
:103570009524a2d265d03350288a828b83a3a3a33b
:10358000a3a3a3a3a3e0a2e750030234b6888289d1
:1035900083a3a3a3a3a3a3a3a3e0a2e7500302349e
:1035a0006988828983a3a3a3a3858284858385c335
:1035b000e49523fce49524fd1233e5c3ec9eed9fd6
:1035c000a2d265d033500b858482858583ecf0a32d
:1035d000edf0e8fce9fd023484e521f0a3e522f0fa
:1035e0002274f712227574fe1221b712243aea4ba4
:1035f0006031a2afe433fec2af1234508a828b83b3
:103600008016aa82ab838582848583850592e0f546
:1036100082a3e0f583123450e582458370e4eea284
:10362000e092af8001f085328285338312244274a8
:103630000212219d7f0202232a74f512227579005d
:103640001219878a238b2479771219a59061b1e426
:10365000f0e070f87403f0e0640370f8900469120d
:103660002dad900462122da4e849701212377be54b
:1036700094a2e24003023775759400023775888280
:103680008983123099900469eaf0a3ebf08882896b
:1036900083a3a3122bcd88828983a3a3a3a3e025b0
:1036a00021f8a3e03522f9e824fdfee934ffff907c
:1036b000606074801237922410601424fc60062429
:1036c000fc6007804712316e80521232a3804de5b4
:1036d00021c39523e5229524c39400a2d265d0335b
:1036e0005025e5232401f521e5243400f522c3e526
:1036f000219ee5229f400ae5212401fee5223400b7
:10370000ff9003f11235d912176b8010900493e0eb
:10371000a2e0500512333a800312339aaa21ab2259
:103720007930121999eefaeffb7940121999795410
:103730001219a5e521c39523f8e5229524f9c3e8dc
:103740009401e99400a2d265d033500c12177de5a4
:10375000e170fc75e121801d900367e0a2e040125a
:10376000aa21ab221219939004a912201612377bba
:10377000800312177d12185b022eb3e5a8f8c2afc2
:103780009004d6e0c2e0f0753400e8a2e7a2e79228
:10379000af22f012379722900462e0f8a3e0c82429
:1037a00008f582e83400f583e0220000853487c202
:1037b000af22c0e0c0d075d018c092c082c083c014
:1037c000f074fc1221875392fe9004d7e0601c1223
:1037d000162d900367e054117008e5c654384487ed
:1037e000f5c69004d7e4f0c2c78026c2c7853282ee
:1037f000853383aa82ab83121777e9640170129034
:1038000004d77401f085328285338312200a12189e
:103810004f753400740412219dd0f0d083d082d033
:1038200092d0d0d0e03275c3007420c39afa744e9f
:103830009bfbeaf5a2ebf5a35392fe22c02175c3d0
:1038400001e5a2f521e5a375c300f9e5212420f8df
:10385000e9344ef9e8c39af8e99bf9e8f5a2e9f5ed
:10386000a3d0215392fe2274f5122275e9feeaffdd
:103870008b21753400a2afe433f522c2af900578f6
:10388000e0f52474012524540ff523900577e065b5
:1038900023700579001219ffe52475f003a4f8a937
:1038a000f0740528f8740539f9e82442f582e93402
:1038b00000f583eef0e82443f582e93400f583ef68
:1038c000f0e82444f582e93400f583e521f0e523ae
:1038d000900578f0e522a2e092af7f0402232ac08f
:1038e00082c08374fc122187e5a8f8c2afe59585f4
:1038f00032828533835392fef0e596c0e074011264
:1039000021f0d0e0f0e597c0e074021221f0d0e0a1
:10391000f0e8a2e7a2e792af74031221f0e4f08589
:10392000328285338312200a740412219dd083d001
:103930008222c0e0c0d075d018c092c082c083c0bf
:10394000f0e59da2e040fae59da2e050fa1238dfd2
:1039500090060d122016e5abf8e58958900611f097
:10396000e580900614f0900611e0f4f5899062d09d
:10397000e0f8a2e15027900611e0a2e5501f53abfa
:10398000df9062d0e0a2e0e433900617f0900611d9
:10399000e0c2e5f07b307a007906123867900611b4
:1039a000e0600b7b007a007906123867c2bdc2c5a1
:1039b000d0f0d083d082d092d0d0d0e032c0e0c05e
:1039c000d075d008c092c082c083c0f0e59da2e04f
:1039d00040fae59da2e050fa1238df90060d122061
:1039e00016e58df8e58a58f8900612f0e5909006f5
:1039f00015f0e8f4f58a7b017a00790612386753ee
:103a00009aefc2eb80aac0e074f11223709061a912
:103a1000e06017c2afe589f8e5abf975ab00e4f0fb
:103a200090624bf0888989abd2af90061ce0640f9e
:103a30007012e5c7f8900368e0f5c790ff1ce0f44a
:103a4000f5ae88c790061ce064107053e5bbf9e53d
:103a5000bafae9fb7900c3ea942eeb9452500319a9
:103a60008014c3ea94deeb945a400bc3ea944aeb09
:103a700094654001090912168790061ce4f090092c
:103a80001ae0f4604690060be0fb90060ae0fa901c
:103a9000091ae0f9121b9190091a74fff0802ce5c5
:103aa000bbf9e5bafae9fbe0c333f8e433f9741d76
:103ab00028f582740639f583eaf0a3ebf090061c32
:103ac000e02410fb7a007906123867e5a8f8c2af47
:103ad0009004d6e0c2e2f0753400e8a2e7a2e792d3
:103ae000af7f010223d7c0e0c0d075d018c092c00c
:103af000f0e5d1f875d100c2c0a2e350097b037a8a
:103b0000007904123867d0f00239b6c0e0c0d07531
:103b1000d010c092c021c022c082c083c0f0539296
:103b2000fe900713123c24602b9006cee0700c74bc
:103b300001f07b007a007904123867ee900713f0e9
:103b4000e5c1c0e074152521f58274073400f583c2
:103b5000d0e0800be5c4a2e650069006cd7401f0db
:103b6000023c13c0e0c0d075d010c092c021c0226a
:103b7000c082c083c0f0c2e95392fe9006d0e0fa42
:103b80009006cfe09a543ff860258a2174d1252110
:103b9000f5827406123c8e9006d0f089c190071110
:103ba000e06870197b027a007904123867800ee5ac
:103bb000a8f8c2af9004d6e0c2e3123c9a8054c089
:103bc000e0c0d075d010c092c021c022c082c08396
:103bd000c0f05392fe90079d123c24602a90075833
:103be000e0700b7401f07b00fa7904123867ee90f4
:103bf000079df0e5f9c0e0749f2521f58274073434
:103c000000f583d0e0800be5fba2e6500690075755
:103c10007401f0d0f0d083d082d022d021d092d0c5
:103c2000d0d0e032e0f52174012521543ffea3e01d
:103c30006e22c0e0c0d075d010c092c021c022c09a
:103c400082c083c0f0c2ea5392fe90075ae0fa9015
:103c50000759e09a543ff860258a21745b2521f5c5
:103c6000827407123c8e90075af089f990079be006
:103c70006870197b027a017904123867800ee5a812
:103c8000f8c2af9004d6e0c2e4123c9a80853400ba
:103c9000f583e0f974012a543f22f0753400e8a25c
:103ca000e7e433f9e8a2e792af2203060302020336
:103cb00003020602030301050202010001010101e2
:103cc00000000302000005000207070002030101d3
:103cd00001080606050304040103060202020201ac
:103ce0000f00080305050207010109010102010196
:103cf00002000000030202010505020101030500a4
:103d00000100030100000001010404020302040198
:103d100004010074f012220674f0122187e5c7f541
:103d200028900368e0f5c7752110752200782112ec
:103d3000244e7cdd7d0374021221f0aa82ab831233
:103d40001cbd740212219d782112244e7c007d003e
:103d50007add7b03121cc3740212219d7521008041
:103d600058852182a882e875f06fa4faabf0900321
:103d700065123eb1246ef582eb126c5da2e0503705
:103d80007f008f82ac82e875f037a4faabf0900325
:103d9000d3123eb12cfaeb3400fbea241af582eb85
:103da000126c5dfa74dd2cf5827403126c5d4af0be
:103db0000fefc3941040cb0521900364e0f8e52198
:103dc000c398409d752100852182a88274dd28f565
:103dd000827403126c5dfa853282853383e5822812
:103de000f582e583126c5d6af00521e521c394102c
:103df00040d5752100852182ae827f008532828583
:103e00003383e5822ef582e583125a6ea3a3a3a322
:103e1000e0f8853282853383e5822ef582e58312d0
:103e20006c5d48f52260768f27e522a2e0505b7535
:103e300023018f24e5277823122174a82374dd2e13
:103e4000f5827403126c5d58600479018002790078
:103e500074e52ef5827403126c5d586004e9d2e1ba
:103e6000f98e238f2474037823122174852725e586
:103e7000232525fae5243400fb74a02af58274f783
:103e80003bf583e0fa7b00121b7f0527e522c31375
:103e9000f522e527c394085004e522708c0521e53e
:103ea00021c394085003023df58528c774100244cd
:103eb00080123eb522e02afaa3e03bfbea2274f628
:103ec000122206e975f037a4faabf012130390033f
:103ed000d31266a5e5c7ff900368e0f5c790f79e8b
:103ee000125bd0e4c39af521741f9bf5227821124e
:103ef000244e7c007d00121cc3740212219d8fc7ca
:103f000079087cd57d037a007b00121831e96408ba
:103f1000601b752108752200782112244e7c007ddb
:103f2000007ad57b03121cc3740212219d800e857a
:103f30003282853383122442740212219d7f020251
:103f400022de74f012220674fe1221b712243a8a7d
:103f5000278b281262900592a385822185832212e5
:103f60005bd0ea4b60158e828f83a3a3a385822347
:103f7000858324c3e09aa3e09b500879011214a121
:103f800002407005929007e81224617b07059212a7
:103f900062881219b7740412219d8e828f83a3a3a5
:103fa000a3a3a38582258583268e828f83e0146058
:103fb0004a14606414602c14600d1470030240569f
:103fc00024fe607d0240708523848524850592123d
:103fd0002465852182852283059212408d12135714
:103fe000024069782512244e852384852485059214
:103ff00012246512407a12134b8016782512244e33
:10400000852384852485059212246512407a121333
:1040100021740412219d805f782512244eee24170e
:10402000f584ef1266b705921224658523848524f2
:104030008512246512407a12130f740612219d8096
:1040400036ee2417f582ef126c5df523a3e0f5241c
:10405000e5234524700812408712135180197823f4
:1040600012244e124087121327740212219d8007da
:10407000aa27ab281217e9025a85ee2415f582ef1c
:10408000126eff0592e0f985218285228312595430
:10409000aa27ab282274f612220674fe1221b71248
:1040a000243aeafeebff89211262861219ab12470d
:1040b0000d242af582e585126c5d60220592e024cc
:1040c000fd600c24fc7014740765217011800c7461
:1040d0000a65216006740165217003752100e443bf
:1040e0009201f00592f0900363e0f522ac21eefa24
:1040f000effbe0f9121b49900363e065226005a91c
:10410000221213e7023f2f74f6122206e9ff8c21d8
:104110008d22740a1221f0e0fd900363e0fe782105
:1041200012244eeffc900363e0f9121afb740212a2
:10413000219d900363e06e6005eef91213e7023fe4
:104140003d74f212220674fe1221b712243a8a2517
:104150008b261241e61219ab900363e0ff8584823f
:10416000858583a3858223858324782112244eeebe
:10417000fd7c04852382852483124294121afb74e9
:104180000212219d900363e06f6005eff91213e7bf
:10419000e5842417f8e5853400f98e218882898327
:1041a000e02521f0a3e03400f074166e70178882c9
:1041b0008983c3e09416a3e094004009aa25ab26a6
:1041c00012149b80197900852382852483125bd089
:1041d0001214a1e40592f0aa25ab261217e9853244
:1041e00082853383801c8c218d22e9fe1258517bfd
:1041f00007900363e0fa7901228532828533835385
:1042000092fe122442740212219d7f060222de7465
:10421000f412220674fe1221b712243a8a238b2448
:104220001241e61219ab0592e0f8740768700feec0
:10423000f9ac21ad22aa23ab241214ad804d740a2f
:10424000680592900363700fe0ffeefcaa21ab2299
:10425000e0f9121b01801de0ff782112244eeefdd3
:104260007c00858482858583a3124294121afb7494
:104270000212219d900363e06f6005eff91213e7ce
:10428000e40592f0aa23ab241217e9853282853324
:1042900083026044127616900363e0f92274f012f0
:1042a000220674fe1221b712243a74fe1221878a64
:1042b000278b288a828b83a3a3a3a3a3a3a3a3a34f
:1042c0008582258583261262861219ab8527828511
:1042d0002883a3a3e024faf52312468b8525848541
:1042e00026850592a3853282853383059212466521
:1042f0007e00804b900363e0ffe5842402f521e516
:10430000853400f522782112244e74fe29fd7c03a9
:10431000858482858583124294121afb74021221cd
:104320009d900363e06f6005eff91213e785258226
:10433000852683e0f5212efee58425211266b385ce
:104340002582852683e0f9eec3952340a78921e5e0
:1043500023c3952112465612469e12149b025a8080
:1043600074f012220674fe1221b712243a74fe125f
:1043700021878a238b2412627b1219ab85238285c5
:104380002483a3a3e024faf52212584d85842785bf
:104390008528e527242af582e5281262717401f048
:1043a0001266e8640170047e0280027e10752100ae
:1043b0008010e06f6005eff91213e774022e2521db
:1043c000f521e521c39522505a5392fe900363e0f4
:1043d000ffa82185328285338312619e1266b7ee73
:1043e000f5257825122452e5842403fce585340064
:1043f000fd1244640592900363e0f9121b137401eb
:1044000012219de990036370a9e06f6005eff91236
:1044100013e7852782852883e4f0aa23ab241217ab
:10442000e9803e852221e52124fef8e434fff98e5f
:1044300021e8c39521f8e99400f985328285338318
:104440005392fe1260d82401f8a3e03400f98527c6
:10445000828528830592a3125ba5aa23ab2412149c
:104460009b025a800592a3e0faa3e0fb2274021299
:10447000219d8532828533835392fe122442740239
:1044800012219d7f080222de74f012220674fe12b1
:1044900021b712243a74fe1221878a278b281262d0
:1044a0007b1219ab852782852883a3a3e024fbf523
:1044b0002112521005929003d31256cd8582258584
:1044c0008326e525242af582e5261252697f00809d
:1044d0000de06e6005eef91213e774042fffefc3d1
:1044e0009521505feff8853284853385124573122c
:1044f00062718582848583850592900363e0fe75f1
:1045000022027822122452e5252417f523e52634c9
:1045100000f524782312244e124674121b0d7403e6
:1045200012219de990036370a8e06e6005eef91218
:1045300013e7852582852683e4f0aa27ab28121786
:10454000e9802da821853282853383e028f8a3e015
:104550001266ae24fef582e934fff5831246b38578
:104560002582852683a3125ba5aa27ab2812149b5c
:10457000025a800592e028f582a3e02274f012220c
:104580000674fe1221b712243a74fe1221878a277c
:104590008b288a828b83a3a3a3a3a3a3a3a3a3850e
:1045a00082258583268a828b83a3a3e024faf521c2
:1045b0001262861219ab12468b85328285338312c2
:1045c00046657f008012e06e6005eef91213e78504
:1045d0002582852683e02fff852582852683e0f8c6
:1045e000efc39521505b8f23e5252523fae526347b
:1045f00000fb8a828b83a3858284858385900363f5
:10460000e0fe74fc28f5227822122452ea2405f5f3
:1046100023eb3400f524782312244e124674121b27
:104620000d740312219de9900363709ae06e60059a
:10463000eef91213e7126cdcaa27ab281217e980f7
:10464000128823e521c39523124656a3a312469e42
:1046500012149b025a80f895e0f9e52528f582e5c9
:104660002639f5832212757d242af582e8126eff21
:104670007401f022858482858583a3a31256d6fa1d
:10468000a3e0fb0592900363e0f922126cc6124688
:104690009222853282853383e8f0a3e9f022a312c7
:1046a00046b3853282853383126cb8124698aa27a6
:1046b000ab2822e02401f8a3e03400f92274f612ba
:1046c000220674fe1221b712243a1213e7e970048d
:1046d0007a86801c12470d24161266b30592e0a25a
:1046e000e040047a8180091217e3ea4b70067a826f
:1046f0007b01800d0592e0c2e0f01213637a007b2b
:10470000008532828533835392fe023f3512585121
:10471000e5842274f212220674fe1221b712243aa2
:10472000eafeebff8c258d261213e7e970047a86ea
:104730008012124a7160047a8180091217e3ea4bf1
:1047400070067a827b01803074101221f0e0f8c389
:10475000941450048822800375221485252385260d
:1047600024782312244ea922eefceffd1213457487
:104770000212219d7a007b000241f974f012220698
:1047800074fe1221b712243a8a278b28ecff1213e9
:10479000e7e970047a868025124a7160047a818084
:1047a0001cefa2e04005c3940450047a80800e12ee
:1047b00017e38a258b26ea452670067a827b0180dc
:1047c00034efc394165004effe80027e16740a1272
:1047d00048ff1224617b0705921262881219b77490
:1047e0000412219deef9ac27ad28aa25ab261213a1
:1047f000397a007b0002447274f012220674fe12b1
:1048000021b712243a8a258b26ecfeedff74141290
:1048100021f0e0f521c3941350191213e7e9700455
:104820007a868021124a7160047a818018e52545d4
:104830002670047a80800e1217e38a278b28ea45b7
:104840002870067a827b01804d74080592f0a3e5fa
:1048500025f0a3e526f09007e81224617b07059276
:104860001262881219b7740412219d74121221fa6f
:1048700005921224658e238f240592782312244eec
:10488000a921ac25ad26aa27ab2812132d7404123a
:10489000219d7a007b0002447274f412220674fe99
:1048a0001221b712243a8a221213e7e970047a8699
:1048b000801a124a7160047a8180111217e38a23e8
:1048c0008b24ae23af24ee4f70067a827b01802cbe
:1048d00074091248ff1224617b0705921262881244
:1048e00019b7740412219de52260047901800279d0
:1048f00000eefaeffb1213337a007b0002603b05f7
:1049000092f0a3e4f0a3f09007e82274f0122206dc
:1049100074fe1221b712243aeafeebff8c278d2891
:104920001213e7e970047a86801f124a7160047ad4
:10493000818016ee4f70047a80800e1217e38a256c
:104940008b26ea452670067a827b01805474121207
:1049500021f0e0f8c39414500488218003752114d9
:1049600074060592f0a3eef0a3eff09007e812248e
:10497000617b0705921262881219b7740412219d97
:10498000852723852824782312244ea921eefcefc5
:10499000fdaa25ab2612133f740212219d7a007bdb
:1049a0000002447274f412220674fe1221b712241b
:1049b0003aeafeebff1213e7e970047a86801a12d6
:1049c0004a7160047a818011ee4f70047a80800908
:1049d0001217e3ea4b70067a827b01802a74071271
:1049e0004a6ceef0a3eff0858482858583a3a3a3b0
:1049f000eef0a3eff0e5842417f582e585127558f3
:104a000012149b7a007b0002603b74f4122206743d
:104a1000fe1221b712243aeafeebff1213e7e97007
:104a2000047a86801a124a7160047a818011ee4fee
:104a300070047a8080091217e3ea4b70067a827b51
:104a40000180267405124a6ca3a3a882a983eef004
:104a5000a3eff088828983125bac0592a3e8f0a3f0
:104a6000e9f012149b7a007b0002603b124be3a337
:104a7000221258510592e02274f212220674fe129c
:104a800021b712243a8a218b22ecfeedff1213e7a4
:104a9000e970047a868012124a7160047a81800972
:104aa0001217e3ea4b70067a827b01801d740412b0
:104ab0004a6ce521f0a3e522f00592a3a3a3eef052
:104ac000a3eff012149b7a007b000241f974f012fc
:104ad000220674fe1221b712243a8a278b288c25cd
:104ae0008d261213e7e970047a86802e124a7160cf
:104af000047a81802574141221f00592e0ff74027b
:104b00006f600974106f60047a80800e1217e38a58
:104b1000238b24ea452470067a827b018034740357
:104b20000592f08f217522000592782112244e748f
:104b3000141221f0124c08121cbd740212219d1295
:104b40004b55858482858583124bef12149b7a0026
:104b50007b00024472e5842415f582e585126eff20
:104b6000eff02274f012220674fe1221b712243ada
:104b70008a278b288c258d261213e7e970047a8604
:104b8000802e124a7160047a81802574141221f0fb
:104b90000592e0ff74026f600974106f60047a8000
:104ba000800e1217e38a238b24ea452470067a824a
:104bb0007b01802c8f21752200782112244e7414e1
:104bc0001221f0124c08121cbd740212219d124bce
:104bd000557401124be3124bef12149b7a007b00c9
:104be0000244720592f0858482858583059222a312
:104bf000e527f0a3e528f00592a3a3a3e525f0a3fc
:104c0000e526f0aa23ab2422125954e5842405faa0
:104c1000e5853400fb2274f012220674fe1221b7df
:104c200012243a74fe12218712669f8c278d2874f5
:104c3000141221f0e0fea3e0ff1213e7e970047afa
:104c400086802a124a7160047a81802174181221a8
:104c5000f00592e0f522c3941140047a80800e1290
:104c600017e38a258b26ea452670067a827b018027
:104c700069e5842417f582e585126271eef0a3eff1
:104c8000f074020592f0e5842415f582e585126240
:104c900071e5220592f0f523752400782312244e45
:104ca00074181221f0124c08121cbd740212219dbe
:104cb000853282853383125bac858482858583a3ac
:104cc000125ba50592a3a3a3e527f0a3e528f0aa0c
:104cd00025ab2612149b7a007b0002446d74f112fe
:104ce000220674fe1221b712243a74fc1221877432
:104cf000021221f01266a5e5c7f527900368e0f5da
:104d0000c774021221f012758c853284853385e5d3
:104d1000820592f0a3e583f0853282853383059284
:104d2000125d94f874021221f0124e83059290f7ee
:104d30009de0f525ff741dc39af5268e228e2180f5
:104d4000080522efc313ff052190f79ce0fce52145
:104d5000c39c5044eec39526503e124e9570e8ef2a
:104d6000a2e050dfa3a3a3a3a3e0640270d3752342
:104d700002752400782312244e1259498e23e584ab
:104d800025231266ab2402fae93400fb121cbd7421
:104d90000212219d0e0e80abee6013858482858504
:104da00083a3ef6004740280027403124e6ce52248
:104db0007003024e4e8532828533835392fe126613
:104dc000eef8741dc398fa95e0fbc3ea9410eb94d7
:104dd00000a2d265d033407674021221f0124e83c5
:104de000af258e218006efc313ff0521e521c39c6b
:104df0005042e526603e5392fe124e9570ecefa2b3
:104e0000e050e3a3a3a3a3a3e0641070d97523101b
:104e10008e24782312244e125949e5842402fae59f
:104e2000853400fb121cbd740212219d7e1074ff9c
:104e30002522600e8584828585835392fea37406a5
:104e40008009858482858583a37407124e6c85272b
:104e5000c7740412219d8532828533835392fe12da
:104e60002442740212219d7f070222def074012e7b
:104e7000f80592f00885328285338305921266f236
:104e800028f022059212619e3400f5850592a3a3b5
:104e9000a3a37e002290f7961275cae52175f0064d
:104ea000a4faabf0e82afae93bfb8a828b83e02282
:104eb00074f012220674fe1221b712243a74f91209
:104ec0002187853282853383ecf0a3edf08a278b2e
:104ed00028e9fe752200126cdc8a828b830592a37e
:104ee000a3a3a385822385832474026e600caa2366
:104ef000ab241219e7e960027e0274191221f01244
:104f00005bac74191221f0125ba574191221f01216
:104f1000617f74100592f074026e6003024fa485e5
:104f200023828524830592125bace87003742869a0
:104f300070567f0074191221f012617f740a059275
:104f4000f0e5c7c0e074041221f0d0e00592f090c3
:104f50000368e0f5c7126cdc059290f79ce0f5263b
:104f6000f582ac82852782852883126deb5003027f
:104f700050de852782852883a3a3125bd0c3ec9ad9
:104f8000e49b50258c258024740168700374286983
:104f900070047f01809e7403687003742869700434
:104fa0007f02809079000250ebeaf525e814f521a4
:104fb000801274021221f0127589e521f0a3e4f049
:104fc00015210521e521c3952540030250cf125b31
:104fd000a974051221f0125ba5852182a882e875cb
:104fe000f006a4faabf074051221fa0592e02af556
:104ff00082a3e03bf583ac82ad830592e06f70c283
:10500000852282aa828532848533850592e02a1220
:1050100050f074021221fae5820592f0a3e58312a2
:105020006c36e02404f5271266e8f5236009e527cd
:10503000652360030250cf852723ea126c434003a7
:105040000250cfe527f0eaf522e8240108e4340015
:10505000f974021221f0059212617fe80592f0a323
:10506000e9126c3612594012244e8c828d83a3a310
:10507000a31275831221f0126c82121cbd740212ed
:10508000219d8029e52175f006a4f8a9f074051288
:1050900021f05392fe125d8bf87003024fb274013f
:1050a000687003024fb2e86f7003024fb20521e54a
:1050b00021c3952640cee52665216003024fb274d8
:1050c000021221f012758974fff0a3f0024fc2e5bd
:1050d00022600b74191221f05392fe126ce27404d8
:1050e0001221f05392fee0f5c7a922740702446f23
:1050f000f582a3e0126eff0592a32274f712220636
:1051000074fe1221b712243a1241ec1219ab059227
:10511000e0f8740668600a740868600574096870cd
:105120001ce41252607c001244640592e0f9121be8
:1051300049900363e06e6005eef91213e7026153d4
:1051400074f212220674fe1221b712243a8a258bb9
:1051500026ecffedfeec24010ce43400fd121315e7
:105160008a848b8574101221f0125950ec4d701df9
:10517000eff912158be9fec3941540027e147d00f1
:10518000eefceff9aa84ab851215a3801aeec39446
:105190001540027e148e21752200782112244e12b1
:1051a0001cbd740212219deef9aa25ab2612131b19
:1051b0000241de85328285338302615c74f71222fc
:1051c0000674fe1221b712243a8a848b851251fe8e
:1051d00060237b081262881219ab1251fefae4f0c8
:1051e000900363e0fef9121b07900363e06e600515
:1051f000eef91213e7aa84ab851217e980b51252b3
:10520000109003d31260d22419f582e9126c612246
:105210001252142212521822900363e075f037a440
:10522000f8a9f02274f712220674fe1221b7122494
:105230003a124a71640b6025e5842419f582e585ec
:1052400012526912584d740b0592125260f9121bda
:1052500043900363e06e6005eef91213e7026153b9
:10526000f00592900363e0fe22126eff7401059236
:10527000f02274f012220674fe1221b712243a743e
:10528000fd12218774011221f0ecf0a3edf08926c4
:105290008a228b277a817b01e52275f006a4f8a982
:1052a000f090f796126a63f5850592a3a3a3e0f543
:1052b00082a3e0f583858284858385a3e08532849b
:1052c000853385f00592e0f52875210074ff652689
:1052d000600785262180020521900364e0f8e5211e
:1052e000c39840030253fe852182a882e875f06fbf
:1052f000a4fcadf0900365125533e584246ef5826d
:10530000e585126c5da2e050cee8900363f0900357
:1053100061e584f0a3e585f0853282853383e0542e
:1053200007fc7401bc00028004c333dcfcf525e0fb
:10533000131313541ffee528a2e45035e81254035a
:10534000f8ed39f9e8241a126c5a55256023121722
:10535000e3ea4b605274011221fa0592122465ad02
:1053600027ac22791b12152b740212219d7a007b27
:1053700000e528a2e5507e900363e0125403fceda3
:1053800039fdec2422f582ed126c5d552560661224
:10539000520160047a8180111217e38a238b24aeb4
:1053a00023af24ee4f70067a827b018051059290e4
:1053b00007e81224617b0805921262881219b774fb
:1053c0000412219d74012522c0e01260512419129b
:1053d000626ed0e0f074011221fa0592122465addc
:1053e00027ac22791deefaeffb12152b7402122165
:1053f0009d7a007b0074ff652670030252d7740308
:10540000025a8275f037a4f8a9f09003d3e02efc7d
:10541000a3e03400fdec282274f012220674fe1280
:1054200021b712243a89218c278d28752200741205
:105430001221f0e0fea3e0ff8e828f83e0f525e5e8
:10544000c7f5241256e5f52690f79ce0f8e526c34b
:105450009840097522018e828f838023e526125b96
:10546000b070098524c77a887b018049a926121566
:105470008be98e828f83f0c395215007752207e454
:10548000f08022a821e0c398f0f8c3952550048845
:10549000238003852523e523f0ad21fca926aa2737
:1054a000ab281215a38524c7e5226005fa7b04808a
:1054b000047a007b0002447274f612220674fe1213
:1054c00021b712243aeaf8ecfaedfb752100e5c7a2
:1054d000fe900368e0f5c7e814fd740c1221f01289
:1054e0005bac90f79ce0fcedc39c400b7521018800
:1054f000828983e4f0801eed1255290592e0fca21a
:10550000e75004741080027402888289830592f047
:10551000ecf91219f38ec7e521a2e05005fa7b04dd
:1055200080047a007b00023f2f75f006a4fcadf0ea
:1055300090f796e02cf584a3e03df5852274f612f1
:105540002206e9ffeaf8ebf9e5c7fe900368e0f50b
:10555000c7740a1221f0e0fbc3941540067a807be1
:1055600001801690f79ce0c398e49950067a017b7d
:105570000480061aeff912153d8ec7023f3d74f004
:1055800012220674fe1221b712243a74fe122187e9
:10559000853282853383ecf0a3edf089257e0012fd
:1055a00056dff52290f79ce0c3952250030256c0c7
:1055b000e52275f006a4f8a9f0059290f796125628
:1055c000cd8582278583280592a3a3e0fc24fa6079
:1055d0000a14600724fb60030256be74141221f003
:1055e000e0f521740c6c70030256a485278485288d
:1055f000850592a3a3a3e0f582a3e0f58385258426
:10560000aa84858284858385a3a3a3a3e0f885214a
:1056100023ea2523f523e43400f524e89523e495d3
:1056200024c365d03350057e0d0256c10592a3a355
:10563000858284858385852182a882790074066ca1
:10564000882389247823701b12244e74021221f0bf
:105650001256d1faa3e03400fb121cbd74021221d1
:105660009d803112244e74021221f01256d1125034
:10567000f0aa82ab83121cbd740212219de5212584
:1056800025c0e0852782852883a3a3a31266fdd0c9
:10569000e00592f08527828528835392fea3a3e03c
:1056a000640c700b85328285338312595080047ce0
:1056b000007d00ab21aa2279ff12153d80050e0e58
:1056c0000e7f048526c7eefaeffb02446d126735a4
:1056d000221256d62a22e0fca3e0fd0592e0227faa
:1056e00000e5c7f526900368e0f5c7ea142274f4d4
:1056f00012220674fe1221b712243a8c848d85e999
:10570000ffe5c7f5211256e5fe90f79ce0c39e50d9
:105710000479018034740e1221f0e0f52260047add
:105720000280027a80eef9121585e9701ce4f523f7
:10573000f524782312244ead22effcaa84ab85ee2b
:10574000f912159d740212219d8521c702428b74a6
:10575000f312220674fe1221b712243a8a218b22f8
:1057600012584d8a828b83a3a3a3a3a3a3a3a3a3ad
:10577000e0700f12595a1215f1ea4b607a1217e9cc
:1057800080f1e5c7fe900368e0f5c7e584242bf5ba
:1057900023e5853400f524852382852483126275f0
:1057a000605388828983a3a3a3a3a3a3a3a3a3aacb
:1057b00082ab83e0ff8a848b850592a3a3122465c4
:1057c0007d01888289830592a3a3e024f7fcea2463
:1057d00004faeb3400fb74ff2ff912159d740212ca
:1057e000219de9f525aa23ab241215f11217e9e54d
:1057f00025702080a28ec7852182852283a3a312d3
:1058000075467419f07900aa21ab2212131b802a65
:105810001217e912595a1215f1ea4b70f3e525f502
:105820002378231224528f23ac237d007918aa21d8
:10583000ab2212136f740112219d8532828533834e
:10584000122442740212219d7f050222de12585159
:10585000221252149003d312585b22e028f584a33d
:10586000e039f5852274f412220674fe1221b71273
:10587000243a8a848b85858482858583a3a3a3a308
:10588000a3a3a3a3a3ae82af83e5c7f521900368ca
:10589000e0f5c78e828f83e014f990f79ce0c399fe
:1058a00050217401f52178211224528e828f8312a7
:1058b00059507916aa84ab8512136f740112219d79
:1058c00002428b7a02121585e970d91217e38a23f6
:1058d0008b24ae23af24ee4f8521c77003025bdd1e
:1058e000ac84ad8512595a1215f78584828585835b
:1058f000a3a385822185832212594012244ee58478
:105900002404fce5853400fdee2404faef3400fbaa
:10591000121cbd740212219d852182852283e08e96
:10592000828f83a3a3f08e828f83a3a3a3a3a3a3b9
:10593000a3a37417f07900eefaeffb12131b80801b
:10594000e0f5237524007823228a828b83a3a3a306
:1059500012595422e0fca3e0fd22126055242bfad8
:10596000e93400fb2274f012220674fe1221b712f1
:10597000243a74fb12218774031221f01266a58960
:10598000258c278d28126cc274011221f0125ba5a0
:10599000e5c7fe900368e0f5c78c828d83a3a3e082
:1059a000f88821ec2521f582ed125a6e8582218539
:1059b0008322741bc398ff8027e9cfc39fff8527ed
:1059c00082852883a3a3e02523f0e5212523f52163
:1059d000e5223400f52274011221f0125a7b04f002
:1059e00074011221f0125a7bfac395255071ef60b1
:1059f0006e853282853383858223858324782312c2
:105a0000244e782112244eeff97c007d00eac33346
:105a1000fae433fb74071221f0125d99faa3e0fb5c
:105a2000121573740412219de9f5238532828533a2
:105a300083e06085853284853385059212246974fc
:105a4000041221f005921266eefca3e0fd790eaa85
:105a500027ab2812136f740112219d8ec7800b8e05
:105a6000c77900aa27ab2812131b74058014125a99
:105a700072223400f583a3a3a3a3221275a5e0220a
:105a8000740212219d85328285338302447b74f037
:105a900012220674fe1221b712243a8c218d22e9bb
:105aa000fe1256dff52574141221f0e0f527a3e06d
:105ab000f52890f79ce0c39525500b852782852813
:105ac000837401025b787a01a925121585e985277f
:105ad00082852883f06003025b99852582aa8274ff
:105ae000121221f0125bac74121221f0125ba5eac3
:105af000125bb0706c059212584da884a985e824f9
:105b000031126c5a705074121221f0125950e8245c
:105b10003412626eecf0a3edf0e8243612626eee01
:105b2000f0900363e0ffeef5237823122452ac21ba
:105b3000ad22ea24010ae43400fb900363e0f91289
:105b40001b19740112219d900363e06f6005eff94a
:105b50001213e7025bd4126c558527828528838057
:105b600017a92512158be9ffc39521e49522500b47
:105b70008527828528837407f0801ee521cfc39f87
:105b8000ffeec39f5002eeffad21effca92574127a
:105b90001221f0125bd01215a38526c7eff9025a25
:105ba00085f99003611246982290f7961275ca22e1
:105bb00075f006a4f8a9f090f7961260dda3e064f2
:105bc0000c22858482858583e024f9f98e828f8377
:105bd000127616227a017b009003a080077a017b5f
:105be0000090032e740802209974f112220674feac
:105bf0001221b712243a74f812218712669f740694
:105c00001221f0ecf0a3edf089277f00e5c7f5261f
:105c1000126c67f522126c8c5003025d81126ca32a
:105c200050048c218003eaf521e814fe8532828538
:105c3000338312759b74041221fae5820592f0a356
:105c4000e583f08013888489850592e0f8a3e0f964
:105c5000e80592f0a3e9f00eeec395214003025d42
:105c6000815392fe125ba974021221f0125ba5ee21
:105c700075f006a4f8a9f074021221f0125d8bf5fc
:105c800025a2e7500b126a48122174126a68800339
:105c9000126a56f585eaf5237823122452ac84adb6
:105ca00085790274051221f0125bd01219ed74018e
:105cb00012219de960a17a01eef9121585e970972c
:105cc000ac27853282853383e02406faa3e03400d2
:105cd000fbeef912157fe97003025c57eff87406ca
:105ce0001221fa124573126271a882a983efc3943c
:105cf000124003025d8174042fff8e23e5232401eb
:105d0000fae43400fbea05921266a68017ee75f0fd
:105d100006a4faabf074021221f05392fe125d99c0
:105d20006525601c0eeec3952240e2e5226e7010e0
:105d3000888289835392fea3a374fff0a3025c566a
:105d40001e74041221f05392fe125d94a3e0fb88ae
:105d50008289830592a3a3ea700374286b60177489
:105d6000016a700374286b600d74036a70037428f1
:105d70006b6003025c45ee2401f8e41266ae025c3f
:105d8000538526c7eff97408024e53125d8f221215
:105d900060e2e0221266f2fa22125da00592e02291
:105da000e02af584a3e03bf5852274f41222067400
:105db000fe1221b712243ae9ffecfeef126184fcd7
:105dc0008e82a882790060391460361460331460c2
:105dd00030146063147003025e75147003025ed7a2
:105de000147003025f25147003025f7314700302c2
:105df0005fd8147003026021147003025ed7026042
:105e00003bec6e600302603b8821892278211224da
:105e10004eeafcebfde5842403fae5853400fb1231
:105e20001cb7740212219d8b22ea4522700479016d
:105e30008002790002603b858482858583a3a3a3c9
:105e4000a3a3e06e600302603b88218922782112bf
:105e5000244eeafcebfd0592a3a3124466121cb784
:105e6000740212219d8b22ea45227004790180027e
:105e7000790002603b0592a3a3a3e0fca2e75004d3
:105e8000781080027802e86e600302603beca2e7c3
:105e9000501b547ff52189227404782112217490bb
:105ea000f798e02521f582a3e03522800dc333f871
:105eb000e433f990f79a12457539f583ac82ad83d6
:105ec000eef52105927821122452eef91219ed74a3
:105ed0000112219d02603b0592a3a3a3e0f523a339
:105ee000e0f524852382f5830592a3a3a3a3e06ea6
:105ef000600302603b88218922782112244eeafc4b
