:020000040000fa
:100000000200de021003000000000002100b0000de
:10001000000000021013000000000002101b00008e
:10002000000000021023000000000002102b00005e
:10003000000000021033000000000002103b00002e
:10004000000000021043000000000002104b0000fe
:10005000000000021053000000000002105b0000ce
:10006000000000021063000000000002106b00009e
:10007000000000021073000000000002107b00006e
:10008000000000021083000000000002108b00003e
:10009000000000020d0e1200f0b900030200d8e4c7
:1000a00090000278a479018002f0a3d8fcd9fa90dc
:1000b00000a5aa82ab839000f6780979018015e447
:1000c00093a3ac82ad838a828b83f0a3aa82ab8395
:1000d0008c828d83d8e9d9e71202e0120d2d75d0fc
:1000e0000075813f75188075931e5392fe0200962d
:1000f00079015392fe220010000000000200bb01b3
:1001000002e722c0925392fec082c08389828a8312
:10011000bb0003e08002e493d083d082d09222bb64
:100120000015c0925392fec082c0838a838982f0f8
:10013000d083d082d09222bb0101f722cac0e0e670
:10014000f30908dafad0e0fa22cac0e0e0f208a324
:10015000dafad0e0fa22600c08c6c313c618c61338
:10016000c6d5e0f422700422600d18c6c333c60859
:10017000c633c6d5e0f41822e4735392fed083d080
:10018000822518f8c518c39824fbcef208e520f2a2
:1001900008e9c0e07908e709f208defad0e0f9eff3
:1001a000f208d0e0fed0e0f208eef208e473a818fe
:1001b000e2fe08e208f520e9c0e07908e208f70964
:1001c000dffae208ffd0e0f9e208c0e0e208c0e0b0
:1001d00088185392fe22e584f208e585f222e208af
:1001e000f584e2f585227403800474028000c9c09e
:1001f000e0e518c399f518c912013cd0e0f9227462
:10020000038000c8c0e0e518c398f518c81201497a
:10021000d0e0f8227400f5d374022408f5d253928a
:10022000fe22a2afe433f8c2af5392fe906270e0b8
:10023000a2e740f5e9c333906272f0906270e0d2b9
:10024000e0f0e0a2e740fbe8a2e092af2274fa12ed
:10025000017aa2af33f8c2afed900002f0eca3f048
:10026000a37462f0a37473f0a3e4f0e9a3f0a374a1
:1002700012f0a37442f0eb906272f0ea906271f0b7
:100280007400f5d575d40275d601906270e0d2e1a4
:10029000f0e0a2e740fbe8a2e092af7f010201aeee
:1002a0005392fe906276e075c680e59e648070fa97
:1002b0009062707408f02274fa12017af9800c8a44
:1002c000828b83e029f9a3aa82ab83ecfeedffeedb
:1002d00024ff1cef34fffdee4f70e47f010201aefe
:1002e0005392fe900001e090001af0e5c7ff75c739
:1002f000007c007d707a007b901202b7e924a5fe95
:100300008fc77f01e5c7f5088fc77c007d807a0025
:100310007b801202b7e92efe8508c70fefc3940356
:1003200040e2ee7027e59d54186410700890001aa2
:10033000e0a2e040179000017403f005929000a540
:10034000e0f582a3e0f58305921201781202a090f5
:100350000001e4f01202141205ed12061d12067cd3
:1003600080fb74f812017a15181518a8181201d616
:1003700090620ee0fee4f0906211e0ffa2e45019fa
:100380007480f09000227407f012055f6006120579
:100390006a120178900022e4f0efa2e2500b906222
:1003a00011e4f0900022f0805c900022e0f87402ea
:1003b00068703e906216e0ff9000391201ffeff97d
:1003c0007a207b621206290518051805188f0890f7
:1003d000003c1205541205791205626004744080d5
:1003e000027448906211f0e8496003020541020579
:1003f00024740668700612056a120178900022e0e3
:1004000060030204d3efa2e0400302054175083106
:10041000750900750a0078081201e679087a207bd0
:100420006212062905180518051890003ee4f0a38d
:10043000f0900031e054e0600e24e0606a24a06097
:100440004024e06071807ea3e014602624fe601ddd
:1004500024fe600a24fc601f24fe602080671209cd
:10046000ef900022e064047064746080621209e915
:1004700080ef1209e380ea120b2280e5120c5a8009
:10048000e0a3e0600e24fa600f24fe601024fe60fa
:1004900011803212081a80c9120a3580c4120af873
:1004a00080bf120bfc80ba90003e74a4f0a37406c7
:1004b000f01206a480ab90003e746af0a37407f0bb
:1004c00012076a809c9000227404f0809c74409013
:1004d0006211f0900022e0f874016870597f029078
:1004e000003ce0f8a3e0f9c3e89420e99400500749
:1004f000e8f50a7f0a8003750a209000391201ff8f
:10050000a90a7a207b621206490518051805188584
:100510000a08120579120554ef906211f0e50ac33a
:100520009420501d12055f600612056a1201789032
:100530000022e4f0800b740568700612056a12014f
:1005400078ee90620ef0a8181201de051805187feb
:10055000030201aec3e09508f0a3e09400f02290fe
:10056000003ee0f8a3e0f9e84922059290003ee061
:10057000f582a3e0f583059222900039e0f9a3e02b
:10058000faa3e0fbe92508f9ea3400fa900039e91a
:10059000f0a3eaf0a3ebf0a322c008c0097800881a
:1005a0000874232508f58274003400f583e953921a
:1005b000fef008e8c3940540e67800880874282512
:1005c00008f58274003400f583e9f008e8c3940567
:1005d00040e9d009d008225392fe90001b7402f02b
:1005e000a3e4f0900022f0790312059922c008c01c
:1005f0000975082175090078081201ea7c007d0060
:100600007a407b00120d310518051890001b74020a
:10061000f090620f04f0e0a2e750fb80b553f4fec7
:10062000d29043fe015392fe22eec0e012066460b7
:10063000115392fee012011fe9240109ea3400fa85
:10064000d8efd0e0fe5392fe22eec0e012066460c6
:10065000111200fe5392fef0e9240109ea3400fa77
:10066000d8ef80de8a828b83e9f8a918e3fc09e3de
:10067000fd09e3feecf9edfaeefbe822eec0e053f3
:1006800092fe906206e0f8906202e0fe906204e062
:10069000e8a2e250031205d7eea2e0500312036273
:1006a000d0e0fe2274f712017a900032e07003026b
:1006b000074f14600302075f90001a7401f0900066
:1006c00022e0f87038900037e0f8a3e0f9e84970cc
:1006d0000d9000ab7402f0900022e40207649000d9
:1006e000397461f0a37400f0a3e4f0a3e8f0a3e987
:1006f000f09000227402f09000ab048067740268ee
:10070000705d900033e02440f508a3e03400f50963
:10071000e508541f701285080a85090b7405780acc
:10072000120156a90a120222900037e0240354fc59
:10073000f97c617d0074047808120165aa08ab0990
:1007400012024d900022e4f09000ab7405801590e9
:10075000001a7402f0900022e4f075c90880069037
:1007600000227404f07f040201ae5392fe90003226
:10077000e06403701a90003974a7f0a37400f0a32a
:10078000e4f0a37406f0a3e4f09000220480059046
:1007900000227404f0225392fe9000a1e4f0a374ae
:1007a0000ff02274fa12017a15181518a818120100
:1007b000d6eafcebf87a007b00088038e8604d054b
:1007c000929000a1e0fda3e0f5838d82a3e493fd68
:1007d000ec6d6034e96d70099000a1e0faa3e0fbd4
:1007e000189000a1e02efea3e03400ff9000a1eedf
:1007f000f0a3eff09000a1e0f584a3e0f585e40517
:100800009293fe70b7e860047a007b00a81812018a
:10081000de051805187f010201aec008120bee605c
:10082000030208f5a3e0f8a3e060030208f5a3e0e3
:1008300064027002a3e060030208f5900031e02436
:1008400080600914604f14605c0208f5e8600302e0
:1008500008f590002ee06004780180027800900096
:10086000a3e8f0a3e4f090002de0600a9000a3e07c
:100870004402f0a3e4f0900022e0640460149000cd
:100880003974a3f0a37400f0a3e4f0a37402120c73
:1008900051f0d0082290001be0640470589000a32f
:1008a000e4f0a380d0e8547ff50890001be06404d6
:1008b0007043e508c39406503c741b2508f5827408
:1008c000003400f583e854806018a3a3a3a3a3a376
:1008d000a3e0640370047801800278009000a3e82c
:1008e0008090e582240cf582e5833400f583e06492
:1008f0000370e780e19000227404809574f912017e
:100900007a15181518a8181201d6e9fa90003712ae
:100910000bf460030209cd90001be06404600b90af
:100920000035120bf460030209cd900031e0541f32
:1009300060091460231460120209cd900033e06452
:10094000017015ea90002d0209d2900035e0547f25
:10095000f508900033e0600479008079e508c394dd
:1009600006506ae50890620ef0741b2508f5847441
:10097000003400f585900035e054806021ea600481
:10098000741080027440906211f0ea600474038075
:1009900001e40592a3a3a3a3a3a3a3f08026ea6086
:1009a00004742080027480906214f0ea600474037e
:1009b0008001e4c0e0e584240cf582e5853400f58f
:1009c00083d0e0f05392fe90620ee4800590002206
:1009d0007404f07901a8181201de051805187f02c9
:1009e0000201ae79001208fc2279011208fc2253a0
:1009f00092fe900035120bf47018a3120bf47012d3
:100a0000900033e0f8a3e0f9e85480fae9fbea4b00
:100a100060079000227404801ae8906200f0900051
:100a20001b6009e06402700c74038007e0640370cb
:100a3000037402f02274f812017a120796900033c0
:100a4000e0faa3e0f914600814600d1460328038f5
:100a50007b007a0079018034eafb7a007902120780
:100a6000a3120ae3e92402f9ea3400fa89828a83ac
:100a7000e493f8740193f990003ce8f0a3e9801c3a
:100a8000eafb7a00790380047b007a001207a31244
:100a90000ae3a37b801200fea3f0a3e4f0900039e8
:100aa000e0fca3e0fda3e0feec4d4e9000227004bc
:100ab00074048029e064046025900037e0faa3e024
:100ac000fb90003ce0f8a3e0f9c3ea98eb995008ea
:100ad00090003ceaf0a3ebf09000227401f07f0359
:100ae0000201ae900039eaf0a3ebf0a37480f0901d
:100af0000039e0f9a3e0fa22120bee7010a3120bfa
:100b0000f4700aa3e064017002a3e0600790002281
:100b10007404800c900039741cf0a37400120c470c
:100b2000f02274f812017a90001be0640270030254
:100b30000bd5900035120bf46003020bd5a3120bfa
:100b4000f46003020bd5900034e06003020bd51271
:100b50000796900033e07003020bdd7b007a00798a
:100b6000021207a38a088b09ae08af09ee4f606531
:100b7000900033e0f88e828f83a3a3a3a3a3e49312
:100b8000c0e0e8fad0e06a70d290001b7404f0e88c
:100b9000a3f0750a008e828f83a3a3a3a3e493f826
:100ba000e50ac3985045850a08741d2508f5827426
:100bb000003400f583e4f07b007a0079041207a387
:100bc0008a828b83e58245836007a3a3a3e49370a5
:100bd000e6050a80c09000227404f0800e90001c8c
:100be000f090001b7403f0f9120599020ade53928b
:100bf000fe900033e0f8a3e0f9e8492274f812010e
:100c00007a90001be064047019900031e0648170f8
:100c100011120bf1700c900037e064017002a3e038
:100c200060079000227404801a900035e0241df5be
:100c300008a3e03400f509900039e508f0a3e509c0
:100c4000120c47f0020adef0a3e4f0a304120c51e8
:100c500022f0a3e4f0900022042274f912017a1524
:100c6000181518a8181201d690001be06404600340
:100c7000020d01900031e064016003020d0190005b
:100c800037120bf4707b1207967b007a0079021200
:100c900007a38a828b83e5824583600fa3a3a3a366
:100ca000a3e493f890001ce06870de7b007a027980
:100cb000041207a38a828b83e582458360430592f1
:100cc000900033e0f8a3e0f9900035e0faa3e0fbf0
:100cd000858284858385a3a3e493fcea6c7001eb91
:100ce000600f0592a3a3a3e493fce86c7001e97084
:100cf000ba741d2af58274003bf583e85392fe8096
:100d0000059000227404f00209d55392fe2274fa71
:100d100012017a15181518eafeebffa818eef20872
:100d2000eff2aa18ab937901120d0a80ee1200932c
:100d300022ecf9a818e2fc08e2fdec4d6017e9f896
:100d40008a828b83e85392fef0a3ec24ff1ced34df
:100d5000fffd4c70ef5392fe22ffffffffffffffee
:100d6000ffffffffffffffffffffffffffffffff93
:100d7000ffffffffffffffffffffffffffffffff83
:100d8000ffffffffffffffffffffffffffffffff73
:100d9000ffffffffffffffffffffffffffffffff63
:100da000ffffffffffffffffffffffffffffffff53
:100db000ffffffffffffffffffffffffffffffff43
:100dc000ffffffffffffffffffffffffffffffff33
:100dd000ffffffffffffffffffffffffffffffff23
:100de000ffffffffffffffffffffffffffffffff13
:100df000ffffffffffffffffffffffffffffffff03
:100e0000fffffffffffffffffffffffffffffffff2
:100e1000ffffffffffffffffffffffffffffffffe2
:100e2000ffffffffffffffffffffffffffffffffd2
:100e3000ffffffffffffffffffffffffffffffffc2
:100e4000ffffffffffffffffffffffffffffffffb2
:100e5000ffffffffffffffffffffffffffffffffa2
:100e6000ffffffffffffffffffffffffffffffff92
:100e7000ffffffffffffffffffffffffffffffff82
:100e8000ffffffffffffffffffffffffffffffff72
:100e9000ffffffffffffffffffffffffffffffff62
:100ea000ffffffffffffffffffffffffffffffff52
:100eb000ffffffffffffffffffffffffffffffff42
:100ec000ffffffffffffffffffffffffffffffff32
:100ed000ffffffffffffffffffffffffffffffff22
:100ee000ffffffffffffffffffffffffffffffff12
:100ef000ffffffffffffffffffffffffffffffff02
:100f000012010002000000205824feff0000010230
:100f1000030109021b0001010480250904000000ef
:100f2000fe01020409210d03e84000010104030948
:100f300004120342006c00750065006700690067d9
:100f400000610016034c006f007700200045006e22
:100f50000065007200670079000a03310032003337
:100f6000003400080344004600550000ffffffff67
:100f7000ffffffffffffffffffffffffffffffff81
:100f8000ffffffffffffffffffffffffffffffff71
:100f9000ffffffffffffffffffffffffffffffff61
:100fa000ffffffffffffffffffffffffffffffff51
:100fb000ffffffffffffffffffffffffffffffff41
:100fc000ffffffffffffffffffffffffffffffff31
:100fd000ffffffffffffffffffffffffffffffff21
:100fe000ffffffffffffffffffffffffffffffff11
:100ff000ffffffffffffffffffffffffffffffff01
:101000000210f7023053ffffffffff023b0effff0e
:10101000ffffff023bbbffffffffff023c6fffff35
:10102000ffffff0225fcffffffffff0238baffffb3
:10103000ffffff023d5affffffffff023c13ffffd0
:10104000ffffff023b96ffffffffffffffffffffda
:10105000ffffff023038ffffffffffffffffffff33
:10106000ffffffffffffffffffffff023a3affff17
:10107000ffffff023ce2ffffffffff023ac5ffff59
:10108000ffffff02305e7582fd75837f74001211d1
:1010900012121133b900030210e1e479347802b876
:1010a00000028004f709d8fce4900302789a7906dc
:1010b0008002f0a3d8fcd9fa90089baa82ab839057
:1010c0001139786379028015e493a3ac82ad838ae9
:1010d000828b83f0a3aa82ab838c828d83d8e9d9db
:1010e000e77582a97583f674021211127582ef7585
:1010f000837f740012111275d00075813f75310025
:10110000753202753303759f007593005392fe028a
:101110001091c09ff59fe473d09f225392fed0831d
:10112000d082c09fe493c0e0740193c0e074029346
:10113000f59f2279015392fe22030000020102036f
:1011400000000f00c3a88ee8b19dcf7f5eb98b9fd2
:1011500041efb055f401fa00960064004b003200f4
:101160001e001400d6be898e00010602121315144b
:1011700029417671ffc1fbe84c90728be7b351892e
:1011800063ab232302841872aa612f3b51a8e53771
:1011900049fbc9ca0c18532cfd45e300400000ff71
:1011a000fffffffaffffff00008000620000000564
:1011b000000600070000000100010000010001021c
:1011c000020300020000000000020201000240428f
:1011d0000f0019000000093d0000e4fffffffb3491
:1011e0009b5f8000008000100000000000000700ee
:1011f0000000ff00000000000201050000000000e8
:10120000020200800100010000000000010803004c
:1012100000000000000d0000000700000104800035
:101220000100008000000000070a04000000000028
:10123000070900000805c91acf1ad51adb1ae11ae6
:10124000e71a511a431c251cfd1c911c971c800099
:101250000405020000008000040606000000800073
:10126000040280000404800002000b0000008000e3
:1012700006000f17c11307193914a31c491c831b3f
:10128000eb1c4b1a4e0601ffffff0000000080ff21
:10129000ffffff00000000c000000012111bc2bed3
:1012a0000212111bdabe0212111b05bf0212111b22
:1012b00052bf0212111b6bbf0212111b9dbf021203
:1012c000111bdbbf0212111b0dc00212111b84c0c7
:1012d0000212111b99c00212111bb8c00212111b7d
:1012e000ddc00212111b34c10212111bcbc5021248
:1012f000111b7fc60212111bfefe0112111b16ffed
:101300000112111b87ff0112111bcaff0112111bd1
:10131000cbe30212111b24e40212111b8ce4021213
:10132000111ba4e40212111bcee40212111be8e40b
:101330000212111b1ce50212111b72e50212111b95
:10134000ade50212111b5de60212111b81e60212cd
:10135000111b09e70212111b34e70212111b76e779
:101360000212111b9be70212111bafe70212111ba5
:10137000c4e70212111b6ce80212111b02df0212f9
:10138000111b1edf0212111b58df0212111b66df38
:101390000212111b97df0212111bc4df0212111b74
:1013a000cddf0212111b10e00212111b93e002129a
:1013b000111b04e10212111b52e10212111b82e106
:1013c0000212111bd7e10212111babe20212111b18
:1013d000b6e20212111be9e20212111b22e3021211
:1013e000111b74e30212111bb1e30212111b06ff61
:1013f0000212111b26ff0212111b4fff0212111bba
:10140000b2fd0212111bc6fd0212111b1dfe0212bb
:10141000111bb7ff0212111bceff0212111b2ffd71
:101420000212111b5cfd0212111bab750012111b85
:1014300012760012111b29760012111b6d76001214
:10144000111bb3760012111b0d770012111b61786e
:101450000012111b89790012111b2b7a0012111b2b
:101460004f7a0012111b917a0012111b3f7b001260
:10147000111b8d7b0012111bea7b0012111bfd7bdf
:101480000012111bfd7c0012111b1d7e0012111b8e
:10149000937e0012111b00800112111bab810112ff
:1014a000111b2f820112111b82830112111bf48365
:1014b0000112111b2e840112111bfc840112111b3d
:1014c0008a850112111b4d860112111b75870112ad
:1014d000111b69880112111baa890112111b008ab4
:1014e0000112111b688a0112111be58a0112111bde
:1014f000868b0112111bf88b0112111b918c0112aa
:10150000111bf78c0112111b658d0112111bba8d75
:101510000112111b508e0112111b038f0112111b9e
:10152000ca8f0112111b9d910112111be893011228
:10153000111b2d940112111ba9940112111b11955d
:101540000112111b5f950112111b05970112111b4e
:10155000a5970112111b2a980112111b6b980112f9
:10156000111bdb990112111b3c9a0112111b529b9a
:101570000112111b529c0112111b7b9d0112111ba8
:10158000d69e0112111b97a00112111b47a3011235
:10159000111bd5a30112111b92a40112111b85a5c9
:1015a0000112111be9a50112111b2caa0112111b1a
:1015b00092ac0112111b64ad0112111bd7af0112c5
:1015c000111be1b00112111b0eb20112111b25b249
:1015d0000112111b72e80212111bb0e80212111b5a
:1015e00017e90212111b43e90212111b0fea021242
:1015f000111be6ea0212111be8fa0212111b41fb51
:101600000212111ba2fb0212111b09b90112111bbc
:1016100027b90112111b44b90112111b61b9011242
:10162000111be3b90112111b76ba0112111b48bc40
:101630000112111baebc0112111b1ebd0112111ba8
:101640005bbd0112111b90bd0112111bd2bd011215
:10165000111b40be0112111beebe0112111b06bf71
:101660000112111b42c00112111b6ac20112111b8f
:10167000f6c20112111b2ac30112111b58c4011218
:10168000111b83c50112111ba3c50112111bcac571
:101690000112111b06c60112111b39c60112111bc2
:1016a00006ca0112111b2eca0112111b7aca01129d
:1016b000111b03d00112111b49d00112111b89d03b
:1016c0000112111b3fd10112111b16d20112111b65
:1016d0008cd40112111bfdd50112111b6ed6011203
:1016e000111ba8d80112111b20d90112111b64d99a
:1016f0000112111bc8d90112111b1bda0112111b97
:10170000b7da0112111b05db0112111b60db01129c
:10171000111b6adb0112111ba7dc0112111b3add40
:101720000112111b06de0112111bb2de0112111b88
:1017300063e00112111b85e00112111ba2e20112ec
:10174000111bf7e30112111b94e40112111be5e4d4
:101750000112111b7de50112111b6de70112111b16
:101760007ee70112111b88e70112111b77e90112b4
:10177000111bd2e90112111b0fea0112111b7ceaa5
:101780000112111babea0112111b54eb0112111bc8
:10179000cfeb0112111b30ec0112111ba6ec011250
:1017a000111bc5ec0112111bfaec0112111b30eddb
:1017b0000112111b8fed0112111b9ded0112111b66
:1017c000dced0112111b4dee0112111b03f402128c
:1017d000111bc6f40212111be8f40212111b33f59f
:1017e0000212111b76f50212111b29fe0212111ba7
:1017f000e2a00212111b0ea10212111b5aa1021229
:10180000111ba7a10212111b23a20212111b93a4e8
:101810000212111bc5a50212111bcda80212111b29
:10182000dca90212111bd2aa0212111b59ac02121e
:10183000111bd4ac0212111be6ad0212111b2cebd2
:101840000212111b58eb0212111b6eeb0212111b3c
:1018500008ec0212111b30ed0212111b0080021263
:10186000111b67800212111b84800212111bb180b0
:101870000212111bdd800212111b11810212111bb9
:101880005e810212111b8b810212111bee8102126a
:10189000111b49820212111b0e830212111b8c8331
:1018a0000212111b2e850212111be6850212111b5a
:1018b000a8880212111b248c0212111b668c0212c2
:1018c000111be88c0212111ba08d0212111b9b8fa1
:1018d0000212111b3f900212111b80900212111b69
:1018e000ff900212111b57910212111b7d910212df
:1018f000111bd0910212111b11920212111b8d9318
:101900000212111ba7940212111bb8940212111b90
:1019100039960212111b4f960212111b7796021272
:10192000111b16970212111b2b970212111b5d97a8
:101930000212111b75980212111b0c990212111b35
:1019400042990212111b8b990212111b3e9a02122c
:10195000111b999a0212111b9e9b0212111bf29be2
:101960000212111b369c0212111b7d9d0212111bcb
:10197000e19f0212111b11a00212111b79a0021289
:10198000111b8df70212111b9af70212111bbdf7e2
:101990000212111b00f90212111b0df90212111b88
:1019a0003bf90212111b27da0212111b46da02124e
:1019b000111b11db0212111bb7dc0212111b15dd0a
:1019c0000212111b4ade0212111bb3de0212111b9e
:1019d000fafb0212111b28fc0212111b58fc021206
:1019e000111bd2ed0212111b5fee0212111b91eec0
:1019f0000212111b02ef0212111ba6ef0212111ba1
:101a0000ceef0212111b444c0012111b9b4c001212
:101a1000111be94c0012111bc04d0012111bb44eda
:101a20000012111bd4500012111b6b520012111b1b
:101a3000f1520012111bb9530012111bd1540012a4
:101a4000111b42550012111bee550012111b6f564f
:101a50000012111b2b570012111b9a590012111b57
:101a6000115a0012111bb15a0012111b5b5b0012bc
:101a7000111b705c0012111b585d0012111b5c6180
:101a80000012111b00630012111b51640012111b84
:101a900017670012111b116a0012111bca6b00128a
:101aa000111b546e0012111ba6720012111b1b7425
:101ab0000012111baa740012111b34750012111ba5
:101ac00088750012111b23f20212111ba1f20212df
:101ad000111bb7f20212111bcdf20212111be3f21d
:101ae0000212111b04f30212111b1af30212111b32
:101af00030f30212111b05ae0212111b70ae02125e
:101b0000111bd2ae0212111bf8ae0212111bbcaf98
:101b10000212111b66b00212111bb1b00212111b8e
:101b200050b10212111bb3b10212111b24b20212e6
:101b3000111b96b20212111ba9b20212111bbdb2e7
:101b40000212111bf2b20212111b24b30212111b5a
:101b500056b30212111ba5b30212111be5b30212f8
:101b6000111b39b40212111b48b40212111b51b4db
:101b70000212111b09b50212111b58b60212111bd9
:101b8000a7c60212111b9ac70212111b2bc90212ff
:101b9000111be0c90212111b49ca0212111b84ca8f
:101ba0000212111bd3ca0212111b1ccb0212111bf1
:101bb00065cb0212111b86cb0212111ba7cb02129e
:101bc000111bbfcb0212111bdacb0212111b2fcc3f
:101bd0000212111b85cc0212111be3cc0212111b45
:101be00040cd0212111b5fcd0212111b6fcd0212ec
:101bf000111b83cd0212111b91cd0212111b9dcd21
:101c00000212111bc9f50212111bf6f50212111b6b
:101c100019ef0112111bc0ef0112111b26fc01125a
:101c2000111b5bfc0112111b68fe0112111b29f034
:101c30000212111b91f00212111bb5f00212111bbe
:101c400004f10212111b59f10212111b00f20212cf
:101c5000111b19f20212111b7ab60212111b97b650
:101c60000212111ba7b70212111b08b80212111b96
:101c7000b3b80212111b3fba0212111bedba0212c5
:101c8000111b34bb0212111b9dbb0212111b01bca4
:101c90000212111b55bc0212111be4bc0212111bd3
:101ca00062bd0212111b2bbe0212111ba9cd021222
:101cb000111b06d00212111b3ed00212111b59d06b
:101cc0000212111b8cd00212111bb9d00212111b6f
:101cd000e9d00212111b14d10212111b48d10212b9
:101ce000111b70d10212111bb6d10212111bd8d1d7
:101cf0000212111b8dd20212111be0d20212111b13
:101d0000fbd20212111b44f90212111babf9021291
:101d1000111b0bfa0212111b0dfa0212111b23faee
:101d20000212111b6dfa0212111b95fc0212111bfb
:101d3000b3fc0212111b56d40212111b3bd5021226
:101d4000111b24d60212111b2cd60212111b34d6e1
:101d50000212111b8dd60212111b30d70212111b59
:101d60002fd80212111b62d80212111b37d902128e
:101d7000111b95d90212111b86100012111b99fe1e
:101d80000212111b64ff0212111bc07f00e066707b
:101d90001008a3e066700a08a3e066700408a3e0d8
:101da0006622c3e7960809e7960809e7960809e757
:101db00096a2d265d03322c3e09608a3e09608a38a
:101dc000e09608a3e096a2d265d03322c021c3e0fa
:101dd00096f52108a3e096422108a3e09642210847
:101de000a3e0964221a2d265d033e5217001d3d081
:101df0002122c3e7960809e7960809e7960809e74c
:101e00009622c3e09608a3e09608a3e09608a3e014
:101e10009622c021c3e096f52108a3e0964221084e
:101e2000a3e096422108a3e09645217001d3d0217a
:101e300022bb0102e722c0925392fec082c0838976
:101e4000828a83bb0003e08002e493d083d082d0f7
:101e50009222bb0015c0925392fec082c0838a8337
:101e60008982f0d083d082d09222bb0101f7220870
:101e70000808eac0e0ebc0e086f0e7a4fa1809869b
:101e8000f0e7a42afa180986f0e7a42afa180986c6
:101e9000f0e7a42afa1986f0e7a4fbe5f02afa197c
:101ea0000886f0e7a42bfbe5f03afa190886f0e77c
:101eb000a42bfbe5f03afa18180986f0e7a4c5f060
:101ec0002bfbe43afa1908e7c5f0c6a426f6e5f0bc
:101ed0003bfbe43afa1886f0e7a4f6e5f00826f6ac
:101ee000e43b08f6e43a08f6d0e0fbd0e0fa22e45e
:101ef000cfc0e0e4cec0e0e4cdc0e0e4ccc0e0750b
:101f0000f020c3e633f608e633f608e633f608e6d3
:101f100033f6181818ec33fced33fdee33feef33d7
:101f2000ffc3ec9709ed9709ee9709ef9719191977
:101f3000400fffec97fc09ed97fd09ee97fe19198c
:101f400006d5f0beecf709edf709eef709eff71942
:101f50001919d0e0fcd0e0fdd0e0fed0e0ff221265
:101f60001fc7181818121eef121fb61919192212be
:101f70001fb6191919080808e618181820e7e01202
:101f80001eef121fc718181822090909e719191995
:101f900020e7dc080808e618181820e703021eefff
:101fa000121fc7181818121eef121fc71818181280
:101fb0001fb619191922e4c397f709e497f709e442
:101fc00097f709e497f722e4c396f608e496f60833
:101fd000e496f608e496f6226017080808c6a2e719
:101fe00013c618c613c618c613c618c613c6d5e03e
:101ff000e9226016080808c6c313c618c613c61817
:10200000c613c618c613c6d5e0ea22700908080828
:10201000226016181818c6c333c608c633c608c6c9
:1020200033c608c633c6d5e0ea22e627f60809e635
:1020300037f60809e637f60809e637f622e026f60d
:1020400008a3e036f608a3e036f608a3e036f62249
:10205000e026f008a3e036f008a3e036f008a3e09d
:1020600036f022c3e697f60809e697f60809e697e0
:10207000f60809e697f622c3e0c696f608a3e0c67e
:1020800096f608a3e0c696f608a3e0c696f622e008
:1020900056f608a3e056f608a3e056f608a3e05665
:1020a000f622e647f60809e647f60809e647f60885
:1020b00009e647f622e046f608a3e046f608a3e064
:1020c00046f608a3e046f622e046f008a3e046f014
:1020d00008a3e046f008a3e046f022e066f608a375
:1020e000e066f608a3e066f608a3e066f622e0f6ee
:1020f00008a3e0f608a3e0f608a3e0f622e6f0085d
:10210000a3e6f008a3e6f008a3e6f022e0faa3e0d5
:10211000fba3e0fca3e0fd22eaf0a3ebf0a3ecf0cc
:10212000a3edf022cac0e0e6f0a308dafad0e0faa4
:1021300022cac0e0e0a30592f0a30592daf6d0e04f
:10214000ca225392fefae9fb7921e7f0a309dafaf1
:10215000e8f0a3ebf9f0a3ecf0a3edf0a3eef0a30d
:10216000eff0a3e520f0a3e5f0f0a3e592f0a3e5fe
:1021700084f0a3e585f0a3e581f0a3e531f0a3e5c4
:1021800032f0a3e533f0a3d0e0fad0e0f0a3caf038
:10219000eac0e0e0c0e07a007b00225392fecac0b1
:1021a000e0ebc0e07921e0f7a309dafae0f8a3e078
:1021b000f9a3e0fca3e0fda3e0fea3e0ffa3e0f5ac
:1021c00020a3e0f5f0a3e0c0e0a3e0f584a3e0f5f0
:1021d00085a3d0e0f592d0e0fbd0e0fae0f581a352
:1021e000e0f531a3e0f532a3e0f533a3d0e0d0e091
:1021f000e0c0e0a3e0c0e0ea4b70027a0122b9003f
:1022000010bb0008e88af084f8aaf022e4fbc8fac0
:1022100022eb70227b10c833c8c933c9335007c3bf
:102220009ac3dbf280069a50012adbeac833f4c86d
:10223000c933f4c9fa2275f008e4c833c8c933c9f0
:1022400033c99ac99b5004c92ac93bd5f0ecfbc8d5
:1022500033f4c8e4c9fa22600d08c6a2e713c61811
:10226000c613c6d5e0f322600c08c6c313c618c651
:1022700013c6d5e0f422700422600d18c6c333c61d
:1022800008c633c6d5e0f41822253210af08f5325f
:10229000400215338008f53240021533d2af22c018
:1022a000d0253210af08f532500205338008f532e0
:1022b00050020533d2afd0d0222532f58210af08bc
:1022c000f532400215338008f53240021533d2afa3
:1022d00085338322c5822532c582c583353310af4d
:1022e00007f5338582328007f533858232d2afc558
:1022f00083222532f582e43533f583222532f584b5
:10230000e43533f58522e4735392fe2532c582c04d
:10231000e0e53334ffc583c0e0e532c3958224f89d
:1023200010af0885833385823280088583338582a8
:1023300032d2afcef0a3e520f0a37821e608f0a3d7
:10234000defaeff0a3e58124faf8e608f0a3e60848
:10235000f0a3e608f0a30808e608f0a3e608f0a357
:1023600015811581d0e0fed0e0f815811581158129
:10237000e8c0e0eec0e0225392fe2532c582c0e004
:10238000e53334ffc583c0e0e532c3958224f910fc
:10239000af08858333858232800885833385823216
:1023a000d2afcef0a3e520f0a37821e608f0a3debb
:1023b000faeff0a3e58124fbf8e608f0a3e608f0c5
:1023c000a30808e608f0a3e608f0a315811581d05c
:1023d000e0fed0e0f815811581e8c0e0eec0e02213
:1023e0005392fe853383853282e0a3fee0a3f5207d
:1023f0007821e0a3f608dffae0a3ffe0a3c0e0e065
:10240000a3c0e0e0a3c0e0e0a3c0e0e0a3c0e01010
:10241000af08858232858333800885823285833395
:10242000d2afd083d0825392fe0211185392fe8510
:102430003383853282e0a3fee0a3f5207821e0a378
:10244000f608dffae0a3ffe0a3c0e0e0a3c0e0e00d
:10245000a3c0e0e0a3c0e010af08858232858333db
:102460008008858232858333d2afd083d082539265
:10247000fe22c0925392fec0d02532c582c0e0e554
:102480003334ffc583c0e0e532c3958224f210af38
:10249000088583338582328008858333858232d2f2
:1024a000afc8f0a3e9f0a3eaf0a3ebf0a37921e72a
:1024b00009f0a3d8faecf0a3edf0a3eef0a3eff04f
:1024c000a3d0e0f0a3d0e0f0a3d0e0f0a3e520f0ab
:1024d000a3e5f0f0a3d0e0f0225392fe853383858c
:1024e0003282e0c0e0a3e0f9a3e0faa3e0fba37826
:1024f00021e0f608a3dffae0fca3e0fda3e0fea3e1
:10250000e0ffa3e0c0e0a3e0c0e0a3e0f5d0a3e0db
:10251000f520a3e0a3f5f0e0a3c0e010af088583a9
:10252000338582328008858333858232d2afd0e012
:10253000d082d083f592d0e0f8d0e032e584f0a3e9
:10254000e585f022e0a3f584e0f585227404800699
:10255000740280027401c0e0f4041222b9d0e012c7
:102560002124227404800a74038006740280027499
:1025700001c0e0f4041222b9d0e012213122d0834c
:10258000d082c5f0e493a3c5f0c395f0f5f0e493d1
:10259000a3c395f04005e5f0048001e475f002a4c2
:1025a0002582f582e5f03583f583e493a3c0e0e46a
:1025b00093c0e022d083d082e9c0e0e493a3c38635
:1025c000f0c5f095f0f908e493a386f0c5f095f016
:1025d000700be493a3c3994005e9048002a3e4755a
:1025e000f002a42582f582e5f03583f583d0e0f989
:1025f000e493a3c0e0e493c0e022ffffc0e0c0d0ba
:1026000075d008c092c082c083c0f0759800e5a85c
:10261000f8c2af5392fe9004d4e0d2e1f0753400da
:10262000e8a2e7e433fee8a2e792af1212e3d0f0ab
:10263000d083d082d092d0d0d0e032c082c0835339
:1026400092fe906059e0f89004a3e028f090605862
:10265000e0f89004a4e028f090605a12267490608c
:102660005e12267490605ce0f89004a6e028f0d03a
:1026700083d08222e0f89004a5e028f022c082c036
:10268000835392fe9004a3e4f0a3f0a3f0a380deb2
:1026900074f7122377790012197f9003ef122eb589
:1026a000eac398f8eb99f9e82404fee93400ff90b6
:1026b00003fce0fca3e0fdc3ee9cef9d402e9003e5
:1026c000fae0fca3e0fd9003fee02af8a3e03bf96a
:1026d000e8c39cf8e99df99003ef122eaca3ecf04f
:1026e000a3edf09003fcecf0a3ed80239003ef1238
:1026f0002b829003fc122ca99003fc122eb59003a0
:10270000f1122eac9003f8e070047402800114f012
:102710007aed7b031236e902373c74f7122377e92e
:10272000600924fe601d14601a80329003f6e0a256
:10273000e350099003f9e06024148020c2e2f0d253
:10274000e380199003f6e0a2e2500c9003f9e064f4
:1027500008600ae0048005c2e3f0d2e2f09003f7db
:10276000e070089003f574fff0804890600a122b27
:102770007a703d90618fe0c0e09003f9e0f8740852
:10278000c398f8d0e0b800028004c313d8fcf52148
:1027900074ff6521700990600ae4f0a3048010e5dd
:1027a000212401f8e43400f990600ae8f0a3e9f08c
:1027b00012269002373c74f7122377e924fc600656
:1027c00024fe6028800d9004bce06401705e121647
:1027d000d98059900416e064017011900410e4f05f
:1027e0007b09122fa5790012396f8040900410e008
:1027f000700890040e74fff08032790012197f8afd
:10280000218b22a821a922900412e028faa3e03902
:10281000fb90618fe0541ff8ea28f8eb3400f99040
:102820000408122eac7a067b041236e902373c7497
:10283000f712237774fe1222b912253c900460121d
:102840002eb5e82412fae93400fb90605ce06008e1
:102850008a828b83e0d2e1f0e82430fce93400fd89
:10286000e82432f584e93400f58590605ae070067a
:1028700090605ee060368a828b83e0a2e14019d2ec
:10288000e1f0e82422f582e9122b5f122b7212226a
:10289000768c828d831236e1e40592f0a3f0790004
:1028a0008532828533835392fe023734e8241ef545
:1028b00082e9122b66fea3e0ff858482858583e092
:1028c0002ef0a3e03ff08c828d830592e0fca3e024
:1028d000fdc30592e09ca3e09d50c388828983a339
:1028e000a3a3a3a3a3a3a3a38582848583858a82ac
:1028f0008b83e0a2e1500474088002743e0592f0dc
:102900007b02888289830592a3a3a3a3a3a3a3a385
:10291000e0fa790012396f7901808574f512237716
:1029200074fe1222b912253c122b6a240a122b4e75
:10293000fc7003022b49ee242e12339a122eb58e10
:10294000828f83a3a3a3a3a3a3a3a38582238583a9
:10295000248e828f83a3a3a3a3a3a3a3a3a3aa824a
:10296000ab83ee2434122b63687003a3e069701a02
:1029700074026c7003022adf74016c607774096c56
:1029800060258a828b8374228055ec1460661470f3
:1029900003022adf24fa601c14600c1460421470d5
:1029a00003022b25022b49906008e0a2e6500302a7
:1029b0002b49802cee2439122b5c8013888289836a
:1029c000a3a3a3e064037003022b498882898312c6
:1029d0002b7a70e88a828b83e0641370037416f09c
:1029e0007b02852382852483e0fa790012396f798e
:1029f00001022b4bee245512319eee244cfcef3499
:102a000000fdea24fff521eb34fff522e521687093
:102a100003e52269706dee244d122c088e828f839f
:102a2000122b808c828d83e0c333f8e433f9e824e1
:102a300003f8e93400122ea3900491e0a2e05009bb
:102a40008e828f83a3a3122ea89004abe4f0a3f090
:102a5000a3f0a37402f0900491e0a2e04003022be3
:102a600049906062e4f08c828d83e0f875f0e2a416
:102a7000c8aaf075f004a42af9e8122e98122eac18
:102a8000022b49ea687002eb696003022b49752149
:102a9000097522007821122550ee241bfaef34002c
:102aa000fb121d81740212229f900491e0a2e0505b
:102ab00007eefaeffb12161fe40592f0ee24221245
:102ac000339a122b72122276ee2430122b5c1236bd
:102ad000e1ee2432122b5ce4f0a3f07b08805de889
:102ae000240108e93400f9ee245c122b63687003ba
:102af000a3e06970547521057522007821122550d4
:102b0000ee2457fcef3400fdee2424faef3400fbf2
:102b1000121d81740212229feefaeffb1216d3e40b
:102b20000592f08024eefaeffb1212e9e40592f030
:102b30000592900491e0a2e0500f7b0785238285e7
:102b40002483e0fa790012396f7900022faaf58404
:102b5000ef3400f5850592e022ee2414f582ef12a1
:102b600033a622f582ef123514229004601234ed60
:102b7000ee22122cd57403782122122eb9e84922b4
:102b8000a3a3e028f0a3e039f02274f812237774ad
:102b9000fe1222b912253c900460e0f584a3e0f512
:102ba0008512291be9704e12282fe97048e584240c
:102bb0002ef582e585122b662401f0a3e03400f0a7
:102bc000906008e0c0e0e5842436f582e585122bac
:102bd0005fd0e0f0e584241ef582e585122c0b051c
:102be00092a3a3e028f0a3e039f0059290046012cc
:102bf00031a11236e985328285338312254474026d
:102c000012229f7f0102242cf582ef1233a6122c90
:102c10001222e0f8a3e0f9e8c333f8e933f92274ab
:102c2000f712237774fe1222b912253c8a828b8315
:102c3000a3a3ac82ad839004b0ea241ef584eb120a
:102c40002b51f8a3e0f9e8c333f8e933f990049382
:102c5000e0f521a3e0f522122cbf0592e028f8a3ad
:102c6000e039f98c828d83122eac9004ab122cb219
:102c70008c828d83122ca99004ad122cb27a207b09
:102c80004e1221fe882189228c828d83e09521f0cd
:102c9000a3e09522f09004b2122cb2e8c333f8e915
:102ca00033f9e8122e9002372dc3e098f0a3e09993
:102cb000f022122eb9900493122cd5122cbf22e8c8
:102cc0008521f0a4c8aaf08522f0a42afa8521f073
:102cd000e9a42af922e0f521a3e0f5222274f712f3
:102ce000237774fe1222b912253c122b6a24121289
:102cf0002b4ea2e35008c2e3f00592022e848e828e
:102d00008f830592a3a3858221858322906062e050
:102d10006010791012197f852182852283eaf0a341
:102d2000ebf012291be96003022e8d12282fe960b7
:102d300003022e8d906008e0c0e0ee2436122b5c7a
:102d4000d0e0f09061d5e0f89061d7e0680592603e
:102d500005e0d2e28003e0c2e2f00592906062e01a
:102d60009004ad6017e024c0faa3e03437fb1239b9
:102d7000449004b21234f3122e9080151231a11235
:102d8000392e9004b2122c0e906064e028f0a3e07b
:102d900039f0852182852283e024fff0a3e034ff0f
:102da000f0ee242b122b639004aff0ee2420122bb4
:102db0005c122b7a604b8e828f83a3a3a3a3a3a361
:102dc000a3a3a3a3e0703aee243212319eea4b7023
:102dd00030ee243912319eea4b7026e8240108e9ce
:102de0003400f9900493122eac852182852283123f
:102df0002eb59004b0122eaceefaeffb122c1f8011
:102e0000279004937401f0a3e4f0ee241e122c0822
:102e1000852182852283122b829004ab122eb585e8
:102e20002182852283122ca98e848f850592a3a3eb
:102e3000a3a3a3a30592906064122eb57a717b02be
:102e40001221fee82405f8e93400f985848285859d
:102e500083122eac8e828f83a3a3a3a31231a185ec
:102e60008482858583e0f8c3ea98eb99a2d265d085
:102e7000335005eaf0a3ebf0122eb2ee242e122b03
:102e80005c122b829004601231a11236e902372eb7
:102e9000122e98e8f0a3e92224eaf8e93402f99026
:102ea000606422f98e828f83a3a3a3a3e8f0a3e931
:102eb000f022900493122eb922e0f8a3e0f92274d4
:102ec000f512237774fe1222b912253c8031c2e537
:102ed00012389ac0e09004bae0122f89d0e0f09046
:102ee00004bae004f0a3e004f0a3e004f09004be10
:102ef000e0700c7401f07b007a00790012396f9059
:102f0000605ae0f521906002e0a2e0500478008071
:102f10000590605de0f89004bbe0fae52128f8e454
:102f20003400f9e86a7001e960579004bae0f523cb
:102f300074012523547ff521e523122f89e0f80839
:102f4000089004bae028f074802521f5827460129c
:102f5000339d900460e0f8a3e0c82408f584e834c9
:102f600000f585e0a2e70592e04003022eced2e50f
:102f7000f0122f9c24dbf0122fa5122f9c4a022e58
:102f8000de853282853383802a122f8d22547ff88a
:102f9000748028f58274603400f583229004bae0ce
:102fa000122f8de02212389ffa22853282853383d8
:102fb0005392fe122544740212229f7f0402242c95
:102fc00074f512237774fe1222b912253c8921056b
:102fd00092900460e0f582a3e0f583858284858386
:102fe00085a3a3a3a3a3a3a3a3e0a2e740479004c0
:102ff000bde0f8906054e0c398f5229004bde02550
:1030000022f0ae82af838012ee2439faef3400fb57
:103010001215f5ea4b60031217e185222374ff2590
:1030200023f5220470e2e521a2e640097900eefad8
:10303000effb121751022faac0e074f1122472e5bf
:1030400035f5c675a70075a100795012199d7f014d
:103050000224d9c0d075d01875bf00d0d032c0e0de
:10306000c0d075d018c092c082c083c0f0e535f5dd
:10307000c6e591fe759b00f4f5915392fe906002b7
:10308000e0a2e050047800800278087900e844016a
:103090005e6003122ebfeea2e55004f9122fc0eebf
:1030a000a2e75029e5a8f8c2af9004d4e0d2e0f03e
:1030b000753400e8a2e7e433f9e8a2e792afe594bb
:1030c000a2e24009759403e594a2e250faeea2e66a
:1030d0004003023175906061e0f99004bbe4f09028
:1030e00004bdf09004601231a18a828b83a3a3a354
:1030f000a3a3a3a3a3e02410601224fc600924fc72
:10310000700f12271a80661227b680611216198076
:103110005c900490e060051460148023906060e08f
:103120006480601be0c0e0123189d0e080109060c4
:1031300058e0f890605ce028f8123189e028f090bf
:103140006060e064806016e0c0e0900460e0f8a396
:10315000e0c82413f582e8122b5fd0e0f0900491d0
:10316000e0a2e05005122cdd8003122b8a12263bd0
:103170001216078004a2e75003123741d0f0d08323
:10318000d082d092d0d0d0e032ea242cf582eb125b
:103190003514fa746b2af58274041233a6221233a2
:1031a000a3e0faa3e0fb2274f712237774fe122245
:1031b000b912253c900460e0fca3e0fd122eb2ecb5
:1031c0002429f582ed122b5fec242bfaed3400fb61
:1031d0008a848b857401687001e97012e0f80592a9
:1031e000e028fac39425402a74db2afa8024e0f50b
:1031f00021e88521f0a4f8aaf08521f0e9a42af9b4
:103200000592e0fae82af8e93400f97a257b001201
:1032100021feeaf074075af87401b800028004c372
:1032200033d8fcfbea131313541ff8ec28f8ed34e1
:1032300000f9e82424f582e912339de05b702a80ce
:1032400005e8cac39afaec24e5f582ed122b66f87c
:10325000eac39850ec8a21ec2521f8ed3400f9e816
:1032600024c0f582e9122b66faec242cf582ed12cb
:103270002b5fea02372d74f612237774fe1222b9ff
:1032800012253c900417e09060026004740e8002e6
:10329000740ff0900411e0906001f09008c61221c4
:1032a0000c90619512211812175d900416e0f5211b
:1032b0007401652190040f7040e05402f97a187b84
:1032c0000412163d90040fe0a2e050097a9d7b04a1
:1032d00075214080077a977b04752100a2e1500494
:1032e0007e8080027e0075230678231225547c1888
:1032f0007d04e5214e44018066e0a2e050087a9dfd
:103300007b04784080067a977b04780005929004cd
:103310003d12256f7c1e7d0474ca2521f582740838
:1033200012339de048f9121643740112229f900453
:1033300016e0f86005740268702e90040fe0a2e0b9
:1033400050087a9d7b04784080067a977b04780049
:10335000059290045d12256f7c3e7d04e84404f9db
:10336000121643740112229f90040fe0a2e0e4338e
:10337000f9121637759100900417e090618260048d
:1033800074c8800274c0f08532828533831225446c
:10339000740212229f7f0302242cf582ef1233a6bf
:1033a000059222f582ef3400f58322c082c0835358
:1033b00092fe906002740ff09003f8e004f0640352
:1033c0007002e4f0e02425906000f09008c612211d
:1033d0000c9061951221189003f6e05420f9121612
:1033e0003712175d9003f6e0a2e15004d2f080029c
:1033f000c2f0a2f0e43390600cf09003f6e0a2e19a
:10340000503575d90da2e55004784080027800e867
:103410004403f5d9e0a2e550067a9d7b0480047a46
:10342000977b04790612160d740675d9001470fa8c
:10343000e5e170fc75e19575910090618274c102bf
:10344000266e74f812237774fe1222b912253c12ec
:1034500034e012175d122b5912210c906195122144
:103460001812352f1231a71234f8f584ef3400f515
:103470008585848285858312351a121751ee2412b0
:10348000122b63a2e250180592e0f8a3e0f58388be
:10349000820592a3a3e02402f89061d5e028f0020f
:1034a0002bf574f81223771234e012175d122b59a2
:1034b00012210c90619512211812352f1231a7128a
:1034c00034f8122b5c12351a121751ee241e122bef
:1034d0005c1234f324fcf8e934ff122ea3022c030f
:1034e0009004601234ed906002740ff022e0fea3ad
:1034f000e0ff22122c12e822ee242c1235119060eb
:1035000000f07591009004c8e0906182f0ee2439db
:1035100022f582ef3400f583e022122eb9ee243733
:103520001233a3e8f0a3e9f07900eefaeffb22ee04
:103530002436123511906008f0ee241812351190df
:103540006005f0ee2419123511906006f0ee241a91
:10355000123511906007f02274f112237774fe1275
:1035600022b912253c7521007522007c677d0480fc
:103570001b888289831234ed8c828d83eef0a3ef59
:10358000f0888289831236e1882189228c828d839a
:10359000122b6d4f70398c828d83eaf0a3ebf08a89
:1035a000828b83e4f0a3f0aa21ab2285328285339b
:1035b00083122544740212229f7f0802242ce523e3
:1035c0002527f8e5243528f98a828b83122b80ee93
:1035d000f8eff988828983a3a38a848b850592a357
:1035e000a3e0f523a3e0f5240592e0c39523f5239a
:1035f000a3e09524f5248a828b83a3a3a3a3a3a38a
:10360000e0f525a3e0f526c3e5239525e5249526d9
:10361000a2d265d033403e8a828b83122eac8a823e
:103620008b83a3a3a3a3858284858385122eb5c330
:10363000e52398e52499a2d265d033500d85848284
:10364000858583e523f0a3e524f08c828d83eaf061
:10365000a3eb0235a688828983a3a3a3a3a3a3e037
:10366000f527a3e0f528c3e49527f525e49528f58b
:1036700026c3e5259523e5269524a2d265d03350af
:10368000288a828b83a3a3a3a3a3a3a3a3e0a2e777
:1036900050030235be88828983a3a3a3a3a3a3a357
:1036a000a3e0a2e7500302357188828983a3a3a314
:1036b000a3858284858385c3e49523fce49524fd5a
:1036c0001234edc3ec9eed9fa2d265d033500b8532
:1036d0008482858583ecf0a3edf0e8fce9fd0235fa
:1036e0008ce521f0a3e522f02274f712237774fe13
:1036f0001222b912253cea4b6031a2afe433fec27c
:10370000af1235588a828b838016aa82ab8385825a
:10371000848583850592e0f582a3e0f58312355810
:10372000e582458370e4eea2e092af8001f085323d
:1037300082853383122544740212229f7f02022461
:103740002c74f5122377790012197f8a238b247940
:103750007712199d9061b1e4f0e070f87401f0e027
:10376000640170f8900467122eb5900460122eacbc
:10377000e8497012123883e594a2e2400302387dd2
:1037800075940002387d888289831231a190046784
:10379000eaf0a3ebf088828983a3a3122cd5888258
:1037a0008983a3a3a3a3e02521f8a3e03522f9e8a8
:1037b00024fdfee934ffff906060748012389a2483
:1037c00010601424fc600624fc60078047123276e7
:1037d00080521233ab804de521c39523e522952419
:1037e000c39400a2d265d0335025e5232401f521ee
:1037f000e5243400f522c3e5219ee5229f400ae539
:10380000212401fee5223400ff9003ef1236e1127d
:1038100017638010900491e0a2e0500512344280ba
:10382000031234a2aa21ab227930121991eefaefd9
:10383000fb7940121991795412199de521c3952302
:10384000f8e5229524f9c3e89401e99400a2d26531
:10385000d033500c121775e5e170fc75e121801d25
:10386000900367e0a2e04012aa21ab2212198b90cc
:1038700004a71221181238838003121775121853e7
:10388000022fbbe5a8f8c2af9004d4e0c2e0f07507
:103890003400e8a2e7a2e792af22f012389f22900c
:1038a0000460e0f8a3e0c82408f582e83400f5835a
:1038b000e0220000853487c2af22c0e0c0d075d0be
:1038c00018c092c082c083c0f074fc122289539247
:1038d000fe9004d5e0601c121631900367e054118d
:1038e0007008e5c654384487f5c69004d5e4f0c2a4
:1038f000c78026c2c7853282853383aa82ab8312f2
:10390000176fe9640170129004d57401f08532825a
:1039100085338312210c1218477534007404122267
:103920009fd0f0d083d082d092d0d0d0e03275c377
:10393000007420c39afa744e9bfbeaf5a2ebf5a340
:103940005392fe22c02175c301e5a2f521e5a375be
:10395000c300f9e5212420f8e9344ef9e8c39af8c8
:10396000e99bf9e8f5a2e9f5a3d0215392fe227470
:10397000f5122377e9feeaff8b21753400a2afe44c
:1039800033f522c2af900576e0f524740125245466
:103990000ff523900575e06523700579001219f77e
:1039a000e52475f003a4f8a9f0740328f874053928
:1039b000f9e82442f582e93400f583eef0e8244387
:1039c000f582e93400f583eff0e82444f582e93428
:1039d00000f583e521f0e523900576f0e522a2e0ed
:1039e00092af7f0402242cc082c08374fc1222890f
:1039f000e5a8f8c2afe5958532828533835392fe00
:103a0000f0e596c0e074011222f2d0e0f0e597c034
:103a1000e074021222f2d0e0f0e8a2e7a2e792af4f
:103a200074031222f2e4f085328285338312210c72
:103a3000740412229fd083d08222c0e0c0d075d0ff
:103a400018c092c082c083c0f0e59da2e040fae5b4
:103a50009da2e050fa1239e7900608122118e5ab52
:103a6000f8e5895890060cf0e58090060ff0900676
:103a70000ce0f4f5899062d0e0f8a2e150279006be
:103a80000ce0a2e5501f53abdf9062d0e0a2e0e46f
:103a900033900612f090060ce0c2e5f07b307a001d
:103aa000790612396f90060ce0600b7b007a007982
:103ab0000612396fc2bdc2c5d0f0d083d082d09279
:103ac000d0d0d0e032c0e0c0d075d008c092c08263
:103ad000c083c0f0e59da2e040fae59da2e050fa67
:103ae0001239e7900608122118e58df8e58a58f892
:103af00090060df0e590900610f0e8f4f58a7b0151
:103b00007a00790612396f539aefc2eb80aac0e0af
:103b100074f11224729061a9e06017c2afe589f8d0
:103b2000e5abf975ab00e4f090624bf0888989aba6
:103b3000d2af900617e0640f7012e5c7f8900368e3
:103b4000e0f5c790ff1ce0f4f5ae88c7e5bbf9e5ea
:103b5000bafae9fb900617e0c333f8e433f97418b6
:103b600028f582740639f583eaf0a3ebf090061786
:103b7000e02410fb7a00790612396fe5a8f8c2af8d
:103b80009004d4e0c2e2f0753400e8a2e7a2e79224
:103b9000af7f010224d9c0e0c0d075d018c092c058
:103ba000f0e5d1f875d100c2c0a2e350097b037ad9
:103bb00000790412396fd0f0023abec0e0c0d0756f
:103bc000d010c092c021c022c082c083c0f05392e6
:103bd000fe90070e123cd4602b9006c9e0700c7466
:103be00001f07b007a00790412396fee90070ef035
:103bf000e5c1c0e074102521f58274073400f58317
:103c0000d0e0800be5c4a2e650069006c87401f02f
:103c1000023cc3c0e0c0d075d010c092c021c02209
:103c2000c082c083c0f0c2e95392fe9006cbe0fa96
:103c30009006cae09a543ff860258a2174cc252169
:103c4000f5827406123d3e9006cbf089c190070cb8
:103c5000e06870197b027a00790412396f800ee5f2
:103c6000a8f8c2af9004d4e0c2e3123d4a8054c029
:103c7000e0c0d075d010c092c021c022c082c083e5
:103c8000c0f05392fe900798123cd4602a900753dc
:103c9000e0700b7401f07b00fa790412396fee903a
:103ca0000798f0e5f9c0e0749a2521f5827407348d
:103cb00000f583d0e0800be5fba2e65006900752aa
:103cc0007401f0d0f0d083d082d022d021d092d015
:103cd000d0d0e032e0f52174012521543ffea3e06d
:103ce0006e22c0e0c0d075d010c092c021c022c0ea
:103cf00082c083c0f0c2ea5392fe900755e0fa906a
:103d00000754e09a543ff860258a2174562521f51e
:103d1000827407123d3e900755f089f9900796e0ae
:103d20006870197b027a01790412396f800ee5a858
:103d3000f8c2af9004d4e0c2e4123d4a808534005a
:103d4000f583e0f974012a543f22f0753400e8a2ab
:103d5000e7e433f9e8a2e792af22c0e074f012245e
:103d600072906206e0f89007f0e048f0906202e09e
:103d7000543ff521752200740478211222769007b1
:103d8000f0e04521f0a3e04522f0906204e0543ecb
:103d9000f521752200740978211222769007f1e04e
:103da0004522f09007f0e054046007e054fbf01265
:103db0001cb59007f1e054016013e054fef0900749
:103dc000ffe060097b037a00790712396f121ce566
:103dd0009007f1e05420600de054dff07b027a00a0
:103de000790712396f758b00c2e87f020224d9036c
:103df0003f0000030004280d9808900790019401eb
:103e00001b0195111b08f00939821f0ea4fecd82fb
:103e1000210622fb381818162118f0ef3818f2ed99
:103e20003828f2eb3868f003392a1fe73f08f0041e
:103e300028ba3868f0393c08f1053c88f1173ca8ed
:103e4000f10e3ce09f2c1f0128104a291fd63f1578
:103e5000d0033827d00938009004289f3f01281547
:103e60004101980128014a25d01f38041f831f0ee5
:103e7000a4fecd042205381421202807a0083f06ff
:103e800028681527d0e939202807d0f2388321780f
:103e9000f10238042188f1083d0628a14001f00410
:103ea000288438042807a005284d1528f1163c68f9
:103eb000f1143d77cf1240599202d80f3912d00732
:103ec00039699222d00439799242d004380528ef1a
:103ed000151e3fc09f04286c3f08f1233c88f12049
:103ee0003d094028f1103d4540f7c759f2083d9380
:103ef00003131183e1b9f00f3c23e00d3f09d8ea29
:103f000038f9c30b3f68f1033d59f2f23c09d8f987
:103f1000390528bd150528f01501900128214a050d
:103f20001f48f00c3c08f10a3868f1033c98f10690
:103f3000390c960528f9150228843f47a00c9605f0
:103f400028f315531f0528e31507288ced0528ece9
:103f50001501280195711b01280ce40528e5155170
:103f60001f88f10b3808f1073868f1093901282159
:103f70004201f00b3947d009383521063f28f103bb
:103f80003838f10339351f341f04280ce047d003bb
:103f90003903280ce80528c815571f28f00638569d
:103fa0001f811f021f38f0063930215b9005283b26
:103fb00015fd3f88f1033d0428f7150528811547b5
:103fc000d0133808f10f392c470cf00c38c403b467
:103fd000125c110c3e04f00a38c103802801a04194
:103fe0001b063f3021043f07284ced4c1b5b9047dc
:103ff000d0173827d00328e8390ea4fecd02220db1
:1040000039002208381021002914e00328dd3c4c37
:104010001bf13f05289e15ee3f46181221033f0570
:1040200028021588f13039052811150128fb413087
:104030002100291be00a3d0428f61505280715f67e
:10404000c35192166a3b906b080428ed150428feb4
:10405000150bf0fb3917d004382d1f0128c43f037e
:1040600028214701f008390328314701f00439a21b
:10407000958090033fc29500920328b615201b54eb
:10408000900128b33f08f10539052111900128213d
:104090004a38f103390021023f302110216a03041c
:1040a00028c2156b033141224128f1093d02f0027b
:1040b00039f29101f00b39ff28f191083f02f0022b
:1040c00039529201f00339ff28f193f7cb1b060216
:1040d0003907a4b20c073d47d003286e382490035b
:1040e00028753f1690b6080428b115a6030428ae1b
:1040f000153be0f7ce28f1703c012807a0f090a016
:104100000668f1323d149030f0053938f103285e2d
:1041100038073f50f003285a3958f10328573838e8
:10412000f104380328ab15033f03288915032875cc
:1041300015012807d0033907a1563f424130f00c42
:104140003907a112d0033807d84e3887a0c14041a3
:10415000d04a38f7ce483f38f1033822d0443807e8
:10416000d8423907a1403f78f1123847d02d3800a6
:10417000f0033860f00639c14011d0073887a0112c
:104180003f10f0033820f0ab3977cf0b3f00f0033e
:104190003810f0a539414181d00439032850150960
:1041a0003f03286c1568f10539414141d0023907b8
:1041b000b810f0063903283115012807d003380755
:1041c000d8123907a1103f40f00228fc3903281407
:1041d0001507d8f838083fa1038340311231051183
:1041e000d0023907a14bf0063c04281d1504282ee7
:1041f00015fa3f042818151bf0fd3d38f10338036c
:1042000028a115f7cd0328214701f00539032831ee
:104210004701f0033807a2f7ce224082d00a3806c1
:104220000304281415069376062611960404280e16
:104230001571034112002871c021070438e7cf41ee
:1042400098043f17d0043951980728214817d00502
:1042500038f295202800901d3f07d20438c29500ff
:1042600092183f07d10438d2950094133f07d40425
:1042700038e29500980e3f809028f10a3d3190a1d8
:104280000631f0063903a4b2950228aa1500a1a2ae
:10429000950228a615201b28f1633d08f10a390173
:1042a0002807d00739072851411128c14a0128079a
:1042b000a017d20539e3cf8ad0023813a007d20560
:1042c00039b3cf4ad0023843a083d01e393103110d
:1042d00012310521d00739319907282148002915c5
:1042e000e0133f529502287c15454003d10d394219
:1042f0009502287615281f21990728214803d20402
:1043000038629502286d1573cf834808f109397713
:10431000cf17d0063907d203390ad1023887a03423
:104320009007d2073807d803383090543f07a802c7
:104330003ff7c718f15a3927d04c39314011d049cd
:104340003987d0073917d0453907d203390ad14107
:104350003805f04b39414001f0483850903b3f68f8
:10436000f1153878f13938149017d03d3907d23d1e
:104370003987d003383490393f07d137391190014c
:1043800028214a409003286e15253f47d01c382429
:104390009007d30c3911900128214a87d008385151
:1043a00044002911e0043a514c023877cf17d01b52
:1043b0003987d003383490193f07d31739c14021ca
:1043c000d01438073f17d00f3907d3033830900285
:1043d0003f009044900a3f249017d0053907d30539
:1043e000393490033fa09f44900221c190511b811a
:1043f00021342124f0083927d004390c9cfd2bae40
:104400003f10904490b7cf34f00e3953210328e188
:1044100095711b541f0f28cc9506282141f1c081ae
:10442000111c09143f0190511b0728f19f711b803b
:104430002114f00128863854f0fd2b0a380128adec
:104440003f541f032864151028cced03286d157602
:10445000217821501f0128a29a217001b2218001e8
:10446000b221802ce30328601574210128ace408f4
:10447000f1073c88f1033d02289715032821150117
:104480001f0128349d03285015201f002168f009c2
:104490003d069058f003390728364102289315fa53
:1044a0003f0728504078f10439331f321f04215050
:1044b0000000dc01287c3828f1103d8340f7cb3127
:1044c000031112310521d0033903d1033900d8106b
:1044d0003807a41b901a90163f00d8012868399815
:1044e000f107394b700128e2412b0800288e3f105c
:1044f0002807a04b701bf0fc2bed3c4a7022412892
:10450000f1303d02f00239f29112e0b20cfc2be2e4
:104510003c419031061111ff2be29f3204520022e0
:10452000111a042a043240002862c018f103392706
:10453000d00d3922f0093907280141b1090029219c
:10454000e0093a0aa1073f42f00339face033f627d
:10455000f0f93818f1253977cf0ad1223887a02011
:104560003f02f00239529212e0b20cfc2bb33c68cd
:10457000f1123d38f1153887d01339012831420145
:10458000f00f38402807a00728914231c0c1a0078a
:1045900028914a063f02280190710621121a04ff51
:1045a0002bf29fb2084be0a60302280c152603024b
:1045b00028091568f1293cfbf0273c6290467002ff
:1045c000280115d2370428609662904670062d01a6
:1045d00028f915c23778f11839d04000d81538dbe2
:1045e000f0133c829046700128ed15d237764400d6
:1045f000d40338060e023f060d41700128e3154131
:104600007086120128df153290b20c053d4670010c
:1046100028d915fb3f08f1063941721128c14a011a
:104620002807a0ef28f7cf28f11e3d83403090a047
:104630000631031112310521d003398295043f3030
:10464000f0043972950028cc1553c843d0023823a2
:10465000a007d4023803a130f0023903a2834892a4
:10466000950028be1506900bf005380128ab1559aa
:104670001ffb3f0ea4fecd0122043902286a15fa61
:104680003f551f1121031f249008f10f390ad10350
:104690003987d02438314011d0213905f0213941f2
:1046a0004001f01e3850901b3f48f1073828f103b5
:1046b0003858f1063987d0143877cf1490113f78e5
:1046c000f1053911900128214a093f98f1093982f1
:1046d0009500288a15281f5490033f009044900e9f
:1046e000a4fecd0322043902283415fa3f13212ced
:1046f0001801210321741ff1900000f1370190513e
:104700001b0728f19f711b8021322107289142311c
:10471000c00728914abf28f7cf28f1063c88f1044a
:104720003d92955e15281f44f0383814f00a38542d
:10473000f0fb2b8e3801280ce40128f615fc2b0227
:104740003f01289015009027d0283902d808383822
:10475000f12439329001289215e237193f19e08986
:10476000f2043c38f11a39599238f103390128869c
:104770001512409103002951e2120e12d0f03801b7
:104780002886150128b9151240012891153199077d
:104790002821482c18fe2b553f0128104a0028a933
:1047a00015fb2b2b3ff09f043fd09f023fb09f0093
:1047b00028d0152c1ff23f28f1053c68f1033d1469
:1047c00090053f2090023f10904490419807282187
:1047d0004838f1fe2b0a380028b515fe2b063f217c
:1047e0007011e02180020001282141072821482181
:1047f0007811e021880200f7c7761571033112a104
:104800000501d4023907a80428649631150238f747
:10481000c70428c4f6fb3c0200fe28f7cf641551fc
:10482000417111a10501d80339012807a064911f26
:10483000150338fe28f7cfc4f1fb3c0200f7c7533d
:10484000155141022807a00ad40339fd28f7cf519a
:1048500011a10501d4023907a8c49104286596075f
:10486000150238f7c7563124f2fb3c02000028db62
:10487000150028ec15412d160c0200f7c73415d091
:1048800032d332234268f109394141904041d0048a
:104890003850000306023f03033142022807a00af2
:1048a000d404395100fd28f7cf130644920428653b
:1048b000960028b9150028ca155631ff28e19f40f7
:1048c00070060c023813068ea0810064e044f5f8ef
:1048d0003c0029f4e2a4f2ed3c03f0023807a8d32f
:1048e0002fd02f02009bf0023c020007a12de00216
:1048f0000098f10938102807d0033908f10438313d
:10490000990728214808f10c39012807d0093807f0
:104910002851411128c042010c0338072850491181
:1049200090082807d005380628b148f728f7cf04a3
:104930002807d005380628a148fb28f7cf302129c1
:104940001f0200311fff28f19f411b301f31210240
:1049500000022101210321532309380628d14001f7
:10496000d112384198072821480b3f54230c385066
:1049700021f1910000f137741ff1900000f13768c8
:10498000f0023c2b1f0190511b81210728f19f71e0
:104990001b80210728914231c00728914abf28f780
:1049a000cf322134210200082807d007390628b168
:1049b0004001f00438082807a0020004280d98fee2
:1049c0002bf43f402807d00d390ea4fecd01220460
:1049d000390028bf15fa3f661b112100291be00290
:1049e000000728a64a0ea4fecd012204390028b1f2
:1049f00015fa3f01283142b10941e0053a08384b28
:104a0000f00c38ea3d0728a142611be73f072891d7
:104a10004271cf0728914af73f0728914281a207a8
:104a200028914ada3f0ea4fecd02220439002891d3
:104a300015fa3f4618122100291be01bf0063958d1
:104a40001f0628e0400128004a020017d00a393129
:104a500022063817a0419807282148033f0728a6b7
:104a6000480200124038f1093802d8073991030092
:104a70002941e2120e120d1248020047a07b280cb9
:104a80009c10215215ff2b5e15b7cf020059f2037f
:104a9000396391083f69f20339e392043f79f203e5
:104aa000394396020004280d98fa2b143f02d407cc
:104ab000389103002901e21170062861480200883c
:104ac000f10a3c012831410728814ab146032831c7
:104ad0004fa1460f3f0728894a28f1063d3144037c
:104ae00028314f5140053f552851950328314f81ba
:104af000110328214f0200e3f3033cf190033f230d
:104b0000e051920628614a0628434802007b21773b
:104b10002141900000f137702175217a218cee043b
:104b200015521f801f02004c1b001f47d00338275f
:104b3000d009390ea4fecd002203390b15f73f1022
:104b400021020004280d9838f1fe2b2738fe2b3c5b
:104b50003fd23202180119210601d41a3812181650
:104b60002162f003392a1f2d3f12f2153822f22854
:104b700038fe2bef1568f0063c61900128114afec3
:104b80002bb8153021280304280d98f92b373f0145
:104b9000d114381421202807d00d3878f1123904a7
:104ba000231038714401f002398144002911e07169
:104bb0004c083f202807a0053f01d20538152127c2
:104bc000a0d22f020011d00638102104280d98fd24
:104bd0002bf33ff2ce5200121bf43f0306030202f6
:104be00003030206020303010502020100010101a1
:104bf0000100000302000005000207070002030194
:104c0000010108060605030404010306020202026c
:104c1000010f00080305050207000000030202015e
:104c2000050501010901010201010202010103055b
:104c3000000100030100000001010404020302045a
:104c40000104010074f5122308eafeebff8923e951
:104c5000c394114003752310852321752200782108
:104c6000122550121d81740212229f741065236058
:104c700027852382aa827410c39af52195e0f52234
:104c800078211225507c007d00ee2afaef3400fbdb
:104c9000121d87740212229f02539374f612230886
:104ca00074fe1222b912253c74db122289853282ed
:104cb000853383aa82ab8312179390063c74251226
:104cc0006b7d742612741474041266c51225507c10
:104cd000257d007a387b067905125c531223067411
:104ce0000212229f74250255d874f012230874fe14
:104cf0001222b912253c74df1222898a848b8585a1
:104d0000328285338374201269c1a3ae82af83855a
:104d10003282853383858221858322782112255032
:104d200074031222f2ac82ad838e828f83e0f9127b
:104d3000643f121547740212229f124e56e8f0a3e8
:104d4000e9f08e828f83e0f8a3e0f990063e124de1
:104d5000b0900642124e632407125c6290095078ac
:104d60002512203d900954782512208f740878254b
:104d700012200b782179251220a29009587821124f
:104d800020b590063878211220fd74011222f28598
:104d9000822185832278211225507a387b06790b6f
:104da000125c53122306740212229f7421024e9e3b
:104db000e8f0a3e9126b76124dbb221250cce02230
:104dc00074f012230874fe1222b912253c74df120b
:104dd00022898a848b858532828533837420f0858d
:104de0008221858322782112255074031222f2ac8d
:104df00082ad8312643f12154d740212229f124e2f
:104e000056124db0900640124e632405125c62901b
:104e1000095c782512203d900954782512208f7462
:104e200008782512200b782179251220a29009609c
:104e300078211220b590063878211220fd740112d5
:104e400022f285822185832278211225507a387baf
:104e5000067909024da00592e0f8a3e0f9059290c9
:104e6000063c22f0f525f582ac827d0022782112e5
:104e700020b590063878211220fd85328285338353
:104e800085822185832278211225507a387b067904
:104e900007125c53122306740212229f74401222de
:104ea0009f853282853383122544740212229f7fac
:104eb000080223e074e812230874fe1222b91225b6
:104ec0003c74fb1222898a298b2a752b00752c00d1
:104ed0008a828b8378211220eee5c7c0e074041229
:104ee00022f2d0e0f0900368e0f5c78a828b83a3ba
:104ef000a3a3a3e0fa8529828b838a25e4f526f50e
:104f000027f528782512203d90f7e8e0f52de4f507
:104f10002ef52ff530740b782d12200b7825792d76
:104f2000121df250030250808529848b850592a3bf
:104f3000a3a3a3a30592900964782112203deafe61
:104f4000e5215403fc7003024fe074031222f27453
:104f5000fff074021222f274fff074011222f212b6
:104f600050c58c82aa82740412598150057404c3fe
:104f70009cfe8e257526007825122550ac84ad85c3
:104f800074021222f2e5822afae5833400fb121d34
:104f900081740212229f7904853282853383ac8228
:104fa000ad83852125852226852327852428740223
:104fb0007825121ff2aa25ab261214218e25e5842e
:104fc0002525f584e5853400f585852982852a83a4
:104fd000a3a3a3a3e0c39efe900968782112203dfd
:104fe000eec394044032eef9ac84ad85852125856d
:104ff000222685232785242874027825121ff2aae9
:1050000025ab261214218e25e52554fcf8e58428cd
:10501000f584e5853400f58574035efc60687403ef
:105020001222f274fff074021222f274fff0740183
:105030001222f21250c58c257526007825122550b3
:10504000ac84ad8574021222f2aa82ab83121d8158
:10505000740212229f853282853383ac82ad838ea7
:1050600025e4f527f5287821792512202a7402787d
:1050700021121ff2aa21ab227404f9121421800616
:10508000752b80752c0174041222f2e0f5c790068e
:105090003ce52bf0a3e52c1262f974071266fb12b3
:1050a0002550125c49122306740212229f740512c5
:1050b000229f853282853383122544740212229ff7
:1050c0007f100223e074ff1250ccf022f085328270
:1050d0008533832274e812230874fe1222b9122544
:1050e0003c74c01222898a828b8385828485838561
:1050f0000592a3a3a3a3e0fee5c7ff900368e0f534
:10510000c790f7e8e0f525e4f526f527f528740bb8
:10511000782512200beec3944140027e4005927820
:10512000291220ee78257929121df2400302520a35
:10513000852921852a22852b23852c248e2de4f593
:105140002ef52ff5307821792d12202a7821792516
:10515000121df25005e529f404fe90096478291225
:10516000203d852921852a22852b23852c24740f17
:105170007821121ff2e521f5238523c7ac29e52a02
:105180004480fd8e82858225752600ec2525f5213b
:10519000ed3400f522c3e5259521e49522501078e1
:1051a0002512255074021222f2aa82ab838051e5a7
:1051b00025c39521f525e49522f52678251225505d
:1051c00074021222f2aa82ab83121d81740212228f
:1051d0009f74012523f5c778211225507c007d801e
:1051e000c3e49521fae49522fb8e2174021222f287
:1051f000e5822521f8e5833400f9e82afae93bfb4a
:10520000121d81740212229f80027e008fc7ee90d1
:10521000063c124e63240112565bf526f5279009d1
:1052200068782512203d7408782512200b782179a2
:10523000251220a290096c78211220b590063878aa
:10524000211220fd85328285338385822185832248
:1052500078211225507a387b067905125c53122387
:1052600006740212229f74400250af74f012230899
:1052700074fe1222b912253c74c01222898a828bd4
:10528000837521007522007800e0fec39406501f4c
:10529000853284853385ac84ad85a3e0fb7a0279c1
:1052a00000ee125398125c58122306e9f880067536
:1052b00021807522011262dff0e81252dc12203ddb
:1052c000900954782512208f7408782512200b78c5
:1052d0002179251220a2900974024e6da3f0f525c4
:1052e000f582ac827d002403125c669009707825fb
:1052f0002274f512230874fe1222b912253ceafe2c
:10530000ebff7523008e828f83a3e0fb74ff6b603d
:105310001c7c007d007a0479008e828f83e012600d
:10532000f9125c58122306e970037523018e828fef
:1053300083a3a3e0fb74ff6b60257c007d007a03f0
:1053400079008e828f83e0125398125c58122306e4
:10535000e97004d2f08002c2f0a2f0e4334223e507
:1053600023a2e05006788079018004780079001249
:1053700053ab740e1266fb122550125c49122306c1
:10538000740212229f85328285338312254474026f
:1053900012229f7f030223e0c333fee433ff74a491
:1053a0002ef58474093ff58505922290063ce8f0bd
:1053b000a3e91274a2e4f0a32274ec12230874fe91
:1053c0001222b912253c74c01222898a848b8585e9
:1053d0008482858583a3a3a3a3e0f8c394405004eb
:1053e00088218003752140e5c7f522858482858563
:1053f0008378251220ee740f7825121ff2e525f52b
:10540000c7852182ae828e23752400782312255011
:1054100085848285858378251220eeac25e5264497
:1054200080fd74021222f2aa82ab83121d817402e3
:1054300012229f8522c785848285858312210c9044
:10544000063c122118ee900640f02405e43400f5e5
:1054500026e4c526f525e4f527f528e0f529e4f549
:105460002af52bf52c90095c782912203d900954df
:10547000782912208f7408782912200b7825792931
:105480001220a290097878251220b5900638782548
:105490001220fd853282853383858223858324789b
:1054a00023122550eefc7d007a387b067909125cc8
:1054b00053122306740212229f744012229f8532d7
:1054c00082853383122544740212229f7f0c0223ab
:1054d000e074f012230874fe1222b912253c74c045
:1054e0001222898a848b857940853282853383ac08
:1054f00082ad83126e27121829e9f874ff687006ce
:105500007a807b0180047a007b0090063ceaf0a35d
:10551000ebf074ff6870047e00800ce8c394405088
:1055200004e8fe80027e40ee1252dc12203d740838
:10553000782512200b782179251220a290097c026f
:105540004e6d74f612230874fe1222b912253c74b3
:10555000f91222891216557f007e0085328285332a
:1055600083ac82ad8374011222f2aa82ab83eef97e
:10557000121973e9602074011222f2aa82ab8385aa
:105580003282853383e0f9121649e9600890063cbf
:105590001266b3800e0f0eeec3940840be90063c18
:1055a000e4f0a3f0efa3126baf74071266fb1225b1
:1055b000507c007d007a387b067907125c531223f9
:1055c00006740212229f7407800e1266fb12255089
:1055d000125c49122306740212229f85328285339f
:1055e00083122544740212229f7f020223e074ec8e
:1055f00012230874fe1222b912253ce9fe8c258d77
:105600002690063ceaf0a3ebf0eea3f0f529f58234
:10561000ac827d00240312565bf52af52bf52c9005
:105620000970782912203d7408782912200b7821fe
:1056300079291220a290098078211220b59006388d
:1056400078211220fd78251225507a387b067907bb
:10565000125c5312230674020254bb12565f22e4fa
:105660003400f522e4c522f521e4f523f524227463
:10567000f612230874fe1222b912253c74fc122281
:1056800089ea14600614603b025726900607e0245e
:10569000026005146009800e90063c7484800c90b2
:1056a000063c748a800590063c74851266e91225d2
:1056b00050125c49122306740212229f900607e4de
:1056c000f080637e00853282853383aa82ab83eecd
:1056d000f912196de96048ee90063c124db790063c
:1056e0003df074011222f2e0540190063ef0740382
:1056f0001222f2e090063f1261217480f0a374043c
:105700001262f3141266fb1225507c007d007a3879
:105710007b067908125c53122306740212229f0e34
:10572000eec39408409f74040255d874f212230803
:1057300074fe1222b912253c8922ebfeea600d2488
:10574000fb6029147003025927025943900607e0b1
:10575000fa74401259814003025885e0f87440c33e
:1057600098f52402588790060774fef0ee70030245
:105770005943900607e0a2e75027eec39441400446
:105780007f408002eeff7cc77d05effb1259581267
:105790005c58122306e9cec39efe70030259438073
:1057a000d9c39404504de0701605929009841225d7
:1057b000637b017a0079081219af740412229f905a
:1057c0000607e0f87404c39812598c500ae0f87484
:1057d00004c398f52180028e21125975ab2112590c
:1057e00058125c58122306e9f8cec39efe900607b5
:1057f000e028f0e0c39404500302576ce0640470a6
:10580000189005c7e06003025766a3e0c3943d40cb
:105810000890060774ff02576b900607e0f89005a2
:10582000c8e02404c398f8c39e5004882480028ee4
:1058300024e8601e900607125975ab2412595812bd
:105840005c58122306e9f8e524687006900607e024
:1058500028f0e524cec39efe900607e0fa9005c826
:10586000e02404f8e43400f9e86a7001e960030216
:10587000576c900607e0f97ac77b05121ab79006b5
:1058800007e402576b8e24e524c39e50030259237c
:10589000852425752600782512255074c72afa74a8
:1058a000053400fb121d81740212229f900607e04e
:1058b0002524f0e0c3940450030259439005c8e046
:1058c000fc900607e0faec2404f8e43400f9ea98c6
:1058d000e499406f74042cf524f97ac77b05121af9
:1058e000b7a824900607e0c398f07c00900607e074
:1058f000f8ecc39850bd8c82a882852425e8252524
:10590000fae43400fb74c72af58274053bf583e0a2
:10591000c0e074c728f58274053400f583d0e0f048
:105920000c80c97900801ee5c7f525900368e0f575
:10593000c790ff25e0f974ff6960057a00121ba18a
:105940008525c77901853282853383122544740207
:1059500012229f7f060223e07a027900e522c333f8
:10596000f525e433f52674a42525f5847409352638
:10597000f585059222e0f874c728fc74053400fd13
:1059800022c39a12598ca2d265d03322f895e0f93d
:105990008e25c3e89525e994002274f61223087435
:1059a000fe1222b912253c8a828b837a007b00e0aa
:1059b000f8c3940340057a800b804e8582848583ea
:1059c000850592a3a3e870150592a3e0f58f0592d3
:1059d000e0600553f7df803143f720802c740168c5
:1059e00070150592a3e0f5f60592e0600553f7bf48
:1059f000801743f7408012e06004780080027880ce
:105a00000592a3e0541f48f5f712729774050255ea
:105a1000ca74f012230874fe1222b912253c74e0f5
:105a20001222898a848b85858482858583a3a3e05d
:105a3000f8c394205004e8fe80027e20eefc8532fc
:105a400082853383aa82ab830592e0f9121bd1e9e8
:105a5000f5250592a3e06003121bbf12724be4f020
:105a6000a3f0e525a3f01252e012203d740878253a
:105a700012200b782179251220a290098878211212
:105a800020b590063878211220fd85328285338337
:105a900085822185832278211225507a387b0679e8
:105aa00007125c53122306740212229f7420024ec6
:105ab0009e74f512230874fe1222b912253c8a2125
:105ac0008b228a828b83a3a3a3a3a3ac82ad838af8
:105ad000828b83a3a3a3a38a848b850592a3a3a30c
