:020000040000fa
:100000000200de021003000000000002100b0000de
:10001000000000021013000000000002101b00008e
:10002000000000021023000000000002102b00005e
:10003000000000021033000000000002103b00002e
:10004000000000021043000000000002104b0000fe
:10005000000000021053000000000002105b0000ce
:10006000000000021063000000000002106b00009e
:10007000000000021073000000000002107b00006e
:10008000000000021083000000000002108b00003e
:10009000000000020d281200f0b900030200d8e4ad
:1000a00090000278a579018002f0a3d8fcd9fa90db
:1000b00000a6aa82ab839000f6780979018015e446
:1000c00093a3ac82ad838a828b83f0a3aa82ab8395
:1000d0008c828d83d8e9d9e7120306120d4775d0bb
:1000e0000075813f75188075931e5392fe0200962d
:1000f00079015392fe220010000000000200bb01b3
:1001000002e722c0925392fec082c08389828a8312
:10011000bb0003e08002e493d083d082d09222bb64
:100120000015c0925392fec082c0838a838982f0f8
:10013000d083d082d09222bb0101f722cac0e0e670
:10014000f30908dafad0e0fa22cac0e0e0f208a324
:10015000dafad0e0fa22600c08c6c313c618c61338
:10016000c6d5e0f422700422600d18c6c333c60859
:10017000c633c6d5e0f41822e4735392fed083d080
:10018000822518f8c518c39824fbcef208e520f2a2
:1001900008e9c0e07908e709f208defad0e0f9eff3
:1001a000f208d0e0fed0e0f208eef208e473a818fe
:1001b000e2fe08e208f520e9c0e07908e208f70964
:1001c000dffae208ffd0e0f9e208c0e0e208c0e0b0
:1001d00088185392fe22e584f208e585f222e208af
:1001e000f584e2f585227403800474028000c9c09e
:1001f000e0e518c399f518c912013cd0e0f9227462
:10020000038000c8c0e0e518c398f518c81201497a
:10021000d0e0f8227400f5d374022408f5d253928a
:10022000fe22a2afe433f8c2af5392fe906270e0b8
:10023000a2e740f5e9c333906272f0906270e0d2b9
:10024000e0f0e0a2e740fbe8a2e092af2274fa12ed
:10025000017aa2af33f8c2afed900002f0eca3f048
:10026000a37462f0a37473f0a3e4f0e9a3f0a374a1
:1002700012f0a37442f0eb906272f0ea906271f0b7
:100280007400f5d575d40275d601906270e0d2e1a4
:10029000f0e0a2e740fbe8a2e092af7f010201aeee
:1002a0005392fe906276e05470643070047803805c
:1002b000027807e5c7f988c790ff00e090001af0c0
:1002c00089c7a2e05004788080027800e8f5c6e58e
:1002d0009efce86c70f99062707408f02274fa1257
:1002e000017af9800c8a828b83e029f9a3aa82ab78
:1002f00083ecfeedffee24ff1cef34fffdee4f70ac
:10030000e47f010201ae5392fe900001e090001bd9
:10031000f0e5c7ff75c7007c007d707a007b901206
:1003200002dde924a5fe8fc77f01e5c7f5088fc769
:100330007c007d807a007b801202dde92efe85083c
:10034000c70fefc3940340e2ee7027e59d54186495
:1003500010700890001be0a2e040179000017403a9
:10036000f005929000a6e0f582a3e0f583059212d5
:1003700001781202a0900001e4f012021412061398
:100380001206431206a280fb74f812017a151815a2
:1003900018a8181201d690620ee0fee4f0906211e7
:1003a000e0ffa2e450197480f09000237407f0126b
:1003b00005856006120590120178900023e4f0efa5
:1003c000a2e2500b906211e4f0900023f0805c9068
:1003d0000023e0f8740268703e906216e0ff90001f
:1003e0003a1201ffeff97a207b6212064f051805d9
:1003f0001805188f0890003d12057a12059f120506
:10040000886004744080027448906211f0e849608a
:100410000302056702054a74066870061205901209
:100420000178900023e060030204f9efa2e04003aa
:10043000020567750832750900750a00780812010f
:10044000e679087a207b6212064f05180518051810
:1004500090003fe4f0a3f0900032e054e0600e24fe
:10046000e0606a24a0604024e06071807ea3e01414
:10047000602624fe601d24fe600a24fc601f24fe0a
:1004800060208067120a09900023e064047064749d
:10049000608062120a0380ef1209fd80ea120b3cb1
:1004a00080e5120c7480e0a3e0600e24fa600f2453
:1004b000fe601024fe6011803212083480c9120ad6
:1004c0004f80c4120b1280bf120c1680ba90003fee
:1004d00074caf0a37406f01206ca80ab90003f7491
:1004e00084f0a37407f0120784809c9000237404a6
:1004f000f0809c7440906211f0900023e0f8740149
:100500006870597f0290003de0f8a3e0f9c3e894d9
:1005100020e994005007e8f50a7f0a8003750a2055
:1005200090003a1201ffa90a7a207b6212066f0539
:100530001805180518850a0812059f12057aef900c
:100540006211f0e50ac39420501d12058560061261
:100550000590120178900023e4f0800b7405687018
:1005600006120590120178ee90620ef0a8181201a2
:10057000de051805187f030201aec3e09508f0a35d
:10058000e09400f02290003fe0f8a3e0f9e849226f
:10059000059290003fe0f582a3e0f583059222905a
:1005a000003ae0f9a3e0faa3e0fbe92508f9ea3410
:1005b00000fa90003ae9f0a3eaf0a3ebf0a322c01e
:1005c00008c0097800880874242508f5827400346e
:1005d00000f583e95392fef008e8c3940540e678fd
:1005e00000880874292508f58274003400f583e931
:1005f000f008e8c3940540e9d009d008225392fee0
:1006000090001c7402f0a3e4f0900023f079031230
:1006100005bf22c008c009750821750900780812b5
:1006200001ea7c007d007a417b00120d4b05180524
:100630001890001c7402f090620f04f0e0a2e750e2
:10064000fb80b553f4fed29043fe015392fe22ee9e
:10065000c0e012068a60115392fee012011fe924e5
:100660000109ea3400fad8efd0e0fe5392fe22ee00
:10067000c0e012068a60111200fe5392fef0e924d7
:100680000109ea3400fad8ef80de8a828b83e9f828
:10069000a918e3fc09e3fd09e3feecf9edfaeefb32
:1006a000e822eec0e05392fe906206e0f89062020b
:1006b000e0fe906204e0e8a2e250031205fdeea223
:1006c000e05003120388d0e0fe2274f712017a9002
:1006d0000033e0700302076d146003020779900095
:1006e0001b7401f0900023e0f87030900038e0f8bf
:1006f000a3e0f9e84970059000ac807490003a746a
:1007000062f0a37400f0a3e4f0a3e8f0a3e9f09092
:1007100000237402f09000ac048063740268705986
:10072000900034e02440f508a3e03400f509e50822
:10073000541f701285080a85090b7405780a120186
:1007400056a90a120222900038e0240354fcf97cd6
:10075000627d0074047808120165aa08ab091202d0
:100760004d900023e4f09000ac7405801190001bc4
:100770007402f0900023e480059000237404f07f5d
:10078000040201ae5392fe900033e06403701a90ad
:10079000003a74a8f0a37400f0a3e4f0a37406f088
:1007a000a3e4f09000230480059000237404f02259
:1007b0005392fe9000a2e4f0a3740ff02274fa1298
:1007c000017a15181518a8181201d6eafcebf87a68
:1007d000007b00088038e8604d05929000a2e0fda3
:1007e000a3e0f5838d82a3e493fdec6d6034e96da5
:1007f00070099000a2e0faa3e0fb189000a2e02e9e
:10080000fea3e03400ff9000a2eef0a3eff0900012
:10081000a2e0f584a3e0f585e4059293fe70b7e8c5
:1008200060047a007b00a8181201de051805187f05
:10083000010201aec008120c08600302090fa3e018
:10084000f8a3e0600302090fa3e064027002a3e0d2
:10085000600302090f900032e02480600914604fa9
:1008600014605c02090fe8600302090f90002fe09a
:1008700060047801800278009000a4e8f0a3e4f01e
:1008800090002ee0600a9000a4e04402f0a3e4f09f
:10089000900023e06404601490003a74a4f0a37400
:1008a00000f0a3e4f0a37402120c6bf0d0082290c5
:1008b000001ce0640470589000a4e4f0a380d0e829
:1008c000547ff50890001ce064047043e508c3946d
:1008d00006503c741c2508f58274003400f583e84a
:1008e00054806018a3a3a3a3a3a3a3e0640370048c
:1008f0007801800278009000a4e88090e582240cc2
:10090000f582e5833400f583e0640370e780e190cd
:1009100000237404809574f912017a15181518a82b
:10092000181201d6e9fa900038120c0e6003020981
:10093000e790001ce06404600b900036120c0e601f
:10094000030209e7900032e0541f60091460231489
:1009500060120209e7900034e064017015ea90002b
:100960002e0209ec900036e0547ff508900034e048
:10097000600479008079e508c39406506ae5089020
:10098000620ef0741c2508f58474003400f585901f
:100990000036e054806021ea6004741080027440e4
:1009a000906211f0ea600474038001e40592a3a34d
:1009b000a3a3a3a3a3f08026ea600474208002749a
:1009c00080906214f0ea600474038001e4c0e0e502
:1009d00084240cf582e5853400f583d0e0f0539251
:1009e000fe90620ee480059000237404f07901a863
:1009f000181201de051805187f020201ae790012f7
:100a00000916227901120916225392fe900036121d
:100a10000c0e7018a3120c0e7012900034e0f8a3a4
:100a2000e0f9e85480fae9fbea4b60079000237490
:100a300004801ae8906200f090001c6009e06402f3
:100a4000700c74038007e0640370037402f0227476
:100a5000f812017a1207b0900034e0faa3e0f9141a
:100a6000600814600d14603280387b007a007901d0
:100a70008034eafb7a0079021207bd120afde924ec
:100a800002f9ea3400fa89828a83e493f8740193c4
:100a9000f990003de8f0a3e9801ceafb7a007903b5
:100aa00080047b007a001207bd120afda37b80122e
:100ab00000fea3f0a3e4f090003ae0fca3e0fda365
:100ac000e0feec4d4e900023700474048029e06435
:100ad000046025900038e0faa3e0fb90003de0f8c8
:100ae000a3e0f9c3ea98eb99500890003deaf0a31f
:100af000ebf09000237401f07f030201ae90003a06
:100b0000eaf0a3ebf0a37480f090003ae0f9a3e0e0
:100b1000fa22120c087010a3120c0e700aa3e064e3
:100b2000017002a3e060079000237404800c900021
:100b30003a741df0a37400120c61f02274f81201d3
:100b40007a90001ce064027003020bef90003612f2
:100b50000c0e6003020befa3120c0e6003020befee
:100b6000900035e06003020bef1207b0900034e014
:100b70007003020bf77b007a0079021207bd8a0826
:100b80008b09ae08af09ee4f6065900034e0f88e37
:100b9000828f83a3a3a3a3a3e493c0e0e8fad0e0e9
:100ba0006a70d290001c7404f0e8a3f0750a008efd
:100bb000828f83a3a3a3a3e493f8e50ac3985045c7
:100bc000850a08741e2508f58274003400f583e454
:100bd000f07b007a0079041207bd8a828b83e5825c
:100be00045836007a3a3a3e49370e6050a80c09041
:100bf00000237404f0800e90001df090001c74031c
:100c0000f0f91205bf020af85392fe900034e0f8a2
:100c1000a3e0f9e8492274f812017a90001ce0641c
:100c2000047019900032e064817011120c0b700c8a
:100c3000900038e064017002a3e060079000237424
:100c400004801a900036e0241ef508a3e03400f575
:100c50000990003ae508f0a3e509120c61f0020ad8
:100c6000f8f0a3e4f0a304120c6b22f0a3e4f090dc
:100c70000023042274f912017a15181518a8181205
:100c800001d690001ce064046003020d1b9000324a
:100c9000e064016003020d1b900038120c0e707ba3
:100ca0001207b07b007a0079021207bd8a828b831b
:100cb000e5824583600fa3a3a3a3a3e493f8900068
:100cc0001de06870de7b007a0279041207bd8a821b
:100cd0008b83e582458360430592900034e0f8a35e
:100ce000e0f9900036e0faa3e0fb858284858385f5
:100cf000a3a3e493fcea6c7001eb600f0592a3a33d
:100d0000a3e493fce86c7001e970ba741e2af582c2
:100d100074003bf583e85392fe8005900023740431
:100d2000f00209ef5392fe2274fa12017a15181597
:100d300018eafeebffa818eef208eff2aa18ab9340
:100d40007901120d2480ee12009322ecf9a818e22a
:100d5000fc08e2fdec4d6017e9f88a828b83e853ca
:100d600092fef0a3ec24ff1ced34fffd4c70ef531a
:100d700092fe22ffffffffffffffffffffffffffce
:100d8000ffffffffffffffffffffffffffffffff73
:100d9000ffffffffffffffffffffffffffffffff63
:100da000ffffffffffffffffffffffffffffffff53
:100db000ffffffffffffffffffffffffffffffff43
:100dc000ffffffffffffffffffffffffffffffff33
:100dd000ffffffffffffffffffffffffffffffff23
:100de000ffffffffffffffffffffffffffffffff13
:100df000ffffffffffffffffffffffffffffffff03
:100e0000fffffffffffffffffffffffffffffffff2
:100e1000ffffffffffffffffffffffffffffffffe2
:100e2000ffffffffffffffffffffffffffffffffd2
:100e3000ffffffffffffffffffffffffffffffffc2
:100e4000ffffffffffffffffffffffffffffffffb2
:100e5000ffffffffffffffffffffffffffffffffa2
:100e6000ffffffffffffffffffffffffffffffff92
:100e7000ffffffffffffffffffffffffffffffff82
:100e8000ffffffffffffffffffffffffffffffff72
:100e9000ffffffffffffffffffffffffffffffff62
:100ea000ffffffffffffffffffffffffffffffff52
:100eb000ffffffffffffffffffffffffffffffff42
:100ec000ffffffffffffffffffffffffffffffff32
:100ed000ffffffffffffffffffffffffffffffff22
:100ee000ffffffffffffffffffffffffffffffff12
:100ef000ffffffffffffffffffffffffffffffff02
:100f000012010002000000205824feff0000010230
:100f1000030109021b0001010480250904000000ef
:100f2000fe01020409210d03e84000010104030948
:100f300004120342006c00750065006700690067d9
:100f400000610016034c006f007700200045006e22
:100f50000065007200670079000a03310032003337
:100f6000003400080344004600550000ffffffff67
:100f7000ffffffffffffffffffffffffffffffff81
:100f8000ffffffffffffffffffffffffffffffff71
:100f9000ffffffffffffffffffffffffffffffff61
:100fa000ffffffffffffffffffffffffffffffff51
:100fb000ffffffffffffffffffffffffffffffff41
:100fc000ffffffffffffffffffffffffffffffff31
:100fd000ffffffffffffffffffffffffffffffff21
:100fe000ffffffffffffffffffffffffffffffff11
:100ff000ffffffffffffffffffffffffffffffff01
:101000000210f70231ebffffffffff023b9dffffe6
:10101000ffffff023c3cffffffffff023cf0ffff32
:10102000ffffff0227d0ffffffffff023a36ffff5f
:10103000ffffff023ddbffffffffff023c94ffffce
:10104000ffffff023c0bffffffffffffffffffff64
:10105000ffffff0231d1ffffffffffffffffffff99
:10106000ffffffffffffffffffffff023b3effff12
:10107000ffffff023d63ffffffffff023b6fffff2c
:10108000ffffff0231ef7582ee75837f740012114e
:1010900012121133b900030210e1e479347802b876
:1010a00000028004f709d8fce49003027873790702
:1010b0008002f0a3d8fcd9fa900974aa82ab83907d
:1010c000113978c779028015e493a3ac82ad838a85
:1010d000828b83f0a3aa82ab838c828d83d8e9d9db
:1010e000e77582ea7583ee74021211127582e0755b
:1010f000837f740012111275d00075813f75310025
:10110000753202753303759f007593005392fe028a
:101110001091c09ff59fe473d09f225392fed0831d
:10112000d082c09fe493c0e0740193c0e074029346
:10113000f59f2279015392fe220300000200008bea
:101140001401020300000b1600000f00c3a88ee874
:10115000b19dcf7f5eb98b9f41efb055f401fa008e
:10116000960064004b0032001e001400d6be898e2b
:10117000000106021213151429417671ffc1fbe824
:101180004c90728be7b3518963ab232302841872ae
:10119000aa612f3b51a8e53749fbc9ca0c18532c4b
:1011a000fd45e300400000fffffffffaffffff00e7
:1011b0000080006200000007000000050006000734
:1011c0000000000100010000010001020203000212
:1011d0000000000000020201000240420f0019005e
:1011e0000000093d0000e5fffffffb349b5f80002e
:1011f000008000100000000000005c4c664c704c49
:101200007a4c844c8e4c984ca24cac4cb64cc04c96
:10121000ca4cd44cde4ce84cf24cfc4c064d104d04
:101220001a4d244d2e4d384d424d4c4d564d604d6e
:101230006a4d744d7e4d884d924d9c4da64db04dde
:10124000ba4dc44dce4dd84de24dec4df64d004e4d
:101250000a4e144e1e4e284e324e3c4e464e504eb6
:101260005a4e644e6e4e784e824e8c4e964ea04e26
:10127000aa4eb44ebe4ec84ed24edc4ee64ef04e96
:10128000fa4e044f0e4f184f224f2c4f364f404fff
:101290004a4f544f5e4f684f724f7c4f864f904f6e
:1012a0009a4fa44fae4fb84fc24fcc4fd64fe04fde
:1012b000ea4f00800000bf1cc51ccb1cd11cd71cf2
:1012c000dd1c471cfd1ddf1db11e4b1e511e551799
:1012d0000d1453198b145d1e031e791d9f1e411c96
:1012e000290601ffffff0000000080ffffffff0154
:1012f0000000000400000000000000c00000001218
:10130000111b91ae0212111ba9ae0212111bd4ae19
:101310000212111b21af0212111b3aaf0212111b54
:101320006caf0212111baaaf0212111bdcaf02122a
:10133000111b51b00212111b76b00212111bccb05e
:101340000212111b4db50212111b01b60212111b24
:1013500097f00212111baff00212111b20f10212c2
:10136000111b63f10212111b24d80212111b7dd82c
:101370000212111be5d80212111bfdd80212111b1b
:1013800027d90212111b41d90212111b75d9021261
:10139000111bcbd90212111b06da0212111bb6da8d
:1013a0000212111bdada0212111b62db0212111b8c
:1013b0008ddb0212111bcfdb0212111bf4db0212b8
:1013c000111b08dc0212111b1ddc0212111bc5dcf3
:1013d0000212111badcd0212111bbbcd0212111b4b
:1013e000eccd0212111b15ce0212111b23ce0212dc
:1013f000111b6ace0212111b29cf0212111b9ecfa4
:101400000212111bfbcf0212111b27d00212111b5b
:10141000a0d00212111b7cd10212111b87d1021223
:10142000111bacd10212111b00d20212111b66d289
:101430000212111b98d20212111b91f30212111bfe
:10144000b1f30212111bdaf30212111baaf20212fb
:10145000111bbef20212111b15f30212111bc1f473
:101460000212111b3ff50212111b56f50212111b3d
:1014700027f20212111b54f20212111b2f750012d7
:10148000111b96750012111bad750012111bf17521
:101490000012111b37760012111b9d760012111bd2
:1014a000f1770012111b19790012111bbb79001280
:1014b000111bdf790012111b217a0012111bcf7a48
:1014c0000012111b1d7b0012111b7a7b0012111bd5
:1014d0008d7b0012111b8d7c0012111bad7d001243
:1014e000111b237e0012111b00800112111ba88109
:1014f0000112111b22820112111b75830112111b93
:10150000e7830112111b21840112111bda840112dd
:10151000111b68850112111b2b860112111b5387a9
:101520000112111b4d880112111b7b890112111b25
:10153000e3890112111b4b8a0112111bc88a011287
:10154000111b7e8b0112111bf08b0112111b898c58
:101550000112111bef8c0112111b5d8d0112111b69
:10156000b28d0112111b488e0112111bfb8e01124c
:10157000111bc28f0112111b7c910112111bc4930c
:101580000112111b09940112111b85940112111be8
:10159000ed940112111b3b950112111bc79601120c
:1015a000111b69970112111bd7970112111b50993a
:1015b0000112111bb3990112111bd49a0112111bb4
:1015c000bc9b0112111be29c0112111b499e0112ce
:1015d000111b04a00112111bb4a20112111b41a383
:1015e0000112111bfea30112111bf5a40112111b04
:1015f00059a50112111bb5a90112111b1bac011237
:10160000111beaac0112111b53af0112111b7fb069
:101610000112111b05b20112111b1cb20112111b88
:1016200041fd0112111b7ffd0112111be6fd01128c
:10163000111b12fe0112111bdefe0112111bb5ff60
:101640000112111b85ef0212111bdeef0212111b9a
:101650003ff00212111bfab80112111b18b9011246
:10166000111b35b90112111b52b90112111bb5b969
:101670000112111b48ba0112111b1abc0112111bd5
:1016800080bc0112111bc4bc0112111b01bd01124f
:10169000111b36bd0112111b81bd0112111befbdc3
:1016a0000112111b9dbe0112111babbe0112111bb9
:1016b000e7bf0112111b3cc20112111bc8c201126b
:1016c000111bfcc20112111b43c40112111b7fc567
:1016d0000112111ba6c50112111be2c50112111b3b
:1016e00015c60112111bdac90112111b02ca01121f
:1016f000111b64ca0112111bdbcf0112111b1dd07b
:101700000112111b5dd00112111b13d10112111b0b
:10171000eed10112111b50d40112111b9cd50112e4
:10172000111b0dd60112111b49d80112111bc1d872
:101730000112111b05d90112111b53d90112111be2
:10174000a6d90112111b42da0112111b92da011201
:10175000111bedda0112111bf7da0112111b34dc37
:101760000112111bc9dc0112111b8ddd0112111bad
:1017700039de0112111beedf0112111b10e0011204
:10178000111b2de20112111b82e30112111b1fe438
:101790000112111b73e40112111bd8e40112111b79
:1017a000c8e60112111bd9e60112111be3e6011272
:1017b000111bd2e80112111b2de90112111b6ae95c
:1017c0000112111bdee90112111b0dea0112111b9e
:1017d000b6ea0112111b31eb0112111b92eb01123f
:1017e000111b08ec0112111b3fec0112111b74ecd0
:1017f0000112111b92ec0112111bf1ec0112111bd1
:10180000ffec0112111b3eed0112111bafed011295
:10181000111bc2ea0212111b66eb0212111b8aebaa
:101820000212111bd5eb0212111b14ec0212111b38
:1018300021f30212111b7f9b0212111bab9b0212a0
:10184000111bf79b0212111b449c0212111bc09c1e
:101850000212111b029f0212111b07a00212111b80
:1018600068a20212111b38a30212111b28a4021233
:10187000111b1ba50212111b8ca50212111b8ea697
:101880000212111b78e00212111ba4e00212111bbc
:10189000bbe00212111b55e10212111b81e2021280
:1018a000111b08550012111b75550012111b925582
:1018b0000012111bbf550012111b28560012111bdc
:1018c00054560012111b88560012111be0560012cc
:1018d000111b0d570012111b70570012111bcb5713
:1018e0000012111b90580012111b12590012111beb
:1018f000b45a0012111b6c5b0012111b195e00120e
:10190000111b76610012111bb8610012111b0d62d0
:101910000012111bbe620012111b9e640012111beb
:1019200042650012111b83650012111bd165001264
:10193000111b29660012111b4f660012111ba266b3
:101940000012111be3660012111b64680012111bc8
:101950007e690012111b8f690012111bed6a0012c3
:10196000111b036b0012111b2b6b0012111be16b7f
:101970000012111bf66b0012111b286c0012111bb8
:10198000406d0012111b036e0012111b4f6e0012ee
:10199000111b946e0012111b476f0012111ba26fd6
:1019a0000012111b9f700012111bf3700012111b0b
:1019b00037710012111b81720012111b96740012f4
:1019c000111bc6740012111b5fe70212111b6ce79a
:1019d0000212111b8fe70212111bd2e80212111b17
:1019e000dfe80212111b0de90212111b3ac80212a4
:1019f000111baac80212111bd7c80212111b21c940
:101a00000212111becc90212111b96cb0212111b00
:101a1000f0cb0212111bfecb0212111b05cd0212dc
:101a2000111b6ecd0212111b457f0012111b737f1b
:101a30000012111ba37f0012111b23e30212111bc2
:101a4000b0e30212111be2e30212111b53e4021273
:101a5000111bf7e40212111b0ae50212111bcbdc69
:101a60000212111be1dc0212111b69dd0212111bb3
:101a7000fadd0212111b00800212111b30800212cb
:101a8000111b3f800212111b30810212111b488171
:101a90000212111b57810212111b6d810212111bc0
:101aa00079810212111bbb810212111be881021203
:101ab000111b3a820212111b68820212111bc5828d
:101ac0000212111be1820212111b1d830212111b53
:101ad00035830212111bc8830212111b3e840212ad
:101ae000111ba3840212111bdc840212111b2e8510
:101af0000212111b69850212111b94850212111b1f
:101b0000ef850212111b33860212111b5a86021234
:101b1000111baa860212111b05870212111b0887ce
:101b20000212111b66870212111b9d870212111be4
:101b3000d5870212111b0d880212111b4488021254
:101b4000111b6e880212111b77880212111b9488d8
:101b50000212111bbf880212111bfc880212111bfa
:101b60003c890212111b69890212111bb5890212ec
:101b7000111bee890212111b7c8a0212111b2c8b85
:101b80000212111b7b8b0212111bdb8b0212111b29
:101b9000e68b0212111b138c0212111b1e8c0212f7
:101ba000111bbd8c0212111b498d0212111b978d46
:101bb0000212111baf8d0212111bcd8d0212111bcf
:101bc000ef8d0212111b108e0212111b2c8e0212ad
:101bd000111ba28e0212111be78e0212111b628fc3
:101be0000212111b788f0212111bf48f0212111bab
:101bf0002a900212111b39900212111b81900212bd
:101c0000111b90900212111ba8900212111bd1906f
:101c10000212111b01910212111b2e910212111bb3
:101c200041910212111b79910212111be1910212d2
:101c3000111b12920212111b3f920212111b4b92a6
:101c40000212111b51920212111b7a920212111be5
:101c5000f0940212111b75950212111bde950212ef
:101c6000111b16960212111b5b960212111b9f96f6
:101c70000212111be3960212111b62970212111b32
:101c8000b6970212111b10980212111b8c980212a7
:101c9000111bd1980212111b83990212111b479a32
:101ca0000212111b3d9b0212111b409b0212111bc1
:101cb000559b0212111b6a9b0212111b16e902129c
:101cc000111b64e90212111b7ae90212111b90e93f
:101cd0000212111ba6e90212111bc7e90212111b05
:101ce000dde90212111bf3e90212111b6abc021298
:101cf000111bb1bc0212111bf4bc0212111b12bd4c
:101d00000212111b8abd0212111bfbbd0212111b14
:101d100033be0212111b91be0212111bacbe021285
:101d2000111bd9be0212111b37bf0212111b4ebf6d
:101d30000212111b70bf0212111b9bbf0212111b5a
:101d4000d0bf0212111bfcbf0212111b35c00212c0
:101d5000111b5cc00212111b8fc00212111b9ec00e
:101d60000212111ba7c00212111b1dc10212111b6e
:101d700045c20212111bf4d20212111bd1d302125e
:101d8000111bb4d40212111b48d50212111babd582
:101d90000212111bf8d50212111b40d60212111ba0
:101da00060d60212111b80d60212111ba3d602129a
:101db000111bbed60212111b13d70212111b69d7b9
:101dc0000212111bc7d70212111b0aee0212111bbd
:101dd00037ee0212111b7bee0112111bdbfa01120e
:101de000111ba7fc0112111b65e50212111bcde5a9
:101df0000212111bf1e50212111b40e60212111b27
:101e000095e60212111b3ce70212111b55e7021264
:101e1000111bbda60212111bdaa60212111bf5a797
:101e20000212111b56a80212111b01a90212111b4a
:101e300080aa0212111b08ab0212111b4fab021237
:101e4000111bb8ab0212111b16ac0212111b6bacaa
:101e50000212111be6ac0212111b77ad0212111b0c
:101e600000ae0212111b29b60212111b86b8021213
:101e7000111bbeb80212111bdab80212111b21b9d4
:101e80000212111b3bb90212111b67b90212111b7e
:101e900086b90212111baeb90212111bf5b902125a
:101ea000111b12ba0212111bd7ba0212111b0bbb63
:101eb0000212111b26bb0212111b66ec0212111b2f
:101ec000cdec0212111b2ded0212111b2fed02128f
:101ed000111b45ed0212111b8fed0212111b8df12a
:101ee0000212111babf10212111b64c20212111b70
:101ef00049c30212111b32c40212111b3ac402124e
:101f0000111b42c40212111b9bc40212111b3ec5bd
:101f10000212111b3dc60212111b70c60212111bc8
:101f200045c70212111ba3c70212111b8610001213
:101f3000111b01f40212111b6ef40212111b10f599
:101f400002e066701008a3e066700a08a3e06670fd
:101f50000408a3e06622c3e7960809e7960809e7a4
:101f6000960809e796a2d265d03322c3e09608a36b
:101f7000e09608a3e09608a3e096a2d265d03322ab
:101f8000c021c3e096f52108a3e096422108a3e012
:101f900096422108a3e0964221a2d265d033e521e2
:101fa0007001d3d02122c3e09608a3e09608a3e0f5
:101fb0009608a3e09622c021c3e096f52108a3e08d
:101fc00096422108a3e096422108a3e0964521709d
:101fd00001d3d02122bb0102e722c0925392fec05e
:101fe00082c08389828a83bb0003e08002e493d0ad
:101ff00083d082d09222bb0015c0925392fec08241
:10200000c0838a838982f0d083d082d09222bb01a0
:1020100001f722080808eac0e0ebc0e086f0e7a478
:10202000fa180986f0e7a42afa180986f0e7a42a24
:10203000fa180986f0e7a42afa1986f0e7a4fbe566
:10204000f02afa190886f0e7a42bfbe5f03afa1912
:102050000886f0e7a42bfbe5f03afa18180986f099
:10206000e7a4c5f02bfbe43afa1908e7c5f0c6a4cb
:1020700026f6e5f03bfbe43afa1886f0e7a4f6e52d
:10208000f00826f6e43b08f6e43a08f6d0e0fbd088
:10209000e0fa22e4cfc0e0e4cec0e0e4cdc0e0e46a
:1020a000ccc0e075f020c3e633f608e633f608e668
:1020b00033f608e633f6181818ec33fced33fdee72
:1020c00033feef33ffc3ec9709ed9709ee9709ef65
:1020d00097191919400fffec97fc09ed97fd09eed0
:1020e00097fe191906d5f0beecf709edf709eef7e2
:1020f00009eff7191919d0e0fcd0e0fdd0e0fed0cf
:10210000e0ff2212216b18181812209312215a197d
:1021100019192212215a191919080808e61818184d
:1021200020e7e012209312216b18181822090909e0
:10213000e719191920e7dc080808e618181820e73d
:102140000302209312216b18181812209312216b8e
:1021500018181812215a19191922e4c397f709e41b
:1021600097f709e497f709e497f722e4c396f6088e
:10217000e496f608e496f608e496f6226017080856
:1021800008c6a2e713c618c613c618c613c618c6d3
:1021900013c6d5e0e9226016080808c6c313c6189e
:1021a000c613c618c613c618c613c6d5e0ea2270f1
:1021b00009080808226016181818c6c333c608c6ce
:1021c00033c608c633c608c633c6d5e0ea22e627ba
:1021d000f60809e637f60809e637f60809e637f69d
:1021e00022e026f608a3e036f608a3e036f608a3b8
:1021f000e036f622e026f008a3e036f008a3e03649
:10220000f008a3e036f022c3e697f60809e697f651
:102210000809e697f60809e697f622c3e0c696f69f
:1022200008a3e0c696f608a3e0c696f608a3e0c6a3
:1022300096f622e056f608a3e056f608a3e056f616
:1022400008a3e056f622e647f60809e647f608092d
:10225000e647f60809e647f622e046f608a3e04618
:10226000f608a3e046f608a3e046f622e046f008aa
:10227000a3e046f008a3e046f008a3e046f022e021
:1022800066f608a3e066f608a3e066f608a3e06633
:10229000f622e0f608a3e0f608a3e0f608a3e0f6cd
:1022a00022e493f608740193f608740293f6087416
:1022b0000393f622e6f008a3e6f008a3e6f008a3ed
:1022c000e6f022e0faa3e0fba3e0fca3e0fd22eab3
:1022d000f0a3ebf0a3ecf0a3edf022cac0e0e6f02f
:1022e000a308dafad0e0fa22cac0e0e0a30592f02f
:1022f000a30592daf6d0e0ca22cac0e0e493a305af
:1023000092f0a30592daf5d0e0ca225392fefae9e0
:10231000fb7921e7f0a309dafae8f0a3ebf9f0a3df
:10232000ecf0a3edf0a3eef0a3eff0a3e520f0a313
:10233000e5f0f0a3e592f0a3e584f0a3e585f0a332
:10234000e581f0a3e531f0a3e532f0a3e533f0a396
:10235000d0e0fad0e0f0a3caf0eac0e0e0c0e07a52
:10236000007b00225392fecac0e0ebc0e07921e07e
:10237000f7a309dafae0f8a3e0f9a3e0fca3e0fd93
:10238000a3e0fea3e0ffa3e0f520a3e0f5f0a3e0c7
:10239000c0e0a3e0f584a3e0f585a3d0e0f592d0fa
:1023a000e0fbd0e0fae0f581a3e0f531a3e0f532ff
:1023b000a3e0f533a3d0e0d0e0e0c0e0a3e0c0e0cc
:1023c000ea4b70027a0122c3e498f8e499f91224e6
:1023d000088026c3e49afae49bfbe920e7e912248b
:1023e00008e498f8e499f922c3e498f8e499f9121a
:1023f0002408e498f8e499f9c3e49afae49bfb22f0
:10240000eb20e7cfe920e7e0b90010bb0008e88a3d
:10241000f084f8aaf022e4fbc8fa22eb70227b10c9
:10242000c833c8c933c9335007c39ac3dbf2800627
:102430009a50012adbeac833f4c8c933f4c9fa2236
:1024400075f008e4c833c8c933c933c99ac99b5069
:1024500004c92ac93bd5f0ecfbc833f4c8e4c9fa77
:1024600022600d08c6a2e713c618c613c6d5e0f34e
:1024700022600c08c6c313c618c613c6d5e0f422e2
:10248000700422600d18c6c333c608c633c6d5e033
:10249000f41822253210af08f532400215338008b7
:1024a000f53240021533d2af22c0d0253210af082a
:1024b000f532500205338008f53250020533d2afb1
:1024c000d0d0222532f58210af08f5324002153304
:1024d0008008f53240021533d2af85338322c5829e
:1024e0002532c582c583353310af07f53385823277
:1024f0008007f533858232d2afc583222532f5823b
:10250000e43533f583222532f584e43533f585222d
:10251000e4735392fe2532c582c0e0e53334ffc533
:1025200083c0e0e532c3958224f810af0885833379
:102530008582328008858333858232d2afcef0a384
:10254000e520f0a37821e608f0a3defaeff0a3e59a
:102550008124faf8e608f0a3e608f0a3e608f0a361
:102560000808e608f0a3e608f0a315811581d0e07d
:10257000fed0e0f8158115811581e8c0e0eec0e0dd
:10258000225392fe2532c582c0e0e53334ffc58375
:10259000c0e0e532c3958224f910af088583338506
:1025a00082328008858333858232d2afcef0a3e5b4
:1025b00020f0a37821e608f0a3defaeff0a3e5818e
:1025c00024fbf8e608f0a3e608f0a30808e608f004
:1025d000a3e608f0a315811581d0e0fed0e0f81540
:1025e000811581e8c0e0eec0e0225392fe8533837e
:1025f000853282e0a3fee0a3f5207821e0a3f6086f
:10260000dffae0a3ffe0a3c0e0e0a3c0e0e0a3c0e6
:10261000e0e0a3c0e0e0a3c0e010af08858232850f
:1026200083338008858232858333d2afd083d082d2
:102630005392fe0211185392fe853383853282e055
:10264000a3fee0a3f5207821e0a3f608dffae0a3db
:10265000ffe0a3c0e0e0a3c0e0e0a3c0e0e0a3c0cf
:10266000e010af0885823285833380088582328509
:102670008333d2afd083d0825392fe22c092539242
:10268000fec0d02532c582c0e0e53334ffc583c02b
:10269000e0e532c3958224f210af0885833385824a
:1026a000328008858333858232d2afc8f0a3e9f047
:1026b000a3eaf0a3ebf0a37921e709f0a3d8faeca1
:1026c000f0a3edf0a3eef0a3eff0a3d0e0f0a3d0e1
:1026d000e0f0a3d0e0f0a3e520f0a3e5f0f0a3d074
:1026e000e0f0225392fe853383853282e0c0e0a37e
:1026f000e0f9a3e0faa3e0fba37821e0f608a3df6a
:10270000fae0fca3e0fda3e0fea3e0ffa3e0c0e04d
:10271000a3e0c0e0a3e0f5d0a3e0f520a3e0a3f59b
:10272000f0e0a3c0e010af088583338582328008d3
:10273000858333858232d2afd0e0d082d083f592c8
:10274000d0e0f8d0e032e584f0a3e585f022e0a304
:10275000f584e0f585227404800674028002740119
:10276000c0e0f4041224c3d0e01222db22740480ff
:102770000a74038006740280027401c0e0f404123b
:1027800024c3d0e01222e822d083d082e9c0e0e462
:1027900093a3c386f0c5f095f0f908e493a386f0ff
:1027a000c5f095f0700be493a3c3994005e904804c
:1027b00002a3e475f002a42582f582e5f03583f5e5
:1027c00083d0e0f9e493a3c0e0e493c0e022ffffec
:1027d000c0e074f112267c759800e5a8f8c2af90ad
:1027e00004d4e0d2e1f0753400e8a2e7a2e792afaa
:1027f00012133b7f010226e3c082c0835392fe90f6
:102800006059e0f89004a5e028f0906058e0f89056
:1028100004a6e028f090605a12283190605e1228d9
:102820003190605ce0f89004a8e028f0d083d0827a
:1028300022e0f89004a7e028f022c082c0835392df
:10284000fe9004a5e4f0a3f0a3f0a380de74f712d9
:10285000258179001219c59003f1123081eac398dd
:10286000f8eb99f9e82404fee93400ff9003fee058
:10287000fca3e0fdc3ee9cef9d402e9003fce0fc2a
:10288000a3e0fd900400e02af8a3e03bf9e8c39c34
:10289000f8e99df99003f1123078a3ecf0a3edf084
:1028a0009003feecf0a3ed80239003f1122d4e90e7
:1028b00003fe122e759003fe1230819003f3123046
:1028c000789003fae070047402800114f07aef7bd0
:1028d0000312387c0238cf74f7122581e96009248d
:1028e000fe601d14601a80329003f8e0a2e35009e4
:1028f0009003fbe06024148020c2e2f0d2e3801950
:102900009003f8e0a2e2500c9003fbe06408600a38
:10291000e0048005c2e3f0d2e2f09003f9e0700831
:102920009003f774fff0804890600a122d46703dc6
:1029300090618fe0c0e09003fbe0f87408c398f862
:10294000d0e0b800028004c313d8fcf52174ff6501
:1029500021700990600ae4f0a3048010e5212401ad
:10296000f8e43400f990600ae8f0a3e9f012284d89
:102970000238cf74f7122581e924fc600624fe603a
:1029800029800d9004bee06401705f12171f805a09
:10299000900418e064017012900412e4f07b0912b4
:1029a0003148fa7900121a0d8040900412e0700844
:1029b00090041074fff0803279001219c58a218bbf
:1029c00022a821a922900414e028faa3e039fb9060
:1029d000618fe0541ff8ea28f8eb3400f990040afc
:1029e0001230787a087b0412387c0238cf74f712e0
:1029f000258174fe1224c31227469004621230818e
:102a0000e82412fae93400fb90605ce060088a82f6
:102a10008b83e0d2e1f0e82430fce93400fde824c7
:102a200032f584e93400f58590605ae070069060d4
:102a30005ee060368a828b83e0a2e14019d2e1f049
:102a4000e82422f582e9122d2b122d3e1224808ccf
:102a5000828d83123874e40592f0a3f079008532f8
:102a6000828533835392fe0238c7e8241ef582e93b
:102a7000122d32fea3e0ff858482858583e02ef04f
:102a8000a3e03ff08c828d830592e0fca3e0fdc3c0
:102a90000592e09ca3e09d50c388828983a3a3a3f1
:102aa000a3a3a3a3a3a38582848583858a828b8322
:102ab000e0a2e1500474088002743e0592f07b02ab
:102ac000888289830592a3a3a3a3a3a3a3a3e0fa67
:102ad0007900121a0d7901808574f512258174fe32
:102ae0001224c3122746122d36240a122d1afc7006
:102af00003022d02ee242e1235381230818e828f81
:102b000083a3a3a3a3a3a3a3a38582238583248e46
:102b1000828f83a3a3a3a3a3a3a3a3a3aa82ab830c
:102b2000ee2434122d2f687003a3e069701a74022a
:102b30006c7003022c9874016c607774096c6025ca
:102b40008a828b8374228055ec14606614700302b1
:102b50002c9824fa601c14600c1460421470030258
:102b60002cde022d02906008e0a2e65003022d0246
:102b7000802cee2439122d28801388828983a3a308
:102b8000a3e064037003022d0288828983122d461c
:102b900070e88a828b83e0641370037416f07b0202
:102ba000852382852483e0fa7900121a0d790102c7
:102bb0002d04ee245512333cee244cfcef3400fd82
:102bc000ea24fff521eb34fff522e521687003e5e7
:102bd00022697068ee244d122dd48e828f83122dbf
:102be0004c8c828d83e0c333f8e433f9e82403f896
:102bf000e9340012306f900493e0a2e050098e8215
:102c00008f83a3a31230749004ade4f0a3f0a3f07b
:102c1000a37402f0900493e0a2e04003022d028c22
:102c2000828d83e0f875f0e2a4c8aaf075f004a4e0
:102c30002af9e8123064123078022d02ea68700234
:102c4000eb696003022d02752109752200782112bb
:102c5000275aee241bfaef3400fb121f35740212c0
:102c600024a9900493e0a2e05007eefaeffb1216bd
:102c70006be40592f0ee2422123538122d3e122418
:102c800080ee2430122d28123874ee2432122d28b2
:102c9000e4f0a3f07b08805de8240108e93400f942
:102ca000ee245c122d2f687003a3e0697054752127
:102cb00005752200782112275aee2457fcef3400c4
:102cc000fdee2424faef3400fb121f3574021224a7
:102cd000a9eefaeffb121719e40592f08024eefa40
:102ce000effb121341e40592f00592900493e0a2e9
:102cf000e0500f7b07852382852483e0fa79001258
:102d00001a0d79008532828533835392fe12274e45
:102d100074021224a97f04022636f584ef3400f5ec
:102d2000850592e022ee2414f582ef12332e22f56f
:102d300082ef12333622900462123683ee22122e74
:102d4000a17403782122123085e84922a3a3e02848
:102d5000f0a3e039f02274f812258174fe1224c326
:102d6000122746900462e0f584a3e0f585122ad983
:102d7000e9704e1229ede97048e584242ef582e5cc
:102d800085122d322401f0a3e03400f0906008e0b9
:102d9000c0e0e5842436f582e585122d2bd0e0f0e5
:102da000e584241ef582e585122dd70592a3a3e0c4
:102db00028f0a3e039f0059290046212333f1238f4
:102dc0007c85328285338312274e74021224a97fb8
:102dd00001022636f582ef12332e122dde22e0f8a4
:102de000a3e0f9e8c333f8e933f92274f712258137
:102df00074fe1224c31227468a828b83a3a3ac825b
:102e0000ad839004b2ea241ef584eb122d1df8a3c5
:102e1000e0f9e8c333f8e933f9900495e0f521a32c
:102e2000e0f522122e8b0592e028f8a3e039f98c08
:102e3000828d831230789004ad122e7e8c828d8329
:102e4000122e759004af122e7e7a207b4e1224082b
:102e5000882189228c828d83e09521f0a3e0952240
:102e6000f09004b4122e7ee8c333f8e933f9e81287
:102e7000305c0238c0c3e098f0a3e099f022123031
:102e800085900495122ea1122e8b22e88521f0a4a4
:102e9000c8aaf08522f0a42afa8521f0e9a42af92b
:102ea00022e0f521a3e0f5222274f712258174feb9
:102eb0001224c3122746122d362412122d1aa2e311
:102ec0005008c2e3f005920230508e828f83059243
:102ed000a3a3858221858322906062e0601079102f
:102ee0001219c5852182852283eaf0a3ebf0122a0c
:102ef000d9e960030230591229ede9600302305923
:102f0000906008e0c0e0ee2436122d28d0e0f0906a
:102f100061d5e0f89061d7e06805926005e0d2e203
:102f20008003e0c2e2f00592906062e09004af603e
:102f300017e024c0faa3e03437fb123ac09004b47f
:102f400012368912305c801512333f123aaa90046f
:102f5000b4122dda906064e028f0a3e039f0852106
:102f600082852283e024fff0a3e034fff0ee242bdf
:102f7000122d2f9004b1f0ee2420122d28122d4690
:102f8000604b8e828f83a3a3a3a3a3a3a3a3a3a316
:102f9000e0703aee243212333cea4b7030ee2439c2
:102fa00012333cea4b7026e8240108e93400f9901a
:102fb0000495123078852182852283123081900415
:102fc000b2123078eefaeffb122deb8027900495c9
:102fd0007401f0a3e4f0ee241e122dd48521828525
:102fe0002283122d4e9004ad1230818521828522dc
:102ff00083122e758e848f850592a3a3a3a3a3a30a
:1030000005929060641230817a717b02122408e884
:103010002405f8e93400f9858482858583123078a7
:103020008e828f83a3a3a3a312333f8584828585d9
:1030300083e0f8c3ea98eb99a2d265d0335005ea51
:10304000f0a3ebf012307eee242e122d28122d4e1e
:1030500090046212333f12387c0238c1123064e8a7
:10306000f0a3e92224eaf8e93402f990606422f935
:103070008e828f83a3a3a3a3e8f0a3e9f022900498
:103080009512308522e0f8a3e0f92274f712258129
:1030900074fe1224c3122746803bc2e5f01231367b
:1030a000e0f808089004bce028f0123148c0e012b3
:1030b0003136d0e0f09004bce004f0a3e004f0a3cb
:1030c000e004f09004c0e0700c7401f07b007a0022
:1030d0007900121a0d90605ae0f521900419e06011
:1030e0000790605de0f8800278009004bde0fae5aa
:1030f0002128f8e43400f9e86a7001e960359004a9
:10310000bce004547ff52174802521f5827460129f
:10311000353b900462e0f8a3e0c82408f584e83465
:1031200000f585e0a2e70592e0400302309ad2e57f
:1031300002309c0238c19004bce0547ff8748028af
:10314000f582746012332e22900462e0f8a3e0c886
:103150002408f582e81233362274f512258174feb4
:103160001224c312274689210592900462e0f58259
:10317000a3e0f583858284858385a3a3a3a3a3a36a
:10318000a3a3e0a2e740479004bfe0f8906054e0ba
:10319000c398f5229004bfe02522f0ae82af838071
:1031a00012ee2439faef3400fb121641ea4b6003a9
:1031b00012182785222374ff2523f5220470e2e5e7
:1031c00021a2e640097900eefaeffb121797022dd3
:1031d00004c0e074f112267c8535c675a70075a180
:1031e0000079501219e37f010226e375bf0032c057
:1031f000e0c0d075d008c092c082c083c0f08535d1
:10320000c6e591fe759b00f4f5915392fe9004196a
:10321000e060047808800278007900e844015e608c
:103220000312308beea2e55004f9123159eea2e7f9
:103230005029e5a8f8c2af9004d4e0d2e0f075348c
:1032400000e8a2e7e433f9e8a2e792afe594a2e24e
:103250004009759403e594a2e250faeea2e6400319
:10326000023308906061e0f99004bde4f09004bf7f
:10327000f090046212333f8a828b83a3a3a3a3a39b
:10328000a3a3a3e02404601014600814700f122894
:10329000d7806d122973806812166580639004923e
:1032a000e060051460338048906060e064806040b6
:1032b000e0c0e0ea2413f582eb122d2bd0e0f09071
:1032c0006060e0c0e0900462e0f8a3e0c8242cf560
:1032d00082e812331cd0e08016906058e0f89060cd
:1032e0005ce028f8ea242cf582eb12331ce028f08d
:1032f000900493e0a2e05005122ea98003122d56ef
:103300001227f81216538004a2e750031238d4d0c3
:10331000f0d083d082d092d0d0d0e032123336fabf
:10332000746d2af582740412332e22f582ef340074
:10333000f58322f582ef3400f583e02212332be08f
:10334000faa3e0fb2274f712258174fe1224c31243
:103350002746900462e0fca3e0fd12307eec2429b5
:10336000f582ed122d2bec242bfaed3400fb8a8430
:103370008b857401687001e97012e0f80592e0280d
:10338000fac39425402a74db2afa8024e0f521e868
:103390008521f0a4f8aaf08521f0e9a42af9059284
:1033a000e0fae82af8e93400f97a257b00122408cb
:1033b000eaf074075af87401b800028004c333d8e5
:1033c000fcfbea131313541ff8ec28f8ed3400f952
:1033d000e82424f582e912353be05b702a8005e899
:1033e000cac39afaec24e5f582ed122d32f8eac34d
:1033f0009850ec8a21ec2521f8ed3400f9e824c03e
:10340000f582e9122d32faec242cf582ed122d2be7
:10341000ea0238c074f612258174fe1224c3122702
:1034200046900419e09060026004740e8002740fec
:10343000f0900413e0906001f09009a71222c3906d
:1034400061951222cf1217a3900418e0f5217401a0
:1034500065219004117040e05402f97a1a7b04123d
:103460001689900411e0a2e050097a9f7b0475212f
:103470004080077a997b04752100a2e150047e8088
:1034800080027e00752306782312275e7c1a7d0455
:10349000e5214e44018066e0a2e050087a9f7b045b
:1034a000784080067a997b047800059290043f1258
:1034b00027797c207d0474ab2521f58274091235af
:1034c0003be048f912168f74011224a9900418e009
:1034d000f86005740268702e900411e0a2e05008b4
:1034e0007a9f7b04784080067a997b047800059265
:1034f00090045f1227797c407d04e84404f9121699
:103500008f74011224a9900411e0a2e0e433f912af
:103510001683759100900419e0906182600474c86c
:10352000800274c0f085328285338312274e740284
:103530001224a97f03022636f582ef12332e05925c
:1035400022c082c0835392fe906002740ff09003f9
:10355000fae004f064037002e4f0e02425906000d7
:10356000f09009a71222c39061951222cf9003f820
:10357000e05420f91216831217a39003f8e0a2e199
:103580005004d2f08002c2f0a2f0e43390600cf05c
:103590009003f8e0a2e1503575d90da2e55004780a
:1035a0004080027800e84403f5d9e0a2e550067aad
:1035b0009f7b0480047a997b04790612165974065d
:1035c00075d9001470fae5e170fc75e1957591000c
:1035d00090618274c102282b74f812258174fe1246
:1035e00024c31227461236761217a3122d25122253
:1035f000c39061951222cf1236bc12334512368e1b
:10360000f584ef3400f5858584828585831236a79d
:10361000121797ee2412122d2fa2e250180592e0f5
:10362000f8a3e0f58388820592a3a3e02402f89032
:1036300061d5e028f0022dc174f81225811236768a
:103640001217a3122d251222c39061951222cf12b8
:1036500036bc12334512368e122d281236a7121799
:1036600097ee241e122d2812368924fcf8e934ff27
:1036700012306f022dcf9004621236839060027474
:103680000ff022e0fea3e0ff22122ddee822ee245e
:103690002c123333906000f07591009004c9e090d3
:1036a0006182f0ee243922123085ee243712332b5a
:1036b000e8f0a3e9f07900eefaeffb22ee243612ef
:1036c0003333906008f0ee2418123333906005f025
:1036d000ee2419123333906006f0ee241a123333bd
:1036e000906007f09060607480f02274f112258180
:1036f00074fe1224c31227467521007522007c69ce
:103700007d04801b888289831236838c828d83eeb0
:10371000f0a3eff088828983123874882189228c83
:10372000828d83122d394f70398c828d83eaf0a3fc
:10373000ebf08a828b83e4f0a3f0aa21ab228532de
:103740008285338312274e74021224a97f08022631
:1037500036e5232527f8e5243528f98a828b83125c
:103760002d4ceef8eff988828983a3a38a848b8598
:103770000592a3a3e0f523a3e0f5240592e0c39509
:1037800023f523a3e09524f5248a828b83a3a3a3a6
:10379000a3a3a3e0f525a3e0f526c3e5239525e53e
:1037a000249526a2d265d033403e8a828b83123084
:1037b000788a828b83a3a3a3a385828485838512c1
:1037c0003081c3e52398e52499a2d265d033500d0a
:1037d000858482858583e523f0a3e524f08c828da2
:1037e00083eaf0a3eb02373988828983a3a3a3a3da
:1037f000a3a3e0f527a3e0f528c3e49527f525e486
:103800009528f526c3e5259523e5269524a2d265be
:10381000d03350288a828b83a3a3a3a3a3a3a3a3fb
:10382000e0a2e7500302375188828983a3a3a3a3b0
:10383000a3a3a3a3e0a2e7500302370488828983ed
:10384000a3a3a3a3858284858385c3e49523fce495
:103850009524fd123683c3ec9eed9fa2d265d03332
:10386000500b858482858583ecf0a3edf0e8fce9bc
:10387000fd02371fe521f0a3e522f02274f712259f
:103880008174fe1224c3122746ea4b6031a2afe4d2
:1038900033fec2af1236eb8a828b838016aa82abcc
:1038a000838582848583850592e0f582a3e0f58394
:1038b0001236ebe582458370e4eea2e092af800120
:1038c000f085328285338312274e74021224a97f39
:1038d0000202263674f512258179001219c58a2351
:1038e0008b2479771219e39061b1e4f0e070f874f9
:1038f00001f0e0640170f890046912308190046274
:10390000123078e8497012123a19e594a2e24003a5
:10391000023a13759400023a138882898312333f66
:10392000900469eaf0a3ebf088828983a3a3122ea6
:10393000a188828983a3a3a3a3e02521faa3e0356c
:1039400022fbea24fdfeeb34ffff88828983a3a3d8
:10395000a3a3a3a3a3a3e02404601214600514602e
:103960000780471234148052123541804de521c33f
:103970009523e5229524c39400a2d265d033502527
:10398000e5232401f521e5243400f522c3e5219e39
:10399000e5229f400ae5212401fee5223400ff9044
:1039a00003f11238741217a98010900493e0a2e07a
:1039b00050051235d88003123638aa21ab2279304f
:1039c0001219d7eefaeffb79401219d77954121970
:1039d000e3e521c39523f8e5229524f9c3e8940192
:1039e000e99400a2d265d033500c1217bbe5e17008
:1039f000fc75e121801d900369e0a2e04012aa213c
:103a0000ab221219d19004a91222cf123a198003c5
:103a10001217bb121899022d15e5a8f8c2af900431
:103a2000d4e0c2e0f0753400e8a2e7a2e792af224a
:103a3000853487c2af22c0e0c0d075d010c092c01c
:103a400082c083c0f074fc1224935392fe9004d57c
:103a5000e0601c12167d900369e054117008e5c601
:103a600054384487f5c69004d5e4f0c2c78026c216
:103a7000c7853282853383aa82ab831217b5e96486
:103a80000170129004d57401f0853282853383125f
:103a900022c312188d75340074041224a9d0f0d0fa
:103aa00083d082d092d0d0d0e03275c3007420c3ce
:103ab0009afa744e9bfbeaf5a2ebf5a35392fe2211
:103ac000c02175c301e5a2f521e5a375c300f9e5a1
:103ad000212420f8e9344ef9e8c39af8e99bf9e883
:103ae000f5a2e9f5a3d0215392fe22c082c08374cf
:103af000fc122493e5a8f8c2afe5958532828533a0
:103b0000835392fef0e596c0e074011224fcd0e0ed
:103b1000f0e597c0e074021224fcd0e0f0e8a2e7e0
:103b2000a2e792af74031224fce4f085328285335d
:103b3000831222c374041224a9d083d08222c0e04d
:103b400074f112267c123aeb9005fa1222cfe58925
:103b500055ab9005fef0e580900601f07b007a0001
:103b60007906121a0d758900c2c57f010226e3c0cd
:103b7000e074f112267c123aeb9005fa1222cfe59e
:103b80008a558d9005fff0e590900602f07b017a52
:103b9000007906121a0d758a00c2eb80cdc0e07460
:103ba000f112267c9061a9e4f0900608e0640f70a1
:103bb00012e5c7f890036ae0f5c790ff1ce0f4f542
:103bc000ae88c7e5bbf9e5bafae9fb900608e0c3a1
:103bd00033f8e433f9740928f582740639f583ea79
:103be000f0a3ebf0900608e02410fb7a00790612af
:103bf0001a0de5a8f8c2af9004d4e0c2e2f0753423
:103c000000e8a2e7a2e792af023b6ac0e0c0d0752d
:103c1000d008c092c082c083c0f0e5d1f875d10051
:103c2000c2c0a2e350097b037a007904121a0dd0b6
:103c3000f0d083d082d092d0d0d0e032c0e0c0d0db
:103c400075d018c092c021c022c082c083c0f0537a
:103c500092fe9007e7123d55602b9007a2e0700c92
:103c60007401f07b007a007904121a0dee9007e7d8
:103c7000f0e5c1c0e074e92521f58274073400f550
:103c800083d0e0800be5c4a2e650069007a1740142
:103c9000f0023d44c0e0c0d075d018c092c021c031
:103ca00022c082c083c0f0c2e95392fe9007a4e014
:103cb000fa9007a3e09a543ff860258a2174a5255d
:103cc00021f5827407123dbf9007a4f089c19007c7
:103cd000e5e06870197b027a007904121a0d800ef3
:103ce000e5a8f8c2af9004d4e0c2e3123dcb805403
:103cf000c0e0c0d075d018c092c021c022c082c020
:103d000083c0f05392fe900871123d55602a9008ce
:103d10002ce0700b7401f07b00fa7904121a0dee9e
:103d2000900871f0e5f9c0e074732521f5827408fc
:103d30003400f583d0e0800be5fba2e65006900846
:103d40002b7401f0d0f0d083d082d022d021d09239
:103d5000d0d0d0e032e0f52174012521543ffea3fc
:103d6000e06e22c0e0c0d075d018c092c021c02241
:103d7000c082c083c0f0c2ea5392fe90082ee0fadf
:103d800090082de09a543ff860258a21742f252150
:103d9000f5827408123dbf90082ef089f990086fe3
:103da000e06870197b027a017904121a0d800ee521
:103db000a8f8c2af9004d4e0c2e4123dcb808534b1
:103dc00000f583e0f974012a543f22f0753400e8cd
:103dd000a2e7e433f9e8a2e792af22c0e074f01260
:103de000267c906206e0f89008c9e048f0906202f4
:103df000e0543ff52175220074047821122480904c
:103e000008c9e04521f0a3e04522f0906204e054a7
:103e10003ef521752200740978211224809008ca89
:103e2000e04522f09008c9e054046007e054fbf03c
:103e3000121e6f9008cae054016013e054fef09027
:103e400008d8e060097b037a007907121a0d121e68
:103e5000999008cae05420600de054dff07b027aac
:103e6000007907121a0d758b00c2e87f020226e363
:103e7000033f0000030004280d9808900790019468
:103e8000011b0195111b08f00939821f0ea4fecdfc
:103e900082210622fb381818162118f0ef3818f284
:103ea000ed3828f2eb3868f003392a1fe73f08f0b5
:103eb0000428ba3868f0393c08f1053c88f1173c11
:103ec000a8f10e3ce09f2c1f0128104a291fd63f65
:103ed00015d0033827d00938009004289f3f0128c7
:103ee000154101980128014a25d01f38041f831f5e
:103ef0000ea4fecd042205381421202807a0083f77
:103f00000628681527d0e939202807d0f238832100
:103f100078f10238042188f1083d0628a14001f01b
:103f200004288438042807a005284d1528f1163cdc
:103f300068f1143d77cf1240599202d80f3912d050
:103f40000739699222d00439799242d00438052881
:103f5000ef151e3fc09f04286c3f08f1233c88f1f9
:103f6000203d094028f1103d4540f7c759f2083d72
:103f70009303131183e1b9f00f3c23e00d3f09d8ff
:103f8000ea38f9c30b3f68f1033d59f2f23c09d816
:103f9000f9390528bd150528f01501900128214a99
:103fa000051f48f00c3c08f10a3868f1033c98f111
:103fb00006390c960528f9150228843f47a00c966f
:103fc0000528f315531f0528e31507288ced052850
:103fd000ec1501280195711b01280ce40528e51555
:103fe000511f88f10b3808f1073868f109390128a9
:103ff000214201f00b3947d009383521063f28f11d
:10400000033838f10339351f341f04280ce047d03a
:10401000033903280ce80528c815571f28f006386f
:10402000561f811f021f38f0063930215b9005288a
:104030003b15fd3f88f1033d0428f7150528811540
:1040400047d0133808f10f392c470cf00c38c40353
:10405000b4125c110c3e04f00a38c103802801a0a0
:10406000411b063f3021043f07284ced4c1b5b9061
:1040700047d0173827d00328e8390ea4fecd0222f6
:104080000d39002208381021002914e00328dd3cf6
:104090004c1bf13f05289e15ee3f46181221033fa9
:1040a0000528021588f13039052811150128fb4132
:1040b000302100291be00a3d0428f61505280715c4
:1040c000f6c35192166a3b906b080428ed1504283c
:1040d000fe150bf0fb3917d004382d1f0128c43f03
:1040e0000328214701f008390328314701f004393a
:1040f000a2958090033fc29500920328b615201b1d
:1041000054900128b33f08f1053905211190012889
:10411000214a38f103390021023f302110216a037e
:104120000428c2156b033141224128f1093d02f0f8
:104130000239f29101f00b39ff28f191083f02f0aa
:104140000239529201f00339ff28f193f7cb1b0695
:10415000023907a4b20c073d47d003286e382490db
:104160000328753f1690b6080428b115a603042845
:10417000ae153be0f7ce28f1703c012807a0f09087
:10418000a00668f1323d149030f0053938f103286b
:104190005e38073f50f003285a3958f10328573842
:1041a00038f104380328ab15033f03288915032889
:1041b0007515012807d0033907a1563f424130f059
:1041c0000c3907a112d0033807d84e3887a0c14058
:1041d00041d04a38f7ce483f38f1033822d044382e
:1041e00007d8423907a1403f78f1123847d02d381f
:1041f00000f0033860f00639c14011d0073887a0bd
:10420000113f10f0033820f0ab3977cf0b3f00f0af
:10421000033810f0a539414181d0043903285015e5
:10422000093f03286c1568f10539414141d0023935
:1042300007b810f0063903283115012807d00338d4
:1042400007d8123907a1103f40f00228fc39032893
:10425000141507d8f838083fa103834031123105ff
:1042600011d0023907a14bf0063c04281d15042883
:104270002e15fa3f042818151bf0fd3d38f10338c0
:104280000328a115f7cd0328214701f0053903289c
:10429000314701f0033807a2f7ce224082d00a3816
:1042a000060304281415069376062611960404289e
:1042b0000e1571034112002871c021070438e7cfa1
:1042c0004198043f17d0043951980728214817d046
:1042d0000538f295202800901d3f07d20438c2957a
:1042e0000092183f07d10438d2950094133f07d4a9
:1042f0000438e29500980e3f809028f10a3d3190f5
:10430000a10631f0063903a4b2950228aa1500a12e
:10431000a2950228a615201b28f1633d08f10a3951
:10432000012807d00739072851411128c14a01281f
:1043300007a017d20539e3cf8ad0023813a007d2dd
:104340000539b3cf4ad0023843a083d01e39310398
:104350001112310521d00739319907282148002948
:1043600015e0133f529502287c15454003d10d39c5
:10437000429502287615281f21990728214803d243
:104380000438629502286d1573cf834808f1093906
:1043900077cf17d0063907d203390ad1023887a060
:1043a000349007d2073807d803383090543f07a815
:1043b000023ff7c718f15a3927d04c39314011d094
:1043c000493987d0073917d0453907d203390ad17f
:1043d000413805f04b39414001f0483850903b3f9f
:1043e00068f1153878f13938149017d03d3907d273
:1043f0003d3987d003383490393f07d13739119090
:104400000128214a409003286e15253f47d01c38cb
:10441000249007d30c3911900128214a87d00838fd
:104420005144002911e0043a514c023877cf17d09b
:104430001b3987d003383490193f07d31739c1404f
:1044400021d01438073f17d00f3907d303383090e5
:10445000023f009044900a3f249017d0053907d3bb
:1044600005393490033fa09f44900221c190511b15
:104470008121342124f0083927d004390c9cfd2bec
:10448000ae3f10904490b7cf34f00e39532103283b
:10449000e195711b541f0f28cc9506282141f1c0ce
:1044a00081111c09143f0190511b0728f19f711bba
:1044b000802114f00128863854f0fd2b0a38012899
:1044c000ad3f541f032864151028cced03286d154b
:1044d00076217821501f0128a29a217001b22180f3
:1044e00001b221802ce30328601574210128ace47b
:1044f00008f1073c88f1033d022897150328211590
:10450000011f0128349d03285015201f002168f049
:10451000093d069058f003390728364102289315c3
:10452000fa3f0728504078f10439331f321f042125
:10453000500000dc01287c3828f1103d8340f7cb87
:1045400031031112310521d0033903d1033900d8c9
:10455000103807a41b901a90163f00d8012868391c
:1045600098f107394b700128e2412b0800288e3f53
:10457000102807a04b701bf0fc2bed3c4a70224129
:1045800028f1303d02f00239f29112e0b20cfc2b1e
:10459000e23c419031061111ff2be29f32045200a0
:1045a00022111a042a043240002862c018f103398b
:1045b00027d00d3922f0093907280141b109002916
:1045c00021e0093a0aa1073f42f00339face033f3e
:1045d00062f0f93818f1253977cf0ad1223887a04f
:1045e000203f02f00239529212e0b20cfc2bb33c95
:1045f00068f1123d38f1153887d01339012831425e
:1046000001f00f38402807a00728914231c0c1a00f
:104610000728914a063f02280190710621121a04c8
:10462000ff2bf29fb2084be0a60302280c152603cd
:104630000228091568f1293cfbf0273c629046707e
:1046400002280115d2370428609662904670062d24
:104650000128f915c23778f11839d04000d815383b
:10466000dbf0133c829046700128ed15d23776447a
:1046700000d40338060e023f060d41700128e315f1
:10468000417086120128df153290b20c053d46704c
:104690000128d915fb3f08f1063941721128c14a9a
:1046a000012807a0ef28f7cf28f11e3d8340309066
:1046b000a00631031112310521d003398295043f40
:1046c00030f0043972950028cc1553c843d0023815
:1046d00023a007d4023803a130f0023903a2834893
:1046e00092950028be1506900bf005380128ab15f1
:1046f000591ffb3f0ea4fecd0122043902286a1582
:10470000fa3f551f1121031f249008f10f390ad1d8
:10471000033987d02438314011d0213905f02139af
:10472000414001f01e3850901b3f48f1073828f1f6
:10473000033858f1063987d0143877cf1490113fd9
:1047400078f1053911900128214a093f98f109397a
:10475000829500288a15281f5490033f00904490aa
:104760000ea4fecd0322043902283415fa3f13218a
:104770002c1801210321741ff1900000f1370190e2
:10478000511b0728f19f711b80213221072891427c
:1047900031c00728914abf28f7cf28f1063c88f19d
:1047a000043d92955e15281f44f0383814f00a38fd
:1047b00054f0fb2b8e3801280ce40128f615fc2b55
:1047c000023f01289015009027d0283902d80838d8
:1047d00038f12439329001289215e237193f19e057
:1047e00089f2043c38f11a39599238f10339012819
:1047f000861512409103002951e2120e12d0f038b2
:10480000012886150128b915124001289115319902
:10481000072821482c18fe2b553f0128104a002854
:10482000a915fb2b2b3ff09f043fd09f023fb09f69
:104830000028d0152c1ff23f28f1053c68f1033dfc
:104840001490053f2090023f109044904198072813
:10485000214838f1fe2b0a380028b515fe2b063ffb
:10486000217011e021800200012821410728214800
:10487000217811e021880200f7c776157103311203
:10488000a10501d4023907a804286496311502381d
:10489000f7c70428c4f6fb3c0200fe28f7cf6415d6
:1048a00051417111a10501d80339012807a0649174
:1048b0001f150338fe28f7cfc4f1fb3c0200f7c7f1
:1048c00053155141022807a00ad40339fd28f7cf18
:1048d0005111a10501d4023907a8c4910428659695
:1048e00007150238f7c7563124f2fb3c02000028b6
:1048f000db150028ec15412d160c0200f7c7341506
:10490000d032d332234268f109394141904041d03d
:10491000043850000306023f03033142022807a077
:104920000ad404395100fd28f7cf13064492042815
:1049300065960028b9150028ca155631ff28e19f51
:104940004070060c023813068ea0810064e044f526
:10495000f83c0029f4e2a4f2ed3c03f0023807a889
:10496000d32fd02f02009bf0023c020007a12de0c4
:10497000020098f10938102807d0033908f10438eb
:1049800031990728214808f10c39012807d0093846
:10499000072851411128c042010c0338072850490b
:1049a0001190082807d005380628b148f728f7cf16
:1049b000042807d005380628a148fb28f7cf302166
:1049c000291f0200311fff28f19f411b301f312199
:1049d0000200022101210321532309380628d14076
:1049e00001d112384198072821480b3f54230c3835
:1049f0005021f1910000f137741ff1900000f13760
:104a000068f0023c2b1f0190511b81210728f19f68
:104a1000711b80210728914231c00728914abf2885
:104a2000f7cf322134210200082807d007390628a1
:104a3000b14001f00438082807a0020004280d98ae
:104a4000fe2bf43f402807d00d390ea4fecd0122e5
:104a500004390028bf15fa3f661b112100291be00d
:104a600002000728a64a0ea4fecd01220439002820
:104a7000b115fa3f01283142b10941e0053a083841
:104a80004bf00c38ea3d0728a142611be73f07289d
:104a9000914271cf0728914af73f0728914281a29e
:104aa0000728914ada3f0ea4fecd022204390028dd
:104ab0009115fa3f4618122100291be01bf0063918
:104ac000581f0628e0400128004a020017d00a3982
:104ad0003122063817a0419807282148033f0728ac
:104ae000a6480200124038f1093802d8073991036c
:104af000002941e2120e120d1248020047a07b2845
:104b00000c9c10215215ff2b5e15b7cf020059f2f5
:104b100003396391083f69f20339e392043f79f264
:104b200003394396020004280d98fa2b143f02d44f
:104b300007389103002901e211700628614802003c
:104b400088f10a3c012831410728814ab1460328ef
:104b5000314fa1460f3f0728894a28f1063d3144cd
:104b60000328314f5140053f552851950328314fb7
:104b700081110328214f0200e3f3033cf190033f2e
:104b800023e051920628614a0628434802007b210f
:104b9000772141900000f137702175217a218cee48
:104ba0000415521f801f02004c1b001f47d0033802
:104bb00027d009390ea4fecd002203390b15f73f8b
:104bc0001021020004280d9838f1fe2b2738fe2b07
:104bd0003c3fd23202180119210601d41a381218aa
:104be000162162f003392a1f2d3f12f2153822f2e6
:104bf0002838fe2bef1568f0063c61900128114a19
:104c0000fe2bb8153021280304280d98f92b373fc7
:104c100001d114381421202807d00d3878f1123929
:104c200004231038714401f002398144002911e055
:104c3000714c083f202807a0053f01d205381521f7
:104c400027a0d22f020011d00638102104280d9879
:104c5000fd2bf33ff2ce5200121bf43f0001000087
:104c600002000000151b00000001000000003f1bb7
:104c70000000000200000000511b0003000324009c
:104c80000000331b0002000404000000391b000078
:104c9000000500000000811b00000006000000006d
:104ca000e71b0005000726000000991b0000000814
:104cb00000000000231c00020009820000007b1b92
:104cc0000007000a2a000000291c0007000b2a0028
:104cd00000002f1c0000000c00000000351c00022a
:104ce000000d220000006f1b0003000e22020000d6
:104cf000751b0000010000000000931b0000010173
:104d000000000000171c0000010200000000871bcb
:104d10000003010384000000a51b0002010404003d
:104d200000009f1b00020105040000008d1b000114
:104d3000010602000000451b00030107840000007b
:104d40004b1b0004020024080000f31b00040201b6
:104d500044000000cd1a0002020204000000d31a31
:104d60000003020322080000c11a0002020422000c
:104d70000000c71a0001030002000000af1a000182
:104d80000301020000001d1c00090302424404004c
:104d9000a91a00010303020000002d1b00010304f7
:104da000020000001b1b0002030582000000211b03
:104db0000001030602000000271b00010307020098
:104dc0000000a31a0002030882000000731a000802
:104dd000040042440800b51a0006040142840000a1
:104de000d91a0006040242840000e51a00050403f3
:104df00042040000df1a0003040442000000eb1a22
:104e00000004040542080000f71a000404064208e2
:104e100000000f1b0001040702000000bb1a000382
:104e2000040842000000f11a000604094284000050
:104e3000fd1a0002040a22000000031b0002040bfa
:104e400082000000091b0002050022000000691b0f
:104e50000001050102000000f91b0001050202002b
:104e60000000051c0003050322020000ff1b0005d3
:104e70000504620000000b1c000005050000000096
:104e8000e11b0001050608000000b11b000206003e
:104e900022000000ab1b0002060122000000bd1b27
:104ea0000001060202000000c31b000f06032a4493
:104eb0004400d51b0000060400000000db1b0008b6
:104ec000060544440000c91b000306062202000038
:104ed000cf1b00050607440200005d1b0005060805
:104ee00044020000631b0002060982000000571bf9
:104ef0000007060a2a000000b71b00030700220271
:104f00000000531c00060701260200005f1c00037e
:104f1000070222020000591c0002070322000000c1
:104f2000651c00020704220000006b1c000307053b
:104f300022020000711c0003070622020000771cf9
:104f400000020707220000007d1c0006070822223d
:104f500022008f1c0002070982000000951c00033c
:104f6000070a22020000831c0003070b220800002e
:104f7000891c0001070c02000000ed1b0005070d55
:104f8000224200009b1c0003080022020000851a38
:104f900000010801020000008b1a00000802000056
:104fa0000000911a0000080300000000971a00009a
:104fb0000804000000009d1a000108050800000018
:104fc0007f1a0001080602000000791a000109009a
:104fd00002000000a11c0004090106000000a71c3b
:104fe0000001090208000000ad1c000009030000d8
:104ff0000000b31c00000000000000003b1c00008b
:105000000001000000003b1c000600020a00000036
:105010003b1c00020003040000003b1c00030004d2
:10502000240000003b1c00050005222202003b1c5e
:1050300000010006020000003b1c0005000786007e
:1050400000003b1c000c0008444424023b1c0002ee
:105050000009040000003b1c0002000a04000000dc
:105060003b1c0002000b040000003b1c0000000c75
:10507000000000003b1c0003000d840000003b1cee
:105080000002000e040000003b1c000001000000b4
:1050900000003b1c00000101000000003b1c000060
:1050a0000102000000003b1c00020103040000009c
:1050b0003b1c00030104840000003b1c00000105b0
:1050c000000000003b1c00020106040000003b1c25
:1050d00000000107000000003b1c00020200040069
:1050e00000003b1c00070201448400003b1c00053b
:1050f0000202440800003b1c000002030000000004
:105100003b1c00000204000000003b1c00030300e5
:10511000420000003b1c00020301320000003b1c67
:1051200000030302420000003b1c00030303420093
:1051300000003b1c00020304820000003b1c000333
:105140000305420000003b1c000303064200000070
:105150003b1c00010307020000003b1c0001030888
:10516000020000003b1c00030400420000003b1c46
:1051700000030401420000003b1c00030402420043
:1051800000003b1c00030403420000003b1c000322
:105190000404420000003b1c000304054200000020
:1051a0003b1c00030406420000003b1c00020407f5
:1051b000040000003b1c00030408420000003b1cec
:1051c00000030409420000003b1c0003040a4200e3
:1051d00000003b1c0003040b420000003b1c0003ca
:1051e0000500420000003b1c00000501000000001b
:1051f0003b1c00020502040000003b1c00000503ec
:10520000000000003b1c00020504040000003b1ce1
:1052100000010505020000003b1c0000050600001f
:1052200000003b1c00000600000000003b1c0002c8
:105230000601040000003b1c0002060204000000fe
:105240003b1c00030603240000003b1c0002060474
:10525000040000003b1c00030605240000003b1c6a
:1052600000020606040000003b1c000206070400c2
:1052700000003b1c00020608040000003b1c00026a
:105280000609040000003b1c0002060a040000009e
:105290003b1c00020700040000003b1c0002070149
:1052a000040000003b1c00020702040000003b1c3d
:1052b00000020703040000003b1c00020704040076
:1052c00000003b1c00020705040000003b1c00021c
:1052d0000706040000003b1c00040707240200002e
:1052e0003b1c00020708040000003b1c00040709e7
:1052f000240800003b1c0003070a840000003b1c3c
:105300000001070b020000003b1c0000070c00001e
:1053100000003b1c0002070d040000003b1c0000c5
:105320000800000000003b1c000008010000000015
:105330003b1c00020802040000003b1c00000803a4
:10534000000000003b1c00010804080000003b1c9a
:1053500000010805080000003b1c000008060000d2
:1053600000003b1c00000900000000003b1c000284
:105370000901040000003b1c0002090204000000b7
:105380003b1c00020903040000003b1c800c0000d1
:10539000444424023b1c80010001080000003b1c27
:1053a00080020002220000003b1c80020003220059
:1053b00000003b1c80040004440000003b1c8000f3
:1053c0000005000000003b1c8002000604000000f5
:1053d0003b1c80030100840000003b1c800702008e
:1053e000224408003b1c80060201422400003b1cb2
:1053f00080030202240000003b1c80100300222acc
:1054000044243b1c80060301224400003b1c800214
:105410000302820000003b1c8002030382000000a4
:105420003b1c80030304420000003b1c800304007b
:10543000420000003b1c80050401420400003b1cac
:1054400080060402428400003b1c800704034224bf
:1054500008003b1c80040404420800003b1c80053b
:105460000405428200003b1c80020406820000000a
:105470003b1c80030500220800003b1c8003050143
:10548000420000003b1c80050502620000003b1c3e
:1054900080010503020000003b1c80040504222259
:1054a00000003b1c800b0600232a82003b1c80026c
:1054b0000601220000003b1c800707002622000096
:1054c0003b1c80010701020000003b1c8003070217
:1054d000520000003b1c80040900060000003b1c39
:1054e00000000000000000000000350a0f530a0809
:1054f000630a056d0a097f0a0c970a07a50a0bbb08
:105500000a0ed70a07e50a0474f012251274fc1279
:105510002493e5c7fe75c70390f7f4e0a2e65011a7
:1055200090f7e91222c38532828533831222cf801d
:10553000347904853282853383aa82ab83121a318f
:105540008532828533837825122292900a1578213c
:105550001222927825792112209385328285338315
:1055600078211222b48ec78532828533831222c3fa
:105570007404026bd974f71225129004dfe0f52150
:105580007900800774ff2521522109e52170f50279
:105590006e4a74f6122512e99004e17006e054fb9d
:1055a000f08019e0440412727712275aeafcebfdee
:1055b0007ae37b04121f3574021224a90272697403
:1055c000f712251274fe1224c3122746e975f075ee
:1055d000a4f8a9f00592900365e028f582a3e039cc
:1055e000f583aa82ab83ea2469f8eb3400f9888258
:1055f0008983858284858385e0f8a3e0f9e8497092
:1056000024ea2467fceb3400fd8c848d85e4f0a350
:10561000f074530592f0a37419f0ea246ffaeb3496
:1056200000fb121647026e3974f6122512790075c6
:105630002101752200e978211224809004dfe055d1
:1056400021600709e9c3940840e57408697002798c
:10565000ff027269c021e9faa2e0500575210380ba
:1056600003752100a2e15004780c80027800e84222
:1056700021eaa2e25004781080027800e84521f97e
:10568000d0215392fe02111874f712251274fe12e3
:1056900024c3122746e9fe752100740b1224fc1264
:1056a000590e8028852182a882e58428f582e58527
:1056b00012681effec28f582ed12681e6fc0e0ea4a
:1056c00028f582eb1265cdd0e0f00521e521c39edf
:1056d00040d280031224a9853282853383026e4230
:1056e00074f7122512752100801a852182ae82ec92
:1056f0002ef582ed12681ef8ea2ef582eb12681e76
:1057000068f00521e521c39940e0026e4a74f61263
:10571000251274fe1224c31227468a848b857521b4
:1057200008752200782112275a7af37b04121f355c
:1057300074021224a9782112275a7c007d007afb7a
:105740007b04121f3b74021224a97521f3752204f5
:10575000782112275a7cf37d04aa84ab8512132981
:1057600074021224a99004f3e0faa3e0fb02725b36
:1057700074f412251274fe1224c31227468a848bf5
:1057800085740e1224fc1261a2f974101224fce03c
:10579000f521a3e0f5229004f3ecf0a3edf0a3e8eb
:1057a000f0a3e9f075230c752400782312275a7ca6
:1057b000007d007af77b04121f3b74021224a97843
:1057c0002112275a7cf37d04026de474f412251231
:1057d00074fe1224c31227468a848b85740e122409
:1057e000fce0f521a3e0f5228c238d2478231227f9
:1057f0005a7910900361e02402125b65aa21ab2262
:105800001218c374021224a9782112275aac21adb0
:1058100022aa84ab8512132974021224a99004973a
:10582000e0a2e050067c9f7d0480047c997d04907a
:105830000493e0a2e050047a0080027a067906e53b
:10584000212afae5223400fb1218c9900493e0a241
:10585000e050047e0680027e007906900363e075c6
:10586000f0e6a4faabf0900460e02afaa3e03bfb78
:10587000ea240bfceb3400fde5212efae52234008e
:10588000fb1218c9782112275aac21ad22026de40f
:1058900074f612251274fe1224c3122746eafeeb98
:1058a000ff740c1224fc12590e7521037522007826
:1058b0002112275a7af37b04121f3574021224a98d
:1058c00075210d782112275a7c007d007af67b0421
:1058d000121f3b74021224a97521f375220478214a
:1058e00012275a7cf37d04eefaeffb12132974029f
:1058f0001224a9752103752200782112275a7cf3fe
:105900007d04aa84ab85121f3574020275291261c9
:10591000352274f612251274fe1224c31227461281
:1059200071e1640a75211075220078216003025923
:10593000d012275a900361e024421260fe121f35f4
:1059400074021224a97521f3752204782112275ab2
:105950001269641218db74021224a97521107522d1
:1059600000782112275a125e027af37b04121f2f4d
:1059700074021224a98b22ea45226003025a2112e2
:105980006d01aa84ab851219717521087522007802
:105990002112275a125aa4121f3574021224a91276
:1059a0005e0c8a218b22782112275a125b5b12131c
:1059b0002974021224a9126d2612275a125a8c1227
:1059c0001f3b74021224a9125df1740bf0025a8974
:1059d00012275a900361e024321260fe121f3574c0
:1059e000021224a97521f3752204782112275a90f6
:1059f0000361e0243212696a1218db74021224a9ce
:105a0000752110752200782112275a125b517af302
:105a10007b04121f2f74021224a98b22ea452260f4
:105a20000b7904aa84ab85121905805d7521087570
:105a30002200782112275a125aa4121f357402121a
:105a400024a91264911265c8858221858322782158
:105a500012275a125b5baa21ab221213297402127d
:105a600024a9126d2612275a125a8c121f3b740257
:105a70001224a9125df17406f07c007d009003638e
:105a8000e0f9aa84ab8512177902725b7c007d0075
:105a9000900361e02af8a3e03400f9e82453fae91e
:105aa0003400fb22126d05900361e0244afaa3e062
:105ab0003400fb2274f612251274fe1224c312273e
:105ac000461271e164047521107522007821702559
:105ad00012275a900361e024221260fe121f3574cf
