:020000040000fa
:100000000200de021003000000000002100b0000de
:10001000000000021013000000000002101b00008e
:10002000000000021023000000000002102b00005e
:10003000000000021033000000000002103b00002e
:10004000000000021043000000000002104b0000fe
:10005000000000021053000000000002105b0000ce
:10006000000000021063000000000002106b00009e
:10007000000000021073000000000002107b00006e
:10008000000000021083000000000002108b00003e
:10009000000000020d021200f0b900030200d8e4d3
:1000a00090000278a479018002f0a3d8fcd9fa90dc
:1000b00000a5aa82ab839000f6780979018015e447
:1000c00093a3ac82ad838a828b83f0a3aa82ab8395
:1000d0008c828d83d8e9d9e71202e0120d2175d008
:1000e0000075813f75188075931e5392fe0200962d
:1000f00079015392fe220010000000000200bb01b3
:1001000002e722c0925392fec082c08389828a8312
:10011000bb0003e08002e493d083d082d09222bb64
:100120000015c0925392fec082c0838a838982f0f8
:10013000d083d082d09222bb0101f722cac0e0e670
:10014000f30908dafad0e0fa22cac0e0e0f208a324
:10015000dafad0e0fa22600c08c6c313c618c61338
:10016000c6d5e0f422700422600d18c6c333c60859
:10017000c633c6d5e0f41822e4735392fed083d080
:10018000822518f8c518c39824fbcef208e520f2a2
:1001900008e9c0e07908e709f208defad0e0f9eff3
:1001a000f208d0e0fed0e0f208eef208e473a818fe
:1001b000e2fe08e208f520e9c0e07908e208f70964
:1001c000dffae208ffd0e0f9e208c0e0e208c0e0b0
:1001d00088185392fe22e584f208e585f222e208af
:1001e000f584e2f585227403800474028000c9c09e
:1001f000e0e518c399f518c912013cd0e0f9227462
:10020000038000c8c0e0e518c398f518c81201497a
:10021000d0e0f8227400f5d374022408f5d253928a
:10022000fe22a2afe433f8c2af5392fe906270e0b8
:10023000a2e740f5e9c333906272f0906270e0d2b9
:10024000e0f0e0a2e740fbe8a2e092af2274fa12ed
:10025000017aa2af33f8c2afed900002f0eca3f048
:10026000a37462f0a37473f0a3e4f0e9a3f0a374a1
:1002700012f0a37442f0eb906272f0ea906271f0b7
:100280007400f5d575d40275d601906270e0d2e1a4
:10029000f0e0a2e740fbe8a2e092af7f010201aeee
:1002a0005392fe906276e075c6807480659e70fa07
:1002b0009062707408f02274fa12017af9800c8a44
:1002c000828b83e029f9a3aa82ab83ecfeedffeedb
:1002d00024ff1cef34fffdee4f70e47f010201aefe
:1002e0005392fe900001e090001af0e5c7ff75c739
:1002f000007c007d707a007b901202b7e924a5fe95
:100300008fc77f01e5c7f5088fc77c007d807a0025
:100310007b801202b7e92efe8508c70fefc3940356
:1003200040e2ee7027e59d54186410700890001aa2
:10033000e0a2e040179000017403f005929000a540
:10034000e0f582a3e0f58305921201781202a090f5
:100350000001e4f01202141205ed12061d12067cd3
:1003600080fb74f812017a15181518a8181201d616
:1003700090620ee0fee4f0906211e0ffa2e45019fa
:100380007480f09000227407f012055f6006120579
:100390006a120178900022e4f0efa2e2500b906222
:1003a00011e4f0900022f0805c900022e0f87402ea
:1003b00068703e906216e0ff9000391201ffeff97d
:1003c0007a207b621206290518051805188f0890f7
:1003d000003c1205541205791205626004744080d5
:1003e000027448906211f0e8496003020541020579
:1003f00024740668700612056a120178900022e0e3
:1004000060030204d3efa2e0400302054175083106
:10041000750900750a0078081201e679087a207bd0
:100420006212062905180518051890003ee4f0a38d
:10043000f0900031e054e0600e24e0606a24a06097
:100440004024e06071807ea3e014602624fe601ddd
:1004500024fe600a24fc601f24fe602080671209cd
:10046000e3900022e064047064746080621209dd2d
:1004700080ef1209d780ea120b1680e5120c4e802d
:10048000e0a3e0600e24fa600f24fe601024fe60fa
:1004900011803212080e80c9120a2980c4120aec97
:1004a00080bf120bf080ba90003e74a4f0a37406d3
:1004b000f01206a480ab90003e745ef0a37407f0c7
:1004c00012075e809c9000227404f0809c7440901f
:1004d0006211f0900022e0f874016870597f029078
:1004e000003ce0f8a3e0f9c3e89420e99400500749
:1004f000e8f50a7f0a8003750a209000391201ff8f
:10050000a90a7a207b621206490518051805188584
:100510000a08120579120554ef906211f0e50ac33a
:100520009420501d12055f600612056a1201789032
:100530000022e4f0800b740568700612056a12014f
:1005400078ee90620ef0a8181201de051805187feb
:10055000030201aec3e09508f0a3e09400f02290fe
:10056000003ee0f8a3e0f9e84922059290003ee061
:10057000f582a3e0f583059222900039e0f9a3e02b
:10058000faa3e0fbe92508f9ea3400fa900039e91a
:10059000f0a3eaf0a3ebf0a322c008c0097800881a
:1005a0000874232508f58274003400f583e953921a
:1005b000fef008e8c3940540e67800880874282512
:1005c00008f58274003400f583e9f008e8c3940567
:1005d00040e9d009d008225392fe90001b7402f02b
:1005e000a3e4f0900022f0790312059922c008c01c
:1005f0000975082175090078081201ea7c007d0060
:100600007a407b00120d250518051890001b740216
:10061000f090620f04f0e0a2e750fb80b553f4fec7
:10062000d29043fe015392fe22eec0e012066460b7
:10063000115392fee012011fe9240109ea3400fa85
:10064000d8efd0e0fe5392fe22eec0e012066460c6
:10065000111200fe5392fef0e9240109ea3400fa77
:10066000d8ef80de8a828b83e9f8a918e3fc09e3de
:10067000fd09e3feecf9edfaeefbe822eec0e053f3
:1006800092fe906206e0f8906202e0fe906204e062
:10069000e8a2e250031205d7eea2e0500312036273
:1006a000d0e0fe2274f712017a900032e07003026b
:1006b000074714600302075390001a7401f090007a
:1006c00022e0f87030900037e0f8a3e0f9e84970d4
:1006d000059000ab80749000397461f0a37400f051
:1006e000a3e4f0a3e8f0a3e9f09000227402f090f4
:1006f00000ab0480637402687059900033e02440ba
:10070000f508a3e03400f509e508541f70128508c8
:100710000a85090b7405780a120156a90a120222e9
:10072000900037e0240354fcf97c617d0074047868
:1007300008120165aa08ab0912024d900022e4f0ec
:100740009000ab7405801190001a7402f0900022a2
:10075000e480059000227404f07f040201ae5392fd
:10076000fe900032e06403701a90003974a7f0a381
:100770007400f0a3e4f0a37406f0a3e4f090002268
:100780000480059000227404f0225392fe9000a190
:10079000e4f0a3740ff02274fa12017a15181518f8
:1007a000a8181201d6eafcebf87a007b0008803822
:1007b000e8604d05929000a1e0fda3e0f5838d82f5
:1007c000a3e493fdec6d6034e96d70099000a1e045
:1007d000faa3e0fb189000a1e02efea3e03400ff96
:1007e0009000a1eef0a3eff09000a1e0f584a3e06b
:1007f000f585e4059293fe70b7e860047a007b000b
:10080000a8181201de051805187f010201aec00804
:10081000120be260030208e9a3e0f8a3e060030220
:1008200008e9a3e064027002a3e060030208e99013
:100830000031e02480600914604f14605c0208e914
:10084000e860030208e990002ee06004780180026d
:1008500078009000a3e8f0a3e4f090002de0600a97
:100860009000a3e04402f0a3e4f0900022e06404ce
:10087000601490003974a3f0a37400f0a3e4f0a313
:100880007402120c45f0d0082290001be064047042
:10089000589000a3e4f0a380d0e8547ff5089000be
:1008a0001be064047043e508c39406503c741b25a8
:1008b00008f58274003400f583e854806018a3a31f
:1008c000a3a3a3a3a3e064037004780180027800cb
:1008d0009000a3e88090e582240cf582e583340043
:1008e000f583e0640370e780e19000227404809552
:1008f00074f912017a15181518a8181201d6e9fa18
:10090000900037120be860030209c190001be064fd
:1009100004600b900035120be860030209c19000df
:1009200031e0541f60091460231460120209c19061
:100930000033e064017015ea90002d0209c69000b2
:1009400035e0547ff508900033e060047900807949
:10095000e508c39406506ae50890620ef0741b2502
:1009600008f58474003400f585900035e05480600b
:1009700021ea6004741080027440906211f0ea6011
:100980000474038001e40592a3a3a3a3a3a3a3f08b
:100990008026ea6004742080027480906214f0ea79
:1009a000600474038001e4c0e0e584240cf582e572
:1009b000853400f583d0e0f05392fe90620ee4801f
:1009c000059000227404f07901a8181201de0518c0
:1009d00005187f020201ae79001208f02279011297
:1009e00008f0225392fe900035120be87018a31203
:1009f0000be87012900033e0f8a3e0f9e85480fab5
:100a0000e9fbea4b60079000227404801ae89062c8
:100a100000f090001b6009e06402700c7403800712
:100a2000e0640370037402f02274f812017a120772
:100a30008a900033e0faa3e0f914600814600d1402
:100a4000603280387b007a0079018034eafb7a00da
:100a50007902120797120ad7e92402f9ea3400fa58
:100a600089828a83e493f8740193f990003ce8f05a
:100a7000a3e9801ceafb7a00790380047b007a00fa
:100a8000120797120ad7a37b801200fea3f0a3e4fb
:100a9000f0900039e0fca3e0fda3e0feec4d4e90a9
:100aa0000022700474048029e064046025900037fb
:100ab000e0faa3e0fb90003ce0f8a3e0f9c3ea9879
:100ac000eb99500890003ceaf0a3ebf09000227400
:100ad00001f07f030201ae900039eaf0a3ebf0a32e
:100ae0007480f0900039e0f9a3e0fa22120be27072
:100af00010a3120be8700aa3e064017002a3e06087
:100b0000079000227404800c900039741cf0a374c8
:100b100000120c3bf02274f812017a90001be06482
:100b2000027003020bc9900035120be86003020b40
:100b3000c9a3120be86003020bc9900034e0600304
:100b4000020bc912078a900033e07003020bd17bbd
:100b5000007a0079021207978a088b09ae08af095c
:100b6000ee4f6065900033e0f88e828f83a3a3a3dd
:100b7000a3a3e493c0e0e8fad0e06a70d290001b2f
:100b80007404f0e8a3f0750a008e828f83a3a3a3f8
:100b9000a3e493f8e50ac3985045850a08741d2517
:100ba00008f58274003400f583e4f07b007a007964
:100bb000041207978a828b83e58245836007a3a38b
:100bc000a3e49370e6050a80c09000227404f080cc
:100bd0000e90001cf090001b7403f0f912059902ae
:100be0000ad25392fe900033e0f8a3e0f9e84922dc
:100bf00074f812017a90001be064047019900031bf
:100c0000e064817011120be5700c900037e0640114
:100c10007002a3e060079000227404801a900035ef
:100c2000e0241df508a3e03400f509900039e5083b
:100c3000f0a3e509120c3bf0020ad2f0a3e4f0a302
:100c400004120c4522f0a3e4f0900022042274f96f
:100c500012017a15181518a8181201d690001be079
:100c600064046003020cf5900031e064016003024b
:100c70000cf5900037120be8707b12078a7b007a24
:100c80000079021207978a828b83e5824583600f81
:100c9000a3a3a3a3a3e493f890001ce06870de7bf9
:100ca000007a0279041207978a828b83e582458352
:100cb00060430592900033e0f8a3e0f9900035e03e
:100cc000faa3e0fb858284858385a3a3e493fceaf1
:100cd0006c7001eb600f0592a3a3a3e493fce86c96
:100ce0007001e970ba741d2af58274003bf583e83f
:100cf0005392fe80059000227404f00209c95392b9
:100d0000fe2274fa12017a15181518eafeebffa8f4
:100d100018eef208eff2aa18ab937901120cfe80dc
:100d2000ee12009322ecf9a818e2fc08e2fdec4d6b
:100d30006017e9f88a828b83e85392fef0a3ec24d3
:100d4000ff1ced34fffd4c70ef5392fe22ffffffbe
:100d5000ffffffffffffffffffffffffffffffffa3
:100d6000ffffffffffffffffffffffffffffffff93
:100d7000ffffffffffffffffffffffffffffffff83
:100d8000ffffffffffffffffffffffffffffffff73
:100d9000ffffffffffffffffffffffffffffffff63
:100da000ffffffffffffffffffffffffffffffff53
:100db000ffffffffffffffffffffffffffffffff43
:100dc000ffffffffffffffffffffffffffffffff33
:100dd000ffffffffffffffffffffffffffffffff23
:100de000ffffffffffffffffffffffffffffffff13
:100df000ffffffffffffffffffffffffffffffff03
:100e0000fffffffffffffffffffffffffffffffff2
:100e1000ffffffffffffffffffffffffffffffffe2
:100e2000ffffffffffffffffffffffffffffffffd2
:100e3000ffffffffffffffffffffffffffffffffc2
:100e4000ffffffffffffffffffffffffffffffffb2
:100e5000ffffffffffffffffffffffffffffffffa2
:100e6000ffffffffffffffffffffffffffffffff92
:100e7000ffffffffffffffffffffffffffffffff82
:100e8000ffffffffffffffffffffffffffffffff72
:100e9000ffffffffffffffffffffffffffffffff62
:100ea000ffffffffffffffffffffffffffffffff52
:100eb000ffffffffffffffffffffffffffffffff42
:100ec000ffffffffffffffffffffffffffffffff32
:100ed000ffffffffffffffffffffffffffffffff22
:100ee000ffffffffffffffffffffffffffffffff12
:100ef000ffffffffffffffffffffffffffffffff02
:100f000012010002000000205824feff0000010230
:100f1000030109021b0001010480250904000000ef
:100f2000fe01020409210d03e84000010104030948
:100f300004120342006c00750065006700690067d9
:100f400000610016034c006f007700200045006e22
:100f50000065007200670079000a03310032003337
:100f6000003400080344004600550000ffffffff67
:100f7000ffffffffffffffffffffffffffffffff81
:100f8000ffffffffffffffffffffffffffffffff71
:100f9000ffffffffffffffffffffffffffffffff61
:100fa000ffffffffffffffffffffffffffffffff51
:100fb000ffffffffffffffffffffffffffffffff41
:100fc000ffffffffffffffffffffffffffffffff31
:100fd000ffffffffffffffffffffffffffffffff21
:100fe000ffffffffffffffffffffffffffffffff11
:100ff000ffffffffffffffffffffffffffffffff01
:101000000210f702324dffffffffff023c53ffffcc
:10101000ffffff023ceaffffffffff023d9effffd5
:10102000ffffff022814ffffffffff023a96ffffba
:10103000ffffff023e89ffffffffff023d42ffff70
:10104000ffffff023cc3ffffffffffffffffffffac
:10105000ffffff023233ffffffffffffffffffff36
:10106000ffffffffffffffffffffff023b9effffb2
:10107000ffffff023e11ffffffffff023c19ffffd2
:10108000ffffff0232587582fb75837f74001211d7
:1010900012121133b900030210e1e479347802b876
:1010a00000028004f709d8fce49003027875790700
:1010b0008002f0a3d8fcd9fa900976aa82ab83907b
:1010c000113978d779028015e493a3ac82ad838a75
:1010d000828b83f0a3aa82ab838c828d83d8e9d9db
:1010e000e77582367583f874021211127582e875fd
:1010f00083ff740112111275d00075813f753100a4
:10110000753202753303759f007593005392fe028a
:101110001091c09ff59fe473d09f225392fed0831d
:10112000d082c09fe493c0e0740193c0e074029346
:10113000f59f2279015392fe22030000020000a1d4
:10114000140102030000211600000f00c3a88ee85e
:10115000b19dcf7f5eb98b9f41efb055f401fa008e
:10116000960064004b0032001e001400d6be898e2b
:10117000000106021213151429417671ffc1fbe824
:101180004c90728be7b3518963ab232302841872ae
:10119000aa612f3b51a8e53749fbc9ca0c18532c4b
:1011a000fd45e300400000fffffffffaffffff00e7
:1011b0000080006200000007000000050006000734
:1011c0000000000100010000010001020203000212
:1011d0000000000000020201000240420f0019005e
:1011e0000000093d0000e4fffffffb349b5f80002f
:1011f000008000100000000000000a4d144d1e4d3c
:10120000284d324d3c4d464d504d5a4d644d6e4d1e
:10121000784d824d8c4d964da04daa4db44dbe4d8e
:10122000c84dd24ddc4de64df04dfa4d044e0e4efc
:10123000184e224e2c4e364e404e4a4e544e5e4e66
:10124000684e724e7c4e864e904e9a4ea44eae4ed6
:10125000b84ec24ecc4ed64ee04eea4ef44efe4e46
:10126000084f124f1c4f264f304f3a4f444f4e4fae
:10127000584f624f6c4f764f804f8a4f944f9e4f1e
:10128000a84fb24fbc4fc64fd04fda4fe44fee4f8e
:10129000f84f02500c50165020502a5034503e50f7
:1012a000485052505c50665070507a5084508e5066
:1012b0009850a250ac50b650c050ca50d450008084
:1012c00001000100000000800000ff1c051d0b1d37
:1012d000111d171d1d1d691c731e551e271fc11ec4
:1012e000c71e6b1723146919a114d31e791eb91dcb
:1012f000151f631c2b0601ffffff0000000080ff8d
:10130000ffffff0400000000000000c0000000120a
:10131000111b2cb70212111b44b70212111b6fb71d
:101320000212111bbcb70212111bd5b70212111bfe
:1013300007b80212111b45b80212111b77b802122e
:10134000111beeb80212111b0db90212111b32b99a
:101350000212111b89b90212111b20be0212111bad
:10136000d4be0212111be0f90212111bf8f902128d
:10137000111b69fa0212111bacfa0212111b5ce27a
:101380000212111bb5e20212111b1de30212111b06
:1013900035e30212111b5fe30212111b79e3021203
:1013a000111bade30212111b03e40212111b3ee4f8
:1013b0000212111beee40212111b12e50212111ba4
:1013c0009ae50212111bc5e50212111b07e6021273
:1013d000111b2ce60212111b40e60212111b55e6ee
:1013e0000212111bfde60212111b15dd0212111b68
:1013f00023dd0212111b54dd0212111b7ddd0212ce
:10140000111b8bdd0212111bd2dd0212111b91deaa
:101410000212111b06df0212111b63df0212111be5
:101420008fdf0212111b08e00212111be4e002120e
:10143000111befe00212111b14e10212111b68e1f3
:101440000212111bcee10212111b00e20212111b4b
:10145000e6fd0212111b06fe0212111b2ffe0212e4
:10146000111b92fc0212111ba6fc0212111bfdfca7
:101470000212111b97fe0212111be6fe0212111b33
:10148000fdfe0212111b0ffc0212111b3cfc02128a
:10149000111b16ad0212111b7dad0212111b94ad72
:1014a0000212111bd8ad0212111b1eae0212111b2b
:1014b00084ae0212111bd8af0212111b00b102122e
:1014c000111ba2b10212111bc6b10212111b08b2ec
:1014d0000212111bb6b20212111b04b30212111b2d
:1014e00061b30212111b74b30212111b74b4021205
:1014f000111b94b50212111b0ab60212111b0080b7
:101500000112111bab810112111b28820112111b48
:101510007b830112111bed830112111b2784011221
:10152000111be0840112111b6e850112111b318603
:101530000112111b59870112111b4d880112111b39
:101540008e890112111bf6890112111b5e8a01128c
:10155000111bdb8a0112111b918b0112111b038cd1
:101560000112111b9c8c0112111b028d0112111b07
:10157000708d0112111bc58d0112111b5b8e0112a2
:10158000111b0e8f0112111bd58f0112111b92918d
:101590000112111bdd930112111b22940112111b68
:1015a0009e940112111b06950112111b54950112f4
:1015b000111be0960112111b80970112111bf1976c
:1015c0000112111b71990112111bd2990112111be9
:1015d000e89a0112111bd79b0112111bf39c0112f7
:1015e000111b529e0112111b09a00112111bb9a25d
:1015f0000112111b46a30112111b03a40112111b9e
:10160000f0a40112111b54a50112111bb0a9011263
:10161000111b16ac0112111be8ac0112111b5eafbd
:101620000112111b80b00112111b0bb20112111b10
:1016300022b20112111bb0ea0212111beeea0212d1
:10164000111b55eb0212111b81eb0212111b4dec09
:101650000212111b24ed0212111bcef80212111bf3
:1016600027f90212111b88f90212111b1ab9011273
:10167000111b38b90112111b55b90112111b72b996
:101680000112111bf4b90112111b87ba0112111baf
:1016900059bc0112111bbfbc0112111b03bd011269
:1016a000111b40bd0112111b75bd0112111bb7bded
:1016b0000112111b25be0112111bd3be0112111bf9
:1016c000ebbe0112111b27c00112111b4fc20112e8
:1016d000111bdbc20112111b0fc30112111b36c4f7
:1016e0000112111b61c50112111b88c50112111bca
:1016f000c4c50112111bf7c50112111bc0c901128b
:10170000111be8c90112111b34ca0112111bbdcff4
:101710000112111b03d00112111b43d00112111b26
:10172000f9d00112111bd0d10112111b2ed40112bc
:10173000111b9fd50112111b10d60112111b4ad883
:101740000112111bc2d80112111b06d90112111b63
:101750006ad90112111bbdd90112111b59da0112ec
:10176000111ba2da0112111bfdda0112111b07db9a
:101770000112111b44dc0112111bd7dc0112111bd9
:10178000a3dd0112111b4fde0112111b00e001123b
:10179000111b22e00112111b3fe20112111b94e305
:1017a0000112111b31e40112111b82e40112111b01
:1017b0001ae50112111b0ae70112111b1be70112a6
:1017c000111b25e70112111b14e90112111b6fe90e
:1017d0000112111bace90112111b17ea0112111bb6
:1017e00046ea0112111befea0112111b6aeb01120a
:1017f000111bcbeb0112111b41ec0112111b78ecf8
:101800000112111badec0112111bcbec0112111bcb
:101810002aed0112111b38ed0112111b77ed011297
:10182000111be8ed0112111bb2f50212111b56f645
:101830000212111b7af60212111bc5f60212111bbd
:1018400004f70212111b09fd0212111bf39f021271
:10185000111b1fa00212111b6ba00212111bb8a0ba
:101860000212111b34a10212111ba4a30212111b9c
:10187000d6a40212111bdea70212111beda8021240
:10188000111be3a90212111b6aab0212111be5ab7b
:101890000212111bf7ac0212111b6aed0212111b8e
:1018a00096ed0212111baded0212111b47ee021252
:1018b000111b73ef0212111b38560012111b9f5699
:1018c0000012111bbc560012111be9560012111b0d
:1018d00052570012111b7e570012111bb2570012f3
:1018e000111b0a580012111b37580012111b9a586d
:1018f0000012111bf5580012111bba590012111bce
:10190000385a0012111bda5b0012111b925c001294
:10191000111b495f0012111bc1620012111b0363ee
:101920000012111b58630012111b10640012111bce
:10193000ed650012111b91660012111bd266001298
:10194000111b20670012111b78670012111b9e6784
:101950000012111bf1670012111b32680012111bdb
:10196000b3690012111bcd6a0012111bde6a00124e
:10197000111b3c6c0012111b526c0012111b7a6c73
:101980000012111b196d0012111b2e6d0012111b7c
:10199000606d0012111b786e0012111b3b6f00125c
:1019a000111b876f0012111bcc6f0012111b7f706f
:1019b0000012111bda700012111be7710012111bcb
:1019c0003b720012111b7f720012111bc9730012af
:1019d000111bde750012111b0e760012111b57f23f
:1019e0000212111b64f20212111b87f20212111b68
:1019f000caf30212111bd7f30212111b05f40212d3
:101a0000111b7cd70212111becd70212111b19d823
:101a10000212111b68d80212111b85d80212111b69
:101a200050d90212111bfada0212111b58db0212f2
:101a3000111b66db0212111b6ddc0212111bd6dcbe
:101a40000212111bdafa0212111b08fb0212111bff
:101a500038fb0212111b15f00212111ba2f0021228
:101a6000111bd4f00212111b45f10212111be9f1f6
:101a70000212111bfcf10212111b03e70212111bcf
:101a800019e70212111ba1e70212111b32e8021220
:101a9000111b00800212111b15800212111b2480e1
:101aa0000212111b15810212111b2d810212111b32
:101ab0003c810212111b52810212111b5e81021223
:101ac000111b9f810212111be6810212111b388229
:101ad0000212111b66820212111bd0820212111b0c
:101ae000ec820212111b27830212111b5683021271
:101af000111be9830212111b5f840212111bb784b0
:101b00000212111bf0840212111b42850212111bda
:101b10007d850212111ba9850212111be485021298
:101b2000111b48860212111b73860212111bc386f9
:101b30000212111b1e870212111b21870212111b98
:101b40007f870212111bb6870212111bee87021249
:101b5000111b26880212111b5d880212111b878837
:101b60000212111b90880212111bdb880212111b3a
:101b7000f98a0212111b5d8c0212111b9a8c02123f
:101b8000111bda8c0212111b078d0212111b538dcf
:101b90000212111b7e8d0212111b028e0212111bea
:101ba000b58e0212111b2d8f0212111b8d8f021286
:101bb000111b988f0212111bc28f0212111bd08fa2
:101bc0000212111b6f900212111bf3900212111bd3
:101bd0003d910212111b71910212111b8f91021281
:101be000111bb1910212111bd6910212111bf2911d
:101bf0000212111b68920212111ba8920212111bf1
:101c000023930212111b39930212111b63930212c8
:101c1000111b99930212111ba8930212111bf59329
:101c20000212111b04940212111b1c940212111bac
:101c300045940212111b75940212111ba2940212f8
:101c4000111bb5940212111bed940212111b529537
:101c50000212111b83950212111bb0950212111b67
:101c6000bc950212111bc2950212111b6f96021233
:101c7000111bb9980212111b3e990212111b649993
:101c80000212111b8a990212111ba5990212111b33
:101c9000d9990212111b0b9a0212111b419a0212be
:101ca000111b799a0212111bbe9a0212111b029b80
:101cb0000212111b469b0212111bc59b0212111b23
:101cc0002a9c0212111b849c0212111b009d0212fd
:101cd000111b459d0212111bf79d0212111bbb9e89
:101ce0000212111bb19f0212111bb49f0212111b91
:101cf000c99f0212111bde9f0212111b4b7e0012a4
:101d0000111b997e0012111baf7e0012111bc57ea4
:101d10000012111bdb7e0012111bfc7e0012111b36
:101d2000127f0012111b287f0012111baccb021274
:101d3000111bf3cb0212111b36cc0212111b54cc17
:101d40000212111bcccc0212111b3dcd0212111b31
:101d500075cd0212111bd3cd0212111beecd021252
:101d6000111b1bce0212111b79ce0212111b90ce39
:101d70000212111bb2ce0212111bddce0212111b78
:101d800012cf0212111b3ecf0212111b77cf02128b
:101d9000111b9ecf0212111bd1cf0212111be0cfdb
:101da0000212111be9cf0212111b5fd00212111b8c
:101db00087d10212111b5fc50212111b3cc6021211
:101dc000111b48c70212111be1c70212111b4cc89c
:101dd0000212111b87c80212111bd6c80212111b56
:101de0001fc90212111b68c90212111b89c90212f4
:101df000111baac90212111bc2c90212111bddc993
:101e00000212111b32ca0212111b88ca0212111bc4
:101e1000e6ca0212111b43cb0212111b62cb021243
:101e2000111b72cb0212111b86cb0212111b94cb19
:101e30000212111ba0cb0212111b56f70212111b2a
:101e400083f70212111bb4ee0112111b5bef01129a
:101e5000111b56fb0112111b25fd0112111bbffda9
:101e60000112111b27fe0112111b4bfe0112111b47
:101e70009afe0112111beffe0112111b96ff0112b7
:101e8000111bafff0112111b77760012111b947604
:101e90000012111baf770012111b10780012111bda
:101ea000bb780012111b3a7a0012111bc27a001281
:101eb000111b097b0012111b727b0012111bd07bbe
:101ec0000012111b257c0012111ba07c0012111b9b
:101ed000317d0012111bba7d0012111bfcbe0212d3
:101ee000111b59c10212111b91c10212111badc16c
:101ef0000212111bf4c10212111b0ec20212111b9d
:101f00003ac20212111b59c20212111b81c20212e3
:101f1000111bc8c20212111be5c20212111badc374
:101f20000212111b00c40212111b1bc40212111b4e
:101f30000ef40212111b75f40212111bd5f40212d9
:101f4000111bd7f40212111bedf40212111b37f50d
:101f50000212111b75fb0212111b93fb0212111bc3
:101f6000a6d10212111b8bd20212111b74d30212c2
:101f7000111b7cd30212111b84d30212111bddd35f
:101f80000212111b80d40212111b7fd50212111be9
:101f9000b2d50212111b87d60212111be5d602120e
:101fa000111b86100012111b79fd0212111b44fe39
:101fb0000212111bb9ff01e066701008a3e0667001
:101fc0000a08a3e066700408a3e06622c3e7960847
:101fd00009e7960809e7960809e796a2d265d03383
:101fe00022c3e09608a3e09608a3e09608a3e09633
:101ff000a2d265d03322c021c3e096f52108a3e028
:1020000096422108a3e096422108a3e0964221a22d
:10201000d265d033e5217001d3d02122c3e79608e1
:1020200009e7960809e7960809e79622c3e09608ab
:10203000a3e09608a3e09608a3e09622c021c3e09f
:1020400096f52108a3e096422108a3e096422108d4
:10205000a3e09645217001d3d02122bb0102e722e3
:10206000c0925392fec082c08389828a83bb0003e0
:10207000e08002e493d083d082d09222bb0015c0ce
:10208000925392fec082c0838a838982f0d083d02b
:1020900082d09222bb0101f722080808eac0e0ebd7
:1020a000c0e086f0e7a4fa180986f0e7a42afa1837
:1020b0000986f0e7a42afa180986f0e7a42afa1993
:1020c00086f0e7a4fbe5f02afa190886f0e7a42bce
:1020d000fbe5f03afa190886f0e7a42bfbe5f03aa5
:1020e000fa18180986f0e7a4c5f02bfbe43afa19b0
:1020f00008e7c5f0c6a426f6e5f03bfbe43afa187b
:1021000086f0e7a4f6e5f00826f6e43b08f6e43aa4
:1021100008f6d0e0fbd0e0fa22e4cfc0e0e4cec085
:10212000e0e4cdc0e0e4ccc0e075f020c3e633f6d7
:1021300008e633f608e633f608e633f6181818ec26
:1021400033fced33fdee33feef33ffc3ec9709edc7
:102150009709ee9709ef97191919400fffec97fcb3
:1021600009ed97fd09ee97fe191906d5f0beecf7bb
:1021700009edf709eef709eff7191919d0e0fcd0ce
:10218000e0fdd0e0fed0e0ff221221f11818181275
:1021900021191221e0191919221221e0191919081f
:1021a0000808e618181820e7e01221191221f11882
:1021b000181822090909e719191920e7dc08080885
:1021c000e618181820e7030221191221f11818182f
:1021d0001221191221f11818181221e019191922c7
:1021e000e4c397f709e497f709e497f709e497f749
:1021f00022e4c396f608e496f608e496f608e49618
:10220000f6226017080808c6a2e713c618c613c648
:1022100018c613c618c613c6d5e0e922601608080a
:1022200008c6c313c618c613c618c613c618c613e5
:10223000c6d5e0ea227009080808226016181818a6
:10224000c6c333c608c633c608c633c608c633c6b7
:10225000d5e0ea22e627f60809e637f60809e63768
:10226000f60809e637f622e026f608a3e036f60877
:10227000a3e036f608a3e036f622e026f008a3e055
:1022800036f008a3e036f008a3e036f022c3e69764
:10229000f60809e697f60809e697f60809e697f6bc
:1022a00022c3e0c696f608a3e0c696f608a3e0c6e9
:1022b00096f608a3e0c696f622e056f608a3e05686
:1022c000f608a3e056f608a3e056f622e647f6081d
:1022d00009e647f60809e647f60809e647f622e068
:1022e00046f608a3e046f608a3e046f608a3e04653
:1022f000f622e046f008a3e046f008a3e046f00826
:10230000a3e046f022e066f608a3e066f608a3e044
:1023100066f608a3e066f622e0f608a3e0f608a356
:10232000e0f608a3e0f622e493f608740193f608b9
:10233000740293f608740393f622e6f008a3e6f01d
:1023400008a3e6f008a3e6f022e0faa3e0fba3e08e
:10235000fca3e0fd22eaf0a3ebf0a3ecf0a3edf088
:1023600022cac0e0e6f0a308dafad0e0fa22cac036
:10237000e0e0a30592f0a30592daf6d0e0ca22ca03
:10238000c0e0e493a30592f0a30592daf5d0e0ca89
:10239000225392fefae9fb7921e7f0a309dafae881
:1023a000f0a3ebf9f0a3ecf0a3edf0a3eef0a3efb4
:1023b000f0a3e520f0a3e5f0f0a3e592f0a3e58417
:1023c000f0a3e585f0a3e581f0a3e531f0a3e532c4
:1023d000f0a3e533f0a3d0e0fad0e0f0a3caf0ea2e
:1023e000c0e0e0c0e07a007b00225392fecac0e069
:1023f000ebc0e07921e0f7a309dafae0f8a3e0f90d
:10240000a3e0fca3e0fda3e0fea3e0ffa3e0f52032
:10241000a3e0f5f0a3e0c0e0a3e0f584a3e0f58538
:10242000a3d0e0f592d0e0fbd0e0fae0f581a3e0a4
:10243000f531a3e0f532a3e0f533a3d0e0d0e0e03e
:10244000c0e0a3e0c0e0ea4b70027a0122b90010bc
:10245000bb0008e88af084f8aaf022e4fbc8fa225c
:10246000eb70227b10c833c8c933c9335007c39af5
:10247000c3dbf280069a50012adbeac833f4c8c9ec
:1024800033f4c9fa2275f008e4c833c8c933c93334
:10249000c99ac99b5004c92ac93bd5f0ecfbc83383
:1024a000f4c8e4c9fa22600d08c6a2e713c618c62c
:1024b00013c6d5e0f322600c08c6c313c618c613b2
:1024c000c6d5e0f422700422600d18c6c333c608d6
:1024d000c633c6d5e0f41822253210af08f53240d5
:1024e0000215338008f53240021533d2af22c0d036
:1024f000253210af08f532500205338008f532500e
:10250000020533d2afd0d0222532f58210af08f5c4
:1025100032400215338008f53240021533d2af85c0
:10252000338322c5822532c582c583353310af0778
:10253000f5338582328007f533858232d2afc58389
:10254000222532f582e43533f583222532f584e401
:102550003533f58522e4735392fe2532c582c0e0ff
:10256000e53334ffc583c0e0e532c3958224f8101b
:10257000af08858333858232800885833385823234
:10258000d2afcef0a3e520f0a37821e608f0a3ded9
:10259000faeff0a3e58124faf8e608f0a3e608f0e4
:1025a000a3e608f0a30808e608f0a3e608f0a315e0
:1025b000811581d0e0fed0e0f8158115811581e804
:1025c000c0e0eec0e0225392fe2532c582c0e0e5b5
:1025d0003334ffc583c0e0e532c3958224f910afe0
:1025e000088583338582328008858333858232d2a1
:1025f000afcef0a3e520f0a37821e608f0a3defa41
:10260000eff0a3e58124fbf8e608f0a3e608f0a3c9
:102610000808e608f0a3e608f0a315811581d0e0cc
:10262000fed0e0f815811581e8c0e0eec0e022534d
:1026300092fe853383853282e0a3fee0a3f5207805
:1026400021e0a3f608dffae0a3ffe0a3c0e0e0a3e7
:10265000c0e0e0a3c0e0e0a3c0e0e0a3c0e010afb2
:10266000088582328583338008858232858333d220
:10267000afd083d0825392fe0211185392fe85335d
:1026800083853282e0a3fee0a3f5207821e0a3f663
:1026900008dffae0a3ffe0a3c0e0e0a3c0e0e0a30e
:1026a000c0e0e0a3c0e010af0885823285833380ac
:1026b00008858232858333d2afd083d0825392fe95
:1026c00022c0925392fec0d02532c582c0e0e533cd
:1026d00034ffc583c0e0e532c3958224f210af0811
:1026e0008583338582328008858333858232d2aff9
:1026f000c8f0a3e9f0a3eaf0a3ebf0a37921e7097e
:10270000f0a3d8faecf0a3edf0a3eef0a3eff0a362
:10271000d0e0f0a3d0e0f0a3d0e0f0a3e520f0a358
:10272000e5f0f0a3d0e0f0225392fe8533838532aa
:1027300082e0c0e0a3e0f9a3e0faa3e0fba37821e4
:10274000e0f608a3dffae0fca3e0fda3e0fea3e0cf
:10275000ffa3e0c0e0a3e0c0e0a3e0f5d0a3e0f574
:1027600020a3e0a3f5f0e0a3c0e010af0885833319
:102770008582328008858333858232d2afd0e0d023
:1027800082d083f592d0e0f8d0e032e584f0a3e582
:1027900085f022e0a3f584e0f585227404800674b8
:1027a0000280027401c0e0f404122508d0e0122374
:1027b00061227404800a740380067402800274012a
:1027c000c0e0f404122508d0e012236e22d083d09a
:1027d00082e9c0e0e493a3c386f0c5f095f0f90860
:1027e000e493a386f0c5f095f0700be493a3c3992e
:1027f0004005e9048002a3e475f002a42582f58275
:10280000e5f03583f583d0e0f9e493a3c0e0e493e9
:10281000c0e022ffc0e0c0d075d008c092c082c026
:1028200083c0f0759800e5a8f8c2af5392fe9004fb
:10283000d5e0d2e1f0753400e8a2e7e433fee8a287
:10284000e792af121351d0f0d083d082d092d0d083
:10285000d0e032c082c0835392fe906059e0f8907d
:1028600004a5e028f0906058e0f89004a6e028f075
:1028700090605a12288c90605e12288c90605ce008
:10288000f89004a8e028f0d083d08222e0f89004e9
:10289000a7e028f022c082c0835392fe9004a5e4f2
:1028a000f0a3f0a3f0a380de74f71225c67900121e
:1028b00019db9003f11230e1eac398f8eb99f9e8db
:1028c0002404fee93400ff9003fee0fca3e0fdc316
:1028d000ee9cef9d402e9003fce0fca3e0fd9004f5
:1028e00000e02af8a3e03bf9e8c39cf8e99df990e1
:1028f00003f11230d8a3ecf0a3edf09003feecf05e
:10290000a3ed80239003f1122dae9003fe122ed57d
:102910009003fe1230e19003f31230d89003fae0f6
:1029200070047402800114f07aef7b031238e00225
:10293000393374f71225c6e9600924fe601d14605e
:102940001a80329003f8e0a2e350099003fbe060a4
:1029500024148020c2e2f0d2e380199003f8e0a2b0
:10296000e2500c9003fbe06408600ae0048005c2ba
:10297000e3f0d2e2f09003f9e070089003f774ffff
:10298000f0804890600a122da6703d90618fe0c0e3
:10299000e09003fbe0f87408c398f8d0e0b80002b8
:1029a0008004c313d8fcf52174ff65217009906081
:1029b0000ae4f0a3048010e5212401f8e43400f9ce
:1029c00090600ae8f0a3e9f01228a802393374f7fe
:1029d0001225c6e924fc600624fe6029800d9004bf
:1029e000bee06401705f121735805a900418e064ed
:1029f000017012900412e4f07b091231aafa7900f6
:102a0000121a298040900412e0700890041074ff9c
:102a1000f0803279001219db8a218b22a821a922a9
:102a2000900414e028faa3e039fb90618fe0541f72
:102a3000f8ea28f8eb3400f990040a1230d87a0842
:102a40007b041238e002393374f71225c674fe1283
:102a5000250812278b9004621230e1e82412fae96b
:102a60003400fb90605ce060088a828b83e0d2e1f6
:102a7000f0e82430fce93400fde82432f584e93440
:102a800000f58590605ae0700690605ee060368ade
:102a9000828b83e0a2e14019d2e1f0e82422f582a2
:102aa000e9122d8b122d9e1224c58c828d83123833
:102ab000d8e40592f0a3f079008532828533835300
:102ac00092fe02392be8241ef582e9122d92fea314
:102ad000e0ff858482858583e02ef0a3e03ff08cc3
:102ae000828d830592e0fca3e0fdc30592e09ca3e8
:102af000e09d50c388828983a3a3a3a3a3a3a3a318
:102b0000a38582848583858a828b83e0a2e1500439
:102b100074088002743e0592f07b028882898305e6
:102b200092a3a3a3a3a3a3a3a3e0fa7900121a2953
:102b30007901808574f51225c674fe1225081227c6
:102b40008b122d96240a122d7afc7003022d62ee50
:102b5000242e1235a21230e18e828f83a3a3a3a369
:102b6000a3a3a3a38582238583248e828f83a3a31b
:102b7000a3a3a3a3a3a3a3aa82ab83ee2434122d01
:102b80008f687003a3e069701a74026c7003022ce2
:102b9000f874016c607774096c60258a828b837489
:102ba000228055ec146066147003022cf824fa603d
:102bb0001c14600c146042147003022d3e022d623e
:102bc000906008e0a2e65003022d62802cee2439ca
:102bd000122d88801388828983a3a3a3e0640370e5
:102be00003022d6288828983122da670e88a828b67
:102bf00083e0641370037416f07b028523828524be
:102c000083e0fa7900121a297901022d64ee245525
:102c10001233a6ee244cfcef3400fdea24fff5212c
:102c2000eb34fff522e521687003e52269706dee53
:102c3000244d122e348e828f83122dac8c828d8384
:102c4000e0c333f8e433f9e82403f8e93400123040
:102c5000cf900493e0a2e050098e828f83a3a31249
:102c600030d49004ade4f0a3f0a3f0a37402f0908c
:102c70000493e0a2e04003022d62906062e4f08cd5
:102c8000828d83e0f875f0e2a4c8aaf075f004a480
:102c90002af9e81230c41230d8022d62ea687002b4
:102ca000eb696003022d62752109752200782112fb
:102cb000279fee241bfaef3400fb121fab740212a5
:102cc00024ee900493e0a2e05007eefaeffb121618
:102cd00081e40592f0ee24221235a2122d9e1224d8
:102ce000c5ee2430122d881238d8ee2432122d88e9
:102cf000e4f0a3f07b08805de8240108e93400f9e2
:102d0000ee245c122d8f687003a3e0697054752166
:102d100005752200782112279fee2457fcef34001e
:102d2000fdee2424faef3400fb121fab74021224d0
:102d3000eeeefaeffb12172fe40592f08024eefa84
:102d4000effb121357e40592f00592900493e0a272
:102d5000e0500f7b07852382852483e0fa790012f7
:102d60001a2979008532828533835392fe12279384
:102d700074021224ee7f0402267bf584ef3400f502
:102d8000850592e022ee2414f582ef12339822f5a5
:102d900082ef1233a0229004621236edee22122f3f
:102da0000174037821221230e5e84922a3a3e02828
:102db000f0a3e039f02274f81225c674fe1225083b
:102dc00012278b900462e0f584a3e0f585122b3482
:102dd000e9704e122a48e97048e584242ef582e510
:102de00085122d922401f0a3e03400f0906008e0f9
:102df000c0e0e5842436f582e585122d8bd0e0f025
:102e0000e584241ef582e585122e370592a3a3e002
:102e100028f0a3e039f005929004621233a9123829
:102e2000e085328285338312279374021224ee7f69
:102e30000102267bf582ef123398122e3e22e0f833
:102e4000a3e0f9e8c333f8e933f92274f71225c691
:102e500074fe12250812278b8a828b83a3a3ac826f
:102e6000ad839004b2ea241ef584eb122d7df8a305
:102e7000e0f9e8c333f8e933f9900495e0f521a3cc
:102e8000e0f522122eeb0592e028f8a3e039f98c48
:102e9000828d831230d89004ad122ede8c828d8309
:102ea000122ed59004af122ede7a207b4e12244dc6
:102eb000882189228c828d83e09521f0a3e09522e0
:102ec000f09004b4122edee8c333f8e933f9e812c7
:102ed00030bc023924c3e098f0a3e099f02212300c
:102ee000e5900495122f01122eeb22e88521f0a423
:102ef000c8aaf08522f0a42afa8521f0e9a42af9cb
:102f000022e0f521a3e0f5222274f71225c674fe13
:102f100012250812278b122d962412122d7aa2e365
:102f20005008c2e3f005920230b08e828f83059282
:102f3000a3a3858221858322906062e060107910ce
:102f40001219db852182852283eaf0a3ebf0122b94
:102f500034e960030230b9122a48e960030230b94b
:102f6000906008e0c0e0ee2436122d88d0e0f090aa
:102f700061d5e0f89061d7e06805926005e0d2e2a3
:102f80008003e0c2e2f00592906062e09004af60de
:102f900017e024c0faa3e03437fb123b209004b4be
:102fa0001236f31230bc80151233a9123b0a90047a
:102fb000b4122e3a906064e028f0a3e039f0852145
:102fc00082852283e024fff0a3e034fff0ee242b7f
:102fd000122d8f9004b1f0ee2420122d88122da610
:102fe000604b8e828f83a3a3a3a3a3a3a3a3a3a3b6
:102ff000e0703aee24321233a6ea4b7030ee2439f8
:103000001233a6ea4b7026e8240108e93400f9904f
:1030100004951230d88521828522831230e19004f4
:10302000b21230d8eefaeffb122e4b8027900495a7
:103030007401f0a3e4f0ee241e122e348521828563
:103040002283122dae9004ad1230e18521828522bb
:1030500083122ed58e848f850592a3a3a3a3a3a349
:1030600005929060641230e17a717b0212244de87f
:103070002405f8e93400f98584828585831230d8e7
:103080008e828f83a3a3a3a31233a985848285850f
:1030900083e0f8c3ea98eb99a2d265d0335005eaf1
:1030a000f0a3ebf01230deee242e122d88122dae9e
:1030b0009004621233a91238e00239251230c4e8b4
:1030c000f0a3e92224eaf8e93402f990606422f9d5
:1030d0008e828f83a3a3a3a3e8f0a3e9f022900438
:1030e000951230e522e0f8a3e0f92274f71225c624
:1030f00074fe12250812278b803ac2e5f012319730
:10310000e0f808089004bce0281231a9c0e01231b0
:1031100097d0e0f09004bce004f0a3e004f0a3e05a
:1031200004f09004c0e0700c7401f07b007a007928
:1031300000121a2990605ae0f521906002e0a2e0a6
:1031400050047800800590605de0f89004bde0fade
:10315000e52128f8e43400f9e86a7001e960359067
:1031600004bce004547ff52174802521f58274604d
:103170001235a5900462e0f8a3e0c82408f584e8bd
:103180003400f585e0a2e70592e040030230fad270
:10319000e50230fc0239259004bce0547ff87480cd
:1031a00028f582746012339822f0900462e0f8a34c
:1031b000e0c82408f582e81233a02274f51225c66f
:1031c00074fe12250812278b89210592900462e073
:1031d000f582a3e0f583858284858385a3a3a3a3d9
:1031e000a3a3a3a3e0a2e740479004bfe0f8906048
:1031f00054e0c398f5229004bfe02522f0ae82afe0
:10320000838012ee2439faef3400fb121657ea4b92
:10321000600312183d85222374ff2523f5220470d4
:10322000e2e521a2e640097900eefaeffb1217adc4
:10323000022d64c0e074f11226c18535c675a70061
:1032400075a10079501219f97f01022728c0d075a5
:10325000d01875bf00d0d032c0e0c0d075d018c033
:1032600092c082c083c0f08535c6e591fe759b0093
:10327000f4f5915392fe906002e0a2e050047800d1
:10328000800278087900e844015e60031230ebeeba
:10329000a2e55004f91231bbeea2e75029e5a8f8e7
:1032a000c2af9004d5e0d2e0f0753400e8a2e7e4c4
:1032b00033f9e8a2e792afe594a2e24009759403de
:1032c000e594a2e250faeea2e6400302336c90606d
:1032d00061e0f99004bde4f09004bff09004621244
:1032e00033a98a828b83a3a3a3a3a3a3a3a3e024cc
:1032f00004601014600814700f12293280661229bd
:10330000ce806112167b805c900492e060051460b0
:10331000148023906060e06480601be0c0e01233a2
:1033200080d0e08010906058e0f890605ce028f871
:10333000123380e028f0906060e064806016e0c0a6
:10334000e0900462e0f8a3e0c82413f582e8122daf
:103350008bd0e0f0900493e0a2e05005122f09809a
:1033600003122db61228531216698004a2e75003e7
:10337000123938d0f0d083d082d092d0d0d0e03281
:10338000ea242cf582eb1233a0fa746d2af58274cc
:103390000412339822f582ef3400f58322f582ef90
:1033a0003400f583e022123395e0faa3e0fb2274a7
:1033b000f71225c674fe12250812278b900462e0ce
:1033c000fca3e0fd1230deec2429f582ed122d8bfa
:1033d000ec242bfaed3400fb8a848b857401687031
:1033e00001e97012e0f80592e028fac39425402a1a
:1033f00074db2afa8024e0f521e88521f0a4f8aafc
:10340000f08521f0e9a42af90592e0fae82af8e922
:103410003400f97a257b0012244deaf074075af83b
:103420007401b800028004c333d8fcfbea13131301
:10343000541ff8ec28f8ed3400f9e82424f582e96b
:103440001235a5e05b702a8005e8cac39afaec241d
:10345000e5f582ed122d92f8eac39850ec8a21ec42
:103460002521f8ed3400f9e824c0f582e9122d9207
:10347000faec242cf582ed122d8bea02392474f635
:103480001225c674fe12250812278b900419e090ad
:1034900060026004740e8002740ff0900413e090d8
:1034a0006001f09009a912234990619512235512e9
:1034b00017b9900418e0f52174016521900411708a
:1034c00040e05402f97a1a7b0412169f900411e02e
:1034d000a2e050097a9f7b0475214080077a997b8e
:1034e00004752100a2e150047e8080027e007523d5
:1034f0000678231227a37c1a7d04e5214e4401801f
:1035000066e0a2e050087a9f7b04784080067a99b2
:103510007b047800059290043f1227be7c207d0436
:1035200074ad2521f58274091235a5e048f912160b
:10353000a574011224ee900418e0f8600574026886
:10354000702e900411e0a2e050087a9f7b0478402e
:1035500080067a997b047800059290045f1227be5a
:103560007c407d04e84404f91216a574011224ee8f
:10357000900411e0a2e0e433f912169975910090dd
:103580000419e0906182600474c8800274c0f08500
:10359000328285338312279374021224ee7f030252
:1035a000267bf582ef123398059222c082c08353a6
:1035b00092fe906002740ff09003fae004f064034e
:1035c0007002e4f0e02425906000f09009a9122335
:1035d000499061951223559003f8e05420f9121692
:1035e000991217b99003f8e0a2e15004d2f08002da
:1035f000c2f0a2f0e43390600cf09003f8e0a2e196
:10360000503575d90da2e55004784080027800e865
:103610004403f5d9e0a2e550067a9f7b0480047a42
:10362000997b04790612166f740675d9001470fa26
:10363000e5e170fc75e19575910090618274c102bd
:10364000288674f81225c674fe12250812278b12dc
:1036500036e01217b9122d85122349906195122375
:10366000551237261233af1236f8f584ef3400f5d1
:10367000858584828585831237111217adee241259
:10368000122d8fa2e250180592e0f8a3e0f583888e
:10369000820592a3a3e02402f89061d5e028f0020d
:1036a0002e2174f81225c61236e01217b9122d8594
:1036b0001223499061951223551237261233af1207
:1036c00036f8122d881237111217adee241e122d66
:1036d000881236f324fcf8e934ff1230cf022e2f83
:1036e0009004621236ed906002740ff022e0fea3a7
:1036f000e0ff22122e3ee822ee242c12339d906031
:1037000000f07591009004c9e0906182f0ee2439d8
:10371000221230e5ee2437123395e8f0a3e9f07970
:1037200000eefaeffb22ee243612339d906008f093
:10373000ee241812339d906005f0ee241912339d8b
:10374000906006f0ee241a12339d906007f0227408
:10375000f11225c674fe12250812278b75210075fb
:1037600022007c697d04801b888289831236ed8c5f
:10377000828d83eef0a3eff0888289831238d88897
:103780002189228c828d83122d994f70398c828de4
:1037900083eaf0a3ebf08a828b83e4f0a3f0aa2102
:1037a000ab2285328285338312279374021224ee72
:1037b0007f0802267be5232527f8e5243528f98aaa
:1037c000828b83122daceef8eff988828983a3a354
:1037d0008a848b850592a3a3e0f523a3e0f5240555
:1037e00092e0c39523f523a3e09524f5248a828be8
:1037f00083a3a3a3a3a3a3e0f525a3e0f526c3e534
:10380000239525e5249526a2d265d033403e8a82b1
:103810008b831230d88a828b83a3a3a3a38582844f
:103820008583851230e1c3e52398e52499a2d2650a
:10383000d033500d858482858583e523f0a3e5246c
:10384000f08c828d83eaf0a3eb02379d8882898316
:10385000a3a3a3a3a3a3e0f527a3e0f528c3e495be
:1038600027f525e49528f526c3e5259523e5269536
:1038700024a2d265d03350288a828b83a3a3a3a32a
:10388000a3a3a3a3e0a2e750030237b588828983ec
:10389000a3a3a3a3a3a3a3a3e0a2e75003023768b3
:1038a00088828983a3a3a3a3858284858385c3e4b7
:1038b0009523fce49524fd1236edc3ec9eed9fa20a
:1038c000d265d033500b858482858583ecf0a3eddf
:1038d000f0e8fce9fd023783e521f0a3e522f022c0
:1038e00074f71225c674fe12250812278bea4b6066
:1038f00031a2afe433fec2af12374f8a828b83808e
:1039000016aa82ab838582848583850592e0f58241
:10391000a3e0f58312374fe582458370e4eea2e021
:1039200092af8001f085328285338312279374022f
:103930001224ee7f0202267b74f51225c67900124e
:1039400019db8a238b2479771219f99061b1e4f09d
:10395000e070f87401f0e0640170f89004691230ce
:10396000e19004621230d8e8497012123a78e59476
:10397000a2e24003023a72759400023a7288828988
:10398000831233a9900469eaf0a3ebf0888289835b
:10399000a3a3122f0188828983a3a3a3a3e02521d7
:1039a000f8a3e03522f9e824fdfee934ffff90603a
:1039b0006074801231a92404601214600514600739
:1039c000804712347e80521235ab804de521c3957d
:1039d00023e5229524c39400a2d265d0335025e577
:1039e000232401f521e5243400f522c3e5219ee5d9
:1039f000229f400ae5212401fee5223400ff9003c6
:103a0000f11238d81217bf8010900493e0a2e05052
:103a10000512364280031236a2aa21ab2279301257
:103a200019edeefaeffb79401219ed79541219f9fc
:103a3000e521c39523f8e5229524f9c3e89401e92b
:103a40009400a2d265d033500c1217d1e5e170fc7e
:103a500075e121801d900369e0a2e04012aa21ab2c
:103a6000221219e79004a9122355123a7880031202
:103a700017d11218af022d75e5a8f8c2af9004d582
:103a8000e0c2e0f0753400e8a2e7a2e792af2200be
:103a9000853487c2af22c0e0c0d075d018c092c0b4
:103aa00082c083c0f074fc1224d85392fe9004d6d6
:103ab000e0601c121693900369e054117008e5c68b
:103ac00054384487f5c69004d6e4f0c2c78026c2b5
:103ad000c7853282853383aa82ab831217cbe96410
:103ae0000170129004d67401f085328285338312fe
:103af00023491218a375340074041224eed0f0d0b8
:103b000083d082d092d0d0d0e03275c3007420c36d
:103b10009afa744e9bfbeaf5a2ebf5a35392fe22b0
:103b2000c02175c301e5a2f521e5a375c300f9e540
:103b3000212420f8e9344ef9e8c39af8e99bf9e822
:103b4000f5a2e9f5a3d0215392fe22c082c083746e
:103b5000fc1224d8e5a8f8c2afe5958532828533fa
:103b6000835392fef0e596c0e07401122541d0e047
:103b7000f0e597c0e07402122541d0e0f0e8a2e73a
:103b8000a2e792af7403122541e4f08532828533b7
:103b90008312234974041224eed083d08222c0e021
:103ba000c0d075d018c092c082c083c0f0123b4b09
:103bb0009005fb122355e58955ab9005fff0e58094
:103bc000900602f09005ffe0f4f5899062d0e0f8ed
:103bd000a2e150279005ffe0a2e5501f53abdf9014
:103be00062d0e0a2e0e433900605f09005ffe0c269
:103bf000e5f07b307a007906121a299005ffe06023
:103c0000097b007a007906121a29c2c5d0f0d08348
:103c1000d082d092d0d0d0e032c0e0c0d075d008f1
:103c2000c092c082c083c0f0123b4b9005fb1223b0
:103c300055e58a558d900600f0e590900603f07bdf
:103c4000017a007906121a29900600e0f4f58ac27a
:103c5000eb80b9c0e074f11226c19061a9e4f09044
:103c6000060ae0640f7012e5c7f890036ae0f5c732
:103c700090ff1ce0f4f5ae88c7e5bbf9e5bafae9b8
:103c8000fb90060ae0c333f8e433f9740b28f5829d
:103c9000740639f583eaf0a3ebf090060ae02410ed
:103ca000fb7a007906121a29e5a8f8c2af9004d56c
:103cb000e0c2e2f0753400e8a2e7a2e792af7f012c
:103cc000022728c0e0c0d075d018c092c082c0833f
:103cd000c0f0e5d1f875d100c2c0a2e350097b0362
:103ce0007a007904121a29023c0cc0e0c0d075d0c9
:103cf00008c092c021c022c082c083c0f05392fe8f
:103d00009007e9123e03602b9007a4e0700c740149
:103d1000f07b007a007904121a29ee9007e9f0e5a9
:103d2000c1c0e074eb2521f58274073400f583d01f
:103d3000e0800be5c4a2e650069007a37401f002f0
:103d40003df2c0e0c0d075d008c092c021c022c0f2
:103d500082c083c0f0c2e95392fe9007a6e0fa90b9
:103d600007a5e09a543ff860258a2174a72521f51c
:103d7000827407123e6d9007a6f089c19007e7e0b4
:103d80006870197b027a007904121a29800ee5a85e
:103d9000f8c2af9004d5e0c2e3123e798054c0e08f
:103da000c0d075d008c092c021c022c082c083c0dc
:103db000f05392fe900873123e03602a90082ee0a2
:103dc000700b7401f07b00fa7904121a29ee900846
:103dd00073f0e5f9c0e074752521f58274083400ac
:103de000f583d0e0800be5fba2e6500690082d7429
:103df00001f0d0f0d083d082d022d021d092d0d088
:103e0000d0e032e0f52174012521543ffea3e06e9d
:103e100022c0e0c0d075d008c092c021c022c082ac
:103e2000c083c0f0c2ea5392fe900830e0fa9008d6
:103e30002fe09a543ff860258a2174312521f582bc
:103e40007408123e6d900830f089f9900871e068ae
:103e500070197b027a017904121a29800ee5a8f8fc
:103e6000c2af9004d5e0c2e4123e7980853400f5fb
:103e700083e0f974012a543f22f0753400e8a2e788
:103e8000e433f9e8a2e792af22c0e074f01226c151
:103e9000906206e0f89008cbe048f0906202e054af
:103ea0003ff521752200740478211224c59008cbb7
:103eb000e04521f0a3e04522f0906204e0543ef595
:103ec00021752200740978211224c59008cce045a0
:103ed00022f09008cbe054046007e054fbf0121e7f
:103ee000e59008cce054016013e054fef09008da4d
:103ef000e060097b037a007907121a29121f0f90dc
:103f000008cce05420600de054dff07b027a0079a9
:103f100007121a29758b00c2e87f02022728033f87
:103f20000000030004280d98089007900194011bdd
:103f30000195111b08f00939821f0ea4fecd8221c4
:103f40000622fb381818162118f0ef3818f2ed3851
:103f500028f2eb3868f003392a1fe73f08f00428fd
:103f6000ba3868f0393c08f1053c88f1173ca8f1f3
:103f70000e3ce09f2c1f0128104a291fd63f15d068
:103f8000033827d00938009004289f3f01281541a5
:103f900001980128014a25d01f38041f831f0ea451
:103fa000fecd042205381421202807a0083f06284a
:103fb000681527d0e939202807d0f238832178f115
:103fc0000238042188f1083d0628a14001f00428a8
:103fd0008438042807a005284d1528f1163c68f1ff
:103fe000143d77cf1240599202d80f3912d00739b9
:103ff000699222d00439799242d004380528ef150d
:104000001e3fc09f04286c3f08f1233c88f1203def
:10401000094028f1103d4540f7c759f2083d930388
:10402000131183e1b9f00f3c23e00d3f09d8ea38c2
:10403000f9c30b3f68f1033d59f2f23c09d8f93955
:104040000528bd150528f01501900128214a051ff6
:1040500048f00c3c08f10a3868f1033c98f1063945
:104060000c960528f9150228843f47a00c960528d0
:10407000f315531f0528e31507288ced0528ec15cb
:1040800001280195711b01280ce40528e515511f35
:1040900088f10b3808f1073868f109390128214205
:1040a00001f00b3947d009383521063f28f1033894
:1040b00038f10339351f341f04280ce047d0033989
:1040c00003280ce80528c815571f28f00638561f86
:1040d000811f021f38f0063930215b9005283b15ff
:1040e000fd3f88f1033d0428f7150528811547d0c9
:1040f000133808f10f392c470cf00c38c403b412f4
:104100005c110c3e04f00a38c103802801a0411b59
:10411000063f3021043f07284ced4c1b5b9047d0f5
:10412000173827d00328e8390ea4fecd02220d3916
:10413000002208381021002914e00328dd3c4c1b24
:10414000f13f05289e15ee3f46181221033f052832
:10415000021588f13039052811150128fb4130215d
:1041600000291be00a3d0428f61505280715f6c3ab
:104170005192166a3b906b080428ed150428fe1531
:104180000bf0fb3917d004382d1f0128c43f03283a
:10419000214701f008390328314701f00439a2957d
:1041a0008090033fc29500920328b615201b5490bf
:1041b0000128b33f08f10539052111900128214a52
:1041c00038f103390021023f302110216a0304280d
:1041d000c2156b033141224128f1093d02f0023939
:1041e000f29101f00b39ff28f191083f02f00239fa
:1041f000529201f00339ff28f193f7cb1b060239e5
:1042000007a4b20c073d47d003286e38249003283a
:10421000753f1690b6080428b115a6030428ae15fc
:104220003be0f7ce28f1703c012807a0f090a006f3
:1042300068f1323d149030f0053938f103285e38ca
:10424000073f50f003285a3958f10328573838f1fe
:1042500004380328ab15033f032889150328751577
:10426000012807d0033907a1563f424130f00c39ed
:1042700007a112d0033807d84e3887a0c14041d0db
:104280004a38f7ce483f38f1033822d0443807d8af
:10429000423907a1403f78f1123847d02d3800f05d
:1042a000033860f00639c14011d0073887a0113fac
:1042b00010f0033820f0ab3977cf0b3f00f0033814
:1042c00010f0a539414181d0043903285015093f28
:1042d00003286c1568f10539414141d0023907b80e
:1042e00010f0063903283115012807d0033807d804
:1042f000123907a1103f40f00228fc390328141599
:1043000007d8f838083fa10383403112310511d096
:10431000023907a14bf0063c04281d1504282e1570
:10432000fa3f042818151bf0fd3d38f10338032827
:10433000a115f7cd0328214701f00539032831479e
:1043400001f0033807a2f7ce224082d00a380603d4
:1043500004281415069376062611960404280e15d3
:1043600071034112002871c021070438e7cf41983a
:10437000043f17d0043951980728214817d0053831
:10438000f295202800901d3f07d20438c295009274
:10439000183f07d10438d2950094133f07d404384e
:1043a000e29500980e3f809028f10a3d3190a106d9
:1043b00031f0063903a4b2950228aa1500a1a295ee
:1043c0000228a615201b28f1633d08f10a390128af
:1043d00007d00739072851411128c14a012807a0f1
:1043e00017d20539e3cf8ad0023813a007d2053996
:1043f000b3cf4ad0023843a083d01e393103111203
:10440000310521d00739319907282148002915e0c5
:10441000133f529502287c15454003d10d39429532
:1044200002287615281f21990728214803d204382d
:10443000629502286d1573cf834808f1093977cf4b
:1044400017d0063907d203390ad1023887a0349031
:1044500007d2073807d803383090543f07a8023fe7
:10446000f7c718f15a3927d04c39314011d04939a2
:1044700087d0073917d0453907d203390ad14138d7
:1044800005f04b39414001f0483850903b3f68f10e
:10449000153878f13938149017d03d3907d23d39a5
:1044a00087d003383490393f07d13739119001282c
:1044b000214a409003286e15253f47d01c38249090
:1044c00007d30c3911900128214a87d0083851446c
:1044d000002911e0043a514c023877cf17d01b392c
:1044e00087d003383490193f07d31739c14021d002
:1044f0001438073f17d00f3907d303383090023fe5
:10450000009044900a3f249017d0053907d305390d
:104510003490033fa09f44900221c190511b812100
:10452000342124f0083927d004390c9cfd2bae3ff0
:1045300010904490b7cf34f00e3953210328e19501
:10454000711b541f0f28cc9506282141f1c0811101
:104550001c09143f0190511b0728f19f711b8021fa
:1045600014f00128863854f0fd2b0a380128ad3f9d
:10457000541f032864151028cced03286d157621ef
:104580007821501f0128a29a217001b2218001b226
:1045900021802ce30328601574210128ace408f184
:1045a000073c88f1033d0228971503282115011fb8
:1045b0000128349d03285015201f002168f0093d73
:1045c000069058f003390728364102289315fa3f20
:1045d0000728504078f10439331f321f042150005e
:1045e00000dc01287c3828f1103d8340f7cb3103f3
:1045f0001112310521d0033903d1033900d8103805
:1046000007a41b901a90163f00d80128683998f12a
:1046100007394b700128e2412b0800288e3f1028f3
:1046200007a04b701bf0fc2bed3c4a70224128f197
:10463000303d02f00239f29112e0b20cfc2be23c68
:10464000419031061111ff2be29f320452002211da
:104650001a042a043240002862c018f1033927d016
:104660000d3922f0093907280141b109002921e05b
:10467000093a0aa1073f42f00339face033f62f03c
:10468000f93818f1253977cf0ad1223887a0203f91
:1046900002f00239529212e0b20cfc2bb33c68f1ea
:1046a000123d38f1153887d013390128314201f015
:1046b0000f38402807a00728914231c0c1a0072821
:1046c000914a063f02280190710621121a04ff2b1d
:1046d000f29fb2084be0a60302280c15260302281d
:1046e000091568f1293cfbf0273c629046700228ce
:1046f0000115d2370428609662904670062d012875
:10470000f915c23778f11839d04000d81538dbf0e8
:10471000133c829046700128ed15d237764400d4c0
:104720000338060e023f060d41700128e315417063
:1047300086120128df153290b20c053d4670012823
:10474000d915fb3f08f1063941721128c14a0128e9
:1047500007a0ef28f7cf28f11e3d83403090a00638
:1047600031031112310521d003398295043f30f015
:10477000043972950028cc1553c843d0023823a0c1
:1047800007d4023803a130f0023903a2834892957e
:104790000028be1506900bf005380128ab15591fef
:1047a000fb3f0ea4fecd0122043902286a15fa3f10
:1047b000551f1121031f249008f10f390ad1033925
:1047c00087d02438314011d0213905f021394140ba
:1047d00001f01e3850901b3f48f1073828f103388c
:1047e00058f1063987d0143877cf1490113f78f1fb
:1047f000053911900128214a093f98f1093982951c
:1048000000288a15281f5490033f009044900ea45e
:10481000fecd0322043902283415fa3f13212c1847
:1048200001210321741ff1900000f1370190511b09
:104830000728f19f711b802132210728914231c046
:104840000728914abf28f7cf28f1063c88f1043d9c
:1048500092955e15281f44f0383814f00a3854f049
:10486000fb2b8e3801280ce40128f615fc2b023fa7
:1048700001289015009027d0283902d8083838f13f
:104880002439329001289215e237193f19e089f254
:10489000043c38f11a39599238f103390128861548
:1048a00012409103002951e2120e12d0f038012873
:1048b00086150128b915124001289115319907284c
:1048c00021482c18fe2b553f0128104a0028a91515
:1048d000fb2b2b3ff09f043fd09f023fb09f00284f
:1048e000d0152c1ff23f28f1053c68f1033d1490d0
:1048f000053f2090023f109044904198072821489e
:1049000038f1fe2b0a380028b515fe2b063f217022
:1049100011e0218002000128214107282148217847
:1049200011e021880200f7c7761571033112a10545
:1049300001d4023907a80428649631150238f7c754
:104940000428c4f6fb3c0200fe28f7cf6415514151
:104950007111a10501d80339012807a064911f1521
:104960000338fe28f7cfc4f1fb3c0200f7c753150c
:104970005141022807a00ad40339fd28f7cf51116d
:10498000a10501d4023907a8c4910428659607152a
:104990000238f7c7563124f2fb3c02000028db1531
:1049a0000028ec15412d160c0200f7c73415d03243
:1049b000d332234268f109394141904041d0043853
:1049c00050000306023f03033142022807a00ad425
:1049d00004395100fd28f7cf130644920428659648
:1049e0000028b9150028ca155631ff28e19f4070ec
:1049f000060c023813068ea0810064e044f5f83cf2
:104a00000029f4e2a4f2ed3c03f0023807a8d32f0a
:104a1000d02f02009bf0023c020007a12de0020013
:104a200098f10938102807d0033908f10438319972
:104a30000728214808f10c39012807d00938072830
:104a400051411128c042010c0338072850491190e8
:104a5000082807d005380628b148f728f7cf0428da
:104a600007d005380628a148fb28f7cf3021291f99
:104a70000200311fff28f19f411b301f312102002e
:104a8000022101210321532309380628d14001d1f5
:104a900012384198072821480b3f54230c385021e5
:104aa000f1910000f137741ff1900000f13768f0c8
:104ab000023c2b1f0190511b81210728f19f711b84
:104ac00080210728914231c00728914abf28f7cf9b
:104ad000322134210200082807d007390628b140c6
:104ae00001f00438082807a0020004280d98fe2bc6
:104af000f43f402807d00d390ea4fecd0122043921
:104b00000028bf15fa3f661b112100291be0020097
:104b10000728a64a0ea4fecd012204390028b115ab
:104b2000fa3f01283142b10941e0053a08384bf01b
:104b30000c38ea3d0728a142611be73f0728914254
:104b400071cf0728914af73f0728914281a2072891
:104b5000914ada3f0ea4fecd0222043900289115b5
:104b6000fa3f4618122100291be01bf00639581f96
:104b70000628e0400128004a020017d00a393122f5
:104b8000063817a0419807282148033f0728a64860
:104b90000200124038f1093802d807399103002980
:104ba00041e2120e120d1248020047a07b280c9c15
:104bb00010215215ff2b5e15b7cf020059f20339b1
:104bc0006391083f69f20339e392043f79f20339b4
:104bd0004396020004280d98fa2b143f02d407389c
:104be0009103002901e2117006286148020088f152
:104bf0000a3c012831410728814ab1460328314f38
:104c0000a1460f3f0728894a28f1063d3144032871
:104c1000314f5140053f552851950328314f81119f
:104c20000328214f0200e3f3033cf190033f23e00c
:104c300051920628614a0628434802007b217721c9
:104c400041900000f137702175217a218cee041516
:104c5000521f801f02004c1b001f47d0033827d073
:104c600009390ea4fecd002203390b15f73f1021a0
:104c7000020004280d9838f1fe2b2738fe2b3c3f0c
:104c8000d23202180119210601d41a38121816213d
:104c900062f003392a1f2d3f12f2153822f228380c
:104ca000fe2bef1568f0063c61900128114afe2b9f
:104cb000b8153021280304280d98f92b373f01d16e
:104cc00014381421202807d00d3878f11239042324
:104cd0001038714401f002398144002911e0714c0f
:104ce000083f202807a0053f01d20538152127a03d
:104cf000d22f020011d00638102104280d98fd2b68
:104d0000f33ff2ce5200121bf43f000100000200fc
:104d10000000311b00000001000000005b1b0000d0
:104d2000000200000000731b0003000324000000c9
:104d30004f1b0002000404000000551b000000058a
:104d400000000000a31b0000000600000000091c7a
:104d50000005000726000000bb1b00000008000043
:104d60000000451c00020009820000009d1b000796
:104d7000000a2a0000004b1c0007000b2a0000005c
:104d8000511c0000000c00000000571c0002000d28
:104d900022000000911b0003000e22020000971b5e
:104da0000000010000000000b51b00000101000030
:104db0000000391c0000010200000000a91b0003d4
:104dc000010384000000c71b00020104040000006e
:104dd000c11b0002010504000000af1b0001010619
:104de00002000000611b0005010786000000671b30
:104df00000050108260000006d1b000402002408c5
:104e00000000151c0004020144000000e91a000221
:104e1000020204000000ef1a00030203220800004f
:104e2000dd1a0002020422000000e31a0001030060
:104e300002000000cb1a00010301020000003f1c29
:104e40000009030242440400c51a000103030200e2
:104e50000000491b0001030402000000371b000290
:104e60000305820000003d1b000103060200000054
:104e7000431b0001030702000000bf1a00020308e1
:104e8000820000008f1a0008040042440800d11a72
:104e90000006040142840000f51a00060402428460
:104ea0000000011b0005040342040000fb1a00037c
:104eb000040442000000071b00040405420800002f
:104ec000131b00040406420800002b1b000104070a
:104ed00002000000d71a00030408420000000d1b66
:104ee0000006040942840000191b0002040a220083
:104ef00000001f1b0002040b82000000251b0002a3
:104f00000500220000008b1b0001050102000000cb
:104f10001b1c0001050202000000271c0003050302
:104f200022020000211c00050504620000002d1c67
:104f30000000050500000000031c00010506080034
:104f40000000d31b0002060022000000cd1b00025f
:104f5000060122000000df1b000106020200000023
:104f6000e51b000f06032a444400f71b000006045b
:104f700000000000fd1b0008060544440000eb1b78
:104f80000003060622020000f11b0005060744028a
:104f900000007f1b0005060844020000851b00027c
:104fa000060982000000791b0007060a2a0000009b
:104fb000d91b0003070022020000931c0006070112
:104fc000260200009f1c0003070222020000991c19
:104fd0000002070322000000a51c000207042200b3
:104fe0000000ab1c0003070522020000b11c0003f7
:104ff000070622020000b71c00020707220000007b
:10500000bd1c0006070822222200cf1c000207094f
:1050100082000000d51c0003070a22020000c31c06
:105020000003070b22080000c91c0001070c020046
:1050300000000f1c0005070d22420000db1c0002cf
:10504000070e22000000751c0002070f220000005e
:105050007b1c0001071002000000811c00000711ea
:1050600000000000871c00010712020000008d1cd8
:105070000003080022020000a11a0001080102003a
:105080000000a71a0000080200000000ad1a00008e
:10509000080300000000b31a00000804000000002c
:1050a000b91a00010805080000009b1a0001080653
:1050b00002000000951a0001090002000000e11c36
:1050c0000004090106000000e71c000109020800b5
:1050d0000000ed1c0000090300000000f31c0000ac
:1050e0000000000000005d1c000000010000000046
:1050f0005d1c000600020a0000005d1c00020003a7
:10510000040000005d1c00030004240000005d1c7e
:1051100000050005222202005d1c000100060200bd
:1051200000005d1c00050007860000005d1c000cef
:105130000008444424025d1c000200090400000031
:105140005d1c0002000a040000005d1c0002000b50
:10515000040000005d1c0000000c000000005d1c4d
:105160000003000d840000005d1c0002000e04001e
:1051700000005d1c00000100000000005d1c00003c
:105180000101000000005d1c0000010200000000a1
:105190005d1c00020103040000005d1c000301040b
:1051a000840000005d1c00000105000000005d1c83
:1051b00000020106040000005d1c0002010704005b
:1051c00000005d1c00010108080000005d1c0002d9
:1051d0000200040000005d1c00070201448400007e
:1051e0005d1c00050202440800005d1c0000020373
:1051f000000000005d1c00000204000000005d1cb7
:1052000000030300420000005d1c000203013200a5
:1052100000005d1c00030302420000005d1c00034f
:105220000303420000005d1c000203048200000032
:105230005d1c00030305420000005d1c0003030623
:10524000420000005d1c00010307020000005d1c1d
:1052500000010308020000005d1c0003040042007e
:1052600000005d1c00030401420000005d1c0003ff
:105270000402420000005d1c000304034200000021
:105280005d1c00030404420000005d1c00030405d3
:10529000420000005d1c00030406420000005d1c8b
:1052a00000020407040000005d1c00030408420023
:1052b00000005d1c00030409420000005d1c0003a7
:1052c000040a420000005d1c0003040b42000000c1
:1052d0005d1c00030500420000005d1c000005018c
:1052e000000000005d1c00020502040000005d1cbf
:1052f00000000503000000005d1c0002050404001e
:1053000000005d1c00010505020000005d1c00009e
:105310000506000000005d1c000006000000000003
:105320005d1c00020601040000005d1c0002060274
:10533000040000005d1c00030603240000005d1c47
:1053400000020604040000005d1c000306052400a2
:1053500000005d1c00020606040000005d1c000247
:105360000607040000005d1c00020608040000009f
:105370005d1c00020609040000005d1c0002060a14
:10538000040000005d1c00020700040000005d1c1a
:1053900000020701040000005d1c00020702040077
:1053a00000005d1c00020703040000005d1c0002f9
:1053b0000704040000005d1c000207050400000053
:1053c0005d1c00020706040000005d1c00040707c6
:1053d000240200005d1c00020708040000005d1ca0
:1053e00000040709240800005d1c0003070a84006c
:1053f00000005d1c0001070b020000005d1c0000a6
:10540000070c000000005d1c0002070d04000000f6
:105410005d1c0002070e040000005d1c0002070f67
:10542000040000005d1c00000710000000005d1c6f
:1054300000030711240000005d1c00020712040095
:1054400000005d1c00000800000000005d1c000062
:105450000801000000005d1c0002080204000000ba
:105460005d1c00000803000000005d1c0001080432
:10547000080000005d1c00010805080000005d1c1c
:1054800000000806000000005d1c0000090000008c
:1054900000005d1c00020901040000005d1c000208
:1054a0000902040000005d1c000209030400000062
:1054b0005d1c800c0000444424025d1c800100013e
:1054c000080000005d1c80020002220000005d1c3c
:1054d00080020003220000005d1c800400044400e0
:1054e00000005d1c80000005000000005d1c8002c3
:1054f0000006040000005d1c800301008400000021
:105500005d1c80070200224408005d1c8006020129
:10551000422400005d1c80030202240000005d1c88
:1055200080100300222a44245d1c800603012244cb
:1055300000005d1c80020302820000005d1c8002ee
:105540000303820000005d1c80030304420000008e
:105550005d1c80030400420000005d1c8005040106
:10556000420400005d1c80060402428400005d1cb1
:1055700080070403422408005d1c800404044208e0
:1055800000005d1c80050405428200005d1c800255
:105590000406820000005d1c800305002208000054
:1055a0005d1c80030501420000005d1c80050502b2
:1055b000620000005d1c80010503020000005d1c0c
:1055c00080040504222200005d1c800b0600232ab3
:1055d00082005d1c80020601220000005d1c800725
:1055e0000700262200005d1c800107010200000068
:1055f0005d1c80030702520000005d1c800507034c
:10560000260000005d1c80040900060000005d1cef
:1056100000000000000000000000370a0f550a09d2
:10562000670a05710a09830a0c9b0a07a90a0bbfbe
:105630000a13e50a07f30a0474f012255774fc12e2
:1056400024d8e5c7fe126403501190f7e9122349ec
:1056500085328285338312235580347904853282e2
:10566000853383aa82ab83121a4d853282853383b8
:105670007825122318900a17782112231878257993
:1056800021122119853282853383782112233a8ea3
:10569000c785328285338312234974040271aa7448
:1056a000f71225579004e0e0f5217900800774ff98
:1056b0002521522109e52170f5026f8274f6122529
:1056c00057e99004e27006e054fbf08019e04404ce
:1056d0001273bf12279feafcebfd7ae47b04121fd2
:1056e000ab74021224ee0273b174f712255774fee4
:1056f00012250812278be975f075a4f8a9f0059218
:10570000900365e028f582a3e039f583aa82ab8394
:10571000ea2469f8eb3400f98882898385828485dc
:105720008385e0f8a3e0f9e8497024ea2467fcebfc
:105730003400fd8c848d85e4f0a3f074690592f04b
:10574000a37419f0ea246ffaeb3400fb12165d0221
:105750006f7174f61225577900752101752200e9e1
:1057600078211224c59004e0e05521600709e9c3bf
:10577000940840e5740869700279ff0273b1c02192
:10578000e9faa2e050057521038003752100a2e12a
:105790005004780c80027800e84221eaa2e250042a
:1057a000781080027800e84521f9d0215392fe025a
:1057b000111874f712255774fe12250812278be969
:1057c000fe752100740b12254112624c8028852140
:1057d00082a882e58428f582e58512696dffec28b0
:1057e000f582ed12696d6fc0e0ea28f582eb126771
:1057f0001cd0e0f00521e521c39e40d28003122495
:10580000ee853282853383026f7a74f712255775dd
:105810002100801a852182ae82ec2ef582ed12697c
:105820006df8ea2ef582eb12696d68f00521e5212d
:10583000c39940e0026f8274f612255774fe122558
:105840000812278b8a848b857521087522007821a0
:1058500012279f7af47b04121fab74021224ee7895
:105860002112279f7c007d007afc7b04121fb174fb
:10587000021224ee7521f4752204782112279f7cf0
:10588000f47d04aa84ab8512133f74021224ee90b7
:1058900004f4e0faa3e0fb0273a374f41225577436
:1058a000fe12250812278b8a848b85740e122541df
:1058b0001262edf97410122541e0f521a3e0f52202
:1058c0009004f4ecf0a3edf0a3e8f0a3e9f0752365
:1058d0000c752400782312279f7c007d007af87bca
:1058e00004121fb174021224ee782112279f7cf457
:1058f0007d04026f1c74f412255774fe12250812e1
:10590000278b8a848b85740e122541e0f521a3e054
:10591000f5228c238d24782312279f791090036120
:10592000e02402125c8baa21ab221218d974021255
:1059300024ee782112279fac21ad22aa84ab8512d8
:10594000133f74021224ee900497e0a2e050067c0c
:105950009f7d0480047c997d04900493e0a2e05034
:10596000047a0080027a067906e5212afae52234d3
:1059700000fb1218df900493e0a2e050047e068042
:10598000027e007906900363e075f0e6a4faabf0be
:10599000900460e02afaa3e03bfbea240bfceb3422
:1059a00000fde5212efae5223400fb1218df7821f4
:1059b00012279fac21ad22026f1c74f6122557747a
:1059c000fe12250812278beafeebff740c1225410c
:1059d00012624c752103752200782112279f7af4f8
:1059e0007b04121fab74021224ee75210d78211274
:1059f000279f7c007d007af77b04121fb17402128e
:105a000024ee7521f4752204782112279f7cf47d01
:105a100004eefaeffb12133f74021224ee75210319
:105a2000752200782112279f7cf47d04aa84ab851f
:105a3000121fab740202767174f612255774fe12af
:105a4000250812278b127329640a7521107522000c
:105a500078216003025af612279f900361e02442e6
:105a6000126242121fab74021224ee7521f47522e9
:105a700004782112279f126ab31218f174021224bb
:105a8000ee752110752200782112279f125f327a5d
:105a9000f47b04121fa574021224ee8b22ea452225
:105aa0006003025b47126e39aa84ab8512198775b1
:105ab0002108752200782112279f125bca121faba2
:105ac00074021224ee125f3c8a218b227821122765
:105ad0009f125c8112133f74021224ee126e5e124a
