:020000040000fa
:100000000200de021003000000000002100b0000de
:10001000000000021013000000000002101b00008e
:10002000000000021023000000000002102b00005e
:10003000000000021033000000000002103b00002e
:10004000000000021043000000000002104b0000fe
:10005000000000021053000000000002105b0000ce
:10006000000000021063000000000002106b00009e
:10007000000000021073000000000002107b00006e
:10008000000000021083000000000002108b00003e
:10009000000000020d0e1200f0b900030200d8e4c7
:1000a00090000278a479018002f0a3d8fcd9fa90dc
:1000b00000a5aa82ab839000f6780979018015e447
:1000c00093a3ac82ad838a828b83f0a3aa82ab8395
:1000d0008c828d83d8e9d9e71202e0120d2d75d0fc
:1000e0000075813f75188075931e5392fe0200962d
:1000f00079015392fe220010000000000200bb01b3
:1001000002e722c0925392fec082c08389828a8312
:10011000bb0003e08002e493d083d082d09222bb64
:100120000015c0925392fec082c0838a838982f0f8
:10013000d083d082d09222bb0101f722cac0e0e670
:10014000f30908dafad0e0fa22cac0e0e0f208a324
:10015000dafad0e0fa22600c08c6c313c618c61338
:10016000c6d5e0f422700422600d18c6c333c60859
:10017000c633c6d5e0f41822e4735392fed083d080
:10018000822518f8c518c39824fbcef208e520f2a2
:1001900008e9c0e07908e709f208defad0e0f9eff3
:1001a000f208d0e0fed0e0f208eef208e473a818fe
:1001b000e2fe08e208f520e9c0e07908e208f70964
:1001c000dffae208ffd0e0f9e208c0e0e208c0e0b0
:1001d00088185392fe22e584f208e585f222e208af
:1001e000f584e2f585227403800474028000c9c09e
:1001f000e0e518c399f518c912013cd0e0f9227462
:10020000038000c8c0e0e518c398f518c81201497a
:10021000d0e0f8227400f5d374022408f5d253928a
:10022000fe22a2afe433f8c2af5392fe906270e0b8
:10023000a2e740f5e9c333906272f0906270e0d2b9
:10024000e0f0e0a2e740fbe8a2e092af2274fa12ed
:10025000017aa2af33f8c2afed900002f0eca3f048
:10026000a37462f0a37473f0a3e4f0e9a3f0a374a1
:1002700012f0a37442f0eb906272f0ea906271f0b7
:100280007400f5d575d40275d601906270e0d2e1a4
:10029000f0e0a2e740fbe8a2e092af7f010201aeee
:1002a0005392fe906276e075c680e59e648070fa97
:1002b0009062707408f02274fa12017af9800c8a44
:1002c000828b83e029f9a3aa82ab83ecfeedffeedb
:1002d00024ff1cef34fffdee4f70e47f010201aefe
:1002e0005392fe900001e090001af0e5c7ff75c739
:1002f000007c007d707a007b901202b7e924a5fe95
:100300008fc77f01e5c7f5088fc77c007d807a0025
:100310007b801202b7e92efe8508c70fefc3940356
:1003200040e2ee7027e59d54186410700890001aa2
:10033000e0a2e040179000017403f005929000a540
:10034000e0f582a3e0f58305921201781202a090f5
:100350000001e4f01202141205ed12061d12067cd3
:1003600080fb74f812017a15181518a8181201d616
:1003700090620ee0fee4f0906211e0ffa2e45019fa
:100380007480f09000227407f012055f6006120579
:100390006a120178900022e4f0efa2e2500b906222
:1003a00011e4f0900022f0805c900022e0f87402ea
:1003b00068703e906216e0ff9000391201ffeff97d
:1003c0007a207b621206290518051805188f0890f7
:1003d000003c1205541205791205626004744080d5
:1003e000027448906211f0e8496003020541020579
:1003f00024740668700612056a120178900022e0e3
:1004000060030204d3efa2e0400302054175083106
:10041000750900750a0078081201e679087a207bd0
:100420006212062905180518051890003ee4f0a38d
:10043000f0900031e054e0600e24e0606a24a06097
:100440004024e06071807ea3e014602624fe601ddd
:1004500024fe600a24fc601f24fe602080671209cd
:10046000ef900022e064047064746080621209e915
:1004700080ef1209e380ea120b2280e5120c5a8009
:10048000e0a3e0600e24fa600f24fe601024fe60fa
:1004900011803212081a80c9120a3580c4120af873
:1004a00080bf120bfc80ba90003e74a4f0a37406c7
:1004b000f01206a480ab90003e746af0a37407f0bb
:1004c00012076a809c9000227404f0809c74409013
:1004d0006211f0900022e0f874016870597f029078
:1004e000003ce0f8a3e0f9c3e89420e99400500749
:1004f000e8f50a7f0a8003750a209000391201ff8f
:10050000a90a7a207b621206490518051805188584
:100510000a08120579120554ef906211f0e50ac33a
:100520009420501d12055f600612056a1201789032
:100530000022e4f0800b740568700612056a12014f
:1005400078ee90620ef0a8181201de051805187feb
:10055000030201aec3e09508f0a3e09400f02290fe
:10056000003ee0f8a3e0f9e84922059290003ee061
:10057000f582a3e0f583059222900039e0f9a3e02b
:10058000faa3e0fbe92508f9ea3400fa900039e91a
:10059000f0a3eaf0a3ebf0a322c008c0097800881a
:1005a0000874232508f58274003400f583e953921a
:1005b000fef008e8c3940540e67800880874282512
:1005c00008f58274003400f583e9f008e8c3940567
:1005d00040e9d009d008225392fe90001b7402f02b
:1005e000a3e4f0900022f0790312059922c008c01c
:1005f0000975082175090078081201ea7c007d0060
:100600007a407b00120d310518051890001b74020a
:10061000f090620f04f0e0a2e750fb80b553f4fec7
:10062000d29043fe015392fe22eec0e012066460b7
:10063000115392fee012011fe9240109ea3400fa85
:10064000d8efd0e0fe5392fe22eec0e012066460c6
:10065000111200fe5392fef0e9240109ea3400fa77
:10066000d8ef80de8a828b83e9f8a918e3fc09e3de
:10067000fd09e3feecf9edfaeefbe822eec0e053f3
:1006800092fe906206e0f8906202e0fe906204e062
:10069000e8a2e250031205d7eea2e0500312036273
:1006a000d0e0fe2274f712017a900032e07003026b
:1006b000074f14600302075f90001a7401f0900066
:1006c00022e0f87038900037e0f8a3e0f9e84970cc
:1006d0000d9000ab7402f0900022e40207649000d9
:1006e000397461f0a37400f0a3e4f0a3e8f0a3e987
:1006f000f09000227402f09000ab048067740268ee
:10070000705d900033e02440f508a3e03400f50963
:10071000e508541f701285080a85090b7405780acc
:10072000120156a90a120222900037e0240354fc59
:10073000f97c617d0074047808120165aa08ab0990
:1007400012024d900022e4f09000ab7405801590e9
:10075000001a7402f0900022e4f075c90880069037
:1007600000227404f07f040201ae5392fe90003226
:10077000e06403701a90003974a7f0a37400f0a32a
:10078000e4f0a37406f0a3e4f09000220480059046
:1007900000227404f0225392fe9000a1e4f0a374ae
:1007a0000ff02274fa12017a15181518a818120100
:1007b000d6eafcebf87a007b00088038e8604d054b
:1007c000929000a1e0fda3e0f5838d82a3e493fd68
:1007d000ec6d6034e96d70099000a1e0faa3e0fbd4
:1007e000189000a1e02efea3e03400ff9000a1eedf
:1007f000f0a3eff09000a1e0f584a3e0f585e40517
:100800009293fe70b7e860047a007b00a81812018a
:10081000de051805187f010201aec008120bee605c
:10082000030208f5a3e0f8a3e060030208f5a3e0e3
:1008300064027002a3e060030208f5900031e02436
:1008400080600914604f14605c0208f5e8600302e0
:1008500008f590002ee06004780180027800900096
:10086000a3e8f0a3e4f090002de0600a9000a3e07c
:100870004402f0a3e4f0900022e0640460149000cd
:100880003974a3f0a37400f0a3e4f0a37402120c73
:1008900051f0d0082290001be0640470589000a32f
:1008a000e4f0a380d0e8547ff50890001be06404d6
:1008b0007043e508c39406503c741b2508f5827408
:1008c000003400f583e854806018a3a3a3a3a3a376
:1008d000a3e0640370047801800278009000a3e82c
:1008e0008090e582240cf582e5833400f583e06492
:1008f0000370e780e19000227404809574f912017e
:100900007a15181518a8181201d6e9fa90003712ae
:100910000bf460030209cd90001be06404600b90af
:100920000035120bf460030209cd900031e0541f32
:1009300060091460231460120209cd900033e06452
:10094000017015ea90002d0209d2900035e0547f25
:10095000f508900033e0600479008079e508c394dd
:1009600006506ae50890620ef0741b2508f5847441
:10097000003400f585900035e054806021ea600481
:10098000741080027440906211f0ea600474038075
:1009900001e40592a3a3a3a3a3a3a3f08026ea6086
:1009a00004742080027480906214f0ea600474037e
:1009b0008001e4c0e0e584240cf582e5853400f58f
:1009c00083d0e0f05392fe90620ee4800590002206
:1009d0007404f07901a8181201de051805187f02c9
:1009e0000201ae79001208fc2279011208fc2253a0
:1009f00092fe900035120bf47018a3120bf47012d3
:100a0000900033e0f8a3e0f9e85480fae9fbea4b00
:100a100060079000227404801ae8906200f0900051
:100a20001b6009e06402700c74038007e0640370cb
:100a3000037402f02274f812017a120796900033c0
:100a4000e0faa3e0f914600814600d1460328038f5
:100a50007b007a0079018034eafb7a007902120780
:100a6000a3120ae3e92402f9ea3400fa89828a83ac
:100a7000e493f8740193f990003ce8f0a3e9801c3a
:100a8000eafb7a00790380047b007a001207a31244
:100a90000ae3a37b801200fea3f0a3e4f0900039e8
:100aa000e0fca3e0fda3e0feec4d4e9000227004bc
:100ab00074048029e064046025900037e0faa3e024
:100ac000fb90003ce0f8a3e0f9c3ea98eb995008ea
:100ad00090003ceaf0a3ebf09000227401f07f0359
:100ae0000201ae900039eaf0a3ebf0a37480f0901d
:100af0000039e0f9a3e0fa22120bee7010a3120bfa
:100b0000f4700aa3e064017002a3e0600790002281
:100b10007404800c900039741cf0a37400120c470c
:100b2000f02274f812017a90001be0640270030254
:100b30000bd5900035120bf46003020bd5a3120bfa
:100b4000f46003020bd5900034e06003020bd51271
:100b50000796900033e07003020bdd7b007a00798a
:100b6000021207a38a088b09ae08af09ee4f606531
:100b7000900033e0f88e828f83a3a3a3a3a3e49312
:100b8000c0e0e8fad0e06a70d290001b7404f0e88c
:100b9000a3f0750a008e828f83a3a3a3a3e493f826
:100ba000e50ac3985045850a08741d2508f5827426
:100bb000003400f583e4f07b007a0079041207a387
:100bc0008a828b83e58245836007a3a3a3e49370a5
:100bd000e6050a80c09000227404f0800e90001c8c
:100be000f090001b7403f0f9120599020ade53928b
:100bf000fe900033e0f8a3e0f9e8492274f812010e
:100c00007a90001be064047019900031e0648170f8
:100c100011120bf1700c900037e064017002a3e038
:100c200060079000227404801a900035e0241df5be
:100c300008a3e03400f509900039e508f0a3e509c0
:100c4000120c47f0020adef0a3e4f0a304120c51e8
:100c500022f0a3e4f0900022042274f912017a1524
:100c6000181518a8181201d690001be06404600340
:100c7000020d01900031e064016003020d0190005b
:100c800037120bf4707b1207967b007a0079021200
:100c900007a38a828b83e5824583600fa3a3a3a366
:100ca000a3e493f890001ce06870de7b007a027980
:100cb000041207a38a828b83e582458360430592f1
:100cc000900033e0f8a3e0f9900035e0faa3e0fbf0
:100cd000858284858385a3a3e493fcea6c7001eb91
:100ce000600f0592a3a3a3e493fce86c7001e97084
:100cf000ba741d2af58274003bf583e85392fe8096
:100d0000059000227404f00209d55392fe2274fa71
:100d100012017a15181518eafeebffa818eef20872
:100d2000eff2aa18ab937901120d0a80ee1200932c
:100d300022ecf9a818e2fc08e2fdec4d6017e9f896
:100d40008a828b83e85392fef0a3ec24ff1ced34df
:100d5000fffd4c70ef5392fe22ffffffffffffffee
:100d6000ffffffffffffffffffffffffffffffff93
:100d7000ffffffffffffffffffffffffffffffff83
:100d8000ffffffffffffffffffffffffffffffff73
:100d9000ffffffffffffffffffffffffffffffff63
:100da000ffffffffffffffffffffffffffffffff53
:100db000ffffffffffffffffffffffffffffffff43
:100dc000ffffffffffffffffffffffffffffffff33
:100dd000ffffffffffffffffffffffffffffffff23
:100de000ffffffffffffffffffffffffffffffff13
:100df000ffffffffffffffffffffffffffffffff03
:100e0000fffffffffffffffffffffffffffffffff2
:100e1000ffffffffffffffffffffffffffffffffe2
:100e2000ffffffffffffffffffffffffffffffffd2
:100e3000ffffffffffffffffffffffffffffffffc2
:100e4000ffffffffffffffffffffffffffffffffb2
:100e5000ffffffffffffffffffffffffffffffffa2
:100e6000ffffffffffffffffffffffffffffffff92
:100e7000ffffffffffffffffffffffffffffffff82
:100e8000ffffffffffffffffffffffffffffffff72
:100e9000ffffffffffffffffffffffffffffffff62
:100ea000ffffffffffffffffffffffffffffffff52
:100eb000ffffffffffffffffffffffffffffffff42
:100ec000ffffffffffffffffffffffffffffffff32
:100ed000ffffffffffffffffffffffffffffffff22
:100ee000ffffffffffffffffffffffffffffffff12
:100ef000ffffffffffffffffffffffffffffffff02
:100f000012010002000000205824feff0000010230
:100f1000030109021b0001010480250904000000ef
:100f2000fe01020409210d03e84000010104030948
:100f300004120342006c00750065006700690067d9
:100f400000610016034c006f007700200045006e22
:100f50000065007200670079000a03310032003337
:100f6000003400080344004600550000ffffffff67
:100f7000ffffffffffffffffffffffffffffffff81
:100f8000ffffffffffffffffffffffffffffffff71
:100f9000ffffffffffffffffffffffffffffffff61
:100fa000ffffffffffffffffffffffffffffffff51
:100fb000ffffffffffffffffffffffffffffffff41
:100fc000ffffffffffffffffffffffffffffffff31
:100fd000ffffffffffffffffffffffffffffffff21
:100fe000ffffffffffffffffffffffffffffffff11
:100ff000ffffffffffffffffffffffffffffffff01
:101000000210f702325fffffffffff0225bcffff68
:10101000ffffff022669ffffffffff02271dffff03
:10102000ffffff022808ffffffffff023ac6ffff96
:10103000ffffffffffffffffffffff0226c1ffffd4
:10104000ffffff022644ffffffffffffffffffff41
:10105000ffffff023244ffffffffffffffffffff25
:10106000ffffffffffffffffffffff0224e8ffff7f
:10107000ffffff022790ffffffffff022573ffff27
:10108000ffffff02326a7582fc75837f74001211c4
:1010900012121133b900030210e1e479347802b876
:1010a00000028004f709d8fce490030278dc79059b
:1010b0008002f0a3d8fcd9fa9007ddaa82ab839016
:1010c0001139786379028015e493a3ac82ad838ae9
:1010d000828b83f0a3aa82ab838c828d83d8e9d9db
:1010e000e77582867583d974021211127582717543
:1010f00083e0740212111275d00075813f753100c2
:10110000753202753303759f007593005392fe028a
:101110001091c09ff59fe473d09f225392fed0831d
:10112000d082c09fe493c0e0740193c0e074029346
:10113000f59f2279015392fe2207000000ff000074
:101140000000000201050000000000020200800112
:101150000001000000000001080300000000000082
:101160000d00000007000001048000010000800065
:10117000000000070a040000000000070900000842
:1011800005611367136d13731379137f13e912c38a
:1011900014a5142915111517158000040502000067
:1011a00000800004060600000080000402800004a5
:1011b00004800002000b00000080000600af1967e9
:1011c00016a71bd9162315c9141b142f15e312da01
:1011d0000301ffffff0000000080ffffffff000092
:1011e0000000c00000000300000201020300000f25
:1011f00000c3a88ee8b19dcf7f5eb98b9f41efb051
:1012000055f401fa00960064004b0032001e0014f1
:1012100000d6be898e0001060212131514294176ec
:1012200071ffc1fbe84c90728be7b3518963ab232c
:101230002302841872aa612f3b51a8e53749fbc9e4
:10124000ca0c18532cfd45e300400000ffffffffd0
:10125000faffffff000080006200000005000600aa
:10126000070000000100010000010001020203006c
:10127000020000000000020201000240420f0019bb
:10128000000000093d0000e4fffffffb349b5f808e
:10129000000080001000000000000012111b37b693
:1012a0000112111b8eb60112111bdcb60112111bab
:1012b000b3b70112111ba7b80112111bc7ba011253
:1012c000111b5ebc0112111be4bc0112111bacbd51
:1012d0000112111bc4be0112111b35bf0112111bdb
:1012e000e1bf0112111b62c00112111b1ec10112cc
:1012f000111b8dc30112111b04c40112111ba4c4c4
:101300000112111b4ec50112111b62c60112111be5
:1013100055c70112111b5dcb0112111b01cd01122a
:10132000111b4cce0112111b19d10112111b04d437
:101330000112111bc5d50112111b53d80112111b2b
:1013400081dc0112111bfadd0112111b88de011272
:10135000111b12df0112111b66df0112111b00d5d8
:101360000212111b7ed50212111b94d50212111b01
:10137000aad50212111bc0d50212111be1d502120f
:10138000111bf7d50212111b0dd60212111be2a080
:101390000212111b4da10212111bafa10212111b4f
:1013a000d5a10212111b99a20212111b43a3021212
:1013b000111b8ea30212111b2da40212111b90a44b
:1013c0000212111b01a50212111b73a50212111b9f
:1013d00086a50212111b9aa50212111bcfa502129b
:1013e000111b01a60212111b33a60212111b82a6a9
:1013f0000212111bc2a60212111b16a70212111b08
:1014000025a70212111b2ea70212111be6a702121a
:10141000111b35a90212111b84b90212111b7abad1
:101420000212111b0bbc0212111bc0bc0212111bb9
:1014300029bd0212111b64bd0212111bb3bd0212a1
:10144000111bfcbd0212111b45be0212111b15bf60
:101450000212111b30bf0212111b4bbf0212111bd3
:101460005dbf0212111b6fbf0212111b84bf02125b
:10147000111b98bf0212111ba6bf0212111bb2bf93
:101480000212111ba6d80212111bd3d80212111b73
:1014900089df0112111b30e00112111b96ec0112c1
:1014a000111bcbec0112111bd8ee0112111b06d33c
:1014b0000212111b6ed30212111b92d30212111bc6
:1014c000e1d30212111b36d40212111bddd4021219
:1014d000111bf6d40212111b57a90212111b74a979
:1014e0000212111b84aa0212111be5aa0212111b7f
:1014f00090ab0212111b1cad0212111bcaad0212dd
:10150000111b11ae0212111b7aae0212111bdeaebc
:101510000212111b32af0212111bc1af0212111bba
:101520003fb00212111b08b10212111b63e002123c
:10153000111b67e00212111b69e00212111b6fe020
:101540000212111b9fb10212111bb7b10212111b23
:10155000e2b10212111b2fb20212111b48b2021289
:10156000111b7ab20212111bb8b20212111beab29d
:101570000212111b61b30212111b76b30212111b6e
:1015800095b30212111bbab30212111b11b402124d
:10159000111ba8b80212111b5cb90212111b33dd1a
:1015a0000212111b4bdd0212111bbcdd0212111bba
:1015b000ffdd0212111b62c90212111bbbc902120c
:1015c000111b23ca0212111b3bca0212111b65ca4e
:1015d0000212111b7fca0212111bb3ca0212111b85
:1015e00009cb0212111b44cb0212111bf4cb0212c5
:1015f000111b18cc0212111ba0cc0212111bcbcc58
:101600000212111b0dcd0212111b32cd0212111b41
:1016100046cd0212111b5bcd0212111b03ce02122a
:10162000111b99c40212111bb5c40212111befc485
:101630000212111bfdc40212111b2ec50212111b36
:101640005bc50212111b64c50212111ba7c5021251
:10165000111b2ac60212111b9bc60212111be9c6de
:101660000212111b19c70212111b6ec70212111ba5
:1016700042c80212111b4dc80212111b80c802126f
:10168000111bb9c80212111b0bc90212111b48c948
:101690000212111b94df0212111bb4df0212111b84
:1016a000dddf0212111bb0de0212111bc4de0212ba
:1016b000111b1bdf0212111be6ff0112111b2dde95
:1016c0000212111b5ade0212111bb8750012111bf7
:1016d0001f760012111b36760012111b7a7600124b
:1016e000111bc0760012111b1a770012111b6e78a5
:1016f0000012111b96790012111b387a0012111b6f
:101700005c7a0012111b9e7a0012111b4c7b001296
:10171000111b9a7b0012111bf77b0012111b0a7c14
:101720000012111b0a7d0012111b2a7e0012111bd0
:10173000a07e0012111baf3c0012111b5a3e00127a
:10174000111bde3e0012111b31400012111ba34081
:101750000012111bdd400012111bab410012111bc6
:1017600039420012111bfc420012111b24440012ca
:10177000111b18450012111b59460012111baf46d0
:101780000012111b17470012111b94470012111b66
:1017900035480012111ba7480012111b40490012c6
:1017a000111ba6490012111b144a0012111b694a91
:1017b0000012111bff4a0012111bb24b0012111b29
:1017c000794c0012111b4c4e0012111b9750001245
:1017d000111bdc500012111b58510012111bc0517b
:1017e0000012111b0e520012111bb4530012111bd8
:1017f00054540012111bd9540012111b1a55001217
:10180000111b8a560012111beb560012111b0158b6
:101810000012111b01590012111b2a5a0012111b30
:10182000855b0012111b465d0012111bf65f001252
:10183000111b84600012111b41610012111b3462e4
:101840000012111b98620012111bdb660012111ba3
:1018500041690012111b136a0012111b866c0012e1
:10186000111b906d0012111bbd6e0012111bd46e66
:101870000012111b91fc0112111bcffc0112111b54
:1018800036fd0112111b62fd0112111b2efe011209
:10189000111b05ff0112111b21dc0212111b7adc46
:1018a0000212111bdbdc0212111b00800112111b42
:1018b0001e800112111b3b800112111b5880011266
:1018c000111bda800112111b6d810112111b3f8364
:1018d0000112111ba5830112111b15840112111b8a
:1018e00052840112111b87840112111bc984011239
:1018f000111b37850112111be5850112111bfd8596
:101900000112111b39870112111b61890112111b70
:10191000ed890112111b218a0112111b4f8b01123b
:10192000111b7a8c0112111b9a8c0112111bc18c94
:101930000112111bfd8c0112111b308d0112111ba4
:1019400022910112111b4a910112111b9691011251
:10195000111b1f970112111b65970112111ba597ef
:101960000112111b5b980112111b32990112111bfc
:10197000a89b0112111b199d0112111b8a9d0112b6
:10198000111bc49f0112111b3ca00112111b80a04e
:101990000112111be4a00112111b37a10112111b2e
:1019a000d3a10112111b21a20112111b7ca2011251
:1019b000111b86a20112111bc3a30112111b56a4f5
:1019c0000112111b22a50112111bcea50112111b20
:1019d0007fa70112111ba1a70112111bbea90112a1
:1019e000111b13ab0112111bb0ab0112111b01ac87
:1019f0000112111b99ac0112111b89ae0112111bae
:101a00009aae0112111ba4ae0112111b93b0011268
:101a1000111bf0b00112111b2db10112111b9ab153
:101a20000112111bc9b10112111b72b20112111b5b
:101a3000edb20112111b4eb30112111bc4b30112fe
:101a4000111be3b30112111b18b40112111b4eb488
:101a50000112111badb40112111bbbb40112111bf9
:101a6000fab40112111b6bb50112111be0d6021260
:101a7000111ba3d70212111bc5d70212111b10d8bc
:101a80000212111b53d80212111b45e00212111b46
:101a90006eef0112111b9aef0112111be6ef0112fa
:101aa000111b33f00112111baff00112111b1ff3b8
:101ab0000112111b51f40112111b59f70112111bd4
:101ac00068f80112111b5ef90112111be5fa0112ef
:101ad000111b60fb0112111b72fc0112111b09cebc
:101ae0000212111b35ce0212111b4bce0212111b1a
:101af000e5ce0212111b0dd00212111b0080021242
:101b0000111b67800212111b84800212111bb1800d
:101b10000212111bdd800212111b11810212111b16
:101b20005e810212111b8b810212111bee810212c7
:101b3000111b49820212111b0e830212111b8c838e
:101b40000212111b2e850212111be6850212111bb7
:101b5000a8880212111b248c0212111b668c02121f
:101b6000111be88c0212111ba08d0212111b9b8ffe
:101b70000212111b3f900212111b80900212111bc6
:101b8000ff900212111b57910212111b7d9102123c
:101b9000111bd0910212111b11920212111b8d9375
:101ba0000212111ba7940212111bb8940212111bee
:101bb00039960212111b4f960212111b77960212d0
:101bc000111b16970212111b2b970212111b5d9706
:101bd0000212111b75980212111b0c990212111b93
:101be00042990212111b8b990212111b3e9a02128a
:101bf000111b999a0212111b9e9b0212111bf29b40
:101c00000212111b369c0212111b7d9d0212111b28
:101c1000e19f0212111b11a00212111b79a00212e6
:101c2000111b6ada0212111b77da0212111b9adaff
:101c30000212111bdddb0212111beadb0212111b67
:101c400018dc0212111bbebf0212111bddbf0212f3
:101c5000111ba8c00212111b4ec20212111bacc2f2
:101c60000212111be1c30212111b4ac40212111b02
:101c70004bff0112111b79ff0112111ba9ff011269
:101c8000111bafd00212111b3cd10212111b6ed1dd
:101c90000212111bdfd10212111b83d20212111b7f
:101ca000abd20212111b86100012111b27df021289
:101cb000111bf2df0212111bcd7f00e066701008cd
:101cc000a3e066700a08a3e066700408a3e0662239
:101cd000c3e7960809e7960809e7960809e796a278
:101ce000d265d03322c3e09608a3e09608a3e0961d
:101cf00008a3e096a2d265d03322c021c3e096f5b6
:101d00002108a3e096422108a3e096422108a3e01f
:101d1000964221a2d265d033e5217001d3d0212291
:101d2000c3e7960809e7960809e7960809e79622a7
:101d3000c3e09608a3e09608a3e09608a3e09622e5
:101d4000c021c3e096f52108a3e096422108a3e054
:101d500096422108a3e09645217001d3d0212208a4
:101d60000808eac0e0ebc0e086f0e7a4fa180986ac
:101d7000f0e7a42afa180986f0e7a42afa180986d7
:101d8000f0e7a42afa1986f0e7a4fbe5f02afa198d
:101d90000886f0e7a42bfbe5f03afa190886f0e78d
:101da000a42bfbe5f03afa18180986f0e7a4c5f071
:101db0002bfbe43afa1908e7c5f0c6a426f6e5f0cd
:101dc0003bfbe43afa1886f0e7a4f6e5f00826f6bd
:101dd000e43b08f6e43a08f6d0e0fbd0e0fa22e46f
:101de000cfc0e0e4cec0e0e4cdc0e0e4ccc0e0751c
:101df000f020c3e633f608e633f608e633f608e6e5
:101e000033f6181818ec33fced33fdee33feef33e8
:101e1000ffc3ec9709ed9709ee9709ef9719191988
:101e2000400fffec97fc09ed97fd09ee97fe19199d
:101e300006d5f0beecf709edf709eef709eff71953
:101e40001919d0e0fcd0e0fdd0e0fed0e0ff221276
:101e50001eb7181818121ddf121ea6191919221202
:101e60001ea6191919080808e618181820e7e01224
:101e70001ddf121eb718181822090909e7191919c8
:101e800020e7dc080808e618181820e703021ddf21
:101e9000121eb7181818121ddf121eb718181812c4
:101ea0001ea619191922e4c397f709e497f709e464
:101eb00097f709e497f722e4c396f608e496f60844
:101ec000e496f608e496f6226017080808c6a2e72a
:101ed00013c618c613c618c613c618c613c6d5e04f
:101ee000e9226016080808c6c313c618c613c61828
:101ef000c613c618c613c6d5e0ea2270090808083a
:101f0000226016181818c6c333c608c633c608c6da
:101f100033c608c633c6d5e0ea22e627f60809e646
:101f200037f60809e637f60809e637f622e026f61e
:101f300008a3e036f608a3e036f608a3e036f6225a
:101f4000e026f008a3e036f008a3e036f008a3e0ae
:101f500036f022c3e697f60809e697f60809e697f1
:101f6000f60809e697f622c3e0c696f608a3e0c68f
:101f700096f608a3e0c696f608a3e0c696f622e019
:101f800056f608a3e056f608a3e056f608a3e05676
:101f9000f622e647f60809e647f60809e647f60896
:101fa00009e647f622e046f608a3e046f608a3e075
:101fb00046f608a3e046f622e046f008a3e046f025
:101fc00008a3e046f008a3e046f022e066f608a386
:101fd000e066f608a3e066f608a3e066f622e0f6ff
:101fe00008a3e0f608a3e0f608a3e0f622e6f0086e
:101ff000a3e6f008a3e6f008a3e6f022e0faa3e0e7
:10200000fba3e0fca3e0fd22eaf0a3ebf0a3ecf0dd
:10201000a3edf022cac0e0e6f0a308dafad0e0fab5
:1020200022cac0e0e0a30592f0a30592daf6d0e060
:10203000ca225392fefae9fb7921e7f0a309dafa02
:10204000e8f0a3ebf9f0a3ecf0a3edf0a3eef0a31e
:10205000eff0a3e520f0a3e5f0f0a3e592f0a3e50f
:1020600084f0a3e585f0a3e581f0a3e531f0a3e5d5
:1020700032f0a3e533f0a3d0e0fad0e0f0a3caf049
:10208000eac0e0e0c0e07a007b00225392fecac0c2
:10209000e0ebc0e07921e0f7a309dafae0f8a3e089
:1020a000f9a3e0fca3e0fda3e0fea3e0ffa3e0f5bd
:1020b00020a3e0f5f0a3e0c0e0a3e0f584a3e0f501
:1020c00085a3d0e0f592d0e0fbd0e0fae0f581a363
:1020d000e0f531a3e0f532a3e0f533a3d0e0d0e0a2
:1020e000e0c0e0a3e0c0e0ea4b70027a0122b90050
:1020f00010bb0008e88af084f8aaf022e4fbc8fad2
:1021000022eb70227b10c833c8c933c9335007c3d0
:102110009ac3dbf280069a50012adbeac833f4c87e
:10212000c933f4c9fa2275f008e4c833c8c933c901
:1021300033c99ac99b5004c92ac93bd5f0ecfbc8e6
:1021400033f4c8e4c9fa22600d08c6a2e713c61822
:10215000c613c6d5e0f322600c08c6c313c618c662
:1021600013c6d5e0f422700422600d18c6c333c62e
:1021700008c633c6d5e0f41822253210af08f53270
:10218000400215338008f53240021533d2af22c029
:10219000d0253210af08f532500205338008f532f1
:1021a00050020533d2afd0d0222532f58210af08cd
:1021b000f532400215338008f53240021533d2afb4
:1021c00085338322c5822532c582c583353310af5e
:1021d00007f5338582328007f533858232d2afc569
:1021e00083222532f582e43533f583222532f584c6
:1021f000e43533f58522e4735392fe2532c582c05f
:10220000e0e53334ffc583c0e0e532c3958224f8ae
:1022100010af0885833385823280088583338582b9
:1022200032d2afcef0a3e520f0a37821e608f0a3e8
:10223000defaeff0a3e58124faf8e608f0a3e60859
:10224000f0a3e608f0a30808e608f0a3e608f0a368
:1022500015811581d0e0fed0e0f81581158115813a
:10226000e8c0e0eec0e0225392fe2532c582c0e015
:10227000e53334ffc583c0e0e532c3958224f9100d
:10228000af08858333858232800885833385823227
:10229000d2afcef0a3e520f0a37821e608f0a3decc
:1022a000faeff0a3e58124fbf8e608f0a3e608f0d6
:1022b000a30808e608f0a3e608f0a315811581d06d
:1022c000e0fed0e0f815811581e8c0e0eec0e02224
:1022d0005392fe853383853282e0a3fee0a3f5208e
:1022e0007821e0a3f608dffae0a3ffe0a3c0e0e076
:1022f000a3c0e0e0a3c0e0e0a3c0e0e0a3c0e01022
:10230000af088582328583338008858232858333a6
:10231000d2afd083d0825392fe0211185392fe8521
:102320003383853282e0a3fee0a3f5207821e0a389
:10233000f608dffae0a3ffe0a3c0e0e0a3c0e0e01e
:10234000a3c0e0e0a3c0e010af08858232858333ec
:102350008008858232858333d2afd083d082539276
:10236000fe22c0925392fec0d02532c582c0e0e565
:102370003334ffc583c0e0e532c3958224f210af49
:10238000088583338582328008858333858232d203
:10239000afc8f0a3e9f0a3eaf0a3ebf0a37921e73b
:1023a00009f0a3d8faecf0a3edf0a3eef0a3eff060
:1023b000a3d0e0f0a3d0e0f0a3d0e0f0a3e520f0bc
:1023c000a3e5f0f0a3d0e0f0225392fe853383859d
:1023d0003282e0c0e0a3e0f9a3e0faa3e0fba37837
:1023e00021e0f608a3dffae0fca3e0fda3e0fea3f2
:1023f000e0ffa3e0c0e0a3e0c0e0a3e0f5d0a3e0ed
:10240000f520a3e0a3f5f0e0a3c0e010af088583ba
:10241000338582328008858333858232d2afd0e023
:10242000d082d083f592d0e0f8d0e032e584f0a3fa
:10243000e585f022e0a3f584e0f5852274048006aa
:10244000740280027401c0e0f4041221a9d0e012e9
:1024500020142274048006740280027401c0e0f427
:10246000041221a9d0e012202122d083d082c5f00d
:10247000e493a3c5f0c395f0f5f0e493a3c395f0fe
:102480004005e5f0048001e475f002a42582f582a0
:10249000e5f03583f583e493a3c0e0e493c0e02244
:1024a000d083d082e9c0e0e493a3c386f0c5f09561
:1024b000f0f908e493a386f0c5f095f0700be4936f
:1024c000a3c3994005e9048002a3e475f002a425a2
:1024d00082f582e5f03583f583d0e0f9e493a3c07b
:1024e000e0e493c0e022ffffc0e0c0d075d018c088
:1024f00092c082c083c0f0e59da2e040fae59da2b3
:10250000e050fa123bf3900394122008e5abf8e593
:102510008958900398f0e58090039bf0900398e031
:10252000f4f5899062d0e0f8a2e15027900398e09a
:10253000a2e5501f53abdf9062d0e0a2e0e43390fd
:10254000039ef0900398e0c2e5f07b307a007906b4
:10255000123b7b900398e0600b7b007a00790612b7
:102560003b7bc2bdc2c5d0f0d083d082d092d0d048
:10257000d0e032c0e0c0d075d008c092c082c08325
:10258000c0f0e59da2e040fae59da2e050fa123bc2
:10259000f3900394122008e58df8e58a58f890032b
:1025a00099f0e59090039cf0e8f4f58a7b017a00bd
:1025b0007906123b7b539aefc2eb80aac0e074f11c
:1025c0001223629061a9e06017c2afe589f8e5ab1c
:1025d000f975ab00e4f090624bf0888989abd2af1b
:1025e0009003a3e0640f7012e5c7f89005cee0f504
:1025f000c790ff1ce0f4f5ae88c7e5bbf9e5bafa71
:10260000e9fb9003a3e0c333f8e433f974a428f59d
:1026100082740339f583eaf0a3ebf09003a3e0247e
:1026200010fb7a007906123b7be5a8f8c2af900751
:102630003ae0c2e2f0753400e8a2e7a2e792af7f89
:10264000010223c9c0e0c0d075d018c092c0f0e527
:10265000d1f875d100c2c0a2e350097b037a00799a
:1026600004123b7bd0f002256cc0e0c0d075d010c6
:10267000c092c021c022c082c083c0f05392fe909d
:10268000049a122782602b900455e0700c7401f0bc
:102690007b007a007904123b7bee90049af0e5c14e
:1026a000c0e0749c2521f58274043400f583d0e0e9
:1026b000800be5c4a2e650069004547401f0022792
:1026c00071c0e0c0d075d010c092c021c022c082bd
:1026d000c083c0f0c2e95392fe900457e0fa900420
:1026e00056e09a543ff860258a2174582521f582d6
:1026f00074041227ec900457f089c1900498e068a4
:1027000070197b027a007904123b7b800ee5a8f8f1
:10271000c2af90073ae0c2e31227f88054c0e0c08d
:10272000d075d010c092c021c022c082c083c0f03a
:102730005392fe900524122782602a9004dfe070f5
:102740000b7401f07b00fa7904123b7bee900524b8
:10275000f0e5f9c0e074262521f58274053400f512
:1027600083d0e0800be5fba2e650069004de740106
:10277000f0d0f0d083d082d022d021d092d0d0d04f
:10278000e032e0f52174012521543ffea3e06e22e2
:10279000c0e0c0d075d010c092c021c022c082c09d
:1027a00083c0f0c2ea5392fe9004e1e0fa9004e0a4
:1027b000e09a543ff860258a2174e22521f582745d
:1027c000041227ec9004e1f089f9900522e068708a
:1027d000197b027a017904123b7b800ee5a8f8c2ce
:1027e000af90073ae0c2e41227f880853400f58301
:1027f000e0f974012a543f22f0753400e8a2e7e4be
:1028000033f9e8a2e792af22c0e0c0d075d008c08b
:1028100092c082c083c0f0759800e5a8f8c2af539b
:1028200092fe90073ae0d2e1f0753400e8a2e7e4c6
:1028300033fee8a2e792af121589d0f0d083d082a0
:10284000d092d0d0d0e032c082c0835392fe90604c
:1028500059e0f8900709e028f0906058e0f89007f8
:102860000ae028f090605a12288090605e1228805a
:1028700090605ce0f890070ce028f0d083d08222d2
:10288000e0f890070be028f022c082c0835392fe4c
:10289000900709e4f0a3f0a3f0a380de74f71222fe
:1028a000677900121c1f9006551230c1eac398f8d0
:1028b000eb99f9e82404fee93400ff900662e0fc9d
:1028c000a3e0fdc3ee9cef9d402e900660e0fca3cc
:1028d000e0fd900664e02af8a3e03bf9e8c39cf829
:1028e000e99df99006551230b8a3ecf0a3edf090f5
:1028f0000662ecf0a3ed8023900655122d8e900613
:1029000062122eb59006621230c19006571230b88e
:1029100090065ee070047402800114f07a537b0626
:102920001238f502394874f7122267e9600924fe6b
:10293000601d14601a803290065ce0a2e35009909a
:10294000065fe06024148020c2e2f0d2e380199098
:10295000065ce0a2e2500c90065fe06408600ae0ca
:10296000048005c2e3f0d2e2f090065de0700890ca
:10297000065b74fff0804890600a122d86703d90cf
:10298000618fe0c0e090065fe0f87408c398f8d06b
:10299000e0b800028004c313d8fcf52174ff652160
:1029a000700990600ae4f0a3048010e5212401f886
:1029b000e43400f990600ae8f0a3e9f012289c02e0
:1029c000394874f7122267e924fc600624fe602867
:1029d000800d900722e06401705e12197980599091
:1029e000067ce064017011900676e4f07b091231f8
:1029f000b17900123b7b8040900676e0700890062b
:102a00007474fff080327900121c1f8a218b22a877
:102a100021a922900678e028faa3e039fb90618f83
:102a2000e0541ff8ea28f8eb3400f990066e1230f3
:102a3000b87a6c7b061238f502394874f7122267af
:102a400074fe1221a912242c9006c61230c1e8246b
:102a500012fae93400fb90605ce060088a828b83a4
:102a6000e0d2e1f0e82430fce93400fde82432f55e
:102a700084e93400f58590605ae0700690605ee06d
:102a800060368a828b83e0a2e14019d2e1f0e8242b
:102a900022f582e9122d6b122d7e1221668c828d19
:102aa000831238ede40592f0a3f079008532828537
:102ab00033835392fe023940e8241ef582e9122d39
:102ac00072fea3e0ff858482858583e02ef0a3e07b
:102ad0003ff08c828d830592e0fca3e0fdc305925c
:102ae000e09ca3e09d50c388828983a3a3a3a3a3f2
:102af000a3a3a3a38582848583858a828b83e0a296
:102b0000e1500474088002743e0592f07b028882d2
:102b100089830592a3a3a3a3a3a3a3a3e0fa7900a7
:102b2000123b7b7901808574f512226774fe1221b5
:102b3000a912242c122d76240a122d5afc7003029d
:102b40002d55ee242e1235a61230c18e828f83a30e
:102b5000a3a3a3a3a3a3a38582238583248e828f0b
:102b600083a3a3a3a3a3a3a3a3a3aa82ab83ee24bb
:102b700034122d6f687003a3e069701a74026c70d0
:102b800003022ceb74016c607774096c60258a82f7
:102b90008b8374228055ec146066147003022ceb56
:102ba00024fa601c14600c146042147003022d316e
:102bb000022d55906008e0a2e65003022d55802cae
:102bc000ee2439122d68801388828983a3a3a3e0a1
:102bd00064037003022d5588828983122d8670e864
:102be0008a828b83e0641370037416f07b02852362
:102bf00082852483e0fa7900123b7b7901022d570c
:102c0000ee24551233aaee244cfcef3400fdea24e6
:102c1000fff521eb34fff522e521687003e5226919
:102c2000706dee244d122e148e828f83122d8c8c9b
:102c3000828d83e0c333f8e433f9e82403f8e93400
:102c4000001230af9006f7e0a2e050098e828f8329
:102c5000a3a31230b4900711e4f0a3f0a3f0a3747f
:102c600002f09006f7e0a2e04003022d559060626a
:102c7000e4f08c828d83e0f875f0e2a4c8aaf075c8
:102c8000f004a42af9e81230a41230b8022d55ea53
:102c9000687002eb696003022d55752109752200e9
:102ca0007821122440ee241bfaef3400fb121caff3
:102cb000740212218f9006f7e0a2e05007eefaefbf
:102cc000fb1218bfe40592f0ee24221235a6122d55
:102cd0007e122166ee2430122d681238edee243279
:102ce000122d68e4f0a3f07b08805de8240108e978
:102cf0003400f9ee245c122d6f687003a3e0697054
:102d0000547521057522007821122440ee2457fcc9
:102d1000ef3400fdee2424faef3400fb121caf74f4
:102d20000212218feefaeffb121973e40592f08084
:102d300024eefaeffb12158fe40592f0059290064f
:102d4000f7e0a2e0500f7b07852382852483e0fa19
:102d50007900123b7b79000231b6f584ef3400f53f
:102d6000850592e022ee2414f582ef1235b222f5a9
:102d700082ef123720229006c61236f9ee22122e6a
:102d8000e174037821221230c5e84922a3a3e02888
:102d9000f0a3e039f02274f812226774fe1221a920
:102da00012242c9006c6e0f584a3e0f585122b27ab
:102db000e9704e122a3be97048e584242ef582e53d
:102dc00085122d722401f0a3e03400f0906008e039
:102dd000c0e0e5842436f582e585122d6bd0e0f065
:102de000e584241ef582e585122e170592a3a3e043
:102df00028f0a3e039f005929006c61233ad1238e0
:102e0000f5853282853383122434740212218f7f38
:102e10000102231cf582ef1235b2122e1e22e0f8b9
:102e2000a3e0f9e8c333f8e933f92274f712226713
:102e300074fe1221a912242c8a828b83a3a3ac8254
:102e4000ad83900716ea241ef584eb122d5df8a3de
:102e5000e0f9e8c333f8e933f99006f9e0f521a386
:102e6000e0f522122ecb0592e028f8a3e039f98c88
:102e7000828d831230b8900711122ebe8c828d8302
:102e8000122eb5900713122ebe7a207b4e1220ee22
:102e9000882189228c828d83e09521f0a3e0952200
:102ea000f0900718122ebee8c333f8e933f9e812a0
:102eb000309c023939c3e098f0a3e099f022123037
:102ec000c59006f9122ee1122ecb22e88521f0a43e
:102ed000c8aaf08522f0a42afa8521f0e9a42af9eb
:102ee00022e0f521a3e0f5222274f712226774fe96
:102ef0001221a912242c122d762412122d5aa2e38b
:102f00005008c2e3f005920230908e828f830592c2
:102f1000a3a3858221858322906062e060107910ee
:102f2000121c1f852182852283eaf0a3ebf0122b6d
:102f300027e96003023099122a3be96003023099c5
:102f4000906008e0c0e0ee2436122d68d0e0f090ea
:102f500061d5e0f89061d7e06805926005e0d2e2c3
:102f60008003e0c2e2f00592906062e09007136097
:102f700017e024c0faa3e03437fb123b5090071847
:102f80001236ff12309c80151233ad123b3a900777
:102f900018122e1a906064e028f0a3e039f0852121
:102fa00082852283e024fff0a3e034fff0ee242b9f
:102fb000122d6f900715f0ee2420122d68122d8629
:102fc000604b8e828f83a3a3a3a3a3a3a3a3a3a3d6
:102fd000e0703aee24321233aaea4b7030ee243914
:102fe0001233aaea4b7026e8240108e93400f9906c
:102ff00006f91230b88521828522831230c19007ec
:10300000161230b8eefaeffb122e2b80279006f93d
:103010007401f0a3e4f0ee241e122e1485218285a3
:103020002283122d8e9007111230c18521828522b4
:1030300083122eb58e848f850592a3a3a3a3a3a389
:1030400005929060641230c17a717b021220eee822
:103050002405f8e93400f98584828585831230b827
:103060008e828f83a3a3a3a31233ad85848285852b
:1030700083e0f8c3ea98eb99a2d265d0335005ea11
:10308000f0a3ebf01230beee242e122d68122d8e1e
:103090009006c61233ad1238f502393a1230a4e860
:1030a000f0a3e92224eaf8e93402f990606422f9f5
:1030b0008e828f83a3a3a3a3e8f0a3e9f022900656
:1030c000f91230c522e0f8a3e0f92274f512226764
:1030d00074fe1221a912242c8031c2e5123aa6c036
:1030e000e0900720e0123195d0e0f0900720e00456
:1030f000f0a3e004f0a3e004f0900724e0700c7467
:1031000001f07b007a007900123b7b90605ae0f579
:1031100021906002e0a2e050047800800590605d9c
:10312000e0f8900721e0fae52128f8e43400f9e816
:103130006a7001e96057900720e0f52374012523a8
:10314000547ff521e523123195e0f8080890072017
:10315000e028f074802521f58274601235a990066c
:10316000c6e0f8a3e0c82408f584e83400f585e05b
:10317000a2e70592e040030230dad2e5f01231a86e
:1031800024dbf01231b11231a84a0230ea853282d2
:10319000853383802a12319922547ff8748028f570
:1031a0008274603400f58322900720e0123199e0a8
:1031b00022123aabfa228532828533835392fe1271
:1031c0002434740212218f7f0402231c74f512220e
:1031d0006774fe1221a912242c892105929006c63b
:1031e000e0f582a3e0f583858284858385a3a3a38c
:1031f000a3a3a3a3a3e0a2e74047900723e0f8908e
:103200006054e0c398f522900723e02522f0ae82b7
:10321000af838012ee2439faef3400fb121895eade
:103220004b6003121a8185222374ff2523f52204a3
:1032300070e2e521a2e640097900eefaeffb1219ef
:10324000f10231b6c0e074f1122362e535f5c675be
:10325000a70075a1007950121c3d7f010223c9c04f
:10326000d075d01875bf00d0d032c0e0c0d075d0b6
:1032700018c092c082c083c0f0e535f5c6e591fe66
:10328000759b00f4f5915392fe906002e0a2e0502d
:10329000047800800278087900e844015e60031237
:1032a00030cbeea2e55004f91231cceea2e7502962
:1032b000e5a8f8c2af90073ae0d2e0f0753400e834
:1032c000a2e7e433f9e8a2e792afe594a2e240096d
:1032d000759403e594a2e250faeea2e640030233ad
:1032e00081906061e0f9900721e4f0900723f0906d
:1032f00006c61233ad8a828b83a3a3a3a3a3a3a381
:10330000a3e02410601224fc600924fc700f122931
:103310002680661229c280611218b9805c9006f678
:10332000e060051460148023906060e06480601b9e
:10333000e0c0e0123395d0e08010906058e0f89043
:10334000605ce028f8123395e028f0906060e0645b
:10335000806016e0c0e09006c6e0f8a3e0c8241341
:10336000f582e8122d6bd0e0f09006f7e0a2e05075
:1033700005122ee98003122d961228471218a780f5
:1033800004a2e7500312394dd0f0d083d082d092fe
:10339000d0d0d0e032ea242cf582eb123720fa7438
:1033a000d12af58274061235b2221235afe0faa3a3
:1033b000e0fb2274f712226774fe1221a912242c5a
:1033c0009006c6e0fca3e0fd1230beec2429f58295
:1033d000ed122d6bec242bfaed3400fb8a848b85e7
:1033e0007401687001e97012e0f80592e028fac3f0
:1033f0009425402a74db2afa8024e0f521e885210f
:10340000f0a4f8aaf08521f0e9a42af90592e0fadf
:10341000e82af8e93400f97a257b001220eeeaf078
:1034200074075af87401b800028004c333d8fcfb57
:10343000ea131313541ff8ec28f8ed3400f9e824cc
:1034400024f582e91235a9e05b702a8005e8cac339
:103450009afaec24e5f582ed122d72f8eac3985041
:10346000ec8a21ec2521f8ed3400f9e824c0f5823e
:10347000e9122d72faec242cf582ed122d6bea0282
:10348000393974f612226774fe1221a912242c9085
:10349000067de09060026004740e8002740ff0906c
:1034a0000677e0906001f09008b5121ffc906195de
:1034b0001220081219fd90067ce0f52174016521a7
:1034c0009006757040e05402f97a7e7b061218dd92
:1034d000900675e0a2e050097a037b0775214080d1
:1034e000077afd7b06752100a2e150047e808002f0
:1034f0007e0075230678231224447c7e7d06e52118
:103500004e44018066e0a2e050087a037b077840d1
:1035100080067afd7b06780005929006a312245b54
:103520007c847d0674b92521f58274081235a9e0e2
:1035300048f91218e3740112218f90067ce0f860bc
:1035400005740268702e900675e0a2e050087a03b8
:103550007b07784080067afd7b067800059290060e
:10356000c312245b7ca47d06e84404f91218e374ba
:103570000112218f900675e0a2e0e433f91218d70a
:1035800075910090067de0906182600474c88002ad
:1035900074c0f08532828533831224347402122180
:1035a0008f7f0302231cf582ef1235b2059222f5bc
:1035b00082ef3400f58322c082c0835392fe906074
:1035c00002740ff090065ee004f064037002e4f011
:1035d000e02425906000f09008b5121ffc906195e2
:1035e00012200890065ce05420f91218d71219fd39
:1035f00090065ce0a2e15004d2f08002c2f0a2f09a
:10360000e43390600cf090065ce0a2e1503575d98f
:103610000da2e55004784080027800e84403f5d913
:10362000e0a2e550067a037b0780047afd7b0679e9
:10363000061218ad740675d9001470fae5e170fc35
:1036400075e19575910090618274c102287a74f8d1
:1036500012226774fe1221a912242c1236ec1219c0
:10366000fd122d65121ffc90619512200812373b48
:103670001233b3123704f584ef3400f58585848264
:103680008585831237261219f1ee2412122d6fa2ae
:10369000e250180592e0f8a3e0f58388820592a332
:1036a000a3e02402f89061d5e028f0022e0174f81e
:1036b0001222671236ec1219fd122d65121ffc90b2
:1036c000619512200812373b1233b3123704122dc2
:1036d000681237261219f1ee241e122d681236ffd9
:1036e00024fcf8e934ff1230af022e0f9006c61208
:1036f00036f9906002740ff022e0fea3e0ff221280
:103700002e1ee822ee242c12371d906000f07591d9
:103710000090072ee0906182f0ee243922f582efce
:103720003400f583e0221230c5ee24371235afe8bd
:10373000f0a3e9f07900eefaeffb22ee243612371f
:103740001d906008f0ee241812371d906005f0ee11
:10375000241912371d906006f0ee241a12371d90be
:103760006007f02274f112226774fe1221a912245c
:103770002c7521007522007ccd7d06801b888289f6
:10378000831236f98c828d83eef0a3eff088828964
:10379000831238ed882189228c828d83122d794ff6
:1037a00070398c828d83eaf0a3ebf08a828b83e4fc
:1037b000f0a3f0aa21ab2285328285338312243410
:1037c000740212218f7f0802231ce5232527f8e5c8
:1037d000243528f98a828b83122d8ceef8eff98834
:1037e000828983a3a38a848b850592a3a3e0f52312
:1037f000a3e0f5240592e0c39523f523a3e09524e7
:10380000f5248a828b83a3a3a3a3a3a3e0f525a316
:10381000e0f526c3e5239525e5249526a2d265d0bb
:1038200033403e8a828b831230b88a828b83a3a373
:10383000a3a38582848583851230c1c3e52398e5df
:103840002499a2d265d033500d858482858583e585
:1038500023f0a3e524f08c828d83eaf0a3eb0237fa
:10386000b288828983a3a3a3a3a3a3e0f527a3e03f
:10387000f528c3e49527f525e49528f526c3e52525
:103880009523e5269524a2d265d03350288a828bd1
:1038900083a3a3a3a3a3a3a3a3e0a2e75003023798
:1038a000ca88828983a3a3a3a3a3a3a3a3e0a2e7b7
:1038b000500302377d88828983a3a3a3a3858284d2
:1038c000858385c3e49523fce49524fd1236f9c372
:1038d000ec9eed9fa2d265d033500b858482858506
:1038e00083ecf0a3edf0e8fce9fd023798e521f068
:1038f000a3e522f02274f712226774fe1221a912a6
:10390000242cea4b6031a2afe433fec2af1237641d
:103910008a828b838016aa82ab8385828485838585
:103920000592e0f582a3e0f583123764e5824583d2
:1039300070e4eea2e092af8001f08532828533839d
:10394000122434740212218f7f0202231c74f51298
:1039500022677900121c1f8a238b247977121c3d61
:103960009061b1e4f0e070f87403f0e0640370f883
:103970009006cd1230c19006c61230b8e8497012d8
:10398000123a8fe594a2e24003023a89759400024c
:103990003a89888289831233ad9006cdeaf0a3eb91
:1039a000f088828983a3a3122ee188828983a3a34e
:1039b000a3a3e02521f8a3e03522f9e824fdfee9e0
:1039c00034ffff9060607480123aa62410601424c3
:1039d000fc600624fc600780471234828052123556
:1039e000b7804de521c39523e5229524c39400a219
:1039f000d265d0335025e5232401f521e524340098
:103a0000f522c3e5219ee5229f400ae5212401fe1f
:103a1000e5223400ff9006551238ed121a0380108b
:103a20009006f7e0a2e0500512364e80031236ae43
:103a3000aa21ab227930121c31eefaeffb79401249
:103a40001c317954121c3de521c39523f8e52295dc
:103a500024f9c3e89401e99400a2d265d033500c54
:103a6000121a15e5e170fc75e121801d9005cde08d
:103a7000a2e04012aa21ab22121c2b90070d1220ab
:103a800008123a8f8003121a15121af30231c7e591
:103a9000a8f8c2af90073ae0c2e0f0753400e8a29f
:103aa000e7a2e792af22f0123aab229006c6e0f806
:103ab000a3e0c82408f582e83400f583e022000082
:103ac000853487c2af22c0e0c0d075d018c092c084
:103ad00082c083c0f074fc1221795392fe90073ba0
:103ae000e0601c1218d19005cde054117008e5c6b5
:103af00054384487f5c690073be4f0c2c78026c21d
:103b0000c7853282853383aa82ab83121a0fe96498
:103b100001701290073b7401f08532828533831265
:103b20001ffc121ae7753400740412218fd0f0d0f4
:103b300083d082d092d0d0d0e03275c3007420c33d
:103b40009afa744e9bfbeaf5a2ebf5a35392fe2280
:103b5000c02175c301e5a2f521e5a375c300f9e510
:103b6000212420f8e9344ef9e8c39af8e99bf9e8f2
:103b7000f5a2e9f5a3d0215392fe2274f512226733
:103b8000e9feeaff8b21753400a2afe433f522c2cf
:103b9000af9007dce0f52474012524540ff5239041
:103ba00007dbe0652370057900121c97e52475f0aa
:103bb00003a4f8a9f0746928f8740739f9e82442d5
:103bc000f582e93400f583eef0e82443f582e93428
:103bd00000f583eff0e82444f582e93400f583e54d
:103be00021f0e5239007dcf0e522a2e092af7f040c
:103bf00002231cc082c08374fc122179e5a8f8c29c
:103c0000afe5958532828533835392fef0e596c009
:103c1000e074011221e2d0e0f0e597c0e0740212f6
:103c200021e2d0e0f0e8a2e7a2e792af740312210c
:103c3000e2e4f0853282853383121ffc7404122182
:103c40008fd083d0822203060302020303020602fe
:103c5000030301050202010001010101000003024a
:103c60000000050002070700020301010108060623
:103c70000503040401030602020202010f00080307
:103c8000050502070101090101020101020000000e
:103c90000302020105050201010305000100030101
:103ca0000000000101040402030204010401007485
:103cb000f01221f874f0122179e5c7f5289005cead
:103cc000e0f5c775211075220078211224407c434d
:103cd0007d0674021221e2aa82ab83121caf740229
:103ce00012218f78211224407c007d007a437b06cc
:103cf000121cb5740212218f752100805885218213
:103d0000a882e875f06fa4faabf09005cb123e4d97
:103d1000246ef582eb126bf9a2e050377f008f82a0
:103d2000ac82e875f037a4faabf0900639123e4d3c
:103d30002cfaeb3400fbea241af582eb126bf9fa49
:103d400074432cf5827406126bf94af00fefc3949a
:103d50001040cb05219005cae0f8e521c398409dad
:103d6000752100852182a882744328f58274061289
:103d70006bf9fa853282853383e58228f582e58303
:103d8000126bf96af00521e521c3941040d5752125
:103d900000852182ae827f00853282853383e58271
:103da0002ef582e583125a0aa3a3a3a3e0f8853275
:103db00082853383e5822ef582e583126bf948f51f
:103dc0002260768f27e522a2e0505b7523018f24c5
:103dd000e5277823122166a82374432ef582740602
:103de000126bf9586004790180027900744b2ef54a
:103df000827406126bf9586004e9d2e1f98e238fc0
:103e00002474037823122166852725e5232525fac6
:103e1000e5243400fb74a02af58274f73bf583e0b7
:103e2000fa7b0012140f0527e522c313f522e527bc
:103e3000c394085004e522708c0521e521c3940841
:103e40005003023d918528c7741002441c123e5154
:103e500022e02afaa3e03bfbea2274f61221f8e9f9
:103e600075f037a4faabf01215a790063912664127
:103e7000e5c7ff9005cee0f5c790f79e125b6ce4b6
:103e8000c39af521741f9bf52278211224407c00ef
:103e90007d00121cb5740212218f8fc779087c3bfc
:103ea0007d067a007b00121ac9e96408601b75213f
:103eb0000875220078211224407c007d007a3b7b2b
:103ec00006121cb5740212218f800e853282853352
:103ed00083122434740212218f7f020222d074f0e4
:103ee0001221f874fe1221a912242c8a278b281281
:103ef000622c0592a3858221858322125b6cea4b9a
:103f000060158e828f83a3a3a3858223858324c318
:103f1000e09aa3e09b5008790112174502400c0576
:103f2000929008911224537b070592126224121c6e
:103f30004f740412218f8e828f83a3a3a3a3a38522
:103f400082258583268e828f83e014604a14606404
:103f500014602c14600d147003023ff224fe607d87
:103f600002400c85238485248505921224578521df
:103f70008285228305921240291215fb02400578a2
:103f80002512244085238485248505921224571206
:103f900040161215ef80167825122440852384855b
:103fa000248505921224571240161215c574041266
:103fb000218f805f7825122440ee2417f584ef12bc
:103fc000665305921224578523848524851224572d
:103fd0001240161215b3740612218f8036ee241784
:103fe000f582ef126bf9f523a3e0f524e5234524d0
:103ff00070081240231215f58019782312244012fc
:1040000040231215cb740212218f8007aa27ab28f8
:10401000121a81025a21ee2415f582ef126e9b05c9
:1040200092e0f98521828522831258f0aa27ab28d5
:104030002274f61221f874fe1221a912242ceafe31
:10404000ebff8921126222121c431246a9242af591
:1040500082e585126bf960220592e024fd600c2454
:10406000fc7014740765217011800c740a6521605e
:1040700006740165217003752100e4439201f00587
:1040800092f09005c9e0f522ac21eefaeffbe0f9e1
:104090001213d99005c9e065226005a92212168b7a
:1040a000023ecb74f61221f8e9ff8c218d22740aae
:1040b0001221e2e0fd9005c9e0fe7821122440efd4
:1040c000fc9005c9e0f912138b740212218f900540
:1040d000c9e06e6005eef912168b023ed974f21239
:1040e00021f874fe1221a912242c8a258b26124154
:1040f00082121c439005c9e0ff858482858583a3d5
:104100008582238583247821122440eefd7c04855a
:10411000238285248312423012138b740212218f62
:104120009005c9e06f6005eff912168be58424173e
:10413000f8e5853400f98e2188828983e02521f015
:10414000a3e03400f074166e701788828983c3e090
:104150009416a3e094004009aa25ab2612173f80cd
:10416000197900852382852483125b6c121745e43c
:104170000592f0aa25ab26121a81853282853383f7
:10418000801c8c218d22e9fe1257ed7b079005c91a
:10419000e0fa7901228532828533835392fe12241c
:1041a00034740212218f7f060222d074f41221f897
:1041b00074fe1221a912242c8a238b24124182120c
:1041c0001c430592e0f8740768700feef9ac21ad5e
:1041d00022aa23ab24121751804d740a68059290cd
:1041e00005c9700fe0ffeefcaa21ab22e0f9121323
:1041f00091801de0ff7821122440eefd7c00858433
:1042000082858583a312423012138b740212218f90
:104210009005c9e06f6005eff912168be40592f086
:10422000aa23ab24121a81853282853383025fe090
:104230001275b29005c9e0f92274f01221f874feeb
:104240001221a912242c74fe1221798a278b288a24
:10425000828b83a3a3a3a3a3a3a3a3a38582258562
:104260008326126222121c43852782852883a3a3fa
:10427000e024faf5231246278525848526850592b4
:10428000a385328285338305921246017e00804bde
:104290009005c9e0ffe5842402f521e5853400f5a9
:1042a00022782112244074fe29fd7c0385848285b6
:1042b000858312423012138b740212218f9005c92c
:1042c000e06f6005eff912168b852582852683e065
:1042d000f5212efee584252112664f85258285264f
:1042e00083e0f9eec3952340a78921e523c39521f7
:1042f0001245f212463a12173f025a1c74f012216c
:10430000f874fe1221a912242c74fe1221798a233a
:104310008b24126217121c43852382852483a3a356
:10432000e024faf5221257e9858427858528e527b8
:10433000242af582e52812620d7401f01266846465
:104340000170047e0280027e107521008010e06ff3
:104350006005eff912168b74022e2521f521e52157
:10436000c39522505a5392fe9005c9e0ffa82185bb
:10437000328285338312613a126653eef525782531
:10438000122444e5842403fce5853400fd12440036
:1043900005929005c9e0f91213a3740112218fe967
:1043a0009005c970a9e06f6005eff912168b85279b
:1043b00082852883e4f0aa23ab24121a81803e85eb
:1043c0002221e52124fef8e434fff98e21e8c3958b
:1043d00021f8e99400f98532828533835392fe12e5
:1043e00060742401f8a3e03400f9852782852883ce
:1043f0000592a3125b41aa23ab2412173f025a1c59
:104400000592a3e0faa3e0fb22740212218f853209
:10441000828533835392fe122434740212218f7fdb
:10442000080222d074f01221f874fe1221a912247d
:104430002c74fe1221798a278b28126217121c43d2
:10444000852782852883a3a3e024fbf5211251aca4
:104450000592900639125669858225858326e525c1
:10446000242af582e5261252057f00800de06e6059
:1044700005eef912168b74042fffefc39521505fe0
:10448000eff885328485338512450f12620d8582df
:104490008485838505929005c9e0fe752202782205
:1044a000122444e5252417f523e5263400f5247865
:1044b0002312244012461012139d740312218fe917
:1044c0009005c970a8e06e6005eef912168b85257f
:1044d00082852683e4f0aa27ab28121a81802da8b2
:1044e00021853282853383e028f8a3e012664a24ce
:1044f000fef582e934fff58312464f852582852635
:1045000083a3125b41aa27ab2812173f025a1c054e
:1045100092e028f582a3e02274f01221f874fe12d2
:1045200021a912242c74fe1221798a278b288a82d1
:104530008b83a3a3a3a3a3a3a3a3a385822585837e
:10454000268a828b83a3a3e024faf5211262221229
:104550001c431246278532828533831246017f0031
:104560008012e06e6005eef912168b852582852695
:1045700083e02fff852582852683e0f8efc3952110
:10458000505b8f23e5252523fae5263400fb8a823c
:104590008b83a38582848583859005c9e0fe74fca6
:1045a00028f5227822122444ea2405f523eb34006e
:1045b000f524782312244012461012139d7403121e
:1045c000218fe99005c9709ae06e6005eef9121628
:1045d0008b126c78aa27ab28121a8180128823e5e7
:1045e00021c395231245f2a3a312463a12173f02a4
:1045f0005a1cf895e0f9e52528f582e52639f5837a
:1046000022127519242af582e8126e9b7401f02299
:10461000858482858583a3a3125672faa3e0fb05e5
:10462000929005c9e0f922126c6212462e22853260
:1046300082853383e8f0a3e9f022a312464f853246
:1046400082853383126c54124634aa27ab2822e0a9
:104650002401f8a3e03400f92274f61221f874fe64
:104660001221a912242c12168be970047a86801c60
:104670001246a9241612664f0592e0a2e040047a81
:10468000818009121a7bea4b70067a827b01800dc9
:104690000592e0c2e0f01216077a007b00853282b4
:1046a0008533835392fe023ed11257ede584227486
:1046b000f21221f874fe1221a912242ceafeebff5b
:1046c0008c258d2612168be970047a868012124a88
:1046d0000d60047a818009121a7bea4b70067a8297
:1046e0007b01803074101221e2e0f8c3941450046e
:1046f0008822800375221485252385262478231299
:104700002440a922eefceffd1215e9740212218f5c
:104710007a007b0002419574f01221f874fe122198
:10472000a912242c8a278b28ecff12168be970041f
:104730007a868025124a0d60047a81801cefa2e0ff
:104740004005c3940450047a80800e121a7b8a2597
:104750008b26ea452670067a827b018034efc3946b
:10476000165004effe80027e16740a12489b122433
:10477000537b070592126224121c4f740412218f7e
:10478000eef9ac27ad28aa25ab261215dd7a007b01
:104790000002440e74f01221f874fe1221a91224b2
:1047a0002c8a258b26ecfeedff74141221e2e0f535
:1047b00021c39413501912168be970047a86802154
:1047c000124a0d60047a818018e525452670047a26
:1047d00080800e121a7b8a278b28ea452870067a79
:1047e000827b01804d74080592f0a3e525f0a3e5d6
:1047f00026f09008911224537b070592126224122e
:104800001c4f740412218f74121221ec0592122491
:10481000578e238f2405927823122440a921ac259a
:10482000ad26aa27ab281215d1740412218f7a0065
:104830007b0002440e74f41221f874fe1221a912b6
:10484000242c8a2212168be970047a86801a124a66
:104850000d60047a818011121a7b8a238b24ae2387
:10486000af24ee4f70067a827b01802c74091248c7
:104870009b1224537b070592126224121c4f74046e
:1048800012218fe5226004790180027900eefaefaf
:10489000fb1215d77a007b00025fd70592f0a3e4e4
:1048a000f0a3f09008912274f01221f874fe122106
:1048b000a912242ceafeebff8c278d2812168be917
:1048c00070047a86801f124a0d60047a818016ee89
:1048d0004f70047a80800e121a7b8a258b26ea4557
:1048e0002670067a827b01805474121221e2e0f86d
:1048f000c394145004882180037521147406059212
:10490000f0a3eef0a3eff09008911224537b07057b
:1049100092126224121c4f740412218f8527238562
:1049200028247823122440a921eefceffdaa25ab10
:10493000261215e3740212218f7a007b0002440ec6
:1049400074f41221f874fe1221a912242ceafeeb51
:10495000ff12168be970047a86801a124a0d6004e1
:104960007a818011ee4f70047a808009121a7beaf6
:104970004b70067a827b01802a7407124a08eef097
:10498000a3eff0858482858583a3a3a3eef0a3ef34
:10499000f0e5842417f582e5851274f412173f7a46
:1049a000007b00025fd774f41221f874fe1221a973
:1049b00012242ceafeebff12168be970047a868033
:1049c0001a124a0d60047a818011ee4f70047a80c9
:1049d0008009121a7bea4b70067a827b018026746a
:1049e00005124a08a3a3a882a983eef0a3eff088da
:1049f000828983125b480592a3e8f0a3e9f01217bd
:104a00003f7a007b00025fd7124b7fa3221257ed43
:104a10000592e02274f21221f874fe1221a91224e8
:104a20002c8a218b22ecfeedff12168be970047aa2
:104a3000868012124a0d60047a818009121a7bea7c
:104a40004b70067a827b01801d7404124a08e521ae
:104a5000f0a3e522f00592a3a3a3eef0a3eff012da
:104a6000173f7a007b0002419574f01221f874fe22
:104a70001221a912242c8a278b288c258d26121608
:104a80008be970047a86802e124a0d60047a818048
:104a90002574141221e20592e0ff74026f6009741c
:104aa000106f60047a80800e121a7b8a238b24eaae
:104ab000452470067a827b01803474030592f08f5e
:104ac000217522000592782112244074141221e2eb
:104ad000124ba4121caf740212218f124af185846a
:104ae00082858583124b8b12173f7a007b0002442c
:104af0000ee5842415f582e585126e9beff0227495
:104b0000f01221f874fe1221a912242c8a278b2876
:104b10008c258d2612168be970047a86802e124a17
:104b20000d60047a81802574141221e20592e0ff61
:104b300074026f600974106f60047a80800e121a1c
:104b40007b8a238b24ea452470067a827b01802ca1
:104b50008f21752200782112244074141221e21250
:104b60004ba4121caf740212218f124af17401126d
:104b70004b7f124b8b12173f7a007b0002440e05cd
:104b800092f0858482858583059222a3e527f0a390
:104b9000e528f00592a3a3a3e525f0a3e526f0aa56
:104ba00023ab24221258f0e5842405fae58534006d
:104bb000fb2274f01221f874fe1221a912242c7425
:104bc000fe12217912663b8c278d2874141221e283
:104bd000e0fea3e0ff12168be970047a86802a12a9
:104be0004a0d60047a81802174181221e20592e056
:104bf000f522c3941140047a80800e121a7b8a2514
:104c00008b26ea452670067a827b018069e584243a
:104c100017f582e58512620deef0a3eff074020540
:104c200092f0e5842415f582e58512620de52205f2
:104c300092f0f52375240078231224407418122171
:104c4000e2124ba4121caf740212218f85328285ae
:104c50003383125b48858482858583a3125b41057b
:104c600092a3a3a3e527f0a3e528f0aa25ab26127b
:104c7000173f7a007b0002440974f11221f874fe98
:104c80001221a912242c74fc12217974021221e23f
:104c9000126641e5c7f5279005cee0f5c77402120c
:104ca00021e2127528853284853385e5820592f0ec
:104cb000a3e583f08532828533830592125d30f857
:104cc00074021221e2124e1f059290f79de0f52525
:104cd000ff741dc39af5268e228e2180080522efcf
:104ce000c313ff052190f79ce0fce521c39c5044d1
:104cf000eec39526503e124e3170e8efa2e050df31
:104d0000a3a3a3a3a3e0640270d3752302752400b8
:104d100078231224401258e58e23e5842523126659
:104d2000472402fae93400fb121caf740212218fef
:104d30000e0e80abee6013858482858583a3ef60c1
:104d400004740280027403124e08e5227003024dbf
:104d5000ea8532828533835392fe12668af8741d87
:104d6000c398fa95e0fbc3ea9410eb9400a2d265d5
:104d7000d033407674021221e2124e1faf258e21ed
:104d80008006efc313ff0521e521c39c5042e526b1
:104d9000603e5392fe124e3170ecefa2e050e3a35e
:104da000a3a3a3a3e0641070d97523108e247823e5
:104db0001224401258e5e5842402fae5853400fb0c
:104dc000121caf740212218f7e1074ff2522600e18
:104dd0008584828585835392fea374068009858429
:104de00082858583a37407124e088527c774041231
:104df000218f8532828533835392fe1224347402cc
:104e000012218f7f070222d0f074012ef80592f054
:104e100008853282853383059212668e28f022053a
:104e20009212613a3400f5850592a3a3a3a37e00f4
:104e30002290f796127566e52175f006a4faabf09c
:104e4000e82afae93bfb8a828b83e02274f0122184
:104e5000f874fe1221a912242c74f91221798532da
:104e600082853383ecf0a3edf08a278b28e9fe7569
:104e70002200126c788a828b830592a3a3a3a38558
:104e8000822385832474026e600caa23ab24121c37
:104e90007fe960027e0274191221e2125b487419e4
:104ea0001221e2125b4174191221e212611b74108b
:104eb0000592f074026e6003024f408523828524c0
:104ec000830592125b48e8700374286970567f006e
:104ed00074191221e212611b740a0592f0e5c7c031
:104ee000e074041221e2d0e00592f09005cee0f5e6
:104ef000c7126c78059290f79ce0f526f582ac829b
:104f0000852782852883126d87500302507a852772
:104f100082852883a3a3125b6cc3ec9ae49b502583
:104f20008c258024740168700374286970047f01e3
:104f3000809e740368700374286970047f028090f7
:104f40007900025087eaf525e814f52180127402f1
:104f50001221e2127525e521f0a3e4f015210521c7
:104f6000e521c39525400302506b125b4574051281
:104f700021e2125b41852182a882e875f006a4fa3d
:104f8000abf074051221ec0592e02af582a3e03b18
:104f9000f583ac82ad830592e06f70c2852282aa50
:104fa000828532848533850592e02a12508c740202
:104fb0001221ece5820592f0a3e583126bd2e02486
:104fc00004f527126684f5236009e527652360034d
:104fd00002506b852723ea126bdf400302506be51a
:104fe00027f0eaf522e8240108e43400f9740212fb
:104ff00021e2059212611be80592f0a3e9126bd23f
:105000001258dc1224408c828d83a3a3a312751f37
:105010001221e2126c1e121caf740212218f802921
:10502000e52175f006a4f8a9f074051221e2539267
:10503000fe125d27f87003024f4e74016870030280
:105040004f4ee86f7003024f4e0521e521c39526b0
:1050500040cee52665216003024f4e74021221e224
:1050600012752574fff0a3f0024f5ee522600b7409
:10507000191221e25392fe126c7e74041221e25343
:1050800092fee0f5c7a922740702440bf582a3e063
:10509000126e9b0592a32274f71221f874fe12215e
:1050a000a912242c124188121c430592e0f87406c0
:1050b00068600a7408686005740968701ce412511d
:1050c000fc7c001244000592e0f91213d99005c946
:1050d000e06e6005eef912168b0260ef74f2122199
:1050e000f874fe1221a912242c8a258b26ecffede0
:1050f000feec24010ce43400fd1215b98a848b8582
:1051000074101221e21258ecec4d701deff91218d8
:105110002fe9fec3941540027e147d00eefceff9ea
:10512000aa84ab85121847801aeec3941540027efc
:10513000148e217522007821122440121caf7402b3
:1051400012218feef9aa25ab261215bf02417a85ee
:1051500032828533830260f874f71221f874fe12ec
:1051600021a912242c8a848b8512519a60237b08f2
:10517000126224121c4312519afae4f09005c9e01d
:10518000fef91213979005c9e06e6005eef912164c
:105190008baa84ab85121a8180b51251ac90063966
:1051a00012606e2419f582e9126bfd221251b022b1
:1051b0001251b4229005c9e075f037a4f8a9f02285
:1051c00074f71221f874fe1221a912242c124a0d30
:1051d000640b6025e5842419f582e58512520512d9
:1051e00057e9740b05921251fcf91213d39005c9bb
:1051f000e06e6005eef912168b0260eff0059290fa
:1052000005c9e0fe22126e9b74010592f02274f033
:105210001221f874fe1221a912242c74fd12217996
:1052200074011221e2ecf0a3edf089268a228b278b
:105230007a817b01e52275f006a4f8a9f090f79633
:105240001269fff5850592a3a3a3e0f582a3e0f51b
:1052500083858284858385a3e0853284853385f0c8
:105260000592e0f52875210074ff65266007852604
:1052700021800205219005cae0f8e521c39840038a
:1052800002539a852182a882e875f06fa4fcadf0e4
:105290009005cb1254cfe584246ef582e585126b20
:1052a000f9a2e050cee89005c9f09005c7e584f07a
:1052b000a3e585f0853282853383e05407fc7401d1
:1052c000bc00028004c333dcfcf525e01313135447
:1052d0001ffee528a2e45035e812539ff8ed39f996
:1052e000e8241a126bf655256023121a7bea4b60ec
:1052f0005274011221ec0592122457ad27ac227989
:105300001b1217cf740212218f7a007b00e528a2ae
:10531000e5507e9005c9e012539ffced39fdec2469
:1053200022f582ed126bf95525606612519d6004dd
:105330007a818011121a7b8a238b24ae23af24ee4c
:105340004f70067a827b0180510592900891122459
:10535000537b080592126224121c4f740412218f91
:1053600074012522c0e0125fed241912620ad0e018
:10537000f074011221ec0592122457ad27ac22796a
:105380001deefaeffb1217cf740212218f7a007b09
:105390000074ff652670030252737403025a1e756f
:1053a000f037a4f8a9f0900639e02efca3e0340011
:1053b000fdec282274f01221f874fe1221a91224a7
:1053c0002c89218c278d2875220074121221e2e08d
:1053d000fea3e0ff8e828f83e0f525e5c7f524125a
:1053e0005681f52690f79ce0f8e526c398400975ac
:1053f00022018e828f838023e526125b4c70098503
:1054000024c77a887b018049a92612182fe98e8249
:105410008f83f0c395215007752207e4f08022a8fe
:1054200021e0c398f0f8c3952550048823800385b4
:105430002523e523f0ad21fca926aa27ab281218c5
:10544000478524c7e5226005fa7b0480047a007b47
:105450000002440e74f61221f874fe1221a91224df
:105460002ceaf8ecfaedfb752100e5c7fe9005cebd
:10547000e0f5c7e814fd740c1221e2125b4890f7c6
:105480009ce0fcedc39c400b75210188828983e47c
:10549000f0801eed1254c50592e0fca2e7500474a2
:1054a0001080027402888289830592f0ecf9121c44
:1054b0008b8ec7e521a2e05005fa7b0480047a00b8
:1054c0007b00023ecb75f006a4fcadf090f796e0b1
:1054d0002cf584a3e03df5852274f61221f8e9ff4e
:1054e000eaf8ebf9e5c7fe9005cee0f5c7740a12bd
:1054f00021e2e0fbc3941540067a807b0180169080
:10550000f79ce0c398e49950067a017b0480061a60
:10551000eff91217e18ec7023ed974f01221f87428
:10552000fe1221a912242c74fe1221798532828563
:105530003383ecf0a3edf089257e0012567bf52233
:1055400090f79ce0c39522500302565ce52275f06b
:1055500006a4f8a9f0059290f7961256698582275d
:105560008583280592a3a3e0fc24fa600a1460074f
:1055700024fb600302565a74141221e2e0f52174f0
:105580000c6c70030256408527848528850592a3fc
:10559000a3a3e0f582a3e0f583852584aa84858210
:1055a00084858385a3a3a3a3e0f8852123ea25238b
:1055b000f523e43400f524e89523e49524c365d06d
:1055c0003350057e0d02565d0592a3a38582848526
:1055d0008385852182a882790074066c88238924ba
:1055e0007823701b12244074021221e212566dfac5
:1055f000a3e03400fb121caf740212218f80311221
:10560000244074021221e212566d12508caa82ab11
:1056100083121caf740212218fe5212525c0e0857d
:105620002782852883a3a3a3126699d0e00592f070
:105630008527828528835392fea3a3e0640c700b18
:105640008532828533831258ec80047c007d00ab68
:1056500021aa2279ff1217e180050e0e0e7f048524
:1056600026c7eefaeffb0244091266d122125672e7
:105670002a22e0fca3e0fd0592e0227f00e5c7f5c9
:10568000269005cee0f5c7ea142274f41221f874ce
:10569000fe1221a912242c8c848d85e9ffe5c7f523
:1056a00021125681fe90f79ce0c39e500479018040
:1056b00034740e1221e2e0f52260047a0280027a4c
:1056c00080eef9121829e9701ce4f523f5247823fb
:1056d000122440ad22effcaa84ab85eef9121841ea
:1056e000740212218f8521c702422774f31221f818
:1056f00074fe1221a912242c8a218b221257e98ac6
:10570000828b83a3a3a3a3a3a3a3a3a3e0700f12dd
:1057100058f6121895ea4b607a121a8180f1e5c7a3
:10572000fe9005cee0f5c7e584242bf523e585340e
:1057300000f52485238285248312621160538882b8
:105740008983a3a3a3a3a3a3a3a3a3aa82ab83e058
:10575000ff8a848b850592a3a31224577d0188823a
:1057600089830592a3a3e024f7fcea2404faeb342e
:1057700000fb74ff2ff9121841740212218fe9f512
:1057800025aa23ab24121895121a81e525702080d2
:10579000a28ec7852182852283a3a31274e2741985
:1057a000f07900aa21ab221215bf802a121a8112a9
:1057b00058f6121895ea4b70f3e525f52378231275
:1057c00024448f23ac237d007918aa21ab22121622
:1057d00013740112218f853282853383122434742d
:1057e0000212218f7f050222d01257ed221251b0f2
:1057f0009006391257f722e028f584a3e039f585a1
:105800002274f41221f874fe1221a912242c8a8425
:105810008b85858482858583a3a3a3a3a3a3a3a348
:10582000a3ae82af83e5c7f5219005cee0f5c78e24
:10583000828f83e014f990f79ce0c39950217401a2
:10584000f52178211224448e828f831258ec791628
:10585000aa84ab85121613740112218f0242277a93
:1058600002121829e970d9121a7b8a238b24ae23dd
:10587000af24ee4f8521c77003025b79ac84ad8500
:105880001258f612189b858482858583a3a385828e
:10589000218583221258dc122440e5842404fce58f
:1058a000853400fdee2404faef3400fb121caf74c3
:1058b0000212218f852182852283e08e828f83a32d
:1058c000a3f08e828f83a3a3a3a3a3a3a3a3741780
:1058d000f07900eefaeffb1215bf8080e0f523753a
:1058e00024007823228a828b83a3a3a31258f02258
:1058f000e0fca3e0fd22125ff1242bfae93400fb67
:105900002274f01221f874fe1221a912242c74fbc7
:1059100012217974031221e212664189258c278da8
:1059200028126c5e74011221e2125b41e5c7fe9001
:1059300005cee0f5c78c828d83a3a3e0f88821ec27
:105940002521f582ed125a0a858221858322741b56
:10595000c398ff8027e9cfc39fff852782852883cf
:10596000a3a3e02523f0e5212523f521e52234003a
:10597000f52274011221e2125a1704f07401122167
:10598000e2125a17fac395255071ef606e85328284
:1059900085338385822385832478231224407821cc
:1059a000122440eff97c007d00eac333fae433fbb4
:1059b00074071221e2125d35faa3e0fb1218177486
:1059c0000412218fe9f523853282853383e06085d7
:1059d000853284853385059212245b74041221e29a
:1059e000059212668afca3e0fd790eaa27ab281265
:1059f0001613740112218f8ec7800b8ec77900aaef
:105a000027ab281215bf74058014125a0e223400d9
:105a1000f583a3a3a3a322127541e02274021221ed
:105a20008f85328285338302441774f01221f87413
:105a3000fe1221a912242c8c218d22e9fe12567b04
:105a4000f52574141221e2e0f527a3e0f52890f77c
:105a50009ce0c39525500b8527828528837401021d
:105a60005b147a01a925121829e9852782852883e4
:105a7000f06003025b35852582aa8274121221e24e
:105a8000125b4874121221e2125b41ea125b4c7005
:105a90006c05921257e9a884a985e82431126bf6a7
:105aa000705074121221e21258ece8243412620a87
:105ab000ecf0a3edf0e8243612620aeef09005c98e
:105ac000e0ffeef5237823122444ac21ad22ea2432
:105ad000010ae43400fb9005c9e0f91213a974012e
